:020000040800F2
:10000000180C002001080008B9010008BB01000815
:10001000BF010008C3010008C7010008000000007C
:10002000000000000000000000000000CB010008FC
:10003000CD01000800000000CF010008D101000838
:100040001B0800081B0800081B0800081B08000804
:100050001B0800081B0800081B0800081B080008F4
:100060001B0800081B0800081B080008933D000837
:100070001B0800081B0800081B0800081B080008D4
:100080001B0800081B0800081B0800081B080008C4
:100090001B0800081B0800081B0800081B080008B4
:1000A0001B0800081B0800081B0800081B080008A4
:1000B000DD310008F33100081B0800081B080008A8
:1000C0001B0800081B0800081B0800081B08000884
:1000D0001B0800082D4B0008B54D0008498A000890
:1000E000F33A00081B0800081B0800081B0800085A
:1000F0001B0800081B0800081B0800081B08000854
:100100001B0800081B0800081B0800081B08000843
:10011000C34C0008FB3D00081B080008C9930008F9
:100120001B0800081B0800081B0800081B08000823
:100130001B0800081B0800081B0800081B08000813
:100140001B0800081B0800081B0800081B08000803
:100150001B0800081B0800081B0800081B080008F3
:100160001B0800081B0800081B0800081B080008E3
:100170001B0800081B0800081B0800081B080008D3
:100180001B0800081B080008DFF80CD009F07CFFF2
:10019000004800479D010008180C0020A82002F02C
:1001A0002FFE4FF4A06000F03DFB04E000F0DFFA0A
:1001B000052002F087FEF9E7704700BFFEE700BFA9
:1001C000FEE700BFFEE700BFFEE7704770477047DD
:1001D000704700000CB50020019000907648006840
:1001E00040F480307449086000BF7348006800F430
:1001F000003000900198401C0190009818B90198B7
:10020000B0F5A04FF1D16C48006800F4003010B197
:100210000120009001E0002000900098012846D1C4
:1002200065484030006840F08050634940310860C4
:100230006248006840F44040604908605E48083009
:1002400000685D49083108600846006840F40040D5
:1002500008600846006840F4A05008605848091F2C
:100260000860081F006840F08070091F086000BF28
:100270005148006800F000700028F9D040F2057085
:10028000504908604C480830006820F003004A4993
:10029000083108600846006840F00200086000BFAE
:1002A00045480830006800F00C000828F8D10CBD63
:1002B00010B54548006840F47000434908603E4866
:1002C000006840F001003C49086000203A490831CC
:1002D0000860394800683D490840374908603C4893
:1002E000091D0860081F006820F48020091F0860AD
:1002F000002031490C310860FFF76CFF4FF00060BF
:1003000031498039086010BD70B5002000220223F9
:1003100000240221284D08352D6805F00C0020B17D
:10032000042806D0082834D107E02A4D2A4E35602B
:1003300033E02A4D284E35602FE01F4D2D1D2D68CE
:10034000C5F380541C4D2D1D2D6805F03F0154B19F
:10035000224DB5FBF1F5184E361D3668C6F38816EA
:1003600005FB06F209E01B4DB5FBF1F5124E361DFB
:100370003668C6F3881605FB06F20F4D2D1D2D6855
:10038000C5F301456D1C6B00B2FBF3F5124E3560F1
:1003900003E0104D104E356000BF00BF064D08351C
:1003A0002D68C5F303150E4E705D0B4D2D68C540CD
:1003B000094E356070BD00000038024000700040FA
:1003C00008544007003C024088ED00E0FFFFF6FEC5
:1003D000103000240024F4000000002000127A00F5
:1003E0000400002010B5F248007868B108F0EBFD79
:1003F0004FF4FA6002F066FD09F016F84FF4FA6067
:1004000002F060FD012010BD0020FCE7E948007803
:10041000704710B5E8480068022801DA00200CE0B7
:10042000E5480068042801DA012006E0E248006897
:10043000062801DA022000E00320DE490870DF48C8
:100440000068052806DBDD480068092802DA08464E
:100450000078F8B1D94800680A2807DDD748006855
:10046000112803DAD3480078012813D0D348006854
:10047000142807DDD14800681D2803DACD4800782C
:10048000022807D0CD4800681C2815DBC948007831
:10049000032811D1C748007808B9062006E0C548EE
:1004A0000078012801D10C2000E01820C349086021
:1004B00002F053FD012010BD0020FCE710B5C0483C
:1004C00090ED000A08F006FEBE49096889B3BC49F0
:1004D00091ED000ABC49D1ED000A30EE600ABDEE94
:1004E000C00A10EE100A002801DB014600E041427C
:1004F00001291FDAB049086800EBD0714910A0EB60
:10050000410131B903F0A8FA022002F0DBFC01201E
:1005100010BD002409E01E21084608F0C9FD08F0BE
:1005200046FEC82002F0CEFC641C0A2CF3DB01203E
:10053000EEE7FFE70020EBE770B52DED068BFFF748
:1005400068FF78B103F0F9FD60B103F051FD03F0ED
:10055000C0FA02F002FD0A2002F0B4FC0120BDEC5A
:10056000068B70BD08F090FF30B903F041FD09F033
:10057000D9F903F071FAD8E002F0EFFC00209349BA
:1005800008608C48007801283AD18C480068072818
:1005900036DB8F48008898B18D490988A1F1130096
:1005A00009F0E0FB41EC190B9FED8A0B53EC102B8B
:1005B00009F0E1FA41EC180B09F0F2FB83490860FD
:1005C00082490868002801DB014600E041420C290D
:1005D00009DD7E480068002801DD0C2001E06FF095
:1005E0000B007A490860794A1268C2F11E01774A05
:1005F000126802F11E0008F05BFD08F0D8FD94E0DF
:100600006C48007802284ED16C4800680C284ADB00
:1006100072490868002801DB014600E041420C29CC
:1006200009DD6E480068002801DD0C2001E06FF054
:100630000B006A4908606948006809F093FB41ECC7
:100640001A0B9FED670B53EC102B09F094FA41EC59
:10065000190B9FED650B53EC102B09F089FA41EC57
:10066000180B09F09DFB04465C48006809F07AFB12
:1006700041EC1A0B9FED5A0B53EC102B09F07BFA4F
:1006800041EC190B9FED580B53EC102B09F0CCF9F2
:1006900041EC180B09F084FB0546214608F008FDE3
:1006A00008F085FD41E043480078032837D14348EE
:1006B0000068192833DB464909884D4A1288881A90
:1006C00009F050FB41EC190B9FED420B53EC102B42
:1006D00009F051FA41EC180B09F062FB3B49086044
:1006E0000868002801DB014600E041420C2909DDD1
:1006F00036480068002801DD0C2001E06FF00B0097
:1007000032490860314A1268C2F11E012F4A12684C
:1007100002F11E0008F0CCFC08F049FD05E01E21A6
:10072000084608F0C5FC08F042FD002017E710B5A8
:1007300008F03DFD03F001FD18B102F00EFC0120B0
:1007400010BD0020FCE710B500240AE01E21084679
:1007500008F0AEFC08F02BFD4FF47A7002F0B2FB0B
:10076000641C032CF2DB08F0FBFB012010BD10B56C
:100770002049214A127851F82200804720B11E48B2
:100780000078401C1C4908701B4800781B490978F8
:10079000884204DB00201849087003F029FC10BDD2
:1007A0000020154908707047134800787047000012
:1007B00006010020180000208C00002014000020FA
:1007C0009C00002068010020A00000201C000020E8
:1007D0001A0100209A9999999999D93F20000020EF
:1007E000CDCCCCCCCCCCDC3F0000000000003E40A7
:1007F0001C01002024000020610000206000002077
:100800000648804706480047FEE7FEE7FEE7FEE7AA
:10081000FEE7FEE7FEE7FEE7FEE7FEE7B1020008BF
:100820008901000832490143324A1160704770B5AE
:10083000002100230F22C4781CB32E4C246804F43A
:10084000E064C4F5E064C4F30721C1F10404E3B239
:100850000A4144789C40E1B28478144021430C075B
:10086000210E254C05786155047804F01F050124FC
:10087000AC4005786D11AD0005F1E025C5F80041EB
:1008800009E0047804F01F050124AC401B4D0678F4
:10089000761145F8264070BD194A0A400243154BAF
:1008A0001B1F1A60704739B1124A121D12680243A9
:1008B000104B1B1D1A6006E00E4A121D126882437F
:1008C0000C4B1B1D1A607047042808D14FF0E02123
:1008D000096941F004014FF0E022116107E04FF097
:1008E000E021096921F004014FF0E0221161704715
:1008F0000000FA050CED00E000E400E080E100E01B
:1009000080FFFF1F016821F00101016000210160EB
:1009100041608160C160016121214161DB49884200
:1009200004D13D21D94A103A91608CE0D749183161
:10093000884205D14FF47461D44A103A916082E044
:10094000D2493031884205D14FF47411CF4A103A60
:10095000916078E0CD494831884205D14FF074610B
:10096000CA4A103A91606EE0C8496031884204D1A9
:10097000C749C64A103AD16065E0C4497831884217
:1009800004D1C449C14A103AD1605CE0BF499031FA
:10099000884204D1C049BD4A103AD16053E0BB49F6
:1009A000A831884205D14FF03D51B84A103AD16084
:1009B00049E0BA49884204D13D21B84A083A116059
:1009C00041E0B6491831884205D14FF47461B34A09
:1009D000083A116037E0B1493031884205D14FF40F
:1009E0007411AE4A083A11602DE0AC494831884292
:1009F00005D14FF07461A94A083A116023E0A74974
:100A00006031884204D1A249A44A121F11601AE041
:100A1000A2497831884204D19E49A04A121F116030
:100A200011E09E499031884204D19B499B4A121F94
:100A3000116008E09949A831884204D14FF03D5136
:100A4000964A121F1160704710B500220268944B3D
:100A50001A40CC680B6823434C6923438C692343B9
:100A6000CC6923430C6A23434C6A23438C6A234397
:100A70004C6B23438C6B23431A430260426922F080
:100A80000702D1E90B3423431A4342610B694360E7
:100A90004B6883608B68C36010BD002101604160BA
:100AA0008160C160016141618161C1610162416236
:100AB0008162C162016341638163704721B1026851
:100AC00042F00102026003E0026822F001020260CB
:100AD000704721B1026842F40042026003E00268FC
:100AE00022F400420260704721B1026842F0200205
:100AF000026003E0026822F0200202607047416059
:100B000070470146486880B2704722B1036843F4D9
:100B10000023036003E0036823F400230360016102
:100B2000704721B1026842F48022026003E002684B
:100B300022F48022026070470AB1016100E0C160C6
:100B40007047014600200A6802F400220AB1012021
:100B500000E000207047014600200A6802F0010210
:100B60000AB1012000E000207047014600204A69D8
:100B700002F03800704730B503460A4600200024D2
:100B8000464DAB4202D24149103901E04349103988
:100B900002F000550DB14C6800E00C68414D2C404E
:100BA00004EA02050DB1012000E0002030BD02463C
:100BB0003A4B9A4202D23548103801E03748103893
:100BC00001F000531BB1374B0B40C36002E0354BC3
:100BD0000B408360704710B501F080034BB122B128
:100BE000436943F08003436103E0436923F08003DA
:100BF000436180290BD02AB1036801F01E0423430E
:100C0000036004E0036801F01E04A343036010BD09
:100C100070B50246002000240025204EB24202D2C8
:100C20001A4B103B01E01D4B103B1F4E0E4036B1DE
:100C30001E2606EAD124166806EA040502E0566973
:100C400006F0800501F000560EB15C6800E01C68FB
:100C5000144E344004EA010616B10DB1012000E043
:100C6000002070BD02460D4B9A4202D20748103850
:100C700001E00A48103801F000531BB1094B0B404A
:100C8000C36002E0074B0B40836070471060024076
:100C90003D000020400F002000003D201064024075
:100CA0003F801CF07D0F7D0F3C0F3C0F0020414921
:100CB0000860091D0860091D0860091D08603E489C
:100CC0003C4914310860704700213A498279002A72
:100CD0003AD00A46126803689A430B461A600A1D06
:100CE000126803689A430B1D1A60027911440A685E
:100CF00003681A430A602F4A0832126803689A434D
:100D00002C4B08331A601A1D126803689A43294B4A
:100D10000C331A604279102A0ED11A1F1268036828
:100D20001A43244B08331A601A1D126803681A43C9
:100D3000204B0C331A600DE01E49427911440A68B9
:100D400003681A430A6005E0027911440A680368DF
:100D50009A430A6070470021016001710C214171C2
:100D60000021817170471349103109680143114A0C
:100D7000103211607047014600200E4A143212688A
:100D80000A400AB1012000E00020704709491431EF
:100D90000860704701460020064A143212680A4073
:100DA0000AB1012000E000207047024914310860B8
:100DB00070470000003C0140FFFF7F0030B943F264
:100DC000DB028100A1F1C0410A6005E043F2D202DA
:100DD0008100A1F1C0410A606FF07042411C89009E
:100DE000A1F1C0410A608100A1F1C041C1F8042114
:100DF0007047D0E901121143C268114302691143DF
:100E00004269114382691143C2691143026A114365
:100E1000426A1143826A1143C26A1143026B114351
:100E200002689200A2F1C0421160816808290BD1CA
:100E300001688900A1F1C041096841F040020168E0
:100E40008900A1F1C0410A60416B0968426B526898
:100E500041EA0211426B926841EA0221426B928997
:100E600041EA0241426B128A41EA0251426B127D11
:100E700041EA0261426B926911430268521C92007E
:100E8000A2F1C0421160C16AB1F5804F1BD1816BE4
:100E90000968826B526841EA0211826B926841EAEA
:100EA0000221826B128A41EA0251826B127D41EA71
:100EB0000261826B9269114302689200A2F1C04202
:100EC000C2F8041107E06FF0704201688900A1F1D7
:100ED000C041C1F804217047002101600221416036
:100EE00000218160C160016141618161C161016274
:100EF0004FF480514162490081620021C162016367
:100F0000F84941638163704751B18200A2F1C04248
:100F1000126842F001038200A2F1C042136009E0AE
:100F20008200A2F1C0421268EF4B1A408300A3F185
:100F3000C0431A60704710280AD118214FF0204290
:100F40001166402151664FF0FC319166D16610E088
:100F50001821E64A116040214FF02042C2F8841067
:100F60004FF0FC31E14A083211604FF02042C2F8E4
:100F70008C10704730B5002100220023446844F0F3
:100F8000080485682C43C5682C4305692C434569D2
:100F900044EA4524856944EA4531C4692468C56941
:100FA0006D6844EA0524C5692D8944EA0544C5698C
:100FB0002D7B44EA0562046A2468056A6D6844EA88
:100FC0000524056A2D8944EA0544056A2D7B44EA17
:100FD00005630468102C05D14FF020442166A266F9
:100FE000E36608E0C14C21604FF02044C4F888203B
:100FF000BE4C0C34236030BD1021016000214160E3
:101000008160C160016141618161FC21C26911603F
:10101000C2695160C2699160C269D160026A11609F
:10102000026A5160026A9160026AD160704799B1A8
:10103000102808D14FF02042126E42F004024FF007
:1010400020431A661DE0A94A126842F004024FF0DC
:101050002043C3F8802014E0102809D14FF020422B
:10106000126EA14BDB1E1A404FF020431A6608E0B7
:101070009E4A12689C4BDB1E1A404FF02043C3F877
:101080008020704799B1102808D14FF02042126E8D
:1010900042F040024FF020431A661DE0934A126866
:1010A00042F040024FF02043C3F8802014E01028A3
:1010B00009D14FF02042126E8B4B3F3B1A404FF04C
:1010C00020431A6608E0894A1268874B3F3B1A4062
:1010D0004FF02043C3F880207047014600201029BC
:1010E00003D14FF02042506F02E0804A1432106862
:1010F000704718207D492031086000200906C1F89A
:10110000A4004FF0FC30794928310860091D0860BF
:10111000091D08607047016841F01001426841EA0A
:101120004221826841EA4231704A20321160C1682E
:101130000968C268526841EA0221C268128941EA1C
:101140000241C268127B41EA0261684A283211609A
:10115000016909680269526841EA0221026912893B
:1011600041EA02410269127B41EA02615F4A2C3284
:101170001160416909684269526841EA0221426985
:10118000128941EA02414269127B41EA02614FF051
:101190002042C2F8B01070470021016041608160B8
:1011A000FC21C2681160C2685160C2689160C26867
:1011B000D16002691160026951600269916002693F
:1011C000D16042691160426951604269916042692F
:1011D000D160704748B145492031096841F00401A8
:1011E0004FF02042C2F8A01009E0404920310968C0
:1011F0003D4AD21E11404FF02042C2F8A010704765
:1012000010B5F2B1102807D14FF020435B6E0B43AD
:101210004FF02044636632E0B0F5807F08D1334B55
:101220001B1D1B680B434FF02044C4F8843026E09C
:101230002E4B24331B680B434FF02044C4F8A430DA
:101240001DE0102807D14FF020435B6E8B434FF019
:101250002044636613E0B0F5807F08D1234B1B1D4B
:101260001B688B434FF02044C4F8843007E01F4BC9
:1012700024331B688B434FF02044C4F8A43010BDC6
:1012800010B5024600200023102A03D14FF020445D
:10129000636E09E0B2F5807F03D1144C241D2368EE
:1012A00002E0124C2434236803EA01040CB101204B
:1012B00000E0002010BD102807D14FF02042526EF0
:1012C0008A434FF020435A6619E0B0F5807F0FD172
:1012D000064A121D12688A434FF02043C3F8842047
:1012E0000DE0000074B00008FEFF0F00800000A0B9
:1012F000234A12688A434FF02043C3F8A420704762
:1013000070B502460020002300240025102A03D1D6
:101310004FF02046736E08E0B2F5807F03D1184E7F
:10132000203E336801E0164E336803EA010403EA05
:10133000D10514B10DB1012000E0002070BD1028CE
:1013400008D14FF02042526E22EAD1024FF02043E2
:101350005A6614E0B0F5807F09D1094A203A126834
:1013600022EAD1024FF02043C3F8842007E0044A68
:10137000126822EAD1024FF02043C3F8A42070473C
:10138000A40000A010B504469848844208D1012169
:10139000084600F086FB0021012000F082FB76E089
:1013A0009348844208D10121022000F07AFB0021F9
:1013B000022000F076FB6AE08E48844208D10121C9
:1013C000042000F06EFB0021042000F06AFB5EE0C8
:1013D0008948844208D10121082000F062FB0021E5
:1013E000082000F05EFB52E08448844208D10121CD
:1013F000102000F056FB0021102000F052FB46E0C8
:101400007F48844208D10121202000F04AFB0021BE
:10141000202000F046FB3AE07A48844208D10121BE
:10142000402000F03EFB0021402000F03AFB2EE07F
:101430007548844208D10121802000F032FB002150
:10144000802000F02EFB22E07048844208D1012168
:10145000801500F026FB0021A01500F022FB16E00D
:101460006B48844208D10121401500F01AFB00218D
:10147000601500F016FB0AE06648844207D101219E
:10148000001500F00EFB0021201500F00AFB10BD36
:10149000F0B50A4600210023002400BF3DE00125ED
:1014A00005FA01F3156805EA03049C4234D1056886
:1014B0004F000326BE40B543056015794E00B54088
:1014C0000668354305601579012D02D01579022D86
:1014D00016D185684F000326BE40B5438560557917
:1014E0004E00B540866835438560456801268E40CC
:1014F000B5434560456896798E40B6B23543456040
:10150000C5684F000326BE40B543C560D5794E007F
:10151000B540C6683543C560491C1029BFD3F0BD2E
:101520004FF6FF7101600021017141718171C1713C
:10153000704708B54FF480320092009A0A43009237
:10154000009AC261C161009AC261C2690092C26917
:10155000009208BD0246002013690B400BB1012028
:1015600000E0002070470146086980B270470246DB
:10157000002053690B400BB1012000E000207047B0
:101580000146486980B270470183704741837047C4
:101590000AB1018300E041837047416170474269AD
:1015A0004A4042617047F0B5002300244D07ED0E1C
:1015B00002FA05F3CE1000F1200555F826504E072B
:1015C000F70E0F26BE40B543CF1000F1200646F8B7
:1015D0002750CE1000F1200555F8265045EA0304A7
:1015E000CE1000F1200545F82640F0BD0000024075
:1015F0000004024000080240000C024000100240BB
:101600000014024000180240001C0240002002406A
:101610000024024000280240F948006840F0010020
:10162000F74908600020F64908310860F44800686E
:10163000F4490840F2490860F348091D0860F3487E
:10164000EF4984310860F0481038091D0860EC4803
:10165000006820F48020EA4908600020E8490C3145
:101660000860E7498C31086070470021E44A921C09
:10167000117011460870704710B501460022002312
:1016800000204A11012A02D1DD4C236808E0022A19
:1016900003D1DB4C7034236802E0D94C74342368E6
:1016A00001F01F02012494401C400CB1012000E015
:1016B000002010BD38B5002000900024002500BF98
:1016C0003120FFF7D9FF05460098401C0090009894
:1016D000B0F5A04F01D0002DF2D03120FFF7CCFFA4
:1016E00008B1012400E00024204638BD0146002056
:1016F000C34A106820F0F80040EAC100106070474B
:10170000C349086070470021BD4A703211701170E2
:10171000012802D004280AD104E00121B84A70321D
:10172000117005E00521B64A7032117000E000BF6B
:1017300000BF7047B7490860704770B5049C41EA24
:1017400082150126C6EB530645EA0645054345EAE0
:101750000465AB4E361D356070BDAD4908667047F7
:10176000820142EA0172A64B84331A607047A8498D
:101770008866704710B5830143EA016343EA027348
:101780009F4C8834236010BDA14908677047A04969
:10179000C864704702460020994B0833186820F04F
:1017A000EC6042EA01031843954B08331860704718
:1017B00002460020924B0833186820F0784042EA35
:1017C000010318438E4B0833186070470146002010
:1017D0008B4A0832106820F00300084310607047FD
:1017E00087480830006800F00C0070470146002070
:1017F000834A0832106820F0F000084310607047F8
:10180000014600207E4A0832106820F4E050084368
:101810001060704701460020794A0832106820F4B1
:10182000604040EAC10010607047F0B5002100221E
:101830000024022500260223714F08373F6807F075
:101840000C0121B1042905D0082937D105E0724FD8
:10185000076036E0714F076033E0694F3F1D3F6816
:10186000C7F38056664F3F1D3F6807F03F036EB1D8
:101870006A4FB7FBF3F7DFF888C10CF1040CDCF812
:1018800000C0CCF3881C07FB0CF40CE0624FB7FBE4
:10189000F3F7DFF86CC10CF1040CDCF800C0CCF3FA
:1018A000881C07FB0CF4564F3F1D3F68C7F30147E8
:1018B0007F1C7D00B4FBF5F7076002E0564F076020
:1018C00000BF00BF4E4F08373F6807F0F00109091D
:1018D000534F7A5C0768D7404760494F08373F68E5
:1018E00007F4E051890A4E4F7A5C4768D740876019
:1018F000434F08373F6807F46041490B484F7A5C13
:101900004768D740C760F0BD002100F44072B2F5CF
:10191000407F0AD13A4A0832116821F4F811414A4D
:1019200002401143364A08321160354A703212685B
:10193000C0F30B031A43324B70331A6070473549BA
:101940004439086070473349403908607047364968
:101950000860704701460020294A8C32106820F048
:101960001F004A1E1043264A8C3210607047014601
:101970000020234A8C32106820F4F8504A1E40EAB6
:1019800002201F4A8C3210607047014600201C4A1A
:101990008C32106820F440100843106070470146F4
:1019A0000020174A8C32106820F440000843106071
:1019B000704701460020124A8C32106820F44030F3
:1019C00008431060704719490860704739B10C4AE4
:1019D0003032126802430A4B30331A6006E0084A7C
:1019E000303212688243064B30331A607047F9B1C7
:1019F000034A343212680243014B34331A601CE04C
:101A000000380240FFFFF6EA1030002400300020CA
:101A100000004742800E47420024F40000127A0082
:101A200062000020FFFCFF0F5C014742E0114742CB
:101A30008F4A126882438E4B1A60704739B18C4AC4
:101A4000121D126802438A4B1B1D1A6006E0884A69
:101A5000121D12688243864B1B1D1A60704739B1F4
:101A6000834A0C3212680243814B0C331A6006E041
:101A70007F4A0C32126882437D4B0C331A607047E8
:101A800039B17B4A103212680243794B10331A6025
:101A900006E0774A103212688243754B10331A60A1
:101AA000704739B1724A243A12680243704B243BA2
:101AB0001A6006E06E4A243A126882436C4B243B5B
:101AC0001A60704739B16A4A203A12680243684B7B
:101AD000203B1A6006E0664A203A12688243644B53
:101AE000203B1A60704739B1614A1C3A12680243C0
:101AF0005F4B1C3B1A6006E05D4A1C3A1268824349
:101B00005B4B1C3B1A60704739B1594A143A126852
:101B10000243574B143B1A6006E0554A143A1268C8
:101B20008243534B143B1A60704739B1504A103A04
:101B3000126802434E4B103B1A6006E04C4A103AC2
:101B4000126882434A4B103B1A60704739B1484AC9
:101B50001C3212680243464B1C331A6006E0444AAA
:101B60001C3212688243424B1C331A60704739B1F1
:101B70003F4A2032126802433D4B20331A6006E090
:101B80003B4A203212688243394B20331A60704737
:101B900039B1374A243212680243354B24331A6074
:101BA00006E0334A243212688243314B24331A60F0
:101BB000704739B12E4A2C32126802432C4B2C3319
:101BC0001A6006E02A4A2C3212688243284B2C33D2
:101BD0001A60704739B1264A303212680243244BEA
:101BE00030331A6006E0224A303212688243204BBA
:101BF00030331A607047012808D11D493C3109680B
:101C000041F008011A4A3C32116007E018493C31A2
:101C1000096821F00801164A3C321160704739B159
:101C2000134A273A12780243114B273B1A7006E0F9
:101C30000F4A273A127882430D4B273B1A707047A0
:101C40000B484030006840F080700949403108601E
:101C5000704701460020064A283A12680A400AB135
:101C6000012000E0002070470149263908707047C4
:101C70003438024010B501218803FFF756FF0021D8
:101C80004FF48040FFF751FF10BD1C4908607047BA
:101C90001B490862704730B500228B071C0F0F23C9
:101CA00003FA04F2154B08338C1053F82430934395
:101CB000124C08348D1044F8253023468C1053F80C
:101CC00024308C07240F00FA04F423430B4C08340F
:101CD0008D1044F8253030BD0949DC31086070476B
:101CE000084908607047002004492031096801F460
:101CF000807109B1012000E00020704700380140E8
:101D0000000027420004274210B50446FE488442E2
:101D100008D101210846FFF708FF00210120FFF745
:101D200004FF9DE0B4F1804F08D101210846FFF780
:101D3000EBFE00210120FFF7E7FE91E0F34884422B
:101D400008D101210220FFF7DFFE00210220FFF76A
:101D5000DBFE85E0EE48844208D101210420FFF734
:101D6000D3FE00210420FFF7CFFE79E0E94884424A
:101D700008D101210820FFF7C7FE00210820FFF746
:101D8000C3FE6DE0E448844208D101211020FFF732
:101D9000BBFE00211020FFF7B7FE61E0DF48844260
:101DA00008D101212020FFF7AFFE00212020FFF7FE
:101DB000ABFE55E0DA48844208D101210220FFF74A
:101DC000B4FE00210220FFF7B0FE49E0D54884426E
:101DD00009D101210804FFF7A8FE00214FF480304B
:101DE000FFF7A3FE3CE0D048844209D1012148041A
:101DF000FFF79BFE00214FF40030FFF796FE2FE027
:101E0000CA48844209D101218804FFF78EFE0021CF
:101E10004FF48020FFF789FE22E0C548844208D1B4
:101E200001214020FFF770FE00214020FFF76CFEEB
:101E300016E0C048844208D101218020FFF764FEEB
:101E400000218020FFF760FE0AE0BB48844207D1F2
:101E500001218015FFF758FE0021A015FFF754FE61
:101E600010BD00220288A84B98420ED0AC4B98427D
:101E70000BD0B0F1804F08D0A44B984205D0A44BB2
:101E8000984202D0A34B984204D14FF68F731A4068
:101E90004B881A43A04B984207D0A04B984204D0DD
:101EA0004FF6FF431A400B891A4302804B68C36206
:101EB0000B880385944B984202D0994B984201D1EC
:101EC0008B7A03860123838270474FF0FF31416094
:101ED00000210180018141808172704701858282E9
:101EE00070470A46002101884FF68F73194011434D
:101EF0000180704741627047C16270470146486A7D
:101F000070470146088D704721B1028842F00202F5
:101F1000028004E002884FF6FD731A400280704789
:101F200021B1028842F00402028004E002884FF6E8
:101F3000FB731A400280704721B1028842F0800290
:101F4000028004E002884FF67F731A4002807047D7
:101F500002884FF6F7731A40028002880A43028013
:101F6000704702884FF6FF431A40028002880A43F6
:101F70000280704721B1028842F00102028004E031
:101F800002884FF6FE731A400280704770B5002435
:101F900000220023058C4FF6FE7635400584028C26
:101FA0008388048B4FF68F752C40B51E2C400D880E
:101FB0002C43751E2A408D892A434D882A43524D51
:101FC000A84202D0564DA84213D14FF6F7752A40C9
:101FD000CD892A434FF6FB752A408D882A434FF658
:101FE000FF652B404FF6FF552B400D8A2B434D8A42
:101FF0002B43838004838D684563028470BD70B574
:10200000002400220023058C4FF6EF76354005842E
:10201000028C8388048B48F6FF752C404FF6FF45F1
:102020002C400D884FF6FF7606EA05252C434FF627
:10203000DF752A408D8906EA05152A434D8806EA90
:1020400005152A43304DA84202D0354DA8421DD176
:102050004FF67F752A40CD894FF6FF7606EA0515C3
:102060002A434FF6BF752A408D8806EA05152A4394
:102070004FF6FF352B404FF2FF752B400D8A06EAD5
:1020800085052B434D8A06EA85052B43838004830F
:102090008D688563028470BD70B500240022002322
:1020A000058C4FF6FF6635400584028C8388848B4F
:1020B0004FF68F752C404FF6FC752C400D882C4345
:1020C0004FF6FF552A408D894FF6FF7606EA052523
:1020D0002A434D8806EA05252A430B4DA84202D023
:1020E0000F4DA84238D14FF2FF752A40CD894FF6E7
:1020F000FF7606EA05252A434FF6FF352A408D88EC
:1021000006EA05252A4319E00000014000040040CA
:1021100000080040000C0040001000400014004087
:1021200000040140004001400044014000480140DB
:1021300000180040001C0040002000404EF6FF75D3
:102140002B404DF6FF752B400D8A06EA05152B43F3
:102150004D8A06EA05152B43838084838D68C56309
:10216000028470BD70B5002200230024058C4EF659
:10217000FF7635400584038C8488828B48F6FF7592
:102180002A404FF6FF452A400D884FF6FF7606EAB3
:1021900005252A434DF6FF752B408D8906EA053546
:1021A0002B434D8806EA05352B43FE4DA84202D04D
:1021B000FD4DA84208D14BF6FF752C400D8A4FF615
:1021C000FF7606EA85152C43848082838D6805643A
:1021D000038470BD00210180418081808160818104
:1021E000C18101824182704770B5034600200024FE
:1021F0001846183001258D40ACB21D8CA5431D84B6
:1022000009B108290AD100EB610005684FF68F7605
:10221000354005600568154305600FE00D1FC5F3E7
:102220004E052844056848F6FF7635400560056888
:102230004FF6FF7606EA02263543056070BD41631E
:10224000704781637047C1637047016470470A46F5
:102250000021018B4FF68F731940114301837047A2
:102260000A460021018B48F6FF7319404FF6FF73B1
:1022700003EA02231943018370470A460021818B38
:102280004FF68F7319401143818370470A4600212E
:10229000818B48F6FF7319404FF6FF7303EA022360
:1022A0001943818370470A460021018B4FF6F7736B
:1022B00019401143018370470A460021018B4FF2F8
:1022C000FF7319404FF6FF7303EA0223194301839A
:1022D00070470A460021818B4FF6F773194011436E
:1022E000818370470A460021818B4FF2FF731940AA
:1022F0004FF6FF7303EA02231943818370470A46AE
:102300000021018B4FF6FB73194011430183704785
:102310000A460021018B4FF6FF3319404FF6FF7339
:1023200003EA02231943018370470A460021818B87
:102330004FF6FB7319401143818370470A46002111
:10234000818B4FF6FF3319404FF6FF7303EA0223E8
:102350001943818370470A460021018B4FF67F7332
:1023600019401143018370470A460021018BC1F3D4
:102370000E014FF6FF7303EA0223194301837047EE
:102380000A460021818B4FF67F73194011438183E8
:1023900070470A460021818BC1F30E014FF6FF738F
:1023A00003EA02231943818370470A460021018C06
:1023B0004FF6FD7319401143018470470A4600210E
:1023C000018C4FF6F77319401143018470470A4698
:1023D0000021018C4FF6DF7319404FF6FF7303EABB
:1023E00002131943018470470A460021018C4FF6FD
:1023F0007F7319404FF6FF7303EA021319430184F8
:1024000070470A460021018C4FF6FF5319404FF6E2
:10241000FF7303EA02231943018470470A4600212F
:10242000018C4FF2FF7319404FF6FF7303EA02234A
:102430001943018470470A460021018C4DF6FF7351
:1024400019404FF6FF7303EA0233194301847047C2
:1024500030B5002301248C40A3B2048C9C43048437
:10246000048C02FA01F5ADB22C43048430BD30B5C2
:10247000002304248C40A3B2048C9C430484048C69
:1024800002FA01F5ADB22C43048430BD828B4FF2C9
:10249000FF331A408283828B4FF6FF7303EA0123D6
:1024A0001A4382837047F0B50C461546002100227E
:1024B0000026078C4EF6FF7C07EA0C070784818B09
:1024C000028C4FF6FF7707EA043640F6FF473940A3
:1024D0004FF6FF7707EA052739434FF6FF7707EAFC
:1024E0000337394345F6FF773A4046F480573A437D
:1024F00081830284F0BD828B4FF6F3731A4082838E
:10250000828B0A4382837047F0B50C461546002142
:1025100000220026078C4FF6FF6C07EA0C070784A1
:10252000818B028C4FF6FF7707EA04264FF60C7773
:1025300039404FF6FF7707EA03172F4339434FF22D
:10254000FF573A4046F480773A4381830284F0BDD6
:10255000028B4FF2FF331A400283028B4FF6FF7358
:1025600003EA01231A4302837047F0B50C4615466F
:10257000002100220026078C4FF6EF7C07EA0C07AB
:102580000784018B028C4FF6FF7707EA041640F6AA
:10259000FF4739404FF6FF7707EA033739434FF6D5
:1025A000FF7703E0000001400004014007EA05272F
:1025B00039434FF65F773A4046F010073A430183BC
:1025C0000284F0BD028B4FF6F3731A400283028B34
:1025D0000A4302837047F0B50C46154600210022DD
:1025E000068C4FF6FE773E400684018B028C4FF638
:1025F0000C7631407E1C06EA03162E4331434FF61B
:10260000F576324044F00106324301830284F0BD86
:1026100070B505460C46208850B92389A288618888
:102620002846FFF7D8FFE1882846FFF7CBFF25E0D3
:10263000208804280AD12389A28861882846FFF7C8
:1026400094FFE1882846FFF783FF17E020880828D9
:102650000AD12389A28861882846FFF755FFE188BF
:102660002846FFF748FF09E02389A28861882846A9
:10267000FFF719FFE1882846FFF708FF70BD00212A
:1026800001804180012181800021C180018170474A
:102690002DE9F04105460C4600260127608808B95F
:1026A000022600E00026A088012801D1022700E0D0
:1026B00001272088A0B92389A28861882846FFF7CE
:1026C0008AFFE1882846FFF77DFF23893A46314695
:1026D0002846FFF74AFFE1882846FFF739FF13E055
:1026E0002389A28861882846FFF73FFFE1882846B2
:1026F000FFF72EFF23893A4631462846FFF76BFF46
:10270000E1882846FFF75EFFBDE8F0810146486B8F
:1027100070470146886B70470146C86B7047014699
:10272000086C70470A884B881A438B881A43CB88F9
:102730001A430B891A434B891A438B891A43A0F811
:10274000442070470021018041808180C180018147
:1027500041818181704731B1B0F8442042F4004298
:10276000A0F8442005E0B0F84420C2F30E02A0F81F
:102770004420704721B1828842F00402828004E044
:1027800082884FF6FB731A408280704721B182889D
:1027900042F00102828004E082884FF6FE731A4004
:1027A000828070471AB183890B43838102E0838959
:1027B0008B43838170478182704702460020138AD1
:1027C0000B400BB1012000E000207047CA43028299
:1027D000704730B50246002000230024158A05EA20
:1027E0000103958905EA010413B10CB1012000E051
:1027F000002030BDCA430282704741EA0203A0F8BC
:10280000483070471AB183890B43838102E0838982
:102810008B438381704721B1828842F00802828015
:1028200004E082884FF6F7731A408280704701896E
:102830004FF6F8721140018170470A460021018964
:102840004FF68F73194011430181704730B504462C
:102850000D4629462046FFF7F0FF208940F007008B
:10286000208130BD2DE9F04104460D4616461F4635
:10287000602D06D13B46012231462046FFF775FE0A
:1028800005E03B46012231462046FFF7A4FE2946DB
:102890002046FFF7D2FF208940F007002081BDE8E5
:1028A000F08130B50C4600210189C9B24FF6FF75A1
:1028B00005EA0325154325432943018130BD2DE950
:1028C000F04105460E4617469846002443463A46D0
:1028D00031462846FFF7E5FF2C894FF6F870044093
:1028E00044F007044FF68F70044044F070042C81CC
:1028F000BDE8F081F0B504460D4616461F463B463E
:10290000324629462046FFF7CCFF208940F480401C
:102910002081F0BD82884FF68F731A4082808288B2
:102920000A438280704702894FF6F8731A40028189
:1029300002890A430281704702894FF67F731A4069
:10294000028102890A4302817047F0B50C461546A0
:102950001E460021002200230189028B038C4FF6C2
:10296000F877394021434FF6FC473A4040F20117CF
:102970003A434FF6DD773B404FF6FF7707EA0617FD
:102980002F433B43018102830384F0BD21B1828840
:1029900042F08002828004E082884FF67F731A4002
:1029A00082807047A0F850107047000010B50446B0
:1029B000FA48844208D101211020FFF7B6F800211F
:1029C0001020FFF7B2F857E0F548844209D1012101
:1029D0004804FFF799F800214FF40030FFF794F80E
:1029E0004AE0F048844209D101218804FFF78CF8BD
:1029F00000214FF48020FFF787F83DE0EA48844249
:102A000009D10121C804FFF77FF800214FF400200D
:102A1000FFF77AF830E0E548844209D10121080542
:102A2000FFF772F800214FF48010FFF76DF823E0F4
:102A3000DF48844208D101212020FFF776F80021E9
:102A40002020FFF772F817E0DA48844209D101210B
:102A50008807FFF759F800214FF08040FFF754F83E
:102A60000AE0D548844207D101214005FFF74CF820
:102A700000216005FFF748F810BD2DE9FF47054626
:102A80000E460024A14600BFA046B08900B100BF99
:102A90002C8A24F44054F08804432C82AC8941F2FF
:102AA0000C608443B088318908437189084304432A
:102AB000AC81AC8A24F44074B0890443AC8268468B
:102AC000FEF7B3FEB548854202D0B948854202D12F
:102AD000DDF80C9001E0DDF80890A88900F40040D2
:102AE00040B109EBC90000EB091031684900B0FBA7
:102AF000F1F707E009EBC90000EB09103168890024
:102B0000B0FBF1F76420B7FBF0F004012009642169
:102B100001FB1078A88900F4004040B1322000EB9E
:102B2000C800B0FBF1F000F00700044308E03220D9
:102B300000EB08106421B0FBF1F000F00F0004433B
:102B40002C81BDE8FF874FF4165101600021818080
:102B5000C18001810C21418100218181704710B524
:102B600002460020108A20F470600B884C882343B2
:102B70008C882343CC8823431843108210BD002146
:102B8000018041808180C180704721B1828942F4F7
:102B90000052828104E082894DF6FF731A408281DF
:102BA0007047028B02F47F420283028B0A43028346
:102BB000704721B1828942F40042828103E0828918
:102BC000C2F30E028281704721B1828A42F4006210
:102BD000828204E0828A4FF2FF731A408282704739
:102BE000C1F308028280704701468888C0F308005C
:102BF0007047028A4FF6F0731A400282028A0A4333
:102C00000282704721B1828942F00202828104E08F
:102C100082894FF6FD731A408281704782894FF294
:102C2000FF731A40828182890A4382817047028A37
:102C30004FF6DF731A400282028A0A43028270470B
:102C400021B1028A42F48042028204E0028A4BF6F9
:102C5000FF731A4002827047818941F0010181812E
:102C6000704721B1828A42F00802828204E0828A9F
:102C70004FF6F7731A4082827047028BD2B20283FA
:102C8000028B42EA01220283704721B1828A42F01C
:102C90002002828204E0828A4FF6DF731A40828229
:102CA000704721B1828A42F01002828204E0828A57
:102CB0004FF6EF731A4082827047828A4FF6FB7399
:102CC0001A408282828A0A438282704721B1828AB4
:102CD00042F00202828204E0828A4FF6FD731A40BB
:102CE000828270471AB1838A0B43838202E0838A0F
:102CF0008B4383827047F0B50346002400260025ED
:102D0000002040F66A17B94200D100BF1846C1F34F
:102D1000421401F01F06012707FA06F5012C01D124
:102D20000C3004E0022C01D1103000E014301AB154
:102D300007682F43076002E00768AF430760F0BDF4
:102D400002460020B1F5007F00D100BF13880B4080
:102D50000BB1012000E00020704701F40072B2F5D1
:102D6000007F00D100BFCA430280704770B50246A1
:102D7000002400230025002040F66A16B14200D14D
:102D800000BFC1F3421501F01F03012606FA03F349
:102D9000012D13D19689334017E000000010014047
:102DA0000044004000480040004C004000500040FB
:102DB0000014014000780040007C0040022D02D148
:102DC000168A334001E0968A33400C12012606FA37
:102DD00004F41688344013B10CB1012000E0002047
:102DE00070BD10B50022002340F66A14A14200D144
:102DF00000BF0A1201249440A3B2DC43048010BD3A
:102E000010B504466FF00400FDF75EFDE11704EB1A
:102E10005171C1F3C701394A11701046007800EBB7
:102E20004001C1EBC0104FF6FF7101EAC000344908
:102E3000088010BD0146314A12784A434FF0E02322
:102E40005A6100229A611A46126942F001021A611F
:102E500000BF4FF0E022106900F001021AB100F447
:102E60008032002AF5D04FF0E022126922F00102F0
:102E70004FF0E0231A6100229A6170470146204A10
:102E800012884A434FF0E0235A6100229A611A46A1
:102E9000126942F001021A6100BF4FF0E02210698E
:102EA00000F001021AB100F48032002AF5D04FF090
:102EB000E022126922F001024FF0E0231A610022A1
:102EC0009A61704770B504464FF4077094FBF0F0B8
:102ED000C6B24FF4077094FBF0F100FB114085B2CD
:102EE00005E04FF40770FFF7C9FF701EC6B2002E51
:102EF000F7D115B12846FFF7C1FF70BD7200002061
:102F0000740000207FB505460C4601212020FEF705
:102F1000A6FD0295ADF804400020ADF80600ADF81E
:102F20000C0001A9FE48FEF79CFF01221146FC4857
:102F3000FFF738FC0121FA48FFF71CF837208DF81D
:102F4000000000208DF8010001208DF802008DF8AE
:102F500003006846FDF76BFC7FBD10B501221146EA
:102F6000EF48FFF71FFC0121ED48FFF703F810BD04
:102F700010B500220121EA48FFF714FC0021E848BF
:102F8000FEF7F8FF10BD30B58BB005460C460121A9
:102F90000820FEF71BFD01210420FEF760FD022240
:102FA0000C21E048FEF7FFFA02220D21DD48FEF772
:102FB000FAFA02208DF8280000208DF82A008DF8FA
:102FC0002B0003208DF829000003099009A9D5489A
:102FD000FEF75EFAD448FEF797FED348FEF794FE5C
:102FE0000020ADF82000ADF81A000795A0B2ADF8AA
:102FF000180000208DF8220006A9CB48FEF731FF0B
:1030000006A9C948FEF72DFF6020ADF80400012095
:10301000ADF806000020ADF81000039001A9C248E9
:10302000FEF7B4FF01A9C048FEF7E9FF0821BE483A
:10303000FFF739F90821BC48FFF73EF90121BA48EA
:10304000FEF77AFF0121B848FEF776FF0121B64866
:10305000FEF790FF0121B448FEF78CFF0BB030BDA6
:1030600000B589B001210846FEF7B0FC01210846F1
:10307000FEF7F5FC02208DF8200000208DF82200DC
:103080002220079000208DF8230003208DF82100D6
:1030900007A9A648FEF7FCF901221146A348FEF74E
:1030A00082FA01220521A148FEF77DFA04A8FEF765
:1030B0000CFF0020ADF81800ADF812004FF6FF70BD
:1030C00005900020ADF810008DF81A0004A94FF00B
:1030D0008040FEF7C6FE01A8FFF7D1FA1020ADF838
:1030E0000C0001A98006FFF793FA00231A4603217A
:1030F0004FF08040FFF729FC00214FF08040FEF7A1
:10310000F9FE01218807FFF761FB012211469007B4
:10311000FFF748FB01218807FEF72CFF09B000BD2F
:1031200000B589B001210420FEF750FC01210220E6
:10313000FEF795FC02208DF8200000208DF822007B
:10314000C020079000208DF8230003208DF8210077
:1031500007A97748FEF79CF9022206217448FEF77A
:1031600022FA022207217248FEF71DFA04A8FEF790
:10317000ACFE0020ADF81800ADF812004FF6FF705D
:1031800005900020ADF810008DF81A0004A94FF04A
:103190008040FEF766FE01A8FFF771FA1020ADF837
:1031A0000C0001A96348FFF733FA00231A460321F4
:1031B0006048FFF7CAFB00215E48FEF79BFE012135
:1031C0005C48FFF703FB012211465A48FFF7EAFA71
:1031D00001215848FEF7CEFE09B000BD10B501210F
:1031E0008807FFF7F6FA18B101218807FFF702FBFD
:1031F00010BD10B501214F48FFF7EBFA18B10121BE
:103200004C48FFF7F7FA10BD30B58BB004460D46B9
:1032100001218020FEF723FC01212020FEF7D6FBB0
:10322000092208214448FEF7BEF94FF48070099046
:1032300002208DF8280003208DF8290000208DF849
:103240002A0001208DF82B0009A93B48FEF720F940
:10325000681E80B2ADF818000020ADF81A00601E9C
:1032600007900020ADF8200006A93448FEF7F9FDCC
:103270006020ADF804000120ADF806000020ADF894
:10328000100001A92D48FEF781FE08212B48FFF709
:103290000AF801212948FEF74FFE01212748FEF7D1
:1032A00069FE0BB030BD30B58BB004460D46012130
:1032B0000802FEF7D4FB01210846FEF787FB09222E
:1032C00007211A48FEF76FF98020099002208DF837
:1032D000280003208DF8290000208DF82A00012005
:1032E0008DF82B0009A91148FEF7D2F8681E80B2AC
:1032F000ADF818000020ADF81A00601E07900020FD
:10330000ADF8200006A90E48FEF7ABFD6020ADF831
:1033100004000120ADF806000020ADF8100011E017
:1033200000140040000C0240000800400000024071
:10333000000802400004004000140240001C00404D
:103340000020004001A90848FEF720FE0821064899
:10335000FEF7A9FF01210448FEF7EEFD0121024816
:10336000FEF708FE0BB030BD002000401CB5012167
:103370002020FEF72BFB01208DF8040000208DF8A3
:1033800006008DF8070003208DF805004FF40E604D
:10339000009069469548FEF77BF81CBD1CB50121DD
:1033A0004020FEF713FB00208DF804008DF8060086
:1033B0004FF44060009001208DF8070003208DF845
:1033C000050069468A48FEF763F81CBD1CB501215B
:1033D0005F20FEF7FBFA00208DF804008DF8060050
:1033E0004FF48540009000208DF8070003208DF8F1
:1033F000050069467E48FEF74BF800208DF8040072
:103400008DF806004FF40140009000208DF8070071
:1034100003208DF8050069467648FEF739F800204C
:103420008DF804008DF80600E020009000208DF853
:10343000070003208DF8050069466F48FEF728F85D
:1034400000208DF804008DF8060060200090002018
:103450008DF8070003208DF8050069466748FEF7E0
:1034600017F800208DF804008DF8060040F20120C6
:10347000009000208DF8070003208DF805006946B4
:103480005F48FEF705F800208DF804008DF806006F
:103490009020009000208DF8070003208DF8050093
:1034A00069465848FDF7F4FF1CBD1CB50121742086
:1034B000FEF78CFA00208DF8040002208DF807003A
:1034C0008003009069464C48FDF7E2FF052000901C
:1034D00069464648FDF7DCFF01208DF80400022014
:1034E0008DF805001020009069464048FDF7D0FF98
:1034F0004FF48440009069464248FDF7C9FF1CBD67
:103500001CB501214820FEF761FA402000900120FF
:103510008DF8040003208DF8050000208DF80600CA
:1035200001208DF8070069463648FDF7B1FF4021BC
:103530003448FEF729F84FF40040009000208DF841
:10354000040003208DF8050000208DF806000120FE
:103550008DF8070069462648FDF79AFF1CBD1CB58B
:1035600001214820FEF732FA00208DF804008DF882
:1035700006000820009001208DF8070003208DF838
:10358000050069461F48FDF783FF00208DF8040001
:103590008DF806004FF44060009001208DF8070080
:1035A00003208DF8050069461148FDF771FF1CBD29
:1035B0001CB501210846FEF709FA4FF4805000902F
:1035C00001208DF8040003208DF8050000208DF8FF
:1035D000060002208DF8070069460648FDF758FFEF
:1035E0004FF480510348FDF7D1FF1CBD0014024089
:1035F0000018024000000240000402400010024097
:1036000000080240000C024010B588B004460121B9
:103610000846FEF7DBF901211020FEF731FA0722F8
:103620000921F848FDF7BFFF07220A21F548FDF7F9
:10363000BAFF4FF4C060069002208DF81C008DF890
:103640001D0000208DF81E0001208DF81F0006A926
:10365000EC48FDF71DFF02940020ADF80C00ADF81A
:103660000E00ADF81000ADF814000C20ADF81200FB
:1036700002A9E548FFF701FA0121E348FFF785FABF
:10368000012240F22551E048FFF735FB25208DF857
:10369000040003208DF805008DF8060001208DF848
:1036A000070001A8FDF7C3F808B010BD10B5002150
:1036B0001020FEF7E5F9002240F22551D248FFF72D
:1036C0001AFB0021D048FFF760FA10BD30B587B073
:1036D00005460C4601210846FEF778F90121480409
:1036E000FEF7BDF907220321C648FDF75CFF07225C
:1036F0000221C448FDF757FF0C20059002208DF8E9
:1037000018008DF8190000208DF81A0001208DF89E
:103710001B0005A9BB48FDF7BBFE01950020ADF8D5
:103720000800ADF80A00ADF80C00ADF810000C2050
:10373000ADF80E0001A9B548FFF79FF92021B34865
:10374000FFF70BFB26208DF8000002208DF801000A
:103750008DF8020001208DF803006846FDF767F838
:10376000224640F22551A948FFF7C5FA0121A74892
:10377000FFF70BFA07B030BD10B500214FF4003051
:10378000FEF76DF9002240F22551A048FFF7B3FA89
:1037900000219F48FDF792F910BD10B588B004468E
:1037A00001210220FEF712F901218804FEF757F9E2
:1037B00007220A219748FDF7F6FE07220B219548BC
:1037C000FDF7F1FE4FF44060069002208DF81C00DA
:1037D0008DF81D0000208DF81E0001208DF81F00BF
:1037E00006A98C48FDF754FE02940020ADF80C00A9
:1037F000ADF80E00ADF81000ADF814000C20ADF8D7
:10380000120002A98448FFF738F940218248FFF7E7
:10381000A4FA27208DF8040001208DF8050002206D
:103820008DF8060001208DF8070001A8FCF7FFFFC6
:10383000012240F225517848FFF75DFA01217648D0
:10384000FFF7A3F908B010BD10B500214FF4802098
:10385000FEF705F9002240F225516F48FFF74BFAB9
:1038600010BD30B587B005460C4601210420FEF797
:10387000ADF80121C804FEF7F2F808220A216748D2
:10388000FDF791FE08220B216448FDF78CFE4FF4F2
:103890004060059002208DF818008DF81900002076
:1038A0008DF81A0001208DF81B0005A95B48FDF773
:1038B000EFFD01950020ADF80800ADF80A00ADF865
:1038C0000C00ADF810000C20ADF80E0001A9544812
:1038D000FFF7D3F801215248FFF757F9402150482C
:1038E000FFF73BFA224640F225514D48FFF703FA15
:1038F00034208DF8000002208DF801008DF80200C0
:1039000001208DF803006846FCF791FF07B030BD39
:1039100010B500214FF40020FEF7A1F8002240F27C
:1039200025513F48FFF7E7F9002139484838FDF7AE
:10393000C5F810BD10B588B0044601210C20FEF773
:1039400045F801210805FEF78AF8082202213548CA
:10395000FDF729FE08220C213048FDF724FE4FF424
:103960008050069002208DF81C008DF81D0000206C
:103970008DF81E0001208DF81F0006A92748FDF7CD
:1039800087FD0420069002208DF81C008DF81D0094
:1039900000208DF81E0001208DF81F0006A9214887
:1039A000FDF776FD02940020ADF80C00ADF80E0096
:1039B000ADF81000ADF814000C20ADF8120002A90B
:1039C0001948FFF75AF801211748FFF7DEF84021A0
:1039D0001548FFF7C2F9012240F225511248FFF7BE
:1039E0008AF935208DF8040002208DF805000020AA
:1039F0008DF8060001208DF8070001A8FCF717FFDD
:103A000008B010BD0000024000100140004400401A
:103A10008860024000040240004800400008024064
:103A2000004C0040000C02400050004010B5002146
:103A30000748FDF743F800214FF48010FEF70FF818
:103A4000002240F225510348FFF755F910BD000050
:103A5000106002400050004010B54FF48060FDF748
:103A6000A4F94FF40060FDF7A0F95B48006840F44A
:103A700040605949086010BD0EB501218803FDF76B
:103A8000FFFF0A210620FEF706F90B210620FEF7AC
:103A900002F9FDF70BF94FF44060009000208DF81B
:103AA00004000C208DF8050001208DF80600684602
:103AB000FDF70AF928208DF8080000208DF809008C
:103AC0008DF80A0001208DF80B0002A8FCF7AFFE6C
:103AD0000EBD10B54FF48060FDF767F94FF400603C
:103AE000FDF763F93C48006820F440603A490860FB
:103AF00010BD10B54FF40060FDF74CF9012805D05A
:103B00004FF48060FDF746F9012864D1334800780E
:103B100068B94FF48060FDF73DF9012853D105F0F5
:103B20001FFA01202E4908602E4908604BE02B48FF
:103B3000007801280CD1C002FDF72CF9012842D1F0
:103B400005F00EFA012026490860264908603AE08F
:103B500022480078022803D020480078032832D178
:103B60004FF40060FDF716F901280CD18002FDF733
:103B700011F9012807D105F0F3F90120184908606F
:103B8000184908601FE04FF40060FDF703F90128B1
:103B900009D18002FDF7FEF828B905F0E1F901200E
:103BA000104908600FE04FF40060FDF7F3F850B9DA
:103BB0004FF48060FDF7EEF8012804D105F0D0F94C
:103BC0000120074908604FF48060FDF7EEF84FF4DC
:103BD0000060FDF7EAF810BD003C0140180000202D
:103BE000780000207C00002000B591B0012148053C
:103BF000FDF7ECFE9D48FCF785FE00BF9B48FCF7F7
:103C0000AAFF0028FAD14FF0006002909848039074
:103C100098480490002005904FF480700690002092
:103C200007904FF480600890002009900A904FF4AC
:103C300080700B9040020C9000200D9003200E909D
:103C400000200F90109000228B498848FCF75DFF00
:103C500001218648FCF765FF02A98448FCF7F4FEC1
:103C6000012218218148FCF7B6FF01217F48FCF7AB
:103C700025FF0B208DF8040001208DF805000020A1
:103C80008DF8060001208DF8070001A8FCF7CFFD94
:103C9000012240217648001FFFF724F811B000BD33
:103CA0002DE9F04106460F4600207449086074492A
:103CB000C1F8AC02012073490870002565E0745D0D
:103CC000714872490978445471480078FD2801D13F
:103CD000FC2C03D06D48007800281BDD6B48007871
:103CE000401C6A49087068484078402806D16648F8
:103CF0008078382802D101206649087062484078EF
:103D000041280AD160488078302806D101206249D4
:103D1000087002E000205D4908705D4804705D484D
:103D20000078012815D159480078402811D1002089
:103D30005649087057490870012058490860524890
:103D400090F83F00FD2804D140224F49544805F027
:103D500059FE51480078012815D14C480078382880
:103D600011D10020494908704B49087001204D4984
:103D70000860454890F83700FD2804D140224249A8
:103D8000494805F03FFE681C85B2BD4297DBBDE89F
:103D9000F08110B545493548FCF73AFF18B343495F
:103DA0003248FCF75FFF3148FCF7CBFE30B93148B1
:103DB0003F49086030483F49086005E02E483C49CB
:103DC00008602C483B4908604FF48071384800680F
:103DD000FFF766FF4FF480712448FCF790FE012145
:103DE0002248FCF76BFE34492048FCF711FF18B15C
:103DF00031491E48FCF736FF10BD10B508211C489C
:103E0000001FFEF79DFF40B108211948001FFEF773
:103E1000A4FF1748001FFEF7E7FE40F224411448B4
:103E2000001FFEF7A3FF00B31148001FFEF7DCFEE2
:103E300000210E48FCF742FE0C48FCF762FEC0F57C
:103E4000807084B221461B480068FFF729FF1B4998
:103E50000648FCF7ACFE4FF480710448FCF74FFEB7
:103E600001210248FCF72AFE00BF10BD106002408D
:103E7000045000408801002088020020B002404227
:103E800000004042B0000020E8030020880000202D
:103E9000890000208A0000208B000020B400002050
:103EA00028040020B80000206804002020800010B2
:103EB0008400002080000020104000103D00801091
:103EC00010B5FFF753FA29216320FFF75CF810BD06
:103ED000F0EE400AF5EEC00AF1EE10FA01DBB0EEAA
:103EE000600AF5EEC00AF1EE10FA03D2B1EE601AE4
:103EF000B0EE410A7047B0EE401AB4EEE01AF1EEAF
:103F000010FA02DBB0EE410A7047B4EEE01AF1EEAF
:103F100010FA02D8B0EE600AF6E700BFF4E7B0EEA0
:103F2000401AB4EEE01AF1EE10FA02D8B0EE410AEF
:103F30007047B4EEE01AF1EE10FA02DBB0EE600A60
:103F4000F6E700BFF4E770B555246542166886426F
:103F500000DB106016688E4200DA11601E6886422F
:103F600000DB18601E688E4200DA196070BD00B573
:103F7000002806DD00222B4B1A6001222A4BC3F8D1
:103F80009C22002806DC0122264B1A600022264BC8
:103F9000C3F89C22002907DD0022224B14331A604B
:103FA0000122214BC3F89422002907DC01221D4B7A
:103FB00014331A6000221C4BC3F8942200EE101A2E
:103FC000B8EEC00AFFF784FFBCEEC00A10EE102A5C
:103FD000164B1A6000EE100AB8EEC00AFFF778FF21
:103FE000BCEEC00A10EE102A104B1B1D1A6000BD5B
:103FF00010B500200B4908600B49C1F89C02002154
:104000000A483438FEF71DF90020064914310860CB
:104010000549C1F89402002104483438FEF70FF92D
:1040200010BD0000988242420080424234080040A5
:1040300010B5FFF715F8FFF773F810BD0146B1F1A1
:10404000804F09D14FF08040406A02B200204FF00B
:1040500080435862104670470748814209D106489C
:104060002430006802B20020034B2433186010464D
:10407000F1E70020EFE700000004004010B5002445
:104080004FF480416C48FDF765FA00B9641C2021AB
:104090006A48FDF75FFA00B9641C40216748FDF7E4
:1040A00059FA00B9641C01216548FDF753FA00B9BB
:1040B000641C80216348FDF74DFA00B9641C4FF47D
:1040C00000715D48FDF746FA00B9641C10215E4896
:1040D000FDF740FA00B9641C4FF400415B48FDF75E
:1040E00039FA00B9641C20215648FDF733FA00B9AB
:1040F000641C40215348FDF72DFA00B9641C80214F
:104100004D48FDF727FA00B9641C4FF400714C4884
:10411000FDF720FA00B9641C4FF480714B48FDF79D
:1041200019FA00B9641C80214748FDF713FA00B959
:10413000641C47480460204610BD10B54FF4804110
:104140003D48FDF707FA002845D120213B48FDF7FF
:1041500001FA00283FD140213848FDF7FBF9D0BBD8
:1041600001213748FDF7F6F9A8BB80213548FDF756
:10417000F1F980BB4FF400712F48FDF7EBF950BB0C
:1041800010213148FDF7E6F928BB4FF400412F48D4
:10419000FDF7E0F9F8B920212A48FDF7DBF9D0B99D
:1041A00040212848FDF7D6F9A8B980212248FDF71B
:1041B000D1F980B94FF400712148FDF7CBF950B91E
:1041C0004FF480712148FDF7C5F920B980211E48C0
:1041D000FDF7C0F968B3FFF751FF032829DD1D483B
:1041E0000068401C1B4908600846006801280BD085
:1041F00008460068022807D008460068052803D052
:1042000008460068062805D113480068401C12497A
:1042100008600CE00F480068032803D00D480068D0
:10422000042804D10C480068401E0B490860012096
:1042300010BD0020FCE70000001802400010024002
:104240000008024000040240000C0240000002404E
:10425000900000208C000020AC00002010B54FF42E
:104260006120FFF767FBFFF7BFFC0120FE490860F4
:1042700010BD10B52DED048BFC4800685A21484351
:1042800000EE100AB8EEC00AF948D0ED000A30EE90
:10429000200AF84880ED000A08E0F64890ED000A90
:1042A000DFEDF50A30EE600A80ED000AF14890ED8E
:1042B000000ADFEDF10AB4EEE00AF1EE10FAECDCF0
:1042C00008E0EC4890ED000ADFEDEB0A30EE200A42
:1042D00080ED000AE74890ED000ADFEDE80AB4EE51
:1042E000E00AF1EE10FAECD390ED000AE448D0EDCC
:1042F000000A30EE600A10EE101A084605F088FD3C
:1043000041EC190BB0EE490AF0EE690A05F062FFC4
:10431000B0EE408AF0EE608A9FEDDA0B53EC102B82
:1043200051EC180B05F0A0FD19D2D24890ED000A0F
:10433000D348D0ED000AB4EEE00AF1EE10FA02DD47
:104340004FF4B47000E0D14800EE100AB8EEC00A95
:10435000CB48D0ED000A30EE200A80ED000ABDEC1B
:10436000048B10BD704770B504460D4616460022FA
:1043700042EA036242EA064242EA0522224300215F
:10438000104670BD2DE9F0472DED0C8B0646884692
:1043900091469A4600BF00BF00BF00BF00210C46F7
:1043A0000D464FEA0A60044345EAE0754FEA0940CA
:1043B000044345EAE0754FEA0820044345EAE07506
:1043C00034434FF0004104EA0100002148404940D5
:1043D000084302D04FF0FF3000E0012008EE900AC1
:1043E000E00D40EA4520C0B27F21471AA84904EAFF
:1043F00001024FF00001104605F09EFC00EE100A8D
:104400009FEDA41AC0EE010AB7EE000A30EE809AC2
:10441000384605F0A7FC41EC1D0BB0EE4D1AF0EE4E
:104420006D1A9FED9D0B05F0DFFEB0EE40BAF0EE89
:1044300060BAB8EEE80A20EE090A10EE101A084633
:1044400005F0E6FC53EC1B2B05F095FB05F024FD75
:1044500008EE100AB0EE480ABDEC0C8BBDE8F08700
:10446000704710B58E48006801287DD18D4840788E
:1044700041287ED18B48807830287AD1894CA37A24
:10448000627A217AE079FFF77DFF874880ED000AA4
:10449000A37B627B217BE07AFFF774FF824880ED8B
:1044A000010AA37C627C217CE07BFFF76BFF7E48E6
:1044B00080ED020AA37D627D217DE07CFFF762FF33
:1044C000794880ED030AA37E627E217EE07DFFF7BE
:1044D00059FF754880ED040AA37F627F217FE07E4B
:1044E000FFF750FF704880ED050A94F8223094F8E9
:1044F000212094F82010E07FFFF744FF6A4880ED08
:10450000060A94F8263094F8252094F8241094F89C
:104510002300FFF737FF644880ED070A94F82A303C
:1045200094F8292094F8281094F82700FFF72AFF20
:104530005D4880ED080A94F82E3094F82D2094F808
:104540002C1094F82B00FFF71DFF574880ED090A47
:1045500094F8323094F8312094F8301094F82F0009
:10456000FFF701FF504901E006E002E08862FFF733
:1045700077FF00204A4908604C480068012871D143
:104580004B48407840286ED1494880783828FAD185
:10459000474CA37A627A217AE079FFF7F3FE454827
:1045A00080ED000AA37B627B217BE07AFFF7EAFEC5
:1045B000404880ED010AA37C627C217CE07BFFF710
:1045C000E1FE3C4880ED020AA37D627D217DE07C16
:1045D000FFF7D8FE374880ED030AA37E627E217E76
:1045E000E07DFFF7CFFE334880ED040AA37F627FB2
:1045F000217FE07EFFF7C6FE2E4880ED050A94F885
:10460000223094F8212094F82010E07FFFF7BAFEC2
:10461000284880ED060A94F8263094F8252094F86E
:10462000241094F82300FFF7ADFE224880ED070A1E
:1046300094F82A3094F8292094F8281094F8270048
:10464000FFF7A0FE1B4880ED080A94F83A3094F872
:10465000392094F8381094F83700FFF784FE154994
:10466000086329E02DE029E094000020AC00002040
:10467000980000209C0000200000B4430000B4C358
:10468000A0000020000000000080664098FEFFFFB0
:10469000FFFF7F00FEFFFF4A000000000000004017
:1046A000B800002068040020BC030020B4000020F3
:1046B0002804002088030020FFF754FE0020AC49A6
:1046C0000860002010BD10B52DED068BA94890EDB7
:1046D000050A10EE101A084605F09AFB41EC1A0B79
:1046E0001FED180B53EC102B05F045FA41EC190B9C
:1046F0009FEDA10B53EC102B05F0AFFA41EC180B1A
:1047000005F0CAFB00EE100ABDEC068B10BD9948FF
:1047100090ED020ADFED9A0A60EE200A9FED991AE9
:1047200080EE810A7047934890ED030ADFED960A08
:1047300020EE200A704710B52DED068BB0EE408AB2
:1047400018EE100A05F064FB41EC1A0BB0EE4A0AB1
:10475000F0EE6A0AFFF7BCFB044605F003FB41ECF0
:10476000190B9FED8A0B53EC102B05F065FB03D85A
:104770009FED880AB0EE408A18EE100A05F048FB5B
:1047800041EC190B9FED810B53EC102B05F06CFBEA
:104790000AD2B1EE040AB4EEC08AF1EE10FA03D8E0
:1047A000B0EE000AB0EE408AB1EE040AB4EEC08A60
:1047B000F1EE10FA0ADDB2EE040AB4EEC08AF1EEB0
:1047C00010FA03D89FED740AB0EE408AB2EE040AE4
:1047D000B4EEC08AF1EE10FA0ADDB2EE0E0AB4EEC3
:1047E000C08AF1EE10FA03D89FED6C0AB0EE408A51
:1047F000B2EE0E0AB4EEC08AF1EE10FA0ADDB3EEA4
:10480000040AB4EEC08AF1EE10FA03D89FED640AF0
:10481000B0EE408AB3EE040AB4EEC08AF1EE10FAAC
:104820000ADDB3EE090AB4EEC08AF1EE10FA03D83D
:104830009FED5C0AB0EE408AB3EE090AB4EEC08A7E
:10484000F1EE10FA0ADD9FED580AB4EEC08AF1EEDF
:1048500010FA03D8B1EE000AB0EE408AB9EE040AAD
:10486000B4EEC08AF1EE10FA10DB18EE100A05F073
:10487000CFFA41EC190B9FED4D0B53EC102B05F0CB
:10488000DBFA03D2B8EE000AB0EE408ABAEE040AB0
:10489000B4EEC08AF1EE10FA0ADBB9EE040AB4EE07
:1048A000C08AF1EE10FA03D29FED420AB0EE408AC0
:1048B000BAEE0E0AB4EEC08AF1EE10FA0ADBBAEED6
:1048C000040AB4EEC08AF1EE10FA03D29FED3A0A60
:1048D000B0EE408ABBEE040AB4EEC08AF1EE10FAE4
:1048E0000ADBBAEE0E0AB4EEC08AF1EE10FA03D279
:1048F0009FED320AB0EE408ABBEE090AB4EEC08AE0
:10490000F1EE10FA0ADBBBEE040AB4EEC08AF1EE57
:1049100010FA03D29FED2A0AB0EE408ABBEE0E0ACF
:10492000B4EEC08AF1EE10FA0ADB9FED260AB4EE6F
:10493000C08AF1EE10FA03D8B9EE000AB0EE408A50
:1049400018EE100A05F064FA41EC190BB0EE490AB2
:10495000F0EE690AFFF7BCFA322803DD9FED1A0A70
:10496000B0EE408AB0EE480ABDEC068B10BD0000E8
:10497000B4000020BC03002000000060FB210940BF
:1049800000003443DB0F494000007A4433333333B3
:104990003333D33F000000009A991940333333403A
:1049A000CDCC4C406666664000004842333333331A
:1049B0003333D3BF9A9919C0333333C0CDCC4CC0F5
:1049C000666666C0000048C20000C84310B540F2E9
:1049D000473140F2CF70FEF717FC40F2473140F20A
:1049E000CF70FEF760FC10BD10B5044621464D485F
:1049F000FDF725FC10BD10B5044621464A48FDF7D9
:104A00001EFC10BD2DE9F04707460C4615461E4614
:104A100007F0010080B314E02046FFF7E5FFA5EBA7
:104A20000408B8F1000F01DB404601E0C8F10000C6
:104A300096FBF0F01FFA80F94846FEF743FA601C37
:104A400084B2AC42E8DB14E02046FFF7CDFFA5EBD3
:104A50000408B8F1000F01DB404601E0C8F1000096
:104A600096FBF0F01FFA80F94846FEF72BFA601E1D
:104A700084B2AC42E8DC33E0FFE707F0020078B331
:104A800014E02046FFF7B7FFA5EB0408B8F1000FCC
:104A900001DB404601E0C8F1000096FBF0F01FFA90
:104AA00080F94846FEF70EFA601C84B2AC42E8DB9F
:104AB00014E02046FFF79FFFA5EB0408B8F1000FB4
:104AC00001DB404601E0C8F1000096FBF0F01FFA60
:104AD00080F94846FEF7F6F9601E84B2AC42E8DC85
:104AE000BDE8F08770B504460D46B42094FBF0F0A5
:104AF00000EBC00101EB0010322101EBC00086B2D7
:104B00003046FFF771FFB42095FBF0F000EBC001D9
:104B100001EB0010322101EBC00086B23046FFF7F6
:104B20006AFF70BD001C00400020004070B540F2DC
:104B300025514D48FEF71AF9002819D040F22551A9
:104B40004948FEF74EF94848FEF74EF8C5B24748C7
:104B5000007870B92C2D0CD10120444908704448CC
:104B600001780078401C424A1070424820F81150E9
:104B700079E03E48007801280ED1122D0CD1022098
:104B80003A4908703A4801780078401C384A107059
:104B9000384820F8115066E034480078022823D1C4
:104BA000334801780078401C314A1070314820F8B1
:104BB0001150104600780A2801DA5B2D53D10320EA
:104BC0002A49087001202C49087029480078801E65
:104BD000284911F81020294801780078401C274BFB
:104BE0001870274842543EE02048007803282BD113
:104BF0001F480078401E1F4931F810005B2813D170
:104C0000002240F225511848FEF775F800201A4995
:104C100008701749087015490870012240F22551A3
:104C20001148FEF768F81EE000201049087010498E
:104C30000870002405E000200E4921F81400601CD3
:104C4000C4B20A2CF7DB0EE00020084908700849BE
:104C50000870002405E00020064921F81400601CBB
:104C6000C4B20A2CF7DB70BD001001400F01002018
:104C70000E010020F8060020100100200501002090
:104C8000D800002010B5044621464FF4E130FEF76D
:104C9000E8FD21464FF4E130FEF718FD10BD10B5D8
:104CA0000446224640F225517F48FEF724F810BD05
:104CB00010B50446224640F225517C48FEF71BF809
:104CC00010BD70B508217848FEF73AF830B10821D8
:104CD0007548FEF742F87448FDF786FF40F225510B
:104CE0007148FEF743F8002863D06F48FDF77CFF5A
:104CF000C4B26F48007830B1012811D0022820D00A
:104D0000032850D12FE0592C09D16A490C70684909
:104D10000978491C664A11700121674A117042E006
:104D2000592C0AD163494C7061490978491C604A81
:104D300011700221604A117002E000215C4A11707A
:104D400031E05D490A780978491C5B4B1970594973
:104D50008C5419460978082904D155490978491C09
:104D6000534A11701FE053490C720020002105E0E6
:104D7000504A525C0244D0B24A1CD1B20829F7DB37
:104D8000A0420CD14B4989784A4AD27841EA02259F
:104D9000002D01DB642D00DD642548490D800021D4
:104DA000434A117000BF00BF40F225513E48FEF754
:104DB00018F870BD70B508213C48FDF7C1FF30B14F
:104DC00008213A48FDF7C9FF3848FDF70DFF40F2CA
:104DD00025513648FDF7CAFF002863D03348FDF758
:104DE00003FFC4B23648007830B1012811D0022840
:104DF00020D0032850D12FE0592C09D131490C7013
:104E00002F490978491C2E4A117001212E4A117030
:104E100042E0592C0AD12B494C7029490978491C88
:104E2000274A11700221284A117002E00021244A09
:104E3000117031E024490A780978491C224B197015
:104E400020498C5419460978082904D11C4909784D
:104E5000491C1B4A11701FE01A490C7200200021E6
:104E600005E0184A525C0244D0B24A1CD1B208296B
:104E7000F7DBA0420CD113498978124AD27841EA73
:104E80000225002D01DB642D00DD64250F490D8016
:104E900000210B4A117000BF00BF40F225510348AA
:104EA000FDF79FFF70BD0000004C00400044004033
:104EB0001E010020150700201F0100201C010020FA
:104EC000200100200C070020210100201A010020F1
:104ED00001B5BDF800000090BDF80000FE49088053
:104EE00008BD01B5BDF800000090BDF80000FA490A
:104EF000891C088008BD08B5F748801C0088009010
:104F0000BDF8000008BDF44A10804FF0D842A2F866
:104F10008010704710B504462046FFF7D9FF0520E2
:104F2000FDF788FFFFF7E7FF10BDEC480089EA496D
:104F300008807047E849891C0880704730B50146F1
:104F400001F01F04C1F34513CA0AE50205EB43153E
:104F50001544A8B230BD00BF0100A0F10102D0B2DB
:104F6000FAD1704710B502460C46DC48808841F6FD
:104F70006311884247D1D9488079A8B9D7480088B9
:104F8000401E801A82B2D5494889FFF7A1FF002050
:104F9000FFF7A7FF0020FFF7A4FF1012FFF7A1FF04
:104FA000D0B2FFF79EFF16E0CC494889FFF790FF8B
:104FB0001012FFF796FFD0B2FFF793FFC749098899
:104FC000491EC1F30F20FFF78CFFC4490978491E21
:104FD000C8B2FFF786FFC1498889FFF779FF201221
:104FE000FFF77FFFE0B2FFF77CFFBC494988491E0D
:104FF000C1F30F20FFF775FFB8498978491EC8B281
:10500000FFF76FFF3AE0B548808845F210518842BB
:1050100020D1B2494889FFF75BFF1012FFF761FF0B
:10502000AE494989491C88B2FFF752FFD0B2FFF759
:1050300058FFAA498889FFF74BFF2012FFF751FF5D
:10504000A6498989491C88B2FFF742FFE0B2FFF701
:1050500048FF13E0A1494889FFF73AFF1012FFF714
:1050600040FFD0B2FFF73DFF9C498889FFF730FF32
:105070002012FFF736FFE0B2FFF733FF10BD2DE936
:10508000F04105460E4600240027A04693480088BC
:10509000A84203DD91484088B04202DC0020BDE810
:1050A000F08131462846FFF75DFF8C48808845F245
:1050B0001051884204D14FF43850FFF709FF02E045
:1050C0002E20FFF705FFFFF716FF04468348808870
:1050D00041F66311884201D12046E0E7FFF70BFF5C
:1050E0000446FFF708FF8046E7B24FF6FF7000EA7C
:1050F0000727E012C002B91240EA411040EAE82056
:10510000CDE700B57548808845F21051884204D13A
:105110004FF42450FFF7DCFE02E02920FFF7D8FE11
:1051200000BD00B56D48808845F21051884204D119
:105130004FF42050FFF7CCFE02E02820FFF7C8FE16
:1051400000BDF0B505460024002764488079012899
:1051500005D16248808841F66311884208D15F48D2
:105160008079F0B95D48808841F66311884218D192
:10517000082D15D2DFE805F00406080A0C0E1012FF
:1051800006250DE007250BE0042509E0052507E0CD
:10519000012505E0002503E0032501E0022500BF0D
:1051A00000BF082D1CD2DFE805F00406090C0F1221
:1051B000151800BF14E044F0800411E044F04004EE
:1051C0000EE044F0C0040BE044F0200408E044F09A
:1051D000600405E044F0A00402E044F0E00400BFF5
:1051E00000BF3E48808845F21051884202D14FF4FA
:1051F000585700E036273948808849F241318842C3
:1052000005D03648808847F28971884201D144F040
:10521000080421463846FFF776FE3048808841F67C
:10522000631188421DD004F0200068B12B4800882B
:105230002A494988884214DA28480688408827493C
:105240000880084646800CE02448008823494988A5
:10525000884206DD214806884088204908800846A3
:1052600046801E48808845F21051884257D11B491C
:105270004889FFF72DFE0020FFF733FE17494989C3
:10528000491C88B2FFF724FE0020FFF72AFE1349CD
:105290004989891C88B2FFF71BFE10490988491EFD
:1052A000C1F30F20FFF71DFE0C494989C91C88B2C4
:1052B000FFF70EFE09490978491EC8B2FFF711FE33
:1052C00006498889FFF704FE0020FFF70AFE03491C
:1052D0008989491C88B203E07E00006C1E0700200B
:1052E000FFF7F6FD0020FFF7FCFDFE498989891CC8
:1052F00088B2FFF7EDFDFB494988491EC1F30F2035
:10530000FFF7EFFDF7498989C91C88B2FFF7E0FD77
:10531000F4498978491EC8B2FFF7E3FD2DE0F14951
:105320004889FFF7D5FD0020FFF7DBFD0020FFF7E0
:10533000D8FDEC490988491EC1F30F20FFF7D1FDC4
:10534000E8490978491EC8B2FFF7CBFDE5498889CD
:10535000FFF7BEFD0020FFF7C4FD0020FFF7C1FDF1
:10536000E0494988491EC1F30F20FFF7BAFDDD4926
:105370008978491EC8B2FFF7B4FDF0BD30B50446C8
:105380000D4629462046FFF7EDFDFFF7CEFDD64836
:105390000088D649088030BD30B504460D46D14856
:1053A000808845F21051884220D1CE494889FFF7C4
:1053B0008FFD2012FFF795FDCA494989491C88B223
:1053C000FFF786FDE0B2FFF78CFDC6498889FFF73D
:1053D0007FFD2812FFF785FDC2498989491C88B2E3
:1053E000FFF776FDE8B2FFF77CFD42E0BD4880881C
:1053F00041F66311884228D1BA48807920B9B9486A
:105400000088401E001B84B2B6494889FFF760FD42
:105410002012FFF766FDE0B2FFF763FD2012FFF7F1
:1054200060FDE0B2FFF75DFDAE498889FFF750FDF2
:105430002812FFF756FDE8B2FFF753FD2812FFF7D9
:1054400050FDE8B2FFF74DFD13E0A6494889FFF78C
:105450003FFD2012FFF745FDE0B2FFF742FDA149F5
:105460008889FFF735FD2812FFF73BFDE8B2FFF70B
:1054700038FD9C4800899D49891E08804FF0D8401E
:10548000A0F8802030BD70B52DED048B0446BE2001
:10549000FFF71EFD0520FFF724FD204604F073FCF6
:1054A00041EC190B9FED920B53EC102B04F063FBB6
:1054B00041EC180B04F093FC85B22846FFF711FD70
:1054C0000120FFF70EFDFF20FFF70BFD0020FFF787
:1054D00008FD0020FFF705FDBDEC048B70BD10B585
:1054E000044680488471002C45D1F0207D49088015
:1054F0004FF4A07048800846808845F210518842D9
:1055000010D14FF43050774908814FF4285048812A
:105510004FF42C5088814FF4F07008804FF448709D
:1055200048801AE06F48808841F6631188420DD1A7
:105530002C206C4908812B2048812A2088814FF437
:10554000F07008804FF44870488006E02C206549D0
:1055500008812A2048812B2088816248808845F272
:10556000103188424CD14FF4A0705E4908804FF44E
:10557000F070488044E04FF4A0705A490880F02051
:1055800048800846808845F21051884210D14FF477
:105590003050544908814FF4285048814FF42C5022
:1055A00088814FF4487008804FF4F07048801AE00A
:1055B0004C48808841F6631188420DD12C2049491E
:1055C00008812A2048812B2088814FF44870088068
:1055D0004FF4F070488006E02C20424908812A20D0
:1055E00048812B2088813F48808845F210318842CD
:1055F00006D14FF4F0703B4908804FF4A07048800A
:105600000020FFF79EFD10BD2DE9F04104460D4638
:105610001E46A018401E87B2A819401E1FFA80F827
:105620003048808841F66311884231D12D48807915
:1056300001282DD02B480088801A001B84B2A8199D
:10564000401E86B227494889FFF742FC2012FFF727
:1056500048FCE0B2FFF745FCA118491EC1F30F203A
:10566000FFF73FFCA118491EC8B2FFF73AFC1D49DD
:105670008889FFF72DFC2812FFF733FCE8B2FFF70B
:1056800030FC3012FFF72DFCF0B2FFF72AFC79E076
:105690001448808845F21051884251D111494889F7
:1056A000FFF716FC2012FFF71CFC0E494989491C24
:1056B00088B2FFF70DFCE0B2FFF713FC09494989F6
:1056C000891C88B2FFF704FC3812FFF70AFC054971
:1056D0004989C91C88B2FFF7FBFBF8B2FFF701FC50
:1056E000004909E01E070020240100208000006C12
:1056F00066666666666604408889FFF7E9FB2812DD
:10570000FFF7EFFBFD498989491C88B2FFF7E0FBF1
:10571000E8B2FFF7E6FBF9498989891C88B2FFF7EF
:10572000D7FB4FEA2820FFF7DCFBF4498989C91C25
:1057300088B2FFF7CDFB08F0FF00FFF7D2FB21E0B6
:10574000EE494889FFF7C4FB2012FFF7CAFBE0B21D
:10575000FFF7C7FB3812FFF7C4FBF8B2FFF7C1FB36
:10576000E6498889FFF7B4FB2812FFF7BAFBE8B2D5
:10577000FFF7B7FB4FEA2820FFF7B3FB08F0FF0065
:10578000FFF7AFFBBDE8F08170B504460026DB48AB
:1057900005884088454300210846FFF7E3FBFFF7F3
:1057A000C4FB00BF02E0D6480480761CAE42FAD3A8
:1057B00070BD00B5A1B00020209001217A20FCF737
:1057C00005F901210846FCF739F94FF400401E9015
:1057D00001208DF87C0000208DF87E0002208DF8DD
:1057E0007D0001208DF87F001EA9C648FBF750FE02
:1057F0004CF233701E9002208DF87C0000208DF852
:105800007E0003208DF87D0001208DF87F001EA909
:10581000BD48FBF73DFE4FF680701E9002208DF8CC
:105820007C0000208DF87E0003208DF87D00012093
:105830008DF87F001EA9B548FBF72AFE4FF4805073
:105840001E9002208DF87C0000208DF87E00032041
:105850008DF87D0001208DF87F001EA9AC48FBF774
:1058600017FE4FF480501E9002208DF87C0000201F
:105870008DF87E0003208DF87D0001208DF87F00DB
:105880001EA9A448FBF704FE0C2200219E48FBF74A
:105890008AFE0C2201219C48FBF785FE0C22042184
:1058A0009948FBF780FE0C2205219748FBF77BFE09
:1058B0000C2208219448FBF776FE0C22092192481D
:1058C000FBF771FE0C220A218F48FBF76CFE0C22BD
:1058D0000E218D48FBF767FE0C220F218A48FBF74B
:1058E00062FE0C2207218948FBF75DFE0C2208218D
:1058F0008648FBF758FE0C2209218448FBF753FE2B
:105900000C220A218148FBF74EFE0C220B217F4816
:10591000FBF749FE0C2211467C48FBF744FE0C22A3
:105920000D217A48FBF73FFE0C220E217748FBF74A
:105930003AFE0C220F217548FBF735FE0C2211466A
:105940007348FBF730FE0C2211467248FBF72BFE22
:105950000F200890002009903C200A9000200B9016
:105960000C900D900E9009200190002002900820CC
:1059700003900020049005900690079006200F9059
:10598000002010901190102012900020139015907C
:105990001490169017904FF4805018900020199092
:1059A0004FF480401A9000201B9008A81C9001A87A
:1059B0001D900FA8FBF71DFA01210620FBF7A4FAA2
:1059C0003220FDF77FFAD320FFF782FAFFF793FA30
:1059D0004A498880FFF78FFA48498880FFF78BFA99
:1059E00046498880084680884FF6FF7101EA00200A
:1059F00042498880FFF77FFA4049898808433F4938
:105A000088800846808849F24131884275D0042058
:105A1000FFF75EFAFFF76FFA38498880FFF76BFAF5
:105A200036498880FFF767FA3449888008468088BD
:105A30004FF6FF7101EA002030498880FFF75BFADA
:105A40002E49898808432D4988800846808848F275
:105A50005251884203D147F28970284988802748EB
:105A6000808847F289718842D0D0D420FFF730FA7D
:105A7000FFF741FA21498880FFF73DFA1F498880E6
:105A8000FFF739FA1D498880084680884FF6FF7174
:105A900001EA002019498880FFF72DFA1749898803
:105AA0000843164988800846808845F210318842AC
:105AB00079D055214FF47040FFF725FAAA214FF213
:105AC0000100FFF720FA52214FF20200FFF71BFA04
:105AD00008214FF20300FFF716FA01214FF20400EC
