:020000040800F2
:10000000F80B0020F9050008B9010008BB01000841
:10001000BF010008C3010008C7010008000000007C
:10002000000000000000000000000000CB010008FC
:10003000CD01000800000000CF010008D101000838
:10004000130600081306000813060008130600082C
:10005000130600081306000813060008130600081C
:10006000130600081306000813060008B13700083D
:1000700013060008130600081306000813060008FC
:1000800013060008130600081306000813060008EC
:1000900013060008130600081306000813060008DC
:1000A00013060008130600081306000813060008CC
:1000B0001B2A0008312A000813060008130600084E
:1000C00013060008130600081306000813060008AC
:1000D000130600081D4600087F480008BD4A0008B6
:1000E000E13500081306000813060008130600088F
:1000F000130600081306000813060008130600087C
:10010000130600081306000813060008130600086B
:1001100075470008FD38000813060008595200080A
:10012000130600081306000813060008130600084B
:10013000130600081306000813060008130600083B
:10014000130600081306000813060008130600082B
:10015000130600081306000813060008130600081B
:10016000130600081306000813060008130600080B
:1001700013060008130600081306000813060008FB
:100180001306000813060008DFF80CD005F022FD66
:10019000004800479D010008F80B0020A82002F04D
:1001A00047FA4FF4A06000F039FA04F017FF02E0BC
:1001B000642002F09FFAFBE7704700BFFEE700BF34
:1001C000FEE700BFFEE700BFFEE7704770477047DD
:1001D000704700000CB50020019000907648006840
:1001E00040F480307449086000BF7348006800F430
:1001F000003000900198401C0190009818B90198B7
:10020000B0F5A04FF1D16C48006800F4003010B197
:100210000120009001E0002000900098012846D1C4
:1002200065484030006840F08050634940310860C4
:100230006248006840F44040604908605E48083009
:1002400000685D49083108600846006840F40040D5
:1002500008600846006840F4A05008605848091F2C
:100260000860081F006840F08070091F086000BF28
:100270005148006800F000700028F9D040F2057085
:10028000504908604C480830006820F003004A4993
:10029000083108600846006840F00200086000BFAE
:1002A00045480830006800F00C000828F8D10CBD63
:1002B00010B54548006840F47000434908603E4866
:1002C000006840F001003C49086000203A490831CC
:1002D0000860394800683D490840374908603C4893
:1002E000091D0860081F006820F48020091F0860AD
:1002F000002031490C310860FFF76CFF4FF00060BF
:1003000031498039086010BD70B5002000220223F9
:1003100000240221284D08352D6805F00C0020B17D
:10032000042806D0082834D107E02A4D2A4E35602B
:1003300033E02A4D284E35602FE01F4D2D1D2D68CE
:10034000C5F380541C4D2D1D2D6805F03F0154B19F
:10035000224DB5FBF1F5184E361D3668C6F38816EA
:1003600005FB06F209E01B4DB5FBF1F5124E361DFB
:100370003668C6F3881605FB06F20F4D2D1D2D6855
:10038000C5F301456D1C6B00B2FBF3F5124E3560F1
:1003900003E0104D104E356000BF00BF064D08351C
:1003A0002D68C5F303150E4E705D0B4D2D68C540CD
:1003B000094E356070BD00000038024000700040FA
:1003C00008544007003C024088ED00E0FFFFF6FEC5
:1003D000103000240024F4000000002000127A00F5
:1003E0000400002010B54FF4E13002F02BFD7948F5
:1003F000007858B102F078FD04F0F0FD04F08AFFB7
:1004000040F6B83002F076F9012010BD0020FCE77C
:1004100071480078704771480068022801DA0020AE
:100420000CE06E480068042801DA012006E06B4801
:100430000068062801DA022000E0032066490870FF
:1004400067480068062806DB65480068092802DA64
:1004500008460078F8B1624800680C2807DB60485D
:1004600000680F2803DA5C480078012813D05C4844
:100470000068182807DB5A4800681B2803DA56482A
:100480000078022807D0564800681E2813DB52481F
:10049000007803280FD15048007808B9062006E0FC
:1004A0004D480078012801D10C2000E018204C496B
:1004B0000860012070470020FCE710B5494890ED26
:1004C000000A04F003FE48480068E0B143490868A8
:1004D00000EBD0714910A0EB410131B903F026F8CF
:1004E000022002F007F9012010BD002407E01421CA
:1004F000084604F0A2FE052002F0FCF8641C142C4F
:10050000F5DB0120F0E70020EEE710B5FFF783FFF1
:1005100070B103F086FB58B103F0DEFA40F24731C8
:1005200040F2E73002F006F903F02DF8012010BD8B
:1005300004F015FF10B905F042F809E040F2473128
:1005400040F2E73002F0F6F81421084604F075FE98
:100550000020ECE710B5002407E01421084604F061
:100560006CFE022002F0C6F8641CB4F5FA7FF4DBDE
:1005700003F057FB08B1012010BD0020FCE710B5C7
:100580001421084604F059FE0A2002F0B3F803F0E3
:10059000A3FA10BD10B51549154A127851F822007A
:1005A000804720B112480078401C1149087010485B
:1005B000007810490978884204DB00200C49087053
:1005C00003F08AFA10BD00200949087070470848F6
:1005D00000787047020100201800002094000020DD
:1005E00014000020A0000020580100201C00002062
:1005F0005900002058000020064880470648004760
:10060000FEE7FEE7FEE7FEE7FEE7FEE7FEE7FEE7C2
:10061000FEE7FEE7B1020008890100083249014304
:10062000324A1160704770B5002100230F22C47850
:100630001CB32E4C246804F4E064C4F5E064C4F3F5
:100640000721C1F10404E3B20A4144789C40E1B2BD
:100650008478144021430C07210E254C0578615500
:10066000047804F01F050124AC4005786D11AD003D
:1006700005F1E025C5F8004109E0047804F01F0504
:100680000124AC401B4D0678761145F8264070BD1C
:10069000194A0A400243154B1B1F1A60704739B1B3
:1006A000124A121D12680243104B1B1D1A6006E00D
:1006B0000E4A121D126882430C4B1B1D1A607047B4
:1006C000042808D14FF0E021096941F004014FF0FE
:1006D000E022116107E04FF0E021096921F00401F7
:1006E0004FF0E022116170470000FA050CED00E0C8
:1006F00000E400E080E100E080FFFF1F016821F0DE
:10070000010101600021016041608160C1600161FF
:1007100021214161DB49884204D13D21D94A103A67
:1007200091608CE0D7491831884205D14FF474614B
:10073000D44A103A916082E0D2493031884205D1E2
:100740004FF47411CF4A103A916078E0CD494831A6
:10075000884205D14FF07461CA4A103A91606EE048
:10076000C8496031884204D1C749C64A103AD160AD
:1007700065E0C4497831884204D1C449C14A103A7D
:10078000D1605CE0BF499031884204D1C049BD4A84
:10079000103AD16053E0BB49A831884205D14FF0EF
:1007A0003D51B84A103AD16049E0BA49884204D173
:1007B0003D21B84A083A116041E0B64918318842F3
:1007C00005D14FF47461B34A083A116037E0B1497A
:1007D0003031884205D14FF47411AE4A083A1160A5
:1007E0002DE0AC494831884205D14FF07461A94AE7
:1007F000083A116023E0A7496031884204D1A24938
:10080000A44A121F11601AE0A2497831884204D12B
:100810009E49A04A121F116011E09E499031884202
:1008200004D19B499B4A121F116008E09949A831E5
:10083000884204D14FF03D51964A121F1160704713
:1008400010B500220268944B1A40CC680B68234311
:100850004C6923438C692343CC6923430C6A2343AB
:100860004C6A23438C6A23434C6B23438C6B234396
:100870001A430260426922F00702D1E90B34234394
:100880001A4342610B6943604B6883608B68C360A5
:1008900010BD0021016041608160C1600161416162
:1008A0008161C161016241628162C1620163416330
:1008B0008163704721B1026842F00102026003E0E7
:1008C000026822F001020260704721B1026842F41E
:1008D0000042026003E0026822F4004202607047B6
:1008E00021B1026842F02002026003E0026822F0B7
:1008F000200202607047416070470146486880B23C
:10090000704722B1036843F40023036003E00368E7
:1009100023F4002303600161704721B1026842F4AF
:100920008022026003E0026822F4802202607047A5
:100930000AB1016100E0C1607047014600200A6809
:1009400002F400220AB1012000E0002070470146B5
:1009500000200A6802F001020AB1012000E0002034
:100960007047014600204A6902F03800704730B5F0
:1009700003460A4600200024464DAB4202D24149BC
:10098000103901E04349103902F000550DB14C68AF
:1009900000E00C68414D2C4004EA02050DB1012035
:1009A00000E0002030BD02463A4B9A4202D2354860
:1009B000103801E03748103801F000531BB1374BB5
:1009C0000B40C36002E0354B0B408360704710B5AD
:1009D00001F080034BB122B1436943F080034361CE
:1009E00003E0436923F08003436180290BD02AB1DF
:1009F000036801F01E042343036004E0036801F070
:100A00001E04A343036010BD70B5024600200024FD
:100A10000025204EB24202D21A4B103B01E01D4B82
:100A2000103B1F4E0E4036B11E2606EAD124166832
:100A300006EA040502E0566906F0800501F000565A
:100A40000EB15C6800E01C68144E344004EA0106F4
:100A500016B10DB1012000E0002070BD02460D4B23
:100A60009A4202D20748103801E00A48103801F0D3
:100A700000531BB1094B0B40C36002E0074B0B4016
:100A800083607047106002403D000020400F00204E
:100A900000003D20106402403F801CF07D0F7D0F60
:100AA0003C0F3C0F002041490860091D0860091DEA
:100AB0000860091D08603E483C49143108607047D1
:100AC00000213A498279002A3AD00A46126803681E
:100AD0009A430B461A600A1D126803689A430B1D5D
:100AE0001A60027911440A6803681A430A602F4A9F
:100AF0000832126803689A432C4B08331A601A1D97
:100B0000126803689A43294B0C331A604279102A01
:100B10000ED11A1F126803681A43244B08331A6057
:100B20001A1D126803681A43204B0C331A600DE03B
:100B30001E49427911440A6803681A430A6005E0B5
:100B4000027911440A6803689A430A6070470021D9
:100B5000016001710C2141710021817170471349BD
:100B6000103109680143114A103211607047014683
:100B700000200E4A143212680A400AB1012000E037
:100B80000020704709491431086070470146002071
:100B9000064A143212680A400AB1012000E000201F
:100BA000704702491431086070470000003C014062
:100BB000FFFF7F0010B504469848844208D1012108
:100BC000084600F086FB0021012000F082FB76E061
:100BD0009348844208D10121022000F07AFB0021D1
:100BE000022000F076FB6AE08E48844208D10121A1
:100BF000042000F06EFB0021042000F06AFB5EE0A0
:100C00008948844208D10121082000F062FB0021BC
:100C1000082000F05EFB52E08448844208D10121A4
:100C2000102000F056FB0021102000F052FB46E09F
:100C30007F48844208D10121202000F04AFB002196
:100C4000202000F046FB3AE07A48844208D1012196
:100C5000402000F03EFB0021402000F03AFB2EE057
:100C60007548844208D10121802000F032FB002128
:100C7000802000F02EFB22E07048844208D1012140
:100C8000801500F026FB0021A01500F022FB16E0E5
:100C90006B48844208D10121401500F01AFB002165
:100CA000601500F016FB0AE06648844207D1012176
:100CB000001500F00EFB0021201500F00AFB10BD0E
:100CC000F0B50A4600210023002400BF3DE00125C5
:100CD00005FA01F3156805EA03049C4234D105685E
:100CE0004F000326BE40B543056015794E00B54060
:100CF0000668354305601579012D02D01579022D5E
:100D000016D185684F000326BE40B54385605579EE
:100D10004E00B540866835438560456801268E40A3
:100D2000B5434560456896798E40B6B23543456017
:100D3000C5684F000326BE40B543C560D5794E0057
:100D4000B540C6683543C560491C1029BFD3F0BD06
:100D50004FF6FF7101600021017141718171C17114
:100D6000704708B54FF480320092009A0A4300920F
:100D7000009AC261C161009AC261C2690092C269EF
:100D8000009208BD0246002013690B400BB1012000
:100D900000E0002070470146086980B270470246B3
:100DA000002053690B400BB1012000E00020704788
:100DB0000146486980B2704701837047418370479C
:100DC0000AB1018300E04183704741617047426985
:100DD0004A4042617047F0B5002300244D07ED0EF4
:100DE00002FA05F3CE1000F1200555F826504E0703
:100DF000F70E0F26BE40B543CF1000F1200646F88F
:100E00002750CE1000F1200555F8265045EA03047E
:100E1000CE1000F1200545F82640F0BD000002404C
:100E20000004024000080240000C02400010024092
:100E30000014024000180240001C02400020024042
:100E40000024024000280240F948006840F00100F8
:100E5000F74908600020F64908310860F448006846
:100E6000F4490840F2490860F348091D0860F34856
:100E7000EF4984310860F0481038091D0860EC48DB
:100E8000006820F48020EA4908600020E8490C311D
:100E90000860E7498C31086070470021E44A921CE1
:100EA000117011460870704710B5014600220023EA
:100EB00000204A11012A02D1DD4C236808E0022AF1
:100EC00003D1DB4C7034236802E0D94C74342368BE
:100ED00001F01F02012494401C400CB1012000E0ED
:100EE000002010BD38B5002000900024002500BF70
:100EF0003120FFF7D9FF05460098401C009000986C
:100F0000B0F5A04F01D0002DF2D03120FFF7CCFF7B
:100F100008B1012400E00024204638BD014600202D
:100F2000C34A106820F0F80040EAC1001060704722
:100F3000C349086070470021BD4A703211701170BA
:100F4000012802D004280AD104E00121B84A7032F5
:100F5000117005E00521B64A7032117000E000BF43
:100F600000BF7047B7490860704770B5049C41EAFC
:100F700082150126C6EB530645EA0645054345EAB8
:100F80000465AB4E361D356070BDAD4908667047CF
:100F9000820142EA0172A64B84331A607047A84965
:100FA0008866704710B5830143EA016343EA027320
:100FB0009F4C8834236010BDA14908677047A04941
:100FC000C864704702460020994B0833186820F027
:100FD000EC6042EA01031843954B083318607047F0
:100FE00002460020924B0833186820F0784042EA0D
:100FF000010318438E4B08331860704701460020E8
:101000008B4A0832106820F00300084310607047D4
:1010100087480830006800F00C0070470146002047
:10102000834A0832106820F0F000084310607047CF
:10103000014600207E4A0832106820F4E050084340
:101040001060704701460020794A0832106820F489
:10105000604040EAC10010607047F0B500210022F6
:101060000024022500260223714F08373F6807F04D
:101070000C0121B1042905D0082937D105E0724FB0
:10108000076036E0714F076033E0694F3F1D3F68EE
:10109000C7F38056664F3F1D3F6807F03F036EB1B0
:1010A0006A4FB7FBF3F7DFF888C10CF1040CDCF8EA
:1010B00000C0CCF3881C07FB0CF40CE0624FB7FBBC
:1010C000F3F7DFF86CC10CF1040CDCF800C0CCF3D2
:1010D000881C07FB0CF4564F3F1D3F68C7F30147C0
:1010E0007F1C7D00B4FBF5F7076002E0564F0760F8
:1010F00000BF00BF4E4F08373F6807F0F0010909F5
:10110000534F7A5C0768D7404760494F08373F68BC
:1011100007F4E051890A4E4F7A5C4768D7408760F0
:10112000434F08373F6807F46041490B484F7A5CEA
:101130004768D740C760F0BD002100F44072B2F5A7
:10114000407F0AD13A4A0832116821F4F811414A25
:1011500002401143364A08321160354A7032126833
:10116000C0F30B031A43324B70331A607047354992
:101170004439086070473349403908607047364940
:101180000860704701460020294A8C32106820F020
:101190001F004A1E1043264A8C32106070470146D9
:1011A0000020234A8C32106820F4F8504A1E40EA8E
:1011B00002201F4A8C3210607047014600201C4AF2
:1011C0008C32106820F440100843106070470146CC
:1011D0000020174A8C32106820F440000843106049
:1011E000704701460020124A8C32106820F44030CB
:1011F00008431060704719490860704739B10C4ABC
:101200003032126802430A4B30331A6006E0084A53
:10121000303212688243064B30331A607047F9B19E
:10122000034A343212680243014B34331A601CE023
:1012300000380240FFFFF6EA1030002400300020A2
:1012400000004742800E47420024F40000127A005A
:101250005A000020FFFCFF0F5C014742E0114742AB
:101260008F4A126882438E4B1A60704739B18C4A9C
:10127000121D126802438A4B1B1D1A6006E0884A41
:10128000121D12688243864B1B1D1A60704739B1CC
:10129000834A0C3212680243814B0C331A6006E019
:1012A0007F4A0C32126882437D4B0C331A607047C0
:1012B00039B17B4A103212680243794B10331A60FD
:1012C00006E0774A103212688243754B10331A6079
:1012D000704739B1724A243A12680243704B243B7A
:1012E0001A6006E06E4A243A126882436C4B243B33
:1012F0001A60704739B16A4A203A12680243684B53
:10130000203B1A6006E0664A203A12688243644B2A
:10131000203B1A60704739B1614A1C3A1268024397
:101320005F4B1C3B1A6006E05D4A1C3A1268824320
:101330005B4B1C3B1A60704739B1594A143A12682A
:101340000243574B143B1A6006E0554A143A1268A0
:101350008243534B143B1A60704739B1504A103ADC
:10136000126802434E4B103B1A6006E04C4A103A9A
:10137000126882434A4B103B1A60704739B1484AA1
:101380001C3212680243464B1C331A6006E0444A82
:101390001C3212688243424B1C331A60704739B1C9
:1013A0003F4A2032126802433D4B20331A6006E068
:1013B0003B4A203212688243394B20331A6070470F
:1013C00039B1374A243212680243354B24331A604C
:1013D00006E0334A243212688243314B24331A60C8
:1013E000704739B12E4A2C32126802432C4B2C33F1
:1013F0001A6006E02A4A2C3212688243284B2C33AA
:101400001A60704739B1264A303212680243244BC1
:1014100030331A6006E0224A303212688243204B91
:1014200030331A607047012808D11D493C310968E2
:1014300041F008011A4A3C32116007E018493C317A
:10144000096821F00801164A3C321160704739B131
:10145000134A273A12780243114B273B1A7006E0D1
:101460000F4A273A127882430D4B273B1A70704778
:101470000B484030006840F08070094940310860F6
:10148000704701460020064A283A12680A400AB10D
:10149000012000E00020704701492639087070479C
:1014A0003438024010B501218803FFF756FF0021B0
:1014B0004FF48040FFF751FF10BD1C490860704792
:1014C0001B490862704730B500228B071C0F0F23A1
:1014D00003FA04F2154B08338C1053F8243093436D
:1014E000124C08348D1044F8253023468C1053F8E4
:1014F00024308C07240F00FA04F423430B4C0834E7
:101500008D1044F8253030BD0949DC310860704742
:10151000084908607047002004492031096801F437
:10152000807109B1012000E00020704700380140BF
:10153000000027420004274210B50446FE488442BA
:1015400008D101210846FFF708FF00210120FFF71D
:1015500004FF9DE0B4F1804F08D101210846FFF758
:10156000EBFE00210120FFF7E7FE91E0F348844203
:1015700008D101210220FFF7DFFE00210220FFF742
:10158000DBFE85E0EE48844208D101210420FFF70C
:10159000D3FE00210420FFF7CFFE79E0E948844222
:1015A00008D101210820FFF7C7FE00210820FFF71E
:1015B000C3FE6DE0E448844208D101211020FFF70A
:1015C000BBFE00211020FFF7B7FE61E0DF48844238
:1015D00008D101212020FFF7AFFE00212020FFF7D6
:1015E000ABFE55E0DA48844208D101210220FFF722
:1015F000B4FE00210220FFF7B0FE49E0D548844246
:1016000009D101210804FFF7A8FE00214FF4803022
:10161000FFF7A3FE3CE0D048844209D101214804F1
:10162000FFF79BFE00214FF40030FFF796FE2FE0FE
:10163000CA48844209D101218804FFF78EFE0021A7
:101640004FF48020FFF789FE22E0C548844208D18C
:1016500001214020FFF770FE00214020FFF76CFEC3
:1016600016E0C048844208D101218020FFF764FEC3
:1016700000218020FFF760FE0AE0BB48844207D1CA
:1016800001218015FFF758FE0021A015FFF754FE39
:1016900010BD00220288A84B98420ED0AC4B984255
:1016A0000BD0B0F1804F08D0A44B984205D0A44B8A
:1016B000984202D0A34B984204D14FF68F731A4040
:1016C0004B881A43A04B984207D0A04B984204D0B5
:1016D0004FF6FF431A400B891A4302804B68C362DE
:1016E0000B880385944B984202D0994B984201D1C4
:1016F0008B7A03860123838270474FF0FF3141606C
:1017000000210180018141808172704701858282C0
:1017100070470A46002101884FF68F731940114324
:101720000180704741627047C16270470146486A54
:1017300070470146088D704721B1028842F00202CD
:10174000028004E002884FF6FD731A400280704761
:1017500021B1028842F00402028004E002884FF6C0
:10176000FB731A400280704721B1028842F0800268
:10177000028004E002884FF67F731A4002807047AF
:1017800002884FF6F7731A40028002880A430280EB
:10179000704702884FF6FF431A40028002880A43CE
:1017A0000280704721B1028842F00102028004E009
:1017B00002884FF6FE731A400280704770B500240D
:1017C00000220023058C4FF6FE7635400584028CFE
:1017D0008388048B4FF68F752C40B51E2C400D88E6
:1017E0002C43751E2A408D892A434D882A43524D29
:1017F000A84202D0564DA84213D14FF6F7752A40A1
:10180000CD892A434FF6FB752A408D882A434FF62F
:10181000FF652B404FF6FF552B400D8A2B434D8A19
:101820002B43838004838D684563028470BD70B54B
:10183000002400220023058C4FF6EF763540058406
:10184000028C8388048B48F6FF752C404FF6FF45C9
:101850002C400D884FF6FF7606EA05252C434FF6FF
:10186000DF752A408D8906EA05152A434D8806EA68
:1018700005152A43304DA84202D0354DA8421DD14E
:101880004FF67F752A40CD894FF6FF7606EA05159B
:101890002A434FF6BF752A408D8806EA05152A436C
:1018A0004FF6FF352B404FF2FF752B400D8A06EAAD
:1018B00085052B434D8A06EA85052B4383800483E7
:1018C0008D688563028470BD70B5002400220023FA
:1018D000058C4FF6FF6635400584028C8388848B27
:1018E0004FF68F752C404FF6FC752C400D882C431D
:1018F0004FF6FF552A408D894FF6FF7606EA0525FB
:101900002A434D8806EA05252A430B4DA84202D0FA
:101910000F4DA84238D14FF2FF752A40CD894FF6BE
:10192000FF7606EA05252A434FF6FF352A408D88C3
:1019300006EA05252A4319E00000014000040040A2
:1019400000080040000C004000100040001400405F
:1019500000040140004001400044014000480140B3
:1019600000180040001C0040002000404EF6FF75AB
:101970002B404DF6FF752B400D8A06EA05152B43CB
:101980004D8A06EA05152B43838084838D68C563E1
:10199000028470BD70B5002200230024058C4EF631
:1019A000FF7635400584038C8488828B48F6FF756A
:1019B0002A404FF6FF452A400D884FF6FF7606EA8B
:1019C00005252A434DF6FF752B408D8906EA05351E
:1019D0002B434D8806EA05352B43FE4DA84202D025
:1019E000FD4DA84208D14BF6FF752C400D8A4FF6ED
:1019F000FF7606EA85152C43848082838D68056412
:101A0000038470BD002101804180818081608181DB
:101A1000C18101824182704770B5034600200024D5
:101A20001846183001258D40ACB21D8CA5431D848D
:101A300009B108290AD100EB610005684FF68F76DD
:101A4000354005600568154305600FE00D1FC5F3BF
:101A50004E052844056848F6FF7635400560056860
:101A60004FF6FF7606EA02263543056070BD4163F6
:101A7000704781637047C1637047016470470A46CD
:101A80000021018B4FF68F7319401143018370477A
:101A90000A460021018B48F6FF7319404FF6FF7389
:101AA00003EA02231943018370470A460021818B10
:101AB0004FF68F7319401143818370470A46002106
:101AC000818B48F6FF7319404FF6FF7303EA022338
:101AD0001943818370470A460021018B4FF6F77343
:101AE00019401143018370470A460021018B4FF2D0
:101AF000FF7319404FF6FF7303EA02231943018372
:101B000070470A460021818B4FF6F7731940114345
:101B1000818370470A460021818B4FF2FF73194081
:101B20004FF6FF7303EA02231943818370470A4685
:101B30000021018B4FF6FB7319401143018370475D
:101B40000A460021018B4FF6FF3319404FF6FF7311
:101B500003EA02231943018370470A460021818B5F
:101B60004FF6FB7319401143818370470A460021E9
:101B7000818B4FF6FF3319404FF6FF7303EA0223C0
:101B80001943818370470A460021018B4FF67F730A
:101B900019401143018370470A460021018BC1F3AC
:101BA0000E014FF6FF7303EA0223194301837047C6
:101BB0000A460021818B4FF67F73194011438183C0
:101BC00070470A460021818BC1F30E014FF6FF7367
:101BD00003EA02231943818370470A460021018CDE
:101BE0004FF6FD7319401143018470470A460021E6
:101BF000018C4FF6F77319401143018470470A4670
:101C00000021018C4FF6DF7319404FF6FF7303EA92
:101C100002131943018470470A460021018C4FF6D4
:101C20007F7319404FF6FF7303EA021319430184CF
:101C300070470A460021018C4FF6FF5319404FF6BA
:101C4000FF7303EA02231943018470470A46002107
:101C5000018C4FF2FF7319404FF6FF7303EA022322
:101C60001943018470470A460021018C4DF6FF7329
:101C700019404FF6FF7303EA02331943018470479A
:101C800030B5002301248C40A3B2048C9C4304840F
:101C9000048C02FA01F5ADB22C43048430BD30B59A
:101CA000002304248C40A3B2048C9C430484048C41
:101CB00002FA01F5ADB22C43048430BD828B4FF2A1
:101CC000FF331A408283828B4FF6FF7303EA0123AE
:101CD0001A4382837047F0B50C4615460021002256
:101CE0000026078C4EF6FF7C07EA0C070784818BE1
:101CF000028C4FF6FF7707EA043640F6FF4739407B
:101D00004FF6FF7707EA052739434FF6FF7707EAD3
:101D10000337394345F6FF773A4046F480573A4354
:101D200081830284F0BD828B4FF6F3731A40828365
:101D3000828B0A4382837047F0B50C46154600211A
:101D400000220026078C4FF6FF6C07EA0C07078479
:101D5000818B028C4FF6FF7707EA04264FF60C774B
:101D600039404FF6FF7707EA03172F4339434FF205
:101D7000FF573A4046F480773A4381830284F0BDAE
:101D8000028B4FF2FF331A400283028B4FF6FF7330
:101D900003EA01231A4302837047F0B50C46154647
:101DA000002100220026078C4FF6EF7C07EA0C0783
:101DB0000784018B028C4FF6FF7707EA041640F682
:101DC000FF4739404FF6FF7707EA033739434FF6AD
:101DD000FF7703E0000001400004014007EA052707
:101DE00039434FF65F773A4046F010073A43018394
:101DF0000284F0BD028B4FF6F3731A400283028B0C
:101E00000A4302837047F0B50C46154600210022B4
:101E1000068C4FF6FE773E400684018B028C4FF60F
:101E20000C7631407E1C06EA03162E4331434FF6F2
:101E3000F576324044F00106324301830284F0BD5E
:101E400070B505460C46208850B92389A288618860
:101E50002846FFF7D8FFE1882846FFF7CBFF25E0AB
:101E6000208804280AD12389A28861882846FFF7A0
:101E700094FFE1882846FFF783FF17E020880828B1
:101E80000AD12389A28861882846FFF755FFE18897
:101E90002846FFF748FF09E02389A2886188284681
:101EA000FFF719FFE1882846FFF708FF70BD002102
:101EB00001804180012181800021C1800181704722
:101EC0002DE9F04105460C4600260127608808B937
:101ED000022600E00026A088012801D1022700E0A8
:101EE00001272088A0B92389A28861882846FFF7A6
:101EF0008AFFE1882846FFF77DFF23893A4631466D
:101F00002846FFF74AFFE1882846FFF739FF13E02C
:101F10002389A28861882846FFF73FFFE188284689
:101F2000FFF72EFF23893A4631462846FFF76BFF1D
:101F3000E1882846FFF75EFFBDE8F0810146486B67
:101F400070470146886B70470146C86B7047014671
:101F5000086C70470A884B881A438B881A43CB88D1
:101F60001A430B891A434B891A438B891A43A0F8E9
:101F7000442070470021018041808180C18001811F
:101F800041818181704731B1B0F8442042F4004270
:101F9000A0F8442005E0B0F84420C2F30E02A0F8F7
:101FA0004420704721B1828842F00402828004E01C
:101FB00082884FF6FB731A408280704721B1828875
:101FC00042F00102828004E082884FF6FE731A40DC
:101FD000828070471AB183890B43838102E0838931
:101FE0008B43838170478182704702460020138AA9
:101FF0000B400BB1012000E000207047CA43028271
:10200000704730B50246002000230024158A05EAF7
:102010000103958905EA010413B10CB1012000E028
:10202000002030BDCA430282704741EA0203A0F893
:10203000483070471AB183890B43838102E083895A
:102040008B438381704721B1828842F008028280ED
:1020500004E082884FF6F7731A4082807047018946
:102060004FF6F8721140018170470A46002101893C
:102070004FF68F73194011430181704730B5044604
:102080000D4629462046FFF7F0FF208940F0070063
:10209000208130BD2DE9F04104460D4616461F460D
:1020A000602D06D13B46012231462046FFF775FEE2
:1020B00005E03B46012231462046FFF7A4FE2946B3
:1020C0002046FFF7D2FF208940F007002081BDE8BD
:1020D000F08130B50C4600210189C9B24FF6FF7579
:1020E00005EA0325154325432943018130BD2DE928
:1020F000F04105460E4617469846002443463A46A8
:1021000031462846FFF7E5FF2C894FF6F87004406A
:1021100044F007044FF68F70044044F070042C81A3
:10212000BDE8F081F0B504460D4616461F463B4615
:10213000324629462046FFF7CCFF208940F48040F4
:102140002081F0BD82884FF68F731A40828082888A
:102150000A438280704702894FF6F8731A40028161
:1021600002890A430281704702894FF67F731A4041
:10217000028102890A4302817047F0B50C46154678
:102180001E460021002200230189028B038C4FF69A
:10219000F877394021434FF6FC473A4040F20117A7
:1021A0003A434FF6DD773B404FF6FF7707EA0617D5
:1021B0002F433B43018102830384F0BD21B1828818
:1021C00042F08002828004E082884FF67F731A40DA
:1021D00082807047A0F850107047000010B5044688
:1021E000FA48844208D101211020FFF7B6F80021F7
:1021F0001020FFF7B2F857E0F548844209D10121D9
:102200004804FFF799F800214FF40030FFF794F8E5
:102210004AE0F048844209D101218804FFF78CF894
:1022200000214FF48020FFF787F83DE0EA48844220
:1022300009D10121C804FFF77FF800214FF40020E5
:10224000FFF77AF830E0E548844209D1012108051A
:10225000FFF772F800214FF48010FFF76DF823E0CC
:10226000DF48844208D101212020FFF776F80021C1
:102270002020FFF772F817E0DA48844209D10121E3
:102280008807FFF759F800214FF08040FFF754F816
:102290000AE0D548844207D101214005FFF74CF8F8
:1022A00000216005FFF748F810BD2DE9FF470546FE
:1022B0000E460024A14600BFA046B08900B100BF71
:1022C0002C8A24F44054F08804432C82AC8941F2D7
:1022D0000C608443B0883189084371890843044302
:1022E000AC81AC8A24F44074B0890443AC82684663
:1022F000FEF7B3FEB548854202D0B948854202D107
:10230000DDF80C9001E0DDF80890A88900F40040A9
:1023100040B109EBC90000EB091031684900B0FB7E
:10232000F1F707E009EBC90000EB091031688900FB
:10233000B0FBF1F76420B7FBF0F004012009642141
:1023400001FB1078A88900F4004040B1322000EB76
:10235000C800B0FBF1F000F00700044308E03220B1
:1023600000EB08106421B0FBF1F000F00F00044313
:102370002C81BDE8FF874FF4165101600021818058
:10238000C18001810C21418100218181704710B5FC
:1023900002460020108A20F470600B884C8823438A
:1023A0008C882343CC8823431843108210BD00211E
:1023B000018041808180C180704721B1828942F4CF
:1023C0000052828104E082894DF6FF731A408281B7
:1023D0007047028B02F47F420283028B0A4302831E
:1023E000704721B1828942F40042828103E08289F0
:1023F000C2F30E028281704721B1828A42F40062E8
:10240000828204E0828A4FF2FF731A408282704710
:10241000C1F308028280704701468888C0F3080033
:102420007047028A4FF6F0731A400282028A0A430A
:102430000282704721B1828942F00202828104E067
:1024400082894FF6FD731A408281704782894FF26C
:10245000FF731A40828182890A4382817047028A0F
:102460004FF6DF731A400282028A0A4302827047E3
:1024700021B1028A42F48042028204E0028A4BF6D1
:10248000FF731A4002827047818941F00101818106
:10249000704721B1828A42F00802828204E0828A77
:1024A0004FF6F7731A4082827047028BD2B20283D2
:1024B000028B42EA01220283704721B1828A42F0F4
:1024C0002002828204E0828A4FF6DF731A40828201
:1024D000704721B1828A42F01002828204E0828A2F
:1024E0004FF6EF731A4082827047828A4FF6FB7371
:1024F0001A408282828A0A438282704721B1828A8C
:1025000042F00202828204E0828A4FF6FD731A4092
:10251000828270471AB1838A0B43838202E0838AE6
:102520008B4383827047F0B50346002400260025C4
:10253000002040F66A17B94200D100BF1846C1F327
:10254000421401F01F06012707FA06F5012C01D1FC
:102550000C3004E0022C01D1103000E014301AB12C
:1025600007682F43076002E00768AF430760F0BDCC
:1025700002460020B1F5007F00D100BF13880B4058
:102580000BB1012000E00020704701F40072B2F5A9
:10259000007F00D100BFCA430280704770B5024679
:1025A000002400230025002040F66A16B14200D125
:1025B00000BFC1F3421501F01F03012606FA03F321
:1025C000012D13D19689334017E00000001001401F
:1025D0000044004000480040004C004000500040D3
:1025E0000014014000780040007C0040022D02D120
:1025F000168A334001E0968A33400C12012606FA0F
:1026000004F41688344013B10CB1012000E000201E
:1026100070BD10B50022002340F66A14A14200D11B
:1026200000BF0A1201249440A3B2DC43048010BD11
:1026300010B504466FF00400FEF742F8E11704EB12
:102640005171C1F3C701394A11701046007800EB8F
:102650004001C1EBC0104FF6FF7101EAC0003449E0
:10266000088010BD0146314A12784A434FF0E023FA
:102670005A6100229A611A46126942F001021A61F7
:1026800000BF4FF0E022106900F001021AB100F41F
:102690008032002AF5D04FF0E022126922F00102C8
:1026A0004FF0E0231A6100229A6170470146204AE8
:1026B00012884A434FF0E0235A6100229A611A4679
:1026C000126942F001021A6100BF4FF0E022106966
:1026D00000F001021AB100F48032002AF5D04FF068
:1026E000E022126922F001024FF0E0231A61002279
:1026F0009A61704770B504464FF4077094FBF0F090
:10270000C6B24FF4077094FBF0F100FB114085B2A4
:1027100005E04FF40770FFF7C9FF701EC6B2002E28
:10272000F7D115B12846FFF7C1FF70BD6A00002040
:102730006C0000207FB505460C4601212020FEF7E5
:10274000A6FD0295ADF804400020ADF80600ADF8F6
:102750000C0001A9FE48FEF79CFF01221146FC482F
:10276000FFF738FC0121FA48FFF71CF837208DF8F5
:10277000000003208DF801008DF8020001208DF883
:1027800003006846FDF74FFF7FBD08B500212020FC
:10279000FEF77DFD00220121ED48FFF71BFC002123
:1027A000EB48FEF7FFFF37208DF8000003208DF87F
:1027B00001008DF8020000208DF803006846FDF747
:1027C00032FF08BD30B58BB005460C46012108200C
:1027D000FEF714FD01210420FEF759FD02220C2111
:1027E000DC48FEF7F8FA02220D21DA48FEF7F3FA88
:1027F00002208DF8280000208DF82A008DF82B008B
:1028000003208DF829000003099009A9D148FEF79B
:1028100057FAD148FEF790FECF48FEF78DFE002014
:10282000ADF82000ADF81A000795A0B2ADF8180079
:1028300000208DF8220006A9C748FEF72AFF06A946
:10284000C548FEF726FF6020ADF804000120ADF872
:1028500006000020ADF81000039001A9BE48FEF765
:10286000ADFF01A9BC48FEF7E2FF0821BA48FFF717
:1028700032F90821B848FFF737F90121B648FEF7C9
:1028800073FF0121B448FEF76FFF0121B248FEF744
:1028900089FF0121B048FEF785FF0BB030BD00B5C0
:1028A00089B001210846FEF7A9FC01210846FEF780
:1028B000EEFC02208DF8200000208DF8220022205E
:1028C000079000208DF8230003208DF8210007A930
:1028D000A248FEF7F5F901221146A048FEF77BFA5F
:1028E000012205219D48FEF776FA04A8FEF705FFB0
:1028F0000020ADF81800ADF812004FF6FF700590FB
:102900000020ADF810008DF81A0004A94FF08040A7
:10291000FEF7BFFE01A8FFF7CAFA1020ADF80C00C1
:1029200001A98006FFF78CFA00231A4603214FF015
:102930008040FFF722FC00214FF08040FEF7F2FEBE
:1029400001218807FFF75AFB012211469007FFF784
:1029500041FB01218807FEF725FF09B000BD00B546
:1029600089B001210420FEF749FC01210220FEF775
:102970008EFC02208DF8200000208DF82200C0205F
:10298000079000208DF8230003208DF8210007A96F
:102990007348FEF795F9022206217148FEF71BFAEB
:1029A000022207216E48FEF716FA04A8FEF7A5FEDC
:1029B0000020ADF81800ADF812004FF6FF7005903A
:1029C0000020ADF810008DF81A0004A94FF08040E7
:1029D000FEF75FFE01A8FFF76AFA1020ADF80C00C1
:1029E00001A96048FFF72CFA00231A4603215D482D
:1029F000FFF7C3FB00215B48FEF794FE0121594815
:102A0000FFF7FCFA012211465648FFF7E3FA0121CD
:102A10005448FEF7C7FE09B000BD10B50121880774
:102A2000FFF7EFFA18B101218807FFF7FBFA10BD95
:102A300010B501214B48FFF7E4FA18B101214948CC
:102A4000FFF7F0FA10BD30B58BB004460D460121FA
:102A50008020FEF71CFC01212020FEF7CFFB09227D
:102A600008214148FEF7B7F94FF480700990022021
:102A70008DF8280003208DF8290000208DF82A0009
:102A800001208DF82B0009A93748FEF719F9681EB7
:102A900080B2ADF818000020ADF81A00601E079053
:102AA0000020ADF8200006A93048FEF7F2FD6020B6
:102AB000ADF804000120ADF806000020ADF81000CC
:102AC00001A92A48FEF77AFE08212848FFF703F8F3
:102AD00001212648FEF748FE01212448FEF762FE48
:102AE0000BB030BD30B58BB004460D460121080255
:102AF000FEF7CDFB01210846FEF780FB09220721E6
:102B00001648FEF768F98020099002208DF8280009
:102B100003208DF8290000208DF82A0001208DF86F
:102B20002B0009A90D48FEF7CBF8681E80B2ADF85E
:102B300018000020ADF81A00601E07900020ADF8C4
:102B4000200006A90A48FEF7A4FD602012E000005C
:102B500000140040000C0240000800400000024049
:102B6000000802400004004000140240001C004025
:102B700000200040ADF804000120ADF80600002060
:102B8000ADF8100001A90848FEF718FE0821064814
:102B9000FEF7A1FF01210448FEF7E6FD01210248EE
:102BA000FEF700FE0BB030BD002000401CB5012137
:102BB0002020FEF723FB01208DF8040000208DF873
:102BC00006008DF8070003208DF805004FF40E6015
:102BD000009069469448FEF773F81CBD1CB50121AE
:102BE0004020FEF70BFB00208DF804008DF8060056
:102BF0004FF44060009001208DF8070003208DF80D
:102C0000050069468948FEF75BF81CBD1CB501212B
:102C10005F20FEF7F3FA00208DF804008DF806001F
:102C20004FF48540009000208DF8070003208DF8B8
:102C3000050069467D48FEF743F800208DF8040042
:102C40008DF806004FF40140009000208DF8070039
:102C500003208DF8050069467548FEF731F800201D
:102C60008DF804008DF80600E020009000208DF81B
:102C7000070003208DF8050069466E48FEF720F82E
:102C800000208DF804008DF80600602000900020E0
:102C90008DF8070003208DF8050069466648FEF7A9
:102CA0000FF800208DF804008DF8060040F2012096
:102CB000009000208DF8070003208DF8050069467C
:102CC0005E48FDF7FDFF00208DF804008DF806003A
:102CD0009020009000208DF8070003208DF805005B
:102CE00069465748FDF7ECFF1CBD1CB50121742057
:102CF000FEF784FA00208DF8040002208DF807000A
:102D00008003009069464B48FDF7DAFF05200090EC
:102D100069464548FDF7D4FF01208DF804000220E4
:102D20008DF805001020009069463F48FDF7C8FF68
:102D30004FF48440009069464148FDF7C1FF1CBD37
:102D40001CB501214820FEF759FA402000900120CF
:102D50008DF8040003208DF8050000208DF8060092
:102D600001208DF8070069463548FDF7A9FF40218D
:102D70003348FEF721F84FF40040009000208DF812
:102D8000040003208DF8050000208DF806000120C6
:102D90008DF8070069462548FDF792FF1CBD1CB55C
:102DA00001214820FEF72AFA00208DF804008DF852
:102DB00006000820009001208DF8070003208DF800
:102DC000050069461E48FDF77BFF00208DF80400D2
:102DD0008DF806004FF44060009001208DF8070048
:102DE00003208DF8050069461048FDF769FF1CBDFA
:102DF0001CB501210220FEF701FA102000900120ED
:102E00008DF8040003208DF8050000208DF80600E1
:102E100002208DF8070069460648FDF751FF102192
:102E20000448FDF7CBFF1CBD00140240001802400F
:102E3000000002400004024000100240000802406E
:102E4000000C024010B588B0044601210846FEF788
:102E5000D5F901211020FEF72BFA07220921FE489F
:102E6000FDF7B9FF07220A21FB48FDF7B4FF4FF435
:102E7000C060069002208DF81C008DF81D00002017
:102E80008DF81E0001208DF81F0006A9F248FDF7FD
:102E900017FF02940020ADF80C00ADF80E00ADF85D
:102EA0001000ADF814000C20ADF8120002A9EB4898
:102EB000FFF7FBF90121E948FFF77FFA012240F211
:102EC0002551E648FFF72FFB25208DF80400002050
:102ED0008DF805008DF8060001208DF8070001A887
:102EE000FDF7A1FB08B010BD00B587B0002101209F
:102EF000FEF784F900211020FEF7DAF907220921F4
:102F0000D548FDF768FF07220A21D348FDF763FF84
:102F10004FF4C060059002208DF818008DF819005C
:102F200000208DF81A0001208DF81B0005A9CA4861
:102F3000FDF7C6FE0020ADF80800ADF80A00ADF8B8
:102F40000C00ADF810000C20ADF80E0001A9C3482C
:102F5000FFF7ABF90021C148FFF72FFA25208DF8C4
:102F6000000000208DF801008DF802008DF80300AC
:102F70006846FDF758FB07B000BD10B588B00446A1
:102F800001210846FEF73AF901214804FEF77FF9CE
:102F900007220321B048FDF71EFF07220221AE4899
:102FA000FDF719FF0C20069002208DF81C008DF80B
:102FB0001D0000208DF81E0001208DF81F0006A9BD
:102FC000A548FDF77DFE02940020ADF80C00ADF899
:102FD0000E00ADF81000ADF814000C20ADF8120092
:102FE00002A99F48FFF761F920219D48FFF7CDFA1C
:102FF00026208DF8040003208DF8050002208DF8AE
:10300000060001208DF8070001A8FDF70CFB012246
:1030100040F225519248FFF786FA01219048FFF7C8
:10302000CCF908B010BD00B587B000210120FEF733
:10303000E5F800214FF40030FEF729F907220321BB
:103040008548FDF7C8FE072202218348FDF7C3FE2D
:103050000C20059002208DF818008DF81900002032
:103060008DF81A0001208DF81B0005A97A48FDF79C
:1030700027FE0020ADF80800ADF80A00ADF80C00FE
:10308000ADF810000C20ADF80E0001A97448FFF750
:103090000CF920217248FFF778FA26208DF80000FD
:1030A00003208DF8010002208DF8020001208DF828
:1030B00003006846FDF7B7FA002240F22551684840
:1030C000FFF731FA00216648FFF777F907B000BD36
:1030D00010B588B0044601210220FEF78FF80121C7
:1030E0008804FEF7D4F807220A215E48FDF773FE34
:1030F00007220B215B48FDF76EFE4FF440600690FF
:1031000002208DF81C008DF81D0000208DF81E0097
:1031100001208DF81F0006A95248FDF7D1FD029449
:103120000020ADF80C00ADF80E00ADF81000ADF8C1
:1031300014000C20ADF8120002A94B48FFF7B5F8B7
:1031400040214948FFF721FA27208DF8040002208A
:103150008DF8050001208DF806008DF8070001A804
:10316000FDF761FA012240F225513F48FFF7DBF9F4
:1031700001213D48FFF721F908B010BD00B587B027
:1031800000210220FEF73AF800214FF48020FEF7DC
:103190007EF807220A213348FDF71DFE07220B2186
:1031A0003048FDF718FE4FF44060059002208DF87E
:1031B00018008DF8190000208DF81A0001208DF8F4
:1031C0001B0005A92748FDF77BFD0020ADF808008E
:1031D000ADF80A00ADF80C00ADF810000C20ADF809
:1031E0000E0001A92048FFF760F840211E48FFF7B4
:1031F000CCF927208DF8000002208DF80100012075
:103200008DF8020000208DF803006846FDF70BFAE8
:10321000002240F225511448FFF785F90021124899
:10322000FFF7CBF807B000BD10B588B00446012108
:103230000420FDF7E3FF0121C804FEF728F8082267
:103240000A210A48FDF7C7FD08220B210748FDF7B0
:10325000C2FD4FF440600BE000000240001001404E
:1032600000440040000402400048004000080240C2
:10327000069002208DF81C008DF81D0000208DF8AE
:103280001E0001208DF81F0006A9A448FDF718FDB7
:1032900002940020ADF80C00ADF80E00ADF810005F
:1032A000ADF814000C20ADF8120002A99C48FEF7FE
:1032B000FCFF01219A48FFF780F840219848FFF76A
:1032C00064F9012240F225519548FFF72CF934208A
:1032D0008DF8040003208DF8050002208DF806000B
:1032E00001208DF8070001A8FDF79DF908B010BD79
:1032F00000B587B000210420FDF780FF00214FF4C6
:103300000020FDF7C4FF08220A218448FDF763FD71
:1033100008220B218148FDF75EFD4FF440600590C7
:1033200002208DF818008DF8190000208DF81A0081
:1033300001208DF81B0005A97848FDF7C1FC00208D
:10334000ADF80800ADF80A00ADF80C00ADF81000BB
:103350000C20ADF80E0001A97148FEF7A6FF002170
:103360006F48FFF72AF840216D48FFF70EF9002259
:1033700040F225516A48FFF7D6F834208DF8000056
:1033800003208DF8010002208DF8020000208DF846
:1033900003006846FDF747F907B000BD10B588B0D7
:1033A000044601210C20FDF729FF01210805FDF746
:1033B0006EFF082202215B48FDF70DFD08220C215B
:1033C0005648FDF708FD4FF48050069002208DF816
:1033D0001C008DF81D0000208DF81E0001208DF8C6
:1033E0001F0006A94D48FDF76BFC04200690022043
:1033F0008DF81C008DF81D0000208DF81E000120A6
:103400008DF81F0006A94748FDF75AFC02940020DA
:10341000ADF80C00ADF80E00ADF81000ADF81400DA
:103420000C20ADF8120002A93F48FEF73EFF012133
:103430003D48FEF7C2FF40213B48FFF7A6F80122B6
:1034400040F225513848FFF76EF835208DF804001A
:1034500001208DF805008DF806008DF8070001A801
:10346000FDF7E1F808B010BD00B587B001210C20D0
:10347000FDF7C4FE01210805FDF709FF08220C2114
:103480002648FDF7A8FC082202212648FDF7A3FCE8
:103490004FF48050059002208DF818008DF8190027
:1034A00000208DF81A0001208DF81B0005A91B488B
:1034B000FDF706FC0420059005A91A48FDF700FC5D
:1034C0000020ADF80800ADF80A00ADF80C00ADF82A
:1034D00010000C20ADF80E0001A91348FEF7E5FE20
:1034E00000211148FEF769FF40210F48FFF74DF812
:1034F000002240F225510C48FFF715F835208DF8D1
:10350000000001208DF801008DF8020000208DF8E8
:1035100003006846FDF787F807B000BD00080240C9
:10352000004C0040000C0240005000400EB501214C
:103530008803FDF7BDFE0A210620FDF7C4FF0B211D
:103540000620FDF7C0FFFDF7ADFA4FF44060009094
:1035500000208DF804000C208DF8050001208DF866
:1035600006006846FDF7ACFA28208DF80800002018
:103570008DF809008DF80A0001208DF80B0002A8D3
:10358000FDF751F80EBD0EB500214FF48040FDF758
:103590008FFE0A210620FDF796FF0B210620FDF77E
:1035A00092FFFDF77FFA4FF44060009000208DF805
:1035B00004000C208DF8050000208DF806006846F8
:1035C000FDF77EFA28208DF8080000208DF809000C
:1035D0008DF80A008DF80B0002A8FDF724F80EBD47
:1035E00010B54FF40060FDF7D1FA012805D04FF473
:1035F0008060FDF7CBFA012877D13C480078A0B96C
:103600004FF48060FDF7C2FA012866D1FFF7BDF8DC
:1036100000F062FA3220FFF76DF8012034490860AB
:1036200034490860FFF7AFFF57E0304800780128C1
:1036300013D1C002FDF7AAFA01284ED1FFF7A5F871
:1036400000F04AFA3220FFF755F8012028490860B7
:1036500028490860FFF797FF3FE0244800780228D8
:1036600003D022480078032837D1FFF78EF800F006
:1036700033FA3220FFF73EF84FF40060FDF786FA88
:1036800001280BD18002FDF781FA012806D11849E3
:10369000086018490860FFF776FF1EE04FF40060ED
:1036A000FDF774FA012809D18002FDF76FFA28B9F5
:1036B000012010490860FFF766FF0EE04FF400603C
:1036C000FDF764FA48B94FF48060FDF75FFA01280E
:1036D00003D107490860FFF756FF4FF48060FDF7FC
:1036E00060FA4FF40060FDF75CFA10BD180000208E
:1036F000800000208400002000B591B00121480521
:10370000FDF77CFD9448FCF7F9FF00BF9248FDF7F8
:103710001EF90028FAD14FF0006002908F48039004
:103720008F480490002005904FF480700690002090
:1037300007904FF480600890002009900A904FF4A1
:1037400080700B9040020C9000200D9003200E9092
:1037500000200F901090002282497F48FDF7D1F899
:1037600001217D48FDF7D9F802A97B48FDF768F8EB
:10377000012218217848FDF72AF901217648FDF742
:1037800099F80B208DF8040001208DF80500002029
:103790008DF8060001208DF8070001A8FCF743FF13
:1037A000012240216D48001FFEF7B4FE11B000BD9C
:1037B00070B56D496848FDF727F900287DD06A4942
:1037C0006548FDF74BF96448FDF7B7F830B9644830
:1037D0006649086063486649086005E061486349D6
:1037E00008605F48624908600020624908606249D9
:1037F000C1F8AC02012061490870002569E05B480E
:103800000068445D5E485F49097844545E4800782A
:10381000FD2801D1FC2C03D05A48007800281BDD7C
:1038200058480078401C574908705548407840284F
:1038300006D153488078382802D1012053490870B6
:103840004F48407841280AD14D488078302806D129
:1038500001204F49087002E000204A4908704A4898
:1038600004704A480078012815D14648007840285D
:1038700011D100204349087044490870012045498E
:1038800008603F4890F83F00FD2804D140223C49A1
:10389000414801F0C3FE3E480078012817D139485D
:1038A0000078382813D1002036490870384908704C
:1038B00001203A490860324800E015E090F83700EE
:1038C000FD2804D140222E49354801F0A7FE681C8E
:1038D00085B2FF2D93DD4FF480711F48FDF70BF883
:1038E00001211D48FCF7E6FF2E491B48FDF78CF827
:1038F00018B12C491848FDF7B1F870BD70B540F209
:1039000024411648001FFEF749FE20B340F224412F
:103910001248001FFEF77DFE00210F48FCF7CAFF8A
:103920000D48FCF7EAFFC0F5807084B20A48FDF745
:1039300004F808B90B4800E0094805464FF48071C7
:103940000548FCF7D8FF01210348FCF7B3FF01202D
:103950000A49087000BF70BD10600240045000406A
:103960007401002074020020208000108C000020D0
:1039700088000020B002404200004042AC0000201D
:10398000D40300209000002091000020920000202D
:1039900093000020B000002014040020B400002098
:1039A000540400201040001010B5FFF7FFF8292143
:1039B0006320FEF707FF10BDF0EE400AF5EEC00AE7
:1039C000F1EE10FA01DBB0EE600AF5EEC00AF1EE9E
:1039D00010FA03D2B1EE601AB0EE410A7047B0EEB1
:1039E000401AB4EEE01AF1EE10FA02DBB0EE410A32
:1039F0007047B4EEE01AF1EE10FA02D8B0EE600AA9
:103A0000F6E700BFF4E7B0EE401AB4EEE01AF1EECC
:103A100010FA02D8B0EE410A7047B4EEE01AF1EEA7
:103A200010FA02DBB0EE600AF6E700BFF4E770B50B
:103A3000552465421668864200DB106016688E4287
:103A400000DA11601E68864200DB18601E688E4234
:103A500000DA196070BD00B5002806DD00222B4B8E
:103A60001A6001222A4BC3F89C22002806DC01229E
:103A7000264B1A600022264BC3F89C22002907DD42
:103A80000022224B14331A600122214BC3F89422E6
:103A9000002907DC01221D4B14331A6000221C4B45
:103AA000C3F8942200EE101AB8EEC00AFFF784FFA4
:103AB000BCEEC00A10EE102A164B1A6000EE100A77
:103AC000B8EEC00AFFF778FFBCEEC00A10EE102A6D
:103AD000104B1B1D1A6000BD10B500200B4908607B
:103AE0000B49C1F89C0200210A483438FDF7C1FF98
:103AF00000200649143108600549C1F894020021EC
:103B000004483438FDF7B3FF10BD000098824242EC
:103B1000008042423408004010B5FEF7C0FEFEF7B8
:103B20001EFF10BD0146B1F1804F09D14FF080401A
:103B3000406A02B200204FF080435862104670473E
:103B40000748814209D106482430006802B20020AB
:103B5000034B243318601046F1E70020EFE7000024
:103B60000004004010B500244FF480417348FDF775
:103B700009F900B9641C20217148FDF703F900B967
:103B8000641C40216E48FDF7FDF800B9641C01215A
:103B90006C48FDF7F7F800B9641C80216A48FDF70E
:103BA000F1F800B9641C4FF400716448FDF7EAF8BD
:103BB00000B9641C10216548FDF7E4F800B9641CE5
:103BC0004FF400416248FDF7DDF800B9641C202184
:103BD0005D48FDF7D7F800B9641C40215A48FDF74D
:103BE000D1F800B9641C80215448FDF7CBF800B926
:103BF000641C4FF400715348FDF7C4F800B9641C0D
:103C00004FF480715248FDF7BDF800B9641C802163
:103C10004E48FDF7B7F800B9641C4E4804602046D2
:103C200010BD10B54FF480414448FDF7ABF80028B3
:103C300045D120214248FDF7A5F800283FD1402179
:103C40003F48FDF79FF8D0BB01213E48FDF79AF8A9
:103C5000A8BB80213C48FDF795F880BB4FF400716C
:103C60003648FDF78FF850BB10213848FDF78AF829
:103C700028BB4FF400413648FDF784F8F8B92021FD
:103C80003148FDF77FF8D0B940212F48FDF77AF889
:103C9000A8B980212948FDF775F880B94FF4007163
:103CA0002848FDF76FF850B94FF480712848FDF7A8
:103CB00069F820B980212548FDF764F898B3FFF72B
:103CC00051FF052838DD24480068401C224908605F
:103CD00008460068022807D008460068042803D078
:103CE0000846006806280CD11B480068042801D14A
:103CF000401F00E00120194909680844174908607D
:103D000018E015480068012807D013480068032808
:103D100003D01148006805280CD10F48006803281B
:103D200002D1001F01E007E001200C4909680844A6
:103D30000A490860012010BD0020FCE7001802407D
:103D4000001002400008024000040240000C024043
:103D5000000002409800002094000020A8000020ED
:103D600010B54FF46120FFF719FBFFF7C5FC10BD3C
:103D700010B52DED048BFE4800685A21484300EE33
:103D8000100AB8EEC00AFB48D0ED000A30EE200A57
:103D9000F94880ED000A08E0F74890ED000ADFEDF1
:103DA000F70A30EE600A80ED000AF34890ED000A51
:103DB000DFEDF20AB4EEE00AF1EE10FAECDC08E016
:103DC000ED4890ED000ADFEDED0A30EE200A80EDBF
:103DD000000AE94890ED000ADFEDE90AB4EEE00AD6
:103DE000F1EE10FAECD390ED000AE648D0ED000AAF
:103DF00030EE600A10EE101A084601F029FD41EC81
:103E0000190BB0EE490AF0EE690A01F0AAFFB0EE14
:103E1000408AF0EE608A9FEDDC0B53EC102B51ECE6
:103E2000180B01F041FD19D2D34890ED000AD54896
:103E3000D0ED000AB4EEE00AF1EE10FA02DD4FF424
:103E4000B47000E0D24800EE100AB8EEC00ACD48C7
:103E5000D0ED000A30EE200A80ED000ABDEC048BA4
:103E600010BD704770B504460D461646002242EA62
:103E7000036242EA064242EA05222243002110463A
:103E800070BD2DE9F0472DED0C8B06468846914616
:103E90009A4600BF00BF00BF00BF00210C460D4680
:103EA0004FEA0A60044345EAE0754FEA09400443DB
:103EB00045EAE0754FEA0820044345EAE0753443DB
:103EC0004FF0004104EA0100002148404940084306
:103ED00002D04FF0FF3000E0012008EE900AE00D24
:103EE00040EA4520C0B27F21471AAA4904EA0102EC
:103EF0004FF00001104601F084FC00EE100A9FED27
:103F0000A61AC0EE010AB7EE000A30EE809A3846D3
:103F100001F08DFC41EC1D0BB0EE4D1AF0EE6D1A68
:103F20009FED9E0B01F028FFB0EE40BAF0EE60BAB4
:103F3000B8EEE80A20EE090A10EE101A084601F061
:103F400087FC53EC1B2B01F07BFB01F0C5FC08EE5A
:103F5000100AB0EE480ABDEC0C8BBDE8F087704744
:103F600010B59048006801287ED18F4840784128DC
:103F70007ED18D48807830287AD18B4CA37A627AB2
:103F8000217AE079FFF77DFF884880ED000AA37B66
:103F9000627B217BE07AFFF774FF844880ED010AA1
:103FA000A37C627C217CE07BFFF76BFF7F4880ED88
:103FB000020AA37D627D217DE07CFFF762FF7B48E2
:103FC00080ED030AA37E627E217EE07DFFF759FF2C
:103FD000764880ED040AA37F627F217FE07EFFF7B1
:103FE00050FF724880ED050A94F8223094F82120A1
:103FF00094F82010E07FFFF744FF6C4880ED060A3C
:1040000094F8263094F8252094F8241094F823008E
:10401000FFF737FF654880ED070A94F82A3094F8D7
:10402000292094F8281094F82700FFF72AFF5F480A
:1040300080ED080A94F82E3094F82D2094F82C1076
:1040400094F82B00FFF71DFF584880ED090A94F8FB
:10405000323094F8312094F8301094F82F00FFF7A4
:1040600001FF5249886201E005E001E0FFF777FFB8
:1040700000204C4908604E480068012875D14D4821
:10408000407840286ED14B48807838286AD1494C16
:10409000A37A627A217AE079FFF7F3FE464880ED51
:1040A000000AA37B627B217BE07AFFF7EAFE4248AD
:1040B00080ED010AA37C627C217CE07BFFF7E1FEBE
:1040C0003D4880ED020AA37D627D217DE07CFFF703
:1040D000D8FE394880ED030AA37E627E217EE07D12
:1040E000FFF7CFFE344880ED040AA37F627F217F73
:1040F000E07EFFF7C6FE304880ED050A94F82230D6
:1041000094F8212094F82010E07FFFF7BAFE2A48A7
:1041100080ED060A94F8263094F8252094F82410AF
:1041200094F82300FFF7ADFE234880ED070A94F8CA
:104130002A3094F8292094F8281094F82700FFF7E3
:10414000A0FE1D4880ED080A94F83A3094F8392012
:1041500094F8381094F83700FFF784FE1649086386
:10416000FFF77FFE002012490860002010BD00000C
:10417000A80000209C000020A00000200000B44304
:104180000000B4C3A40000200000000000806640CE
:1041900098FEFFFFFFFF7F00FEFFFF4A00000000C8
:1041A00000000040B400002054040020A8030020B8
:1041B000B0000020140400207403002010B52DED81
:1041C000068BA84890ED050A10EE101A084601F07B
:1041D0003FFB41EC1A0B1FED140B53EC102B01F0BD
:1041E0002FFA41EC190B9FEDA00B53EC102B01F0B3
:1041F00099FA41EC180B01F06FFB00EE100ABDECD0
:10420000068B10BD974890ED020ADFED990A60EE2B
:10421000200A9FED981A80EE810A7047914890ED30
:10422000030ADFED950A20EE200A704710B52DED48
:10423000068BB0EE408A18EE100A01F009FB41EC43
:104240001A0BB0EE4A0AF0EE6A0AFFF7B5FB044615
:1042500001F0EDFA41EC190B9FED880B53EC102B9C
:1042600001F00AFB03D89FED870AB0EE408A18EEF2
:10427000100A01F0EDFA41EC190B9FED800B53ECA5
:10428000102B01F011FB0AD2B1EE040AB4EEC08A81
:10429000F1EE10FA03D8B0EE000AB0EE408AB1EEAB
:1042A000040AB4EEC08AF1EE10FA0ADDB2EE040A96
:1042B000B4EEC08AF1EE10FA03D89FED730AB0EEA7
:1042C000408AB2EE040AB4EEC08AF1EE10FA0ADDBA
:1042D000B2EE0E0AB4EEC08AF1EE10FA03D89FEDEA
:1042E0006B0AB0EE408AB2EE0E0AB4EEC08AF1EE6E
:1042F00010FA0ADDB3EE040AB4EEC08AF1EE10FA49
:1043000003D89FED630AB0EE408AB3EE040AB4EE20
:10431000C08AF1EE10FA0ADDB3EE090AB4EEC08AE3
:10432000F1EE10FA03D89FED5B0AB0EE408AB3EECF
:10433000090AB4EEC08AF1EE10FA0ADD9FED560AC2
:10434000B4EEC08AF1EE10FA03D8B1EE000AB0EE76
:10435000408AB9EE040AB4EEC08AF1EE10FA10DB1E
:1043600018EE100A01F074FA41EC190B9FED4B0B9B
:1043700053EC102B01F080FA03D2B8EE000AB0EE35
:10438000408ABAEE040AB4EEC08AF1EE10FA0ADBF3
:10439000B9EE040AB4EEC08AF1EE10FA03D29FED32
:1043A000410AB0EE408ABAEE0E0AB4EEC08AF1EECF
:1043B00010FA0ADBBAEE040AB4EEC08AF1EE10FA83
:1043C00003D29FED390AB0EE408ABBEE040AB4EE88
:1043D000C08AF1EE10FA0ADBBAEE0E0AB4EEC08A19
:1043E000F1EE10FA03D29FED310AB0EE408ABBEE37
:1043F000090AB4EEC08AF1EE10FA0ADBBBEE040A39
:10440000B4EEC08AF1EE10FA03D29FED290AB0EEA5
:10441000408ABBEE0E0AB4EEC08AF1EE10FA0ADB57
:104420009FED240AB4EEC08AF1EE10FA03D8B9EE7B
:10443000000AB0EE408A18EE100A01F009FA41ECC9
:10444000190BB0EE490AF0EE690AFFF7B5FA322807
:1044500003DD9FED190AB0EE408AB0EE480ABDECCC
:10446000068B10BDA803002000000060FB2109405E
:1044700000003443DB0F494000007A4433333333C8
:104480003333D33F000000009A991940333333404F
:10449000CDCC4C406666664000004842333333332F
:1044A0003333D3BF9A9919C0333333C0CDCC4CC00A
:1044B000666666C0000048C20000C84310B540F2FE
:1044C000473140F2CF70FEF7BEFA40F2473140F27A
:1044D000CF70FEF707FB10BD10B5044621464D48CE
:1044E000FDF7C5FA10BD10B5044621464A48FDF750
:1044F000BEFA10BD2DE9F04707460C4615461E468C
:1045000007F0010080B314E02046FFF7E5FFA5EBBC
:104510000408B8F1000F01DB404601E0C8F10000DB
:1045200096FBF0F01FFA80F94846FEF7E3F8601CAE
:1045300084B2AC42E8DB14E02046FFF7CDFFA5EBE8
:104540000408B8F1000F01DB404601E0C8F10000AB
:1045500096FBF0F01FFA80F94846FEF7CBF8601E94
:1045600084B2AC42E8DC33E0FFE707F0020078B346
:1045700014E02046FFF7B7FFA5EB0408B8F1000FE1
:1045800001DB404601E0C8F1000096FBF0F01FFAA5
:1045900080F94846FEF7AEF8601C84B2AC42E8DB16
:1045A00014E02046FFF79FFFA5EB0408B8F1000FC9
:1045B00001DB404601E0C8F1000096FBF0F01FFA75
:1045C00080F94846FEF796F8601E84B2AC42E8DCFB
:1045D000BDE8F08770B504460D46B42094FBF0F0BA
:1045E00000EBC00101EB0010322101EBC00086B2EC
:1045F0003046FFF771FFB42095FBF0F000EBC001EF
:1046000001EB0010322101EBC00086B23046FFF70B
:104610006AFF70BD001C00400020004070B540F2F1
:1046200025514D48FDF7BAFF002819D040F2255119
:104630004948FDF7EEFF4848FDF7EEFEC5B2474892
:10464000007870B92C2D0CD10120444908704448E1
:1046500001780078401C424A1070424820F81150FE
:1046600079E03E48007801280ED1122D0CD10220AD
:104670003A4908703A4801780078401C384A10706E
:10468000384820F8115066E034480078022823D1D9
:10469000334801780078401C314A1070314820F8C6
:1046A0001150104600780A2801DA5B2D53D10320FF
:1046B0002A49087001202C49087029480078801E7A
:1046C000284911F81020294801780078401C274B10
:1046D0001870274842543EE02048007803282BD128
:1046E0001F480078401E1F4931F810005B2813D185
:1046F000002240F225511848FDF715FF00201A4905
:1047000008701749087015490870012240F22551B8
:104710001148FDF708FF1EE00020104908701049FD
:104720000870002405E000200E4921F81400601CE8
:10473000C4B20A2CF7DB0EE00020084908700849D3
:104740000870002405E00020064921F81400601CD0
:10475000C4B20A2CF7DB70BD001001400B01002031
:104760000A010020E40600200C01002001010020C5
:10477000D400002070B5002640F225518348FDF793
:104780000DFF00287AD08148FDF746FEC4B280486C
:10479000007830B101281BD0022830D0032867D11F
:1047A00040E0592C0ED17A480078401C78490870B6
:1047B000784879490978445477480078401C76490C
:1047C000087004E0002072490870734908704FE0D7
:1047D000592C0ED16E480078401C6D4908706D4808
:1047E0006D49097844546C480078401C6A49087047
:1047F00004E00020664908706749087038E06548A1
:1048000065490978445464480078401C624908703E
:1048100008460078082804D15D480078401C5C49AF
:10482000087025E0002608E05A48007A5949895D59
:10483000084458490872701CC6B2082EF4DB55486B
:10484000007AA0420AD1534880785249C97840EA98
:104850000125002D01DB642D00DD64254F48058016
:1048600000204B4908704C4908704A49087200BF43
:1048700000BF40F225514548FDF7CBFE70BD70B535
:104880000026002540F225514548FDF787FE002807
:104890007AD04348FDF7C0FDC4B24248007830B139
:1048A00001281BD0022830D0032867D140E0592CC2
:1048B0000ED13C480078401C3A4908703A483B49C0
:1048C0000978445439480078401C3849087004E09D
:1048D000002034490870354908704FE0592C0ED13A
:1048E00030480078401C2F4908702F482F4909781C
:1048F00044542E480078401C2C49087004E00020E5
:10490000284908702949087038E02748274909785C
:10491000445426480078401C244908700846007812
:10492000082804D11F480078401C1E49087025E063
:10493000002608E01C48007A1B49895D08441A4992
:104940000872701CC6B2082EF4DB1748007AA04229
:104950000AD1154880781449C97840EA0125002D0C
:1049600001DB642D00DD64251148058000200D4920
:1049700008700E4908700C49087200BF00BF40F271
:1049800025510748FDF745FE70BD0000004C004072
:104990001A010020F80600201B010020160100204B
:1049A000004400401C010020010700201D010020E0
:1049B000180100201CB501214820FCF71FFC4020F5
:1049C000009001208DF8040003208DF805000020E0
:1049D0008DF8060001208DF8070069463248FCF783
:1049E0006FF940213048FCF7E7F94FF400400090A0
:1049F00000208DF8040003208DF8050000208DF8BC
:104A0000060001208DF8070069462848FCF758F990
:104A10001CBD70B5044640212348FCF7CFF968203F
:104A2000FDF720FE002511E004F0010020B1402137
:104A30001D48FCF7C1F903E040211B48FCF7BEF913
:104A400064106820FDF70EFE681CC5B2082DEBDB74
:104A500040211548FCF7B0F96820FDF703FE70BD52
:104A600070B50546002404E0285DFFF7D2FF601C06
:104A7000C4B2082CF8DB70BD10B50446012C03D17C
:104A80000B48FFF7EDFF0EE0022C03D10948FFF7BA
:104A9000E7FF08E0032C03D10748FFF7E1FF02E03E
:104AA0000348FFF7DDFF10BD000C02400018024074
:104AB0001E010020260100202E01002070B540F2CA
:104AC00025516548FDF76AFD002819D040F22551AF
:104AD0006148FDF79EFD6048FDF79EFCC5B25F484A
:104AE000007870B92C2D0CD101205C4908705C480D
:104AF00001780078401C5A4A10705A4820F811502A
:104B000090E05648007801280ED1122D0CD10220D9
:104B100052490870524801780078401C504A107081
:104B2000504820F811507DE04C48007802283AD1D6
:104B30004B4801780078401C494A1070494820F8D9
:104B40001150104600780A2801DA5B2D6AD1032043
:104B50004249087001204449087041480078401FCC
:104B6000404911F81000414908703D480078001F85
:104B70003C4911F810003E49087039480078C01EC1
:104B8000384911F810003B49087035480078801EFC
:104B9000344911F8100038490870364801782E4819
:104BA000FDF736FC3EE02D48007803282BD12C4839
:104BB0000078401E2B4931F810005B2813D10022E9
:104BC00040F225512448FDF7AEFC0020264908702C
:104BD0002349087021490870012240F225511E48DE
:104BE000FDF7A1FC1EE000201C4908701C4908705C
:104BF000002405E000201B4921F81400601CC4B209
:104C00000A2CF7DB0EE000201449087014490870E4
:104C1000002405E00020134921F81400601CC4B2F0
:104C20000A2CF7DB70BD10B5A820FDF701FD0121AE
:104C30000948FDF7C2FB0F480078012800D110BDDC
:104C40000C480078022800D1F9E70A4800780328C8
:104C500000D1F4E70120F2E7004800403C010020C9
:104C60003B0100200A0700203D0100203601002002
:104C700037010020380100203901002080ED010AB1
:104C8000C0ED020A80ED031AC0ED041A80ED052A7A
:104C900070479FEDBE0A80ED060A9FEDBC0A80EDCD
:104CA000070A9FEDBA0A80ED080A704770B52DED2E
:104CB000068B04460D461646A81B00EE100AB8EEF9
:104CC000C00A84ED090A94ED060AD4ED090A30EE13
:104CD000200A84ED060A206800F0010090B394EDEC
:104CE000040A10EE101A084600F0B2FD41EC180B51
:104CF00094ED060A10EE101A084600F0A9FD41ECEA
:104D00001A0BB0EE4A0AF0EE6A0A01F02AF8B0EE89
:104D1000409AF0EE609A53EC182B51EC190B00F00E
:104D2000C3FD0FD294ED060AB5EEC00AF1EE10FAFB
:104D300002DD94ED040A03E094ED040AB1EE400AAA
:104D400084ED060A94ED010AD4ED090A20EE200A4A
:104D5000D4ED020A94ED061A00EE810AD4ED090A98
:104D600094ED071A70EEC10A94ED031A01EE200AC1
:104D700084ED080A2068C0F3400090B394ED050A62
:104D800010EE101A084600F063FD41EC180B94ED8C
:104D9000080A10EE101A084600F05AFD41EC1A0BF2
:104DA000B0EE4A0AF0EE6A0A00F0DBFFB0EE409A7D
:104DB000F0EE609A53EC182B51EC190B00F074FDD7
:104DC0000FD294ED080AB5EEC00AF1EE10FA02DD3A
:104DD00094ED050A03E094ED050AB1EE400A84ED76
:104DE000080A94ED070AB5EEC00AF1EE10FA06DDE6
:104DF00094ED090AB5EEC00AF1EE10FA0DD394ED68
:104E0000070AB5EEC00AF1EE10FA0AD294ED090ACB
:104E1000B5EEC00AF1EE10FA03DD9FED5C0A84EDF9
:104E2000060A94ED090A84ED070A0020BDEC068B02
:104E300070BD80ED010AC0ED020A80ED031AC0EDDD
:104E4000041A9FED522A80ED052A9FED502A80ED2D
:104E5000062A9FED4E2A80ED082A9FED4C2A80ED10
:104E6000072A9FED4A2A80ED0A2A70479FED470ADC
:104E700080ED050A9FED450A80ED060A9FED430A85
:104E800080ED080A9FED410A80ED070A704710B5D2
:104E90002DED088B0446B0EE408AF0EE608A38EEC5
:104EA000680A84ED090A94ED0A0AD4ED090A30EE85
:104EB000200A84ED0A0A94ED090AD4ED050A30EEC1
:104EC000600AD4ED010A20EE200AD4ED020A94ED26
:104ED000091A00EE810AD4ED090A94ED051AF0EEE4
:104EE000001A41EEC10A94ED061A70EE810A94EDA3
:104EF000031A01EE200A84ED070A94ED080AD4EDA6
:104F0000070A30EE200A84ED080A94ED040A10EE38
:104F1000101A084600F09CFC41EC190B94ED080AAD
:104F200010EE101A084600F093FC41EC1B0BB0EE9B
:104F30004B0AF0EE6B0A00F014FFB0EE40AAF0EE60
:104F400060AA53EC192B51EC1A0B00F0ADFC0FD2F8
:104F500094ED080AB5EEC00AF1EE10FA02DD94ED08
:104F6000040A03E094ED040AB1EE400A84ED080A55
:104F700094ED050A84ED060A94ED090A84ED050A0C
:104F800094ED080ABDEC088B10BD00000000000085
:104F900010B5C148D0ED001A9FEDC01ADFEDC00A70
:104FA0009FEDC00AC048FFF744FFBB48D0ED001A90
:104FB0009FEDBA1ADFEDBA0A9FEDBA0ABB48FFF7B8
:104FC00038FFBB48D0ED001A9FEDBA1ADFEDBA0AE0
:104FD0009FEDBA0ABA48FFF72CFF10BD10B5FEF7D7
:104FE000E3FCFEF799FDFFF7D3FFFEF7B9FE41F2B0
:104FF0008830FDF77FFBFEF7B3FFFFF7DFF8B1481E
:1050000080ED000A90ED000AAF4880ED000A4FF4F1
:10501000E130FEF709F94FF4E130FDF7AEFFFFF79D
:10502000C9FC40F2473140F2E730FDF783FB10BD89
:1050300010B52DED048BA24890ED090A10EE101A60
:10504000084600F005FC41EC190BB0EE490AF0EE01
:10505000690A00F086FEB0EE408AF0EE608A9FEDAD
:105060009B0B53EC102B51EC180B00F005FC03D2FA
:1050700001209849086002E00020964908609048A5
:1050800090ED090A10EE101A084600F0E1FB41EC21
:10509000190BB0EE490AF0EE690A00F062FEB0EEBC
:1050A000408AF0EE608A9FED8C0B53EC102B51EC94
:1050B000180B00F0E1FB03D201208949086002E0EF
:1050C000002087490860BDEC048B10BD10B52DEDA4
:1050D000028BB0EE408AFFF7ABFFFEF749FE814836
:1050E000D0ED000AB0EE480A7548FFF7D0FE744ACA
:1050F00092ED080ADFED7C0A20EE200ABDEEC00A20
:1051000010EE101A92ED080ADFED780A20EE200A60
:10511000BDEEC00A10EE100AFEF79DFC684890ED47
:10512000080ADFED720A20EE200A714880ED110AAC
:10513000634890ED080ADFED6C0A20EE200A6C4807
:1051400080ED120A0120BDEC028B10BD10B5FEF7F8
:105150000FFE6448D0ED000A5B4890ED000A584805
:10516000FFF795FE634890ED000AB8EEC00AF0EE36
:10517000400A614890ED000A4B48FFF788FE5D4801
:1051800090ED010AB8EEC00AF0EE400A5B4890EDDF
:10519000000A4648FFF77BFE574890ED000ADFED16
:1051A000410A20EE200ABDEEC00A554880ED000AF3
:1051B000524890ED000ADFED3B0A20EE200ABDEEDA
:1051C000C00A504880ED000A374890ED080A3C4874
:1051D000D0ED080A9FED4C1A01EE200A4848D0EDA8
:1051E000000AF8EEE00A30EE200A414880ED110A8C
:1051F0002E4890ED080A3248D0ED080A9FED421A79
:1052000001EE600A3F48D0ED000AF8EEE00A30EE09
:10521000200A374880ED120A024692ED120ABDEECE
:10522000C00A10EE101A92ED110ABDEEC00A10EE7F
:10523000100AFEF710FC012010BD00EE100AB8EEB7
:10524000C00A2D4A82ED000A00EE101AB8EEC00A1C
:105250002A4A82ED000A704710B501212B48FCF75D
:10526000C4FE012817D101212848FCF7DBFEFEF718
:1052700077FEFEF7A3FF1B4880ED000A2448FEF7E7
:1052800051FC1C4908604FF08040FEF74BFC194967
:105290004860FFF75BFF10BD4801002000000000E0
:1052A0008FC2F53DCDCCCC3D700700209C0700207F
:1052B0004C010020A69B443C6F12833ACDCC4C3D60
:1052C000C80700209C000020A00000200000000073
:1052D0000000F03F580100200000000000000040E6
:1052E0005C010020A40000200000C8C20000C842E9
:1052F0002007002040010020500100205401002020
:1053000060010020640100200000484300140040B8
:105310000004004010B5FFF7D1F8FDF740FD7820FC
:10532000FFF7DAF82820FFF7DEF810BDB248006872
:1053300028B1B24800881E2801DA01207047B04821
:10534000006828B1AD4800881E2801DA0120F5E781
:105350000020A9490860AA49086000BFEEE7A648F6
:10536000006820B9A648006808B9012070470020ED
:10537000FCE770B50446042C0FD1002506E0A149D6
:10538000A14A1268885CFFF777FB6D1C9D489E4917
:105390000968405CA842F2DC07E0002503E02046F3
:1053A000FFF76AFB6D1CA542F9DB98480068401CBA
:1053B000964908609648007840B1002094490870EA
:1053C0000120887000208C4908600AE090484078ED
:1053D00038B100208E4948700120C87000208849EB
:1053E00008608A48006802280DD18948807850B149
:1053F0008748C07838B10020844908608248006836
:10540000401C8149086070BD2DE9F041ADF5487D33
:105410004FF0000800260027002500244FF4C87331
:105420007822AA210120FFF765F87A48007803283E
:1054300058D07148006800B3502417E0B0463E468B
:10544000A0B2FFF750F87820FDF754F90821724810
:10545000FBF798FC18B94DF825406D1C0127B8F1F1
:10546000000F02D00EB907B902E0641C282CE5DB5E
:1054700000BF01206649087022E061480068F8B169
:10548000C82417E0B0463E46A0B2FFF72CF87820BB
:10549000FDF730F908216048FBF774FC18B94DF8A6
:1054A00025406D1C0127B8F1000F02D00EB907B9D5
:1054B00002E0641CF02CE5DB00BF01205449487079
:1054C0000024002003E05DF825100C44401CA84295
:1054D000F9DB94FBF5F4A0B2FFF705F87820FDF7AF
:1054E00009F916E04B480078032812D142480068B9
:1054F00030B17823502228210220FEF7FBFF08E07C
:105500003F48006828B17823962228210220FEF720
:10551000F1FF0DF5487DBDE8F08110B53D480078FC
:1055200003280AD04FF4C873AA2278210120FEF77D
:10553000E1FF0420FFF71DFF40E036480078032814
:105540003CD12D480068D0B14FF4E130FDF7C0FDEB
:1055500078231A4619460120FEF7CCFF4FF47A70E3
:10556000FDF7C8F8FFF75FFBC4B22046FFF701FF65
:105570007823282250210220FEF7BCFF1CE020489F
:105580000068C8B14FF4E130FDF7A2FD78231A4658
:1055900019460120FEF7AEFF4FF47A70FDF7AAF826
:1055A000FFF741FBC4B22046FFF7E3FE78239622C3
:1055B00028210220FEF79EFFFDF7E0FD10BD10B58B
:1055C000FAF726FF03E0FFF71FFFFFF7A6FFFFF73D
:1055D000ADFE18B1FFF7C3FE0028F4D00C48807868
:1055E00040B10B48C07828B1002009498870C870C4
:1055F000FDF79CFF10BD0000800000201801002076
:1056000084000020D4000020140000206C01002041
:105610006801002018000020000C024040EA01034D
:105620009B0703D009E008C9121F08C0042AFAD258
:1056300003E011F8013B00F8013B521EF9D270471C
:105640002DE9FE4F81EA030404F0004421F00041FB
:1056500000944FF0000B23F0004350EA01045ED0A9
:1056600052EA03045BD0C3F30A54C1F30A552C4435
:10567000A4F2F3340194A0FB0254C1F3130141F4EA
:105680008011C3F3130343F4801301FB024400FBB6
:10569000034E840A970A44EA815447EA8357A4FBDD
:1056A000076802958D0A05FB07854FEA932C04FBDA
:1056B0000C542705029D4FEA065847EA1637B5EB0A
:1056C00008056EEB070C870E920E47EA811742EA37
:1056D0008312A7FB0201B6EB0B0164EB00042B0D58
:1056E00043EA0C335E1844EB1C50DA465146E7FBA4
:1056F0000201C5F313044FEA0B3343EA14534FEA94
:105700000432019C43EA0603A4F10C040294009CB9
:10571000CDE900B400F052F903B0BDE8F08F0020ED
:105720000146F9E72DE9F04D81EA030404F0004B4E
:1057300021F0004514464FF0000A23F0004150EAE2
:10574000050220D054EA01021DD0C5F30A570246D3
:10575000C5F31303C1F31300C1F30A5640F48015D7
:1057600043F48013A7EB0608101BD64608F2FD3859
:1057700073EB050002D308F1010801E092185B41C8
:10578000B8F1000F03DA00200146BDE8F08D0020DB
:105790004FF48011064684460EE0171B73EB050795
:1057A00005D3121B63EB050306434CEA010C4908C1
:1057B0004FEA300092185B4150EA0107EDD152EAFE
:1057C000030012D082EA040083EA0501084305D0F1
:1057D000101BAB4106D20122002306E000224FF04D
:1057E000004302E06FF0010253101AEB06004CEB8D
:1057F000085110EB0A0041EB0B01BDE8F04D00F041
:10580000CEB8F0B4CA17CB0F50405140C61841F182
:1058100000054FEAC372314628004FF0960303D0CB
:10582000B623F0BC00F08DB830460021F9E70EB584
:10583000C10F80EAE0700844CA07002140F23343F8
:105840008DE80E000A460B4600F0B8F803B000BD24
:1058500000F0004230F000400AD0C10D01F5607147
:10586000C0F3160042EA0151C208400711437047D5
:10587000002001467047000030B5041E71F100049D
:1058800004DB4FF00044404264EB0101141E73F14D
:10589000000405DB1C464FF00043524263EB040357
:1058A0008B4208BF824230BD30B5041E71F1000446
:1058B00004DB4FF00044404264EB0101141E73F11D
:1058C000000405DB1C464FF00043524263EB040327
:1058D000994208BF904230BD01F0004330B421F03E
:1058E000004150EA010206D00A0DA2F56072C1F330
:1058F0001301002A02DC30BC00207047440F44EA48
:10590000C104C100E01830BC00EBC25000F010B878
:10591000202A04DB203A21FA02F00021704721FA04
:1059200002F3D040C2F1200291400843194670476B
:105930000029A8BF7047401C490008BF20F00100A3
:10594000704710B4B0FA80FC00FA0CF050EA010481
:1059500004BF10BC704749B1CCF1200421FA04F413
:1059600011FA0CF118BF012121430843A3EB0C01EC
:10597000CB1D4FEA00614FEA102042BF002010BC4F
:10598000704700EBC35010440029A4BF10BC7047FF
:10599000401C490008BF20F0010010BC704710B542
:1059A000141E73F1000408DA401C41F10001921842
:1059B0005B411A4301D120F0010010BD2DE9F04DEB
:1059C00092469B4611B1B1FA81F202E0B0FA80F240
:1059D0002032904600F010F904460F4640EA0A00D3
:1059E00041EA0B0153465A46084313D0114653EA85
:1059F000010019D0C8F140025046FFF789FF054663
:105A00000E4650465946424600F0F6F8084305D087
:105A1000012004E020463946BDE8F08D0020054312
:105A200046EAE0762C4337430A986305E40AA0EB84
:105A300008000022FD0A44EA47540A3002D500203B
:105A40000146E9E7010510196941DDE9084500193A
:105A50006941BDE8F04DA2E72DE9FE4F804681EA9D
:105A60000300C00F0C46009021F0004123F00045D8
:105A7000B8EB0200A94105D24046214690461C469B
:105A80000B46024623F00040104347D0270DC7F3D2
:105A90000A00C3F30A510290401A019040286BDAC1
:105AA000C3F3130040F4801B0098924620B10023FA
:105AB000D2EB030A63EB0B0B01985946C0F140028D
:105AC000504600F099F806460D4650465946019A50
:105AD00000F0A1F810EB08006141002487EA1152A0
