:020000040800F2
:100000009809002021040008F7010008F901000800
:10001000FD010008010200080502000800000000C0
:1000200000000000000000000000000009020008BD
:100030000B020008000000000D0200080F0200087B
:100040003B0400083B0400083B0400083B04000894
:100050003B0400083B0400083B0400083B04000884
:100060003B0400083B0400083B0400083B04000874
:100070003B0400083B0400083B0400083B04000864
:100080003B0400083B0400083B0400083B04000854
:100090003B0400083B0400083B0400083B04000844
:1000A0003B0400083B0400083B0400083B04000834
:1000B000632A0008792A00083B0400083B04000872
:1000C0003B0400083B0400083B0400083B04000814
:1000D0003B040008A94300080B460008B181000852
:1000E0005F3700083B0400083B0400083B0400089D
:1000F0003B0400083B0400083B0400083B040008E4
:100100003B0400083B0400083B0400083B040008D3
:10011000014500085D3A00083B0400080F8900080B
:100120003B0400083B0400083B0400083B040008B3
:100130003B0400083B0400083B0400083B040008A3
:100140003B0400083B0400083B0400083B04000893
:100150003B0400083B0400083B0400083B04000883
:100160003B0400083B0400083B0400083B04000873
:100170003B0400083B0400083B0400083B04000863
:100180003B0400083B040008DFF80CD008F05AFFDD
:10019000004800479D0100089809002008B5A820E4
:1001A00002F06AFA4FF4407000F04CF908F094FA4B
:1001B00040F2473140F2E73002F0E0FA4FF47A7053
:1001C00002F0BCFA03F004FC04F088F85A2004F0B2
:1001D00093F85A2004F097F800BF00BF0AE000200F
:1001E000102302460A210090084607F0C4FD64204F
:1001F00002F0A4FAF3E7704700BFFEE700BFFEE796
:1002000000BFFEE700BFFEE77047704770477047CA
:100210000CB50020019000907648006840F48030D2
:100220007449086000BF7348006800F40030009013
:100230000198401C0190009818B90198B0F5A04FA2
:10024000F1D16C48006800F4003010B1012000903A
:1002500001E0002000900098012846D16548403018
:10026000006840F08050634940310860624800688F
:1002700040F44040604908605E48083000685D49CD
:10028000083108600846006840F4004008600846ED
:10029000006840F4A05008605848091F0860081F13
:1002A000006840F08070091F086000BF5148006876
:1002B00000F000700028F9D040F205705049086045
:1002C0004C480830006820F003004A4908310860B3
:1002D0000846006840F00200086000BF454808304A
:1002E000006800F00C000828F8D10CBD10B5454896
:1002F000006840F47000434908603E48006840F0E0
:1003000001003C49086000203A490831086039483A
:1003100000683D490840374908603C48091D0860AD
:10032000081F006820F48020091F08600020314960
:100330000C310860FFF76CFF4FF0006031498039E5
:10034000086010BD70B500200022022300240221A5
:10035000284D08352D6805F00C0020B1042806D082
:10036000082834D107E02A4D2A4E356033E02A4D63
:10037000284E35602FE01F4D2D1D2D68C5F380548C
:100380001C4D2D1D2D6805F03F0154B1224DB5FBCC
:10039000F1F5184E361D3668C6F3881605FB06F2D1
:1003A00009E01B4DB5FBF1F5124E361D3668C6F35C
:1003B000881605FB06F20F4D2D1D2D68C5F301456E
:1003C0006D1C6B00B2FBF3F5124E356003E0104D6F
:1003D000104E356000BF00BF064D08352D68C5F3CF
:1003E00003150E4E705D0B4D2D68C540094E3560EE
:1003F00070BD000000380240007000400854400703
:10040000003C024088ED00E0FFFFF6FE10300024C3
:100410000024F4000000002000127A0004000020F4
:100420000648804706480047FEE7FEE7FEE7FEE78E
:10043000FEE7FEE7FEE7FEE7FEE7FEE7ED02000867
:100440008901000832490143324A1160704770B592
:10045000002100230F22C4781CB32E4C246804F41E
:10046000E064C4F5E064C4F30721C1F10404E3B21D
:100470000A4144789C40E1B28478144021430C073F
:10048000210E254C05786155047804F01F050124E0
:10049000AC4005786D11AD0005F1E025C5F80041CF
:1004A00009E0047804F01F050124AC401B4D0678D8
:1004B000761145F8264070BD194A0A400243154B93
:1004C0001B1F1A60704739B1124A121D126802438D
:1004D000104B1B1D1A6006E00E4A121D1268824363
:1004E0000C4B1B1D1A607047042808D14FF0E02107
:1004F000096941F004014FF0E022116107E04FF07B
:10050000E021096921F004014FF0E02211617047F8
:100510000000FA050CED00E000E400E080E100E0FE
:1005200080FFFF1F002041490860091D0860091D68
:100530000860091D08603E483C4914310860704756
:1005400000213A498279002A3AD00A4612680368A3
:100550009A430B461A600A1D126803689A430B1DE2
:100560001A60027911440A6803681A430A602F4A24
:100570000832126803689A432C4B08331A601A1D1C
:10058000126803689A43294B0C331A604279102A87
:100590000ED11A1F126803681A43244B08331A60DD
:1005A0001A1D126803681A43204B0C331A600DE0C1
:1005B0001E49427911440A6803681A430A6005E03B
:1005C000027911440A6803689A430A60704700215F
:1005D000016001710C214171002181717047134943
:1005E000103109680143114A103211607047014609
:1005F00000200E4A143212680A400AB1012000E0BD
:1006000000207047094914310860704701460020F6
:10061000064A143212680A400AB1012000E00020A4
:10062000704702491431086070470000003C0140E7
:10063000FFFF7F0030B943F2DB028100A1F1C0412E
:100640000A6005E043F2D2028100A1F1C0410A60D4
:100650006FF07042411C8900A1F1C0410A60810025
:10066000A1F1C041C1F804217047D0E90112114342
:10067000C2681143026911434269114382691143FF
:10068000C2691143026A1143426A1143826A1143EB
:10069000C26A1143026B114302689200A2F1C04288
:1006A0001160816808290BD101688900A1F1C0415E
:1006B000096841F0400201688900A1F1C0410A6067
:1006C000416B0968426B526841EA0211426B9268C1
:1006D00041EA0221426B928941EA0241426B128A4D
:1006E00041EA0251426B127D41EA0261426B92691A
:1006F00011430268521C9200A2F1C0421160C16A0B
:10070000B1F5804F1BD1816B0968826B526841EA59
:100710000211826B926841EA0221826B128A41EADD
:100720000251826B127D41EA0261826B9269114330
:1007300002689200A2F1C042C2F8041107E06FF013
:10074000704201688900A1F1C041C1F804217047DD
:10075000002101600221416000218160C1600161CE
:1007600041618161C16101624FF480514162490080
:1007700081620021C1620163F8494163816370476E
:1007800051B18200A2F1C042126842F0010382001E
:10079000A2F1C042136009E08200A2F1C0421268D7
:1007A000EF4B1A408300A3F1C0431A607047102832
:1007B0000AD118214FF020421166402151664FF0B6
:1007C000FC319166D16610E01821E64A11604021A3
:1007D0004FF02042C2F884104FF0FC31E14A083259
:1007E00011604FF02042C2F88C10704730B50021E4
:1007F00000220023446844F0080485682C43C5683F
:100800002C4305692C43456944EA4524856944EA3B
:100810004531C4692468C5696D6844EA0524C56921
:100820002D8944EA0544C5692D7B44EA0562046AC2
:100830002468056A6D6844EA0524056A2D8944EA3E
:100840000544056A2D7B44EA05630468102C05D134
:100850004FF020442166A266E36608E0C14C2160A7
:100860004FF02044C4F88820BE4C0C34236030BDC7
:1008700010210160002141608160C160016141611E
:100880008161FC21C2691160C2695160C2699160D5
:10089000C269D160026A1160026A5160026A9160A5
:1008A000026AD160704799B1102808D14FF02042F8
:1008B000126E42F004024FF020431A661DE0A94A6E
:1008C000126842F004024FF02043C3F8802014E085
:1008D000102809D14FF02042126EA14BDB1E1A40A6
:1008E0004FF020431A6608E09E4A12689C4BDB1EBC
:1008F0001A404FF02043C3F88020704799B1102868
:1009000008D14FF02042126E42F040024FF02043D7
:100910001A661DE0934A126842F040024FF02043ED
:10092000C3F8802014E0102809D14FF02042126E45
:100930008B4B3F3B1A404FF020431A6608E0894A30
:100940001268874B3F3B1A404FF02043C3F880208A
:10095000704701460020102903D14FF02042506F0C
:1009600002E0804A14321068704718207D49203117
:10097000086000200906C1F8A4004FF0FC30794956
:1009800028310860091D0860091D0860704701686A
:1009900041F01001426841EA4221826841EA423155
:1009A000704A20321160C1680968C268526841EA21
:1009B0000221C268128941EA0241C268127B41EAFF
:1009C0000261684A28321160016909680269526847
:1009D00041EA02210269128941EA02410269127B5D
:1009E00041EA02615F4A2C3211604169096842693B
:1009F000526841EA02214269128941EA0241426990
:100A0000127B41EA02614FF02042C2F8B0107047F9
:100A10000021016041608160FC21C2681160C268F0
:100A20005160C2689160C268D16002691160026958
:100A30005160026991600269D16042691160426946
:100A40005160426991604269D160704748B145493F
:100A50002031096841F004014FF02042C2F8A01093
:100A600009E04049203109683D4AD21E11404FF04B
:100A70002042C2F8A010704710B5F2B1102807D17B
:100A80004FF020435B6E0B434FF02044636632E02F
:100A9000B0F5807F08D1334B1B1D1B680B434FF013
:100AA0002044C4F8843026E02E4B24331B680B43CB
:100AB0004FF02044C4F8A4301DE0102807D14FF0B7
:100AC00020435B6E8B434FF02044636613E0B0F528
:100AD000807F08D1234B1B1D1B688B434FF02044A4
:100AE000C4F8843007E01F4B24331B688B434FF05E
:100AF0002044C4F8A43010BD10B5024600200023E5
:100B0000102A03D14FF02044636E09E0B2F5807FD4
:100B100003D1144C241D236802E0124C24342368B2
:100B200003EA01040CB1012000E0002010BD1028F0
:100B300007D14FF02042526E8A434FF020435A664D
:100B400019E0B0F5807F0FD1064A121D12688A4362
:100B50004FF02043C3F884200DE000001CA00008E3
:100B6000FEFF0F00800000A0234A12688A434FF066
:100B70002043C3F8A420704770B50246002000232C
:100B800000240025102A03D14FF02046736E08E0A0
:100B9000B2F5807F03D1184E203E336801E0164E37
:100BA000336803EA010403EAD10514B10DB1012051
:100BB00000E0002070BD102808D14FF02042526E96
:100BC00022EAD1024FF020435A6614E0B0F5807F4C
:100BD00009D1094A203A126822EAD1024FF0204393
:100BE000C3F8842007E0044A126822EAD1024FF0D9
:100BF0002043C3F8A4207047A40000A010B5044609
:100C00009848844208D10121084600F086FB002163
:100C1000012000F082FB76E09348844208D1012154
:100C2000022000F07AFB0021022000F076FB6AE04F
:100C30008E48844208D10121042000F06EFB00217F
:100C4000042000F06AFB5EE08948844208D101215B
:100C5000082000F062FB0021082000F05EFB52E05B
:100C60008448844208D10121102000F056FB002165
:100C7000102000F052FB46E07F48844208D1012159
:100C8000202000F04AFB0021202000F046FB3AE043
:100C90007A48844208D10121402000F03EFB002127
:100CA000402000F03AFB2EE07548844208D1012133
:100CB000802000F032FB0021802000F02EFB22E09B
:100CC0007048844208D10121801500F026FB0021E4
:100CD000A01500F022FB16E06B48844208D10121E8
:100CE000401500F01AFB0021601500F016FB0AE029
:100CF0006648844207D10121001500F00EFB002157
:100D0000201500F00AFB10BDF0B50A4600210023B3
:100D1000002400BF3DE0012505FA01F3156805EA4E
:100D200003049C4234D105684F000326BE40B543FE
:100D3000056015794E00B5400668354305601579A4
:100D4000012D02D01579022D16D185684F0003269A
:100D5000BE40B543856055794E00B5408668354341
:100D60008560456801268E40B543456045689679A3
:100D70008E40B6B235434560C5684F000326BE407D
:100D8000B543C560D5794E00B540C6683543C560EA
:100D9000491C1029BFD3F0BD4FF6FF71016000213F
:100DA000017141718171C171704708B54FF4803292
:100DB0000092009A0A430092009AC261C161009AAF
:100DC000C261C2690092C269009208BD0246002059
:100DD00013690B400BB1012000E000207047014671
:100DE000086980B270470246002053690B400BB17E
:100DF000012000E0002070470146486980B270473A
:100E000001837047418370470AB1018300E0418349
:100E100070474161704742694A4042617047F0B58E
:100E2000002300244D07ED0E02FA05F3CE1000F169
:100E3000200555F826504E07F70E0F26BE40B54345
:100E4000CF1000F1200646F82750CE1000F1200503
:100E500055F8265045EA0304CE1000F1200545F868
:100E60002640F0BD0000024000040240000802409D
:100E7000000C024000100240001402400018024022
:100E8000001C0240002002400024024000280240D2
:100E9000F948006840F00100F74908600020F64971
:100EA00008310860F4480068F4490840F2490860D5
:100EB000F348091D0860F348EF4984310860F048A1
:100EC0001038091D0860EC48006820F48020EA49C9
:100ED00008600020E8490C310860E7498C3108605F
:100EE00070470021E44A921C117011460870704747
:100EF00010B501460022002300204A11012A02D128
:100F0000DD4C236808E0022A03D1DB4C70342368EF
:100F100002E0D94C7434236801F01F02012494408C
:100F20001C400CB1012000E0002010BD38B50020AD
:100F300000900024002500BF3120FFF7D9FF0546AF
:100F40000098401C00900098B0F5A04F01D0002DF3
:100F5000F2D03120FFF7CCFF08B1012400E00024DB
:100F6000204638BD01460020C34A106820F0F80032
:100F700040EAC10010607047C34908607047002113
:100F8000BD4A703211701170012802D004280AD1B4
:100F900004E00121B84A7032117005E00521B64A1B
:100FA0007032117000E000BF00BF7047B7490860A1
:100FB000704770B5049C41EA82150126C6EB5306C2
:100FC00045EA0645054345EA0465AB4E361D3560E6
:100FD00070BDAD4908667047820142EA0172A64BB6
:100FE00084331A607047A8498866704710B583013A
:100FF00043EA016343EA02739F4C8834236010BDC7
:10100000A14908677047A049C8647047024600209C
:10101000994B0833186820F0EC6042EA010318434A
:10102000954B08331860704702460020924B0833F6
:10103000186820F0784042EA010318438E4B0833C9
:1010400018607047014600208B4A0832106820F073
:10105000030008431060704787480830006800F0BC
:101060000C00704701460020834A0832106820F0C7
:10107000F000084310607047014600207E4A0832A5
:10108000106820F4E05008431060704701460020CB
:10109000794A0832106820F4604040EAC1001060CC
:1010A0007047F0B50021002200240225002602230B
:1010B000714F08373F6807F00C0121B1042905D0B2
:1010C000082937D105E0724F076036E0714F07609D
:1010D00033E0694F3F1D3F68C7F38056664F3F1DA1
:1010E0003F6807F03F036EB16A4FB7FBF3F7DFF8D5
:1010F00088C10CF1040CDCF800C0CCF3881C07FBA1
:101100000CF40CE0624FB7FBF3F7DFF86CC10CF1A5
:10111000040CDCF800C0CCF3881C07FB0CF4564F21
:101120003F1D3F68C7F301477F1C7D00B4FBF5F707
:10113000076002E0564F076000BF00BF4E4F083700
:101140003F6807F0F0010909534F7A5C0768D74000
:101150004760494F08373F6807F4E051890A4E4F0E
:101160007A5C4768D7408760434F08373F6807F489
:101170006041490B484F7A5C4768D740C760F0BD73
:10118000002100F44072B2F5407F0AD13A4A083299
:10119000116821F4F811414A02401143364A0832DD
:1011A0001160354A70321268C0F30B031A43324B98
:1011B00070331A60704735494439086070473349C5
:1011C0004039086070473649086070470146002082
:1011D000294A8C32106820F01F004A1E1043264A0C
:1011E0008C321060704701460020234A8C32106810
:1011F00020F4F8504A1E40EA02201F4A8C32106048
:101200007047014600201C4A8C32106820F44010C0
:1012100008431060704701460020174A8C3210685E
:1012200020F4400008431060704701460020124A35
:101230008C32106820F44030084310607047194920
:101240000860704739B10C4A3032126802430A4BC9
:1012500030331A6006E0084A303212688243064B87
:1012600030331A607047F9B1034A343212680243CE
:10127000014B34331A601CE000380240FFFFF6EAED
:10128000103000240030002000004742800E47420A
:101290000024F40000127A0014000020FFFCFF0F6D
:1012A0005C014742E01147428F4A126882438E4BED
:1012B0001A60704739B18C4A121D126802438A4B7A
:1012C0001B1D1A6006E0884A121D12688243864B75
:1012D0001B1D1A60704739B1834A0C3212680243F1
:1012E000814B0C331A6006E07F4A0C32126882434D
:1012F0007D4B0C331A60704739B17B4A103212684B
:101300000243794B10331A6006E0774A10321268B4
:101310008243754B10331A60704739B1724A243AD0
:1013200012680243704B243B1A6006E06E4A243A6E
:10133000126882436C4B243B1A60704739B16A4A89
:10134000203A12680243684B203B1A6006E0664A66
:10135000203A12688243644B203B1A60704739B1CF
:10136000614A1C3A126802435F4B1C3B1A6006E05C
:101370005D4A1C3A126882435B4B1C3B1A60704703
:1013800039B1594A143A12680243574B143B1A6058
:1013900006E0554A143A12688243534B143B1A60D4
:1013A000704739B1504A103A126802434E4B103B15
:1013B0001A6006E04C4A103A126882434A4B103BCE
:1013C0001A60704739B1484A1C3212680243464BD2
:1013D0001C331A6006E0444A1C3212688243424BB6
:1013E0001C331A60704739B13F4A203212680243F9
:1013F0003D4B20331A6006E03B4A2032126882439C
:10140000394B20331A60704739B1374A2432126899
:101410000243354B24331A6006E0334A2432126803
:101420008243314B24331A60704739B12E4A2C3233
:10143000126802432C4B2C331A6006E02A4A2C32E5
:1014400012688243284B2C331A60704739B1264A00
:10145000303212680243244B30331A6006E0224ACD
:10146000303212688243204B30331A6070470128B3
:1014700008D11D493C31096841F008011A4A3C3243
:10148000116007E018493C31096821F00801164A4B
:101490003C321160704739B1134A273A127802433F
:1014A000114B273B1A7006E00F4A273A1278824305
:1014B0000D4B273B1A7070470B484030006840F0D6
:1014C0008070094940310860704701460020064A93
:1014D000283A12680A400AB1012000E00020704753
:1014E00001492639087070473438024010B501218F
:1014F0008803FFF756FF00214FF48040FFF751FFAC
:1015000010BD1C49086070471B490862704730B520
:1015100000228B071C0F0F2303FA04F2154B08332C
:101520008C1053F824309343124C08348D1044F837
:10153000253023468C1053F824308C07240F00FAF2
:1015400004F423430B4C08348D1044F8253030BD8F
:101550000949DC310860704708490860704700207D
:1015600004492031096801F4807109B1012000E0CB
:101570000020704700380140000027420004274245
:1015800010B50446FE48844208D101210846FFF701
:1015900008FF00210120FFF704FF9DE0B4F1804F18
:1015A00008D101210846FFF7EBFE00210120FFF7DB
:1015B000E7FE91E0F348844208D101210220FFF7C1
:1015C000DFFE00210220FFF7DBFE85E0EE488442CB
:1015D00008D101210420FFF7D3FE00210420FFF7EA
:1015E000CFFE79E0E948844208D101210820FFF7C5
:1015F000C7FE00210820FFF7C3FE6DE0E4488442E7
:1016000008D101211020FFF7BBFE00211020FFF7B9
:10161000B7FE61E0DF48844208D101212020FFF7B6
:10162000AFFE00212020FFF7ABFE55E0DA488442F0
:1016300008D101210220FFF7B4FE00210220FFF7AC
:10164000B0FE49E0D548844209D101210804FFF7E2
:10165000A8FE00214FF48030FFF7A3FE3CE0D04805
:10166000844209D101214804FFF79BFE00214FF479
:101670000030FFF796FE2FE0CA48844209D10121CD
:101680008804FFF78EFE00214FF48020FFF789FECB
:1016900022E0C548844208D101214020FFF770FEB6
:1016A00000214020FFF76CFE16E0C048844208D1BC
:1016B00001218020FFF764FE00218020FFF760FEFB
:1016C0000AE0BB48844207D101218015FFF758FE8C
:1016D0000021A015FFF754FE10BD00220288A84B80
:1016E00098420ED0AC4B98420BD0B0F1804F08D04E
:1016F000A44B984205D0A44B984202D0A34B9842E9
:1017000004D14FF68F731A404B881A43A04B98426E
:1017100007D0A04B984204D04FF6FF431A400B89E4
:101720001A4302804B68C3620B880385944B98422E
:1017300002D0994B984201D18B7A03860123838290
:1017400070474FF0FF3141600021018001814180ED
:10175000817270470185828270470A4600210188A4
:101760004FF68F73194011430180704741627047F3
:10177000C16270470146486A70470146088D70474C
:1017800021B1028842F00202028004E002884FF692
:10179000FD731A400280704721B1028842F00402B2
:1017A000028004E002884FF6FB731A400280704703
:1017B00021B1028842F08002028004E002884FF6E4
:1017C0007F731A400280704702884FF6F7731A4001
:1017D000028002880A430280704702884FF6FF4366
:1017E0001A40028002880A430280704721B10288B1
:1017F00042F00102028004E002884FF6FE731A40B4
:101800000280704770B5002400220023058C4FF63B
:10181000FE7635400584028C8388048B4FF68F75E5
:101820002C40B51E2C400D882C43751E2A408D89F6
:101830002A434D882A43524DA84202D0564DA84211
:1018400013D14FF6F7752A40CD892A434FF6FB7521
:101850002A408D882A434FF6FF652B404FF6FF55EF
:101860002B400D8A2B434D8A2B43838004838D6844
:101870004563028470BD70B5002400220023058CEE
:101880004FF6EF7635400584028C8388048B48F64A
:10189000FF752C404FF6FF452C400D884FF6FF7624
:1018A00006EA05252C434FF6DF752A408D8906EAA6
:1018B00005152A434D8806EA05152A43304DA842EE
:1018C00002D0354DA8421DD14FF67F752A40CD89F3
:1018D0004FF6FF7606EA05152A434FF6BF752A40F4
:1018E0008D8806EA05152A434FF6FF352B404FF247
:1018F000FF752B400D8A06EA85052B434D8A06EAC3
:1019000085052B43838004838D688563028470BDC5
:1019100070B5002400220023058C4FF6FF66354089
:101920000584028C8388848B4FF68F752C404FF68C
:10193000FC752C400D882C434FF6FF552A408D89AD
:101940004FF6FF7606EA05252A434D8806EA052567
:101950002A430B4DA84202D00F4DA84238D14FF276
:10196000FF752A40CD894FF6FF7606EA05252A4302
:101970004FF6FF352A408D8806EA05252A4319E0EF
:10198000000001400004004000080040000C00403E
:1019900000100040001400400004014000400140DD
:1019A000004401400048014000180040001C004075
:1019B000002000404EF6FF752B404DF6FF752B4082
:1019C0000D8A06EA05152B434D8A06EA05152B43B9
:1019D000838084838D68C563028470BD70B50022E6
:1019E00000230024058C4EF6FF7635400584038CD9
:1019F0008488828B48F6FF752A404FF6FF452A40BF
:101A00000D884FF6FF7606EA05252A434DF6FF7549
:101A10002B408D8906EA05352B434D8806EA0535AE
:101A20002B43FE4DA84202D0FD4DA84208D14BF6F3
:101A3000FF752C400D8A4FF6FF7606EA85152C437C
:101A4000848082838D680564038470BD00210180D9
:101A50004180818081608181C181018241827047A2
:101A600070B50346002000241846183001258D402B
:101A7000ACB21D8CA5431D8409B108290AD100EB25
:101A8000610005684FF68F7635400560056815439F
:101A900005600FE00D1FC5F34E052844056848F6A4
:101AA000FF763540056005684FF6FF7606EA0226A8
:101AB0003543056070BD4163704781637047C16302
:101AC0007047016470470A460021018B4FF68F73FF
:101AD00019401143018370470A460021018B48F6E3
:101AE000FF7319404FF6FF7303EA02231943018382
:101AF00070470A460021818B4FF68F7319401143BE
:101B0000818370470A460021818B48F6FF73194094
:101B10004FF6FF7303EA02231943818370470A4695
:101B20000021018B4FF6F773194011430183704771
:101B30000A460021018B4FF2FF7319404FF6FF73E5
:101B400003EA02231943018370470A460021818B6F
:101B50004FF6F77319401143818370470A460021FD
:101B6000818B4FF2FF7319404FF6FF7303EA022394
:101B70001943818370470A460021018B4FF6FB739E
:101B800019401143018370470A460021018B4FF62B
:101B9000FF3319404FF6FF7303EA02231943018311
:101BA00070470A460021818B4FF6FB7319401143A1
:101BB000818370470A460021818B4FF6FF3319401D
:101BC0004FF6FF7303EA02231943818370470A46E5
:101BD0000021018B4FF67F73194011430183704739
:101BE0000A460021018BC1F30E014FF6FF7303EA91
:101BF00002231943018370470A460021818B4FF667
:101C00007F7319401143818370470A460021818BFD
:101C1000C1F30E014FF6FF7303EA022319438183D8
:101C200070470A460021018C4FF6FD73194011439D
:101C3000018470470A460021018C4FF6F773194062
:101C40001143018470470A460021018C4FF6DF736F
:101C500019404FF6FF7303EA0213194301847047DA
:101C60000A460021018C4FF67F7319404FF6FF732F
:101C700003EA02131943018470470A460021018CCC
:101C80004FF6FF5319404FF6FF7303EA022319433F
:101C9000018470470A460021018C4FF2FF731940FE
:101CA0004FF6FF7303EA02231943018470470A4683
:101CB0000021018C4DF6FF7319404FF6FF7303EAC4
:101CC000023319430184704730B5002301248C404E
:101CD000A3B2048C9C430484048C02FA01F5ADB2D7
:101CE0002C43048430BD30B5002304248C40A3B2BF
:101CF000048C9C430484048C02FA01F5ADB22C439D
:101D0000048430BD828B4FF2FF331A408283828B72
:101D10004FF6FF7303EA01231A4382837047F0B53D
:101D20000C461546002100220026078C4EF6FF7C4B
:101D300007EA0C070784818B028C4FF6FF7707EACE
:101D4000043640F6FF4739404FF6FF7707EA05278C
:101D500039434FF6FF7707EA0337394345F6FF77F4
:101D60003A4046F480573A4381830284F0BD828B27
:101D70004FF6F3731A408283828B0A438283704743
:101D8000F0B50C461546002100220026078C4FF6C0
:101D9000FF6C07EA0C070784818B028C4FF6FF77F4
:101DA00007EA04264FF60C7739404FF6FF7707EA2B
:101DB00003172F4339434FF2FF573A4046F48077D9
:101DC0003A4381830284F0BD028B4FF2FF331A4005
:101DD0000283028B4FF6FF7303EA01231A43028347
:101DE0007047F0B50C461546002100220026078CEE
:101DF0004FF6EF7C07EA0C070784018B028C4FF645
:101E0000FF7707EA041640F6FF4739404FF6FF77A1
:101E100007EA033739434FF6FF7703E0000001403C
:101E20000004014007EA052739434FF65F773A403F
:101E300046F010073A4301830284F0BD028B4FF64F
:101E4000F3731A400283028B0A4302837047F0B592
:101E50000C46154600210022068C4FF6FE773E40C8
:101E60000684018B028C4FF60C7631407E1C06EA0C
:101E700003162E4331434FF6F576324044F0010607
:101E8000324301830284F0BD70B505460C462088BC
:101E900050B92389A28861882846FFF7D8FFE188D6
:101EA0002846FFF7CBFF25E0208804280AD12389A4
:101EB000A28861882846FFF794FFE1882846FFF74B
:101EC00083FF17E0208808280AD12389A288618827
:101ED0002846FFF755FFE1882846FFF748FF09E04D
:101EE0002389A28861882846FFF719FFE1882846E0
:101EF000FFF708FF70BD0021018041800121818032
:101F00000021C180018170472DE9F04105460C4652
:101F100000260127608808B9022600E00026A08874
:101F2000012801D1022700E001272088A0B92389D8
:101F3000A28861882846FFF78AFFE1882846FFF7D4
:101F40007DFF23893A4631462846FFF74AFFE1885C
:101F50002846FFF739FF13E02389A28861882846C5
:101F6000FFF73FFFE1882846FFF72EFF23893A4617
:101F700031462846FFF76BFFE1882846FFF75EFFF2
:101F8000BDE8F0810146486B70470146886B704799
:101F90000146C86B70470146086C70470A884B8839
:101FA0001A438B881A43CB881A430B891A434B89EF
:101FB0001A438B891A43A0F84420704700210180FE
:101FC00041808180C180018141818181704731B12F
:101FD000B0F8442042F40042A0F8442005E0B0F8F4
:101FE0004420C2F30E02A0F84420704721B1828839
:101FF00042F00402828004E082884FF6FB731A40AC
:102000008280704721B1828842F00102828004E020
:1020100082884FF6FE731A40828070471AB1838916
:102020000B43838102E083898B43838170478182E4
:10203000704702460020138A0B400BB1012000E0DC
:1020400000207047CA430282704730B50246002024
:1020500000230024158A05EA0103958905EA010495
:1020600013B10CB1012000E0002030BDCA43028250
:10207000704741EA0203A0F8483070471AB18389DB
:102080000B43838102E083898B438381704721B1B5
:10209000828842F00802828004E082884FF6F7735B
:1020A0001A408280704701894FF6F8721140018111
:1020B00070470A46002101894FF68F73194011437A
:1020C0000181704730B504460D4629462046FFF78A
:1020D000F0FF208940F00700208130BD2DE9F0415C
:1020E00004460D4616461F46602D06D13B4601228A
:1020F00031462046FFF775FE05E03B46012231469A
:102100002046FFF7A4FE29462046FFF7D2FF20898C
:1021100040F007002081BDE8F08130B50C46002179
:102120000189C9B24FF6FF7505EA0325154325431A
:102130002943018130BD2DE9F04105460E46174681
:102140009846002443463A4631462846FFF7E5FFC5
:102150002C894FF6F870044044F007044FF68F7056
:10216000044044F070042C81BDE8F081F0B50446D1
:102170000D4616461F463B46324629462046FFF787
:10218000CCFF208940F480402081F0BD82884FF64A
:102190008F731A40828082880A4382807047028946
:1021A0004FF6F8731A40028102890A430281704790
:1021B00002894FF67F731A40028102890A43028125
:1021C0007047F0B50C4615461E460021002200233C
:1021D0000189028B038C4FF6F877394021434FF683
:1021E000FC473A4040F201173A434FF6DD773B4057
:1021F0004FF6FF7707EA06172F433B43018102831F
:102200000384F0BD21B1828842F08002828004E024
:1022100082884FF67F731A4082807047A0F8501072
:102220007047000010B50446FA48844208D10121E5
:102230001020FFF7B6F800211020FFF7B2F857E0A2
:10224000F548844209D101214804FFF799F800219B
:102250004FF40030FFF794F84AE0F048844209D187
:1022600001218804FFF78CF800214FF48020FFF74C
:1022700087F83DE0EA48844209D10121C804FFF70C
:102280007FF800214FF40020FFF77AF830E0E548AE
:10229000844209D101210805FFF772F800214FF4AB
:1022A0008010FFF76DF823E0DF48844208D1012158
:1022B0002020FFF776F800212020FFF772F817E0C2
:1022C000DA48844209D101218807FFF759F8002133
:1022D0004FF08040FFF754F80AE0D548844207D118
:1022E00001214005FFF74CF800216005FFF748F891
:1022F00010BD2DE9FF4705460E460024A14600BF4C
:10230000A046B08900B100BF2C8A24F44054F08864
:1023100004432C82AC8941F20C608443B08831893B
:102320000843718908430443AC81AC8A24F44074A7
:10233000B0890443AC826846FEF7B3FEB5488542D7
:1023400002D0B948854202D1DDF80C9001E0DDF8F9
:102350000890A88900F4004040B109EBC90000EBE7
:10236000091031684900B0FBF1F707E009EBC9003B
:1023700000EB091031688900B0FBF1F76420B7FB6E
:10238000F0F004012009642101FB1078A88900F411
:10239000004040B1322000EBC800B0FBF1F000F08B
:1023A0000700044308E0322000EB08106421B0FB72
:1023B000F1F000F00F0004432C81BDE8FF874FF4DB
:1023C0001651016000218180C18001810C21418171
:1023D00000218181704710B502460020108A20F448
:1023E00070600B884C8823438C882343CC8823431C
:1023F0001843108210BD0021018041808180C1807E
:10240000704721B1828942F40052828104E08289BE
:102410004DF6FF731A4082817047028B02F47F42AF
:102420000283028B0A430283704721B1828942F4FE
:102430000042828103E08289C2F30E0282817047EA
:1024400021B1828A42F40062828204E0828A4FF2E1
:10245000FF731A4082827047C1F30802828070477E
:1024600001468888C0F308007047028A4FF6F0736F
:102470001A400282028A0A430282704721B182898D
:1024800042F00202828104E082894FF6FD731A4015
:102490008281704782894FF2FF731A40828182895C
:1024A0000A4382817047028A4FF6DF731A40028224
:1024B000028A0A430282704721B1028A42F48042B2
:1024C000028204E0028A4BF6FF731A4002827047D0
:1024D000818941F001018181704721B1828A42F0F6
:1024E0000802828204E0828A4FF6F7731A408282E1
:1024F0007047028BD2B20283028B42EA012202832E
:10250000704721B1828A42F02002828204E0828AEE
:102510004FF6DF731A408282704721B1828A42F0FF
:102520001002828204E0828A4FF6EF731A408282A0
:102530007047828A4FF6FB731A408282828A0A436E
:102540008282704721B1828A42F00202828204E0D4
:10255000828A4FF6FD731A40828270471AB1838ACD
:102560000B43838202E0838A8B4383827047F0B5FA
:102570000346002400260025002040F66A17B942D1
:1025800000D100BF1846C1F3421401F01F06012715
:1025900007FA06F5012C01D10C3004E0022C01D120
:1025A000103000E014301AB107682F43076002E0D2
:1025B0000768AF430760F0BD02460020B1F5007F19
:1025C00000D100BF13880B400BB1012000E00020B8
:1025D000704701F40072B2F5007F00D100BFCA431A
:1025E0000280704770B502460024002300250020B9
:1025F00040F66A16B14200D100BFC1F3421501F0A6
:102600001F03012606FA03F3012D13D196893340E7
:1026100017E0000000100140004400400048004066
:10262000004C004000500040001401400078004081
:10263000007C0040022D02D1168A334001E0968AC8
:1026400033400C12012606FA04F41688344013B104
:102650000CB1012000E0002070BD10B50022002365
:1026600040F66A14A14200D100BF0A12012494402E
:10267000A3B2DC43048010BD10B504466FF0040023
:10268000FDF732FFE11704EB5171C1F3C701394A7D
:1026900011701046007800EB4001C1EBC0104FF6FE
:1026A000FF7101EAC0003449088010BD0146314A7B
:1026B00012784A434FF0E0235A6100229A611A4689
:1026C000126942F001021A6100BF4FF0E022106966
:1026D00000F001021AB100F48032002AF5D04FF068
:1026E000E022126922F001024FF0E0231A61002279
:1026F0009A6170470146204A12884A434FF0E0230E
:102700005A6100229A611A46126942F001021A6166
:1027100000BF4FF0E022106900F001021AB100F48E
:102720008032002AF5D04FF0E022126922F0010237
:102730004FF0E0231A6100229A61704770B5044699
:102740004FF4077094FBF0F0C6B24FF4077094FB9F
:10275000F0F100FB114085B205E04FF40770FFF780
:10276000C9FF701EC6B2002EF7D115B12846FFF77B
:10277000C1FF70BD24000020260000207FB5054663
:102780000C4601212020FEF7A6FD0295ADF804407D
:102790000020ADF80600ADF80C0001A9FE48FEF7D8
:1027A0009CFF01221146FC48FFF738FC0121FA4842
:1027B000FFF71CF837208DF8000003208DF801008A
:1027C0008DF8020001208DF803006846FDF73FFEFA
:1027D0007FBD08B500212020FEF77DFD00220121EC
:1027E000ED48FFF71BFC0021EB48FEF7FFFF372009
:1027F0008DF8000003208DF801008DF80200002004
:102800008DF803006846FDF722FE08BD30B58BB099
:1028100005460C4601210820FEF714FD0121042085
:10282000FEF759FD02220C21DC48FEF7F8FA0222DD
:102830000D21DA48FEF7F3FA02208DF82800002077
:102840008DF82A008DF82B0003208DF82900000355
:10285000099009A9D148FEF757FAD148FEF790FE32
:10286000CF48FEF78DFE0020ADF82000ADF81A002D
:102870000795A0B2ADF8180000208DF8220006A937
:10288000C748FEF72AFF06A9C548FEF726FF6020C5
:10289000ADF804000120ADF806000020ADF81000EE
:1028A000039001A9BE48FEF7ADFF01A9BC48FEF7A1
:1028B000E2FF0821BA48FFF732F90821B848FFF7CC
:1028C00037F90121B648FEF773FF0121B448FEF73E
:1028D0006FFF0121B248FEF789FF0121B048FEF7E2
:1028E00085FF0BB030BD00B589B001210846FEF769
:1028F000A9FC01210846FEF7EEFC02208DF820001D
:1029000000208DF822002220079000208DF823005F
:1029100003208DF8210007A9A248FEF7F5F901224E
:102920001146A048FEF77BFA012205219D48FEF7DB
:1029300076FA04A8FEF705FF0020ADF81800ADF800
:1029400012004FF6FF7005900020ADF810008DF8D2
:102950001A0004A94FF08040FEF7BFFE01A8FFF760
:10296000CAFA1020ADF80C0001A98006FFF78CFA16
:1029700000231A4603214FF08040FFF722FC00217C
:102980004FF08040FEF7F2FE01218807FFF75AFB67
:10299000012211469007FFF741FB01218807FEF74E
:1029A00025FF09B000BD00B589B001210420FEF764
:1029B00049FC01210220FEF78EFC02208DF8200048
:1029C00000208DF82200C020079000208DF8230001
:1029D00003208DF8210007A97348FEF795F902221C
:1029E00006217148FEF71BFA022207216E48FEF706
:1029F00016FA04A8FEF7A5FE0020ADF81800ADF801
:102A000012004FF6FF7005900020ADF810008DF811
:102A10001A0004A94FF08040FEF75FFE01A8FFF7FF
:102A20006AFA1020ADF80C0001A96048FFF72CFAF3
:102A300000231A4603215D48FFF7C3FB00215B48D2
:102A4000FEF794FE01215948FFF7FCFA01221146D6
:102A50005648FFF7E3FA01215448FEF7C7FE09B0D4
:102A600000BD10B501218807FFF7EFFA18B1012169
:102A70008807FFF7FBFA10BD10B501214B48FFF79F
:102A8000E4FA18B101214948FFF7F0FA10BD30B55A
:102A90008BB004460D4601218020FEF71CFC01216D
:102AA0002020FEF7CFFB092208214148FEF7B7F9A5
:102AB0004FF48070099002208DF8280003208DF8D3
:102AC000290000208DF82A0001208DF82B0009A98B
:102AD0003748FEF719F9681E80B2ADF818000020DB
:102AE000ADF81A00601E07900020ADF8200006A97E
:102AF0003048FEF7F2FD6020ADF804000120ADF88B
:102B000006000020ADF8100001A92A48FEF77AFE61
:102B100008212848FFF703F801212648FEF748FE60
:102B200001212448FEF762FE0BB030BD30B58BB0FA
:102B300004460D4601210802FEF7CDFB012108469F
:102B4000FEF780FB092207211648FEF768F980206E
:102B5000099002208DF8280003208DF8290000201C
:102B60008DF82A0001208DF82B0009A90D48FEF7E9
:102B7000CBF8681E80B2ADF818000020ADF81A003E
:102B8000601E07900020ADF8200006A90A48FEF755
:102B9000A4FD602012E0000000140040000C024080
:102BA000000800400000024000080240000400400D
:102BB00000140240001C004000200040ADF804005A
:102BC0000120ADF806000020ADF8100001A908486A
:102BD000FEF718FE08210648FEF7A1FF0121044870
:102BE000FEF7E6FD01210248FEF700FE0BB030BD06
:102BF000002000401CB501212020FEF723FB01200E
:102C00008DF8040000208DF806008DF807000320E1
:102C10008DF805004FF40E60009069469748FEF766
:102C200073F81CBD1CB501214020FEF70BFB0020F2
:102C30008DF804008DF806004FF4406000900120EC
:102C40008DF8070003208DF8050069468C48FEF7D3
:102C50005BF81CBD1CB501215F20FEF7F3FA0020D4
:102C60008DF804008DF806004FF485400090002098
:102C70008DF8070003208DF8050069468048FEF7AF
:102C800043F800208DF804008DF806004FF4014051
:102C9000009000208DF8070003208DF8050069469C
:102CA0007848FEF731F800208DF804008DF8060012
:102CB000E020009000208DF8070003208DF805002B
:102CC00069467148FEF720F800208DF804008DF861
:102CD00006006020009000208DF8070003208DF88A
:102CE000050069466948FEF70FF800208DF80400DA
:102CF0008DF8060040F20120009000208DF80700BA
:102D000003208DF8050069466148FDF7FDFF0020AE
:102D10008DF804008DF806009020009000208DF8BA
:102D2000070003208DF8050069465A48FDF7ECFFBF
:102D30001CBD1CB501217420FEF784FA00208DF81B
:102D4000040002208DF807008003009069464E4879
:102D5000FDF7DAFF0520009069464848FDF7D4FFEB
:102D600001208DF8040002208DF80500102000904D
:102D700069464248FDF7C8FF4FF484400090694619
:102D80004448FDF7C1FF1CBD1CB501214820FEF7DA
:102D900059FA4020009001208DF8040003208DF89E
:102DA000050000208DF8060001208DF80700694617
:102DB0003848FDF7A9FF40213648FEF721F84FF4C7
:102DC0000040009000208DF8040003208DF80500DD
:102DD00000208DF8060001208DF80700694628487C
:102DE000FDF792FF1CBD1CB501214020FEF72AFA19
:102DF00000208DF804008DF80600022000900120CC
:102E00008DF8070003208DF8050069462048FDF77E
:102E10007BFF00208DF804008DF80600082000904C
:102E200001208DF8070003208DF805006946194838
:102E3000FDF76AFF00208DF804008DF806006C2075
:102E4000009001208DF8070003208DF805006946E9
:102E50000E48FDF759FF00208DF804008DF806009C
:102E60004FF44060009001208DF8070003208DF89A
:102E7000050069460248FDF747FF1CBD00140240EB
:102E8000001802400000024000040240001002400E
:102E900000080240000C024010B588B00446012131
:102EA0000846FEF7CFF901211020FEF725FA072288
:102EB0000921FE48FDF7B3FF07220A21FB48FDF771
:102EC000AEFF4FF4C060069002208DF81C008DF814
:102ED0001D0000208DF81E0001208DF81F0006A99E
:102EE000F248FDF711FF02940020ADF80C00ADF898
:102EF0000E00ADF81000ADF814000C20ADF8120073
:102F000002A9EB48FFF7F5F90121E948FFF779FA43
:102F1000012240F22551E648FFF729FB25208DF8D4
:102F2000040003208DF805008DF8060001208DF8BF
:102F3000070001A8FDF78BFA08B010BD10B588B0E6
:102F4000044600210120FEF77DF900211020FEF744
:102F5000D3F907220921D548FDF761FF07220A218D
:102F6000D248FDF75CFF4FF4C060069002208DF858
:102F70001C008DF81D0000208DF81E0001208DF82A
:102F80001F0006A9C948FDF7BFFE02940020ADF856
:102F90000C00ADF80E00ADF81000ADF814000C20D8
:102FA000ADF8120002A9C248FFF7A3F90021C048FA
:102FB000FFF727FA25208DF8040003208DF805007F
:102FC0008DF8060000208DF8070001A8FDF73FFAF4
:102FD00008B010BD10B588B0044601210846FEF7C0
:102FE00031F901214804FEF776F907220321AF48A1
:102FF000FDF715FF07220221AC48FDF710FF0C205A
:10300000069002208DF81C008DF81D0000208DF820
:103010001E0001208DF81F0006A9A448FDF774FECC
:1030200002940020ADF80C00ADF80E00ADF81000D1
:10303000ADF814000C20ADF8120002A99D48FFF76E
:1030400058F920219B48FFF7C4FA26208DF8040088
:1030500002208DF805008DF8060001208DF807008C
:1030600001A8FDF7F4F9012240F225519148FFF73C
:103070007EFA01218F48FFF7C4F908B010BD10B5E2
:1030800088B0044600210120FEF7DCF800214FF44F
:103090000030FEF720F9072203218448FDF7BFFE28
:1030A000072202218148FDF7BAFE0C20069002207B
:1030B0008DF81C008DF81D0000208DF81E000120E9
:1030C0008DF81F0006A97948FDF71EFE0294002026
:1030D000ADF80C00ADF80E00ADF81000ADF814001E
:1030E0000C20ADF8120002A97248FFF702F9202166
:1030F0007048FFF76EFA26208DF8040002208DF844
:1031000005008DF8060001208DF8070001A8FDF7E5
:103110009EF9002240F225516648FFF728FA002167
:103120006448FFF76EF908B010BD10B588B00446CA
:1031300001210220FEF786F801218804FEF7CBF872
:1031400007220A215C48FDF76AFE07220B215A4834
:10315000FDF765FE4FF44060069002208DF81C00DC
:103160008DF81D0000208DF81E0001208DF81F0035
:1031700006A95148FDF7C8FD02940020ADF80C00E7
:10318000ADF80E00ADF81000ADF814000C20ADF84D
:10319000120002A94948FFF7ACF840214748FFF761
:1031A00018FA27208DF8040001208DF80500022070
:1031B0008DF8060001208DF8070001A8FDF747F9FA
:1031C000012240F225513D48FFF7D1F901213B484A
:1031D000FFF717F908B010BD10B588B004460021FC
:1031E0000220FEF72FF800214FF48020FEF773F83D
:1031F00007220A213048FDF712FE07220B212E4834
:10320000FDF70DFE4FF44060069002208DF81C0083
:103210008DF81D0000208DF81E0001208DF81F0084
:1032200006A92548FDF770FD02940020ADF80C00BA
:10323000ADF80E00ADF81000ADF814000C20ADF89C
:10324000120002A91D48FFF754F840211B48FFF760
:10325000C0F927208DF8040001208DF80500022018
:103260008DF8060000208DF8070001A8FDF7EFF8A3
:10327000002240F225511148FFF779F900210F484B
:10328000FFF7BFF808B010BD10B588B004460121A3
:103290000420FDF7D7FF0121C804FEF71CF808221F
:1032A0000A210748FDF7BBFD08220BE000000240A1
:1032B000001001400044004000040240004800406B
:1032C000000802400B21B448FDF7A9FD4FF440600F
:1032D000069002208DF81C008DF81D0000208DF84E
:1032E0001E0001208DF81F0006A9AB48FDF70CFD5C
:1032F00002940020ADF80C00ADF80E00ADF81000FF
:10330000ADF814000C20ADF8120002A9A348FEF796
:10331000F0FF0121A148FFF774F840219F48FFF713
:1033200058F9012240F225519C48FFF720F934203A
:103330008DF8040002208DF8050001208DF80600AC
:103340008DF8070001A8FDF782F808B010BD10B590
:1033500088B0044600210420FDF774FF00214FF4DB
:103360000020FDF7B8FF08220A218B48FDF757FD22
:1033700008220B218848FDF752FD4FF4406006906B
:1033800002208DF81C008DF81D0000208DF81E0015
:1033900001208DF81F0006A97F48FDF7B5FC0294B7
:1033A0000020ADF80C00ADF80E00ADF81000ADF83F
:1033B00014000C20ADF8120002A97848FEF799FF1E
:1033C00000217648FFF71DF840217448FFF701F906
:1033D000002240F225517148FFF7C9F834208DF8DA
:1033E000040002208DF805008DF8060000208DF8FD
:1033F000070001A8FDF72BF808B010BD10B588B084
:10340000044601210C20FDF71DFF01210805FDF7F1
:1034100062FF082202216248FDF701FD08220C210B
:103420005D48FDF7FCFC4FF48050069002208DF8BB
:103430001C008DF81D0000208DF81E0001208DF865
:103440001F0006A95448FDF75FFC042006900220E7
:103450008DF81C008DF81D0000208DF81E00012045
:103460008DF81F0006A94E48FDF74EFC029400207F
:10347000ADF80C00ADF80E00ADF81000ADF814007A
:103480000C20ADF8120002A94648FEF732FF0121D8
:103490004448FEF7B6FF40214248FFF79AF8012260
:1034A00040F225513F48FFF762F835208DF80400BF
:1034B00002208DF8050000208DF8060001208DF80F
:1034C000070001A8FCF7C3FF08B010BD00B587B026
:1034D00001210C20FDF7B6FE01210805FDF7FBFEDA
:1034E00008220C212C48FDF79AFC082202212C48C6
:1034F000FDF795FC4FF48050059002208DF81800E0
:103500008DF8190000208DF81A0001208DF81B009D
:1035100005A92148FDF7F8FB0420059002208DF84D
:1035200018008DF8190000208DF81A0001208DF880
:103530001B0005A91A48FDF7E7FB0020ADF80800BD
:10354000ADF80A00ADF80C00ADF810000C20ADF895
:103550000E0001A91348FEF7CCFE00211148FEF72A
:1035600050FF40210F48FFF734F8002240F2255168
:103570000C48FEF7FCFF35208DF8000002208DF886
:10358000010000208DF802008DF803006846FCF76A
:103590005EFF07B000BD000000080240004C004084
:1035A000000C0240005000401CB501218803FDF7CB
:1035B000A3FE0A210620FDF7AAFF0B210620FDF736
:1035C000A6FFFCF7AFFF4FF48060009000208DF85D
:1035D00004000C208DF8050001208DF806006846D7
:1035E000FCF7AEFF4FF40060009000208DF804005F
:1035F0000C208DF8050001208DF806006846FCF7C8
:103600009FFF6846FCF79CFF1CBD08B5FFF7CCFF89
:1036100028208DF8000000208DF801008DF80200B0
:1036200001208DF803006846FCF711FF08BD0EB5B8
:1036300000214FF48040FDF75FFE0A210620FDF7D0
:1036400066FF0B210620FDF762FFFCF76BFF4FF4CE
:103650008060009000208DF804000C208DF805009B
:1036600000208DF806006846FCF76AFF4FF4006002
:10367000009000208DF804000C208DF8050000203B
:103680008DF806006846FCF75BFF28208DF80800DF
:1036900000208DF809008DF80A008DF80B0002A8B3
:1036A000FCF7D5FE0EBD0EB501218803FDF724FE03
:1036B000FFF799FB0A210620FDF729FF0B210620C1
:1036C000FDF725FFFCF72EFF4FF44060009000202F
:1036D0008DF804000C208DF8050001208DF80600FF
:1036E0006846FCF72DFF28208DF8080000208DF893
:1036F00009008DF80A0001208DF80B0002A8FCF7E4
:10370000A6FE0EBD0EB500214FF48040FDF7F4FD7E
:103710000A210620FDF7FBFE0B210620FDF7F7FE30
:10372000FCF700FF4FF44060009000208DF804008B
:103730000C208DF8050000208DF806006846FCF787
:10374000FFFE28208DF8080000208DF809008DF874
:103750000A008DF80B0002A8FCF779FE0EBD10B52B
:103760004FF40060FCF752FF012805D04FF4806051
:10377000FCF74CFF012873D146480068E0B94FF4CC
:103780008060FCF743FF01287BD13220FEF7D6FF93
:10379000FFF71FF800F01CF93220FEF7CFFF0120E1
:1037A0003D4908603D4908608002FCF73AFF4FF44C
:1037B0000060FCF736FF64E036480068022818D144
:1037C0008002FCF723FF01285BD1FFF702F800F02D
:1037D000FFF83220FEF7B2FF01202F4908602F4981
:1037E00008608002FCF71DFF4FF40060FCF719FF32
:1037F00047E028480068032843DB2648006807287C
:103800003FDCFEF7E6FF00F0E3F8C820FEF796FF86
:103810004FF40060FCF7FAFE012810D18002FCF79B
:10382000F5FE01280BD11C4908601C490860C00244
:10383000FCF7F7FE4FF48060FCF7F3FE21E04FF455
:103840000060FCF7E3FE01280BD18002FCF7DEFEEE
:1038500038B9012011490860C002FCF7E2FE10E00F
:1038600017E04FF40060FCF7D1FE50B94FF48060D0
:10387000FCF7CCFE012804D1074908608002FCF760
:10388000D0FE4FF48060FCF7CCFE4FF40060FCF7F4
:10389000C8FE10BD4C0000203C000020400000206D
:1038A00010B5FFF7A7F929216320FEF7AFFF10BD80
:1038B000F0EE400AF5EEC00AF1EE10FA01DBB0EED0
:1038C000600AF5EEC00AF1EE10FA03D2B1EE601A0A
:1038D000B0EE410A7047B0EE401AB4EEE01AF1EED5
:1038E00010FA02DBB0EE410A7047B4EEE01AF1EED6
:1038F00010FA02D8B0EE600AF6E700BFF4E7B0EEC7
:10390000401AB4EEE01AF1EE10FA02D8B0EE410A15
:103910007047B4EEE01AF1EE10FA02DBB0EE600A86
:10392000F6E700BFF4E770B5552465421668864295
:1039300000DB106016688E4200DA11601E68864255
:1039400000DB18601E688E4200DA196070BD00B599
:10395000002806DD00222B4B1A6001222A4BC3F8F7
:103960009C22002806DC0122264B1A600022264BEE
:10397000C3F89C22002907DD0022224B14331A6071
:103980000122214BC3F89422002907DC01221D4BA0
:1039900014331A6000221C4BC3F8942200EE101A54
:1039A000B8EEC00AFFF784FFBCEEC00A10EE102A82
:1039B000164B1A6000EE100AB8EEC00AFFF778FF47
:1039C000BCEEC00A10EE102A104B1B1D1A6000BD81
:1039D00010B500200B4908600B49C1F89C0200217A
:1039E0000A483438FEF769F80020064914310860A7
:1039F0000549C1F89402002104483438FEF75BF809
:103A000010BD0000988242420080424234080040CB
:103A100010B5FEF768FFFEF7C6FF10BD0146B1F115
:103A2000804F09D14FF08040406A02B200204FF031
:103A300080435862104670470748814209D10648C2
:103A40002430006802B20020034B24331860104673
:103A5000F1E70020EFE700000004004010B500206F
:103A6000FD490860FD49C1F8AC020120FC4908701D
:103A700040F22551FB48FEF7B5FD00286ED0F9480D
:103A8000FEF7EEFCC4B2F848F84909784454F84807
:103A90000078FD2801D1FC2C03D0F44800780028E0
:103AA0001EDD0120F3490870F0480078401CEF4902
:103AB0000870ED484078402806D1EB4880783828D7
:103AC00002D10120EC490870E748407841280AD12A
:103AD000E5488078302806D10120E849087002E0E6
:103AE0000020E2490870E2480470E34800780128A9
:103AF00015D1DE480078402811D10020DB4908703C
:103B0000DD4908700120DE490860D74890F83F0081
:103B1000FD2804D14022D449DA4804F091FFD74867
:103B20000078012815D1D1480078382811D100201B
:103B3000CE490870D14908700120D3490860CA48AD
:103B400090F83700FD2804D14022C749CF4804F03F
:103B500077FF40F22551C348FEF77FFD10BD10B539
:103B60002DED048BCA4800685A21484300EE100A24
:103B7000B8EEC00AC748D0ED000A30EE200AC648A9
:103B800080ED000A08E0C44890ED000ADFEDC30AAA
:103B900030EE600A80ED000ABF4890ED000ADFEDCC
:103BA000BF0AB4EEE00AF1EE10FAECDC08E0BA4825
:103BB00090ED000ADFEDB90A30EE200A80ED000A30
:103BC000B54890ED000ADFEDB60AB4EEE00AF1EE7A
:103BD00010FAECD390ED000AB248D0ED000A30EEB6
:103BE000600A10EE101A084605F06AF841EC190B4D
:103BF000B0EE490AF0EE690A05F0C0FAB0EE408A6C
:103C0000F0EE608A9FEDA80B53EC102B51EC180BD3
:103C100005F082F819D2A04890ED000AA148D0ED35
:103C2000000AB4EEE00AF1EE10FA02DD4FF4B470CF
:103C300000E09F4800EE100AB8EEC00A9948D0EDA7
:103C4000000A30EE200A80ED000ABDEC048B10BDA6
:103C5000704770B504460D461646002242EA0362DC
:103C600042EA064242EA052222430021104670BD84
:103C70002DE9F0472DED0C8B0646884691469A4675
:103C800000BF00BF00BF00BF00210C460D464FEA39
:103C90000A60044345EAE0754FEA0940044345EAF7
:103CA000E0754FEA0820044345EAE07534434FF0DD
:103CB000004104EA0100002148404940084302D085
:103CC0004FF0FF3000E0012008EE900AE00D40EADE
:103CD0004520C0B27F21471A764904EA01024FF01D
:103CE0000001104604F09FFF00EE100A9FED721ACB
:103CF000C0EE010AB7EE000A30EE809A384604F0B2
:103D0000A8FF41EC1D0BB0EE4D1AF0EE6D1A9FEDC1
:103D10006B0B05F03DFAB0EE40BAF0EE60BAB8EECB
:103D2000E80A20EE090A10EE101A084604F0C8FF4F
:103D300053EC1B2B04F096FE05F006F808EE100A73
:103D4000B0EE480ABDEC0C8BBDE8F087704710B5AB
:103D50004D48006801287DD14C48407841287AD1EF
:103D60004A4880783028FAD1484CA37A627A217A7E
:103D7000E079FFF77DFF534880ED000AA37B627B6B
:103D8000217BE07AFFF774FF4E4880ED010AA37CA7
:103D9000627C217CE07BFFF76BFF4A4880ED020AE2
:103DA000A37D627D217DE07CFFF762FF454880EDC9
:103DB000030AA37E627E217EE07DFFF759FF414822
:103DC00080ED040AA37F627F217FE07EFFF750FF32
:103DD0003C4880ED050A94F8223094F8212094F8AC
:103DE0002010E07FFFF744FF364880ED060A94F884
:103DF000263094F8252094F8241094F82300FFF737
:103E000037FF304880ED070A94F82A3094F82920CB
:103E100094F8281094F82700FFF72AFF294880ED2E
:103E2000080A94F82E3094F82D2094F82C1094F869
:103E30002B00FFF71DFF234880ED090A94F832306C
:103E400094F8312094F8301094F82F00FFF701FF18
:103E50001C4939E03EE03AE0B002404200004042F6
:103E600060000020005000406C0100209000002005
:103E70009200002091000020930000209400002078
:103E800064000020AC01002068000020EC0100204C
:103E90005C00002050000020540000200000B443CB
:103EA0000000B4C3580000200000000000806640FD
:103EB00098FEFFFFFFFF7F00FEFFFF4A00000000AB
:103EC00000000040400100208862FFF73FFF002013
:103ED000E8490860E8480068012875D1E74840785B
:103EE00040286ED1E548807838286AD1E34CA37A1F
:103EF000627A217AE079FFF7BBFEE14880ED000AA3
:103F0000A37B627B217BE07AFFF7B2FEDC4880ED89
:103F1000010AA37C627C217CE07BFFF7A9FED848E4
:103F200080ED020AA37D627D217DE07CFFF7A0FE8B
:103F3000D34880ED030AA37E627E217EE07DFFF7F9
:103F400097FECF4880ED040AA37F627F217FE07E49
:103F5000FFF78EFECA4880ED050A94F8223094F8E7
:103F6000212094F82010E07FFFF782FEC44880ED06
:103F7000060A94F8263094F8252094F8241094F832
:103F80002300FFF775FEBE4880ED070A94F82A303B
:103F900094F8292094F8281094F82700FFF768FE79
:103FA000B74880ED080A94F83A3094F8392094F82C
:103FB000381094F83700FFF74CFEB1490863FFF75B
:103FC00047FE0020AC490860002010BD10B52DED63
:103FD000068BAC4890ED050A10EE101A084604F066
:103FE0006FFE41EC1A0B1FED500B53EC102B04F03D
:103FF00039FD41EC190B9FEDA40B53EC102B04F091
:10400000A3FD41EC180B04F09FFE00EE100ABDEC7E
:10401000068B10BD9B4890ED020ADFED9D0A60EE15
:10402000200A9FED9C1A80EE810A7047954890ED1A
:10403000030ADFED990A20EE200A704710B52DED36
:10404000068BB0EE408A18EE100A04F039FE41ECFF
:104050001A0BB0EE4A0AF0EE6A0AFFF729FC044692
:1040600004F0F7FD41EC190B9FED8C0B53EC102B7A
:1040700004F03AFE03D89FED8B0AB0EE408A18EEAA
:10408000100A04F01DFE41EC190B9FED840B53EC5C
:10409000102B04F041FE0AD2B1EE040AB4EEC08A3D
:1040A000F1EE10FA03D8B0EE000AB0EE408AB1EE9D
:1040B000040AB4EEC08AF1EE10FA0ADDB2EE040A88
:1040C000B4EEC08AF1EE10FA03D89FED770AB0EE95
:1040D000408AB2EE040AB4EEC08AF1EE10FA0ADDAC
:1040E000B2EE0E0AB4EEC08AF1EE10FA03D89FEDDC
:1040F0006F0AB0EE408AB2EE0E0AB4EEC08AF1EE5C
:1041000010FA0ADDB3EE040AB4EEC08AF1EE10FA3A
:1041100003D89FED670AB0EE408AB3EE040AB4EE0E
:10412000C08AF1EE10FA0ADDB3EE090AB4EEC08AD5
:10413000F1EE10FA03D89FED5F0AB0EE408AB3EEBD
:10414000090AB4EEC08AF1EE10FA0ADD9FED5A0AB0
:10415000B4EEC08AF1EE10FA03D8B1EE000AB0EE68
:10416000408AB9EE040AB4EEC08AF1EE10FA10DB10
:1041700018EE100A04F0A4FD41EC190B9FED4F0B53
:1041800053EC102B04F0B0FD03D2B8EE000AB0EEF1
:10419000408ABAEE040AB4EEC08AF1EE10FA0ADBE5
:1041A000B9EE040AB4EEC08AF1EE10FA03D29FED24
:1041B000450AB0EE408ABAEE0E0AB4EEC08AF1EEBD
:1041C00010FA0ADBBAEE040AB4EEC08AF1EE10FA75
:1041D00003D29FED3D0AB0EE408ABBEE040AB4EE76
:1041E000C08AF1EE10FA0ADBBAEE0E0AB4EEC08A0B
:1041F000F1EE10FA03D29FED350AB0EE408ABBEE25
:10420000090AB4EEC08AF1EE10FA0ADBBBEE040A2A
:10421000B4EEC08AF1EE10FA03D29FED2D0AB0EE93
:10422000408ABBEE0E0AB4EEC08AF1EE10FA0ADB49
:104230009FED280AB4EEC08AF1EE10FA03D8B9EE69
:10424000000AB0EE408A18EE100A04F039FD41EC85
:10425000190BB0EE490AF0EE690AFFF729FB322884
:1042600003DD9FED1D0AB0EE408AB0EE480ABDECBA
:10427000068B10BD6800002064000020AC01002007
:104280000C0100204001002000000060FB210940DB
:1042900000003443DB0F494000007A4433333333AA
:1042A0003333D33F000000009A9919403333334031
:1042B000CDCC4C4066666640000048423333333311
:1042C0003333D3BF9A9919C0333333C0CDCC4CC0EC
:1042D000666666C0000048C20000C84310B540F2E0
:1042E000473140F2CF70FEF7D2FB40F2473140F247
:1042F000CF70FEF71BFC10BD10B5044621462848C0
:10430000FDF7D9FB10BD10B5044621462548FDF741
:10431000D2FB10BD2DE9F04104460D4616469846E5
:1043200004F0010058B12F4606E0B8B2FFF7E4FFF1
:104330004046FEF703FA7F1CB742F6DB0DE004F0BF
:10434000020050B12F4606E0B8B2FFF7DCFF40464E
:10435000FEF7F4F97F1CB742F6DBBDE8F08170B5DB
:1043600004460D46B42094FBF0F000EBC00101EBD5
:104370000010322101EBC00086B23046FFF7BCFFCF
:10438000B42095FBF0F000EBC00101EB00103221EE
:1043900001EBC00086B23046FFF7B5FF70BD0000EC
:1043A000001C00400020004070B540F225514D48EF
:1043B000FEF718F9002819D040F225514948FEF7B8
:1043C0004CF94848FEF74CF8C5B24748007870B938
:1043D0002C2D0CD101204449087044480178007804
:1043E000401C424A1070424820F8115079E03E4883
:1043F000007801280ED1122D0CD102203A49087004
:104400003A4801780078401C384A1070384820F843
:10441000115066E034480078022823D133480178EF
:104420000078401C314A1070314820F81150104675
:1044300000780A2801DA5B2D53D103202A4908703D
:1044400001202C49087029480078801E284911F85D
:104450001020294801780078401C274B1870274805
:1044600042543EE02048007803282BD11F480078B2
:10447000401E1F4931F810005B2813D1002240F282
:1044800025511848FEF773F800201A49087017499B
:10449000087015490870012240F225511148FEF7B5
:1044A00066F81EE0002010490870104908700024CA
:1044B00005E000200E4921F81400601CC4B20A2C4B
:1044C000F7DB0EE000200849087008490870002456
:1044D00005E00020064921F81400601CC4B20A2C33
:1044E000F7DB70BD00100140CB000020CA000020A7
:1044F0007C040020CC000020C30000209600002097
:1045000070B5002640F225518348FEF76BF800286D
:104510007AD08148FDF7A4FFC4B28048007830B15A
:1045200001281BD0022830D0032867D140E0592C45
:104530000ED17A480078401C78490870784879494B
:104540000978445477480078401C7649087004E0A4
:10455000002072490870734908704FE0592C0ED141
:104560006E480078401C6D4908706D486D490978A7
:1045700044546C480078401C6A49087004E00020EC
:10458000664908706749087038E0654865490978E8
:10459000445464480078401C62490870084600781A
:1045A000082804D15D480078401C5C49087025E06B
:1045B000002608E05A48007A5949895D084458495C
:1045C0000872701CC6B2082EF4DB5548007AA0426F
:1045D0000AD1534880785249C97840EA0125002D14
:1045E00001DB642D00DD64254F48058000204B4928
:1045F00008704C4908704A49087200BF00BF40F279
:1046000025514548FEF729F870BD70B500260025F4
:1046100040F225514548FDF7E5FF00287AD0434890
:10462000FDF71EFFC4B24248007830B101281BD00C
:10463000022830D0032867D140E0592C0ED13C48E5
:104640000078401C3A4908703A483B49097844547C
:1046500039480078401C3849087004E0002034498B
:104660000870354908704FE0592C0ED13048007859
:10467000401C2F4908702F482F49097844542E4870
:104680000078401C2C49087004E00020284908707C
:104690002949087038E027482749097844542648B2
:1046A0000078401C2449087008460078082804D186
:1046B0001F480078401C1E49087025E0002608E0CD
:1046C0001C48007A1B49895D08441A490872701C0D
:1046D000C6B2082EF4DB1748007AA0420AD115486A
:1046E00080781449C97840EA0125002D01DB642D4A
:1046F00000DD64251148058000200D4908700E4931
:1047000008700C49087200BF00BF40F225510748ED
:10471000FDF7A3FF70BD0000004C0040DA00002050
:1047200090040020DB000020D60000200044004060
:10473000DC00002099040020DD000020D8000020CB
:1047400001B5BDF800000090BDF80000FE490880EA
:1047500008BD01B5BDF800000090BDF80000FA49A1
:10476000891C088008BD08B5F748801C00880090A7
:10477000BDF8000008BDF44A10804FF0D842A2F8FE
:104780008010704710B504462046FFF7D9FF05207A
:10479000FDF78CFFFFF7E7FF10BDEC480089EA4901
:1047A00008807047E849891C0880704730B5014689
:1047B00001F01F04C1F34513CA0AE50205EB4315D6
:1047C0001544A8B230BD00BF0100A0F10102D0B273
:1047D000FAD1704710B502460C46DC48808841F695
:1047E0006311884247D1D9488079A8B9D748008851
:1047F000401E801A82B2D5494889FFF7A1FF0020E8
:10480000FFF7A7FF0020FFF7A4FF1012FFF7A1FF9B
:10481000D0B2FFF79EFF16E0CC494889FFF790FF22
:104820001012FFF796FFD0B2FFF793FFC749098830
:10483000491EC1F30F20FFF78CFFC4490978491EB8
:10484000C8B2FFF786FFC1498889FFF779FF2012B8
:10485000FFF77FFFE0B2FFF77CFFBC494988491EA4
:10486000C1F30F20FFF775FFB8498978491EC8B218
:10487000FFF76FFF3AE0B548808845F21051884253
:1048800020D1B2494889FFF75BFF1012FFF761FFA3
:10489000AE494989491C88B2FFF752FFD0B2FFF7F1
:1048A00058FFAA498889FFF74BFF2012FFF751FFF5
:1048B000A6498989491C88B2FFF742FFE0B2FFF799
:1048C00048FF13E0A1494889FFF73AFF1012FFF7AC
:1048D00040FFD0B2FFF73DFF9C498889FFF730FFCA
:1048E0002012FFF736FFE0B2FFF733FF10BD2DE9CE
:1048F000F04105460E4600240027A0469348008854
:10490000A84203DD91484088B04202DC0020BDE8A7
:10491000F08131462846FFF75DFF8C48808845F2DC
:104920001051884204D14FF43850FFF709FF02E0DC
:104930002E20FFF705FFFFF716FF04468348808807
:1049400041F66311884201D12046E0E7FFF70BFFF3
:104950000446FFF708FF8046E7B24FF6FF7000EA13
:104960000727E012C002B91240EA411040EAE820ED
:10497000CDE700B57548808845F21051884204D1D2
:104980004FF42450FFF7DCFE02E02920FFF7D8FEA9
:1049900000BD00B56D48808845F21051884204D1B1
:1049A0004FF42050FFF7CCFE02E02820FFF7C8FEAE
:1049B00000BDF0B505460024002764488079012831
:1049C00005D16248808841F66311884208D15F486A
:1049D0008079F0B95D48808841F66311884218D12A
:1049E000082D15D2DFE805F00406080A0C0E101297
:1049F00006250DE007250BE0042509E0052507E065
:104A0000012505E0002503E0032501E0022500BFA4
:104A100000BF082D1CD2DFE805F00406090C0F12B8
:104A2000151800BF14E044F0800411E044F0400485
:104A30000EE044F0C0040BE044F0200408E044F031
:104A4000600405E044F0A00402E044F0E00400BF8C
:104A500000BF3E48808845F21051884202D14FF491
:104A6000585700E036273948808849F2413188425A
:104A700005D03648808847F28971884201D144F0D8
:104A8000080421463846FFF776FE3048808841F614
:104A9000631188421DD004F0200068B12B480088C3
:104AA0002A494988884214DA2848068840882749D4
:104AB0000880084646800CE024480088234949883D
:104AC000884206DD2148068840882049088008463B
:104AD00046801E48808845F21051884257D11B49B4
:104AE0004889FFF72DFE0020FFF733FE174949895B
:104AF000491C88B2FFF724FE0020FFF72AFE134965
:104B00004989891C88B2FFF71BFE10490988491E94
:104B1000C1F30F20FFF71DFE0C494989C91C88B25B
:104B2000FFF70EFE09490978491EC8B2FFF711FECA
:104B300006498889FFF704FE0020FFF70AFE0349B3
:104B40008989491C88B203E07E00006CA204002021
:104B5000FFF7F6FD0020FFF7FCFDFE498989891C5F
:104B600088B2FFF7EDFDFB494988491EC1F30F20CC
:104B7000FFF7EFFDF7498989C91C88B2FFF7E0FD0F
:104B8000F4498978491EC8B2FFF7E3FD2DE0F149E9
:104B90004889FFF7D5FD0020FFF7DBFD0020FFF778
:104BA000D8FDEC490988491EC1F30F20FFF7D1FD5C
:104BB000E8490978491EC8B2FFF7CBFDE549888965
:104BC000FFF7BEFD0020FFF7C4FD0020FFF7C1FD89
:104BD000E0494988491EC1F30F20FFF7BAFDDD49BE
:104BE0008978491EC8B2FFF7B4FDF0BD30B5044660
:104BF0000D4629462046FFF7EDFDFFF7CEFDD648CE
:104C00000088D649088030BD30B504460D46D148ED
:104C1000808845F21051884220D1CE494889FFF75B
:104C20008FFD2012FFF795FDCA494989491C88B2BA
:104C3000FFF786FDE0B2FFF78CFDC6498889FFF7D4
:104C40007FFD2812FFF785FDC2498989491C88B27A
:104C5000FFF776FDE8B2FFF77CFD42E0BD488088B3
:104C600041F66311884228D1BA48807920B9B94801
:104C70000088401E001B84B2B6494889FFF760FDDA
:104C80002012FFF766FDE0B2FFF763FD2012FFF789
:104C900060FDE0B2FFF75DFDAE498889FFF750FD8A
:104CA0002812FFF756FDE8B2FFF753FD2812FFF771
:104CB00050FDE8B2FFF74DFD13E0A6494889FFF724
:104CC0003FFD2012FFF745FDE0B2FFF742FDA1498D
:104CD0008889FFF735FD2812FFF73BFDE8B2FFF7A3
:104CE00038FD9C4800899D49891E08804FF0D840B6
:104CF000A0F8802030BD70B52DED048B0446BE2099
:104D0000FFF71EFD0520FFF724FD204603F0B2FF4C
:104D100041EC190B9FED920B53EC102B03F0A2FE0C
:104D200041EC180B03F0B3FF85B22846FFF711FDE5
:104D30000120FFF70EFDFF20FFF70BFD0020FFF71E
:104D400008FD0020FFF705FDBDEC048B70BD10B51C
:104D5000044680488471002C45D1F0207D490880AC
:104D60004FF4A07048800846808845F21051884270
:104D700010D14FF43050774908814FF428504881C2
:104D80004FF42C5088814FF4F07008804FF4487035
:104D900048801AE06F48808841F6631188420DD13F
:104DA0002C206C4908812B2048812A2088814FF4CF
:104DB000F07008804FF44870488006E02C20654968
:104DC00008812A2048812B2088816248808845F20A
:104DD000103188424CD14FF4A0705E4908804FF4E6
:104DE000F070488044E04FF4A0705A490880F020E9
:104DF00048800846808845F21051884210D14FF40F
:104E00003050544908814FF4285048814FF42C50B9
:104E100088814FF4487008804FF4F07048801AE0A1
:104E20004C48808841F6631188420DD12C204949B5
:104E300008812A2048812B2088814FF448700880FF
:104E40004FF4F070488006E02C20424908812A2067
:104E500048812B2088813F48808845F21031884264
:104E600006D14FF4F0703B4908804FF4A0704880A1
:104E70000020FFF79EFD10BD2DE9F04104460D46D0
:104E80001E46A018401E87B2A819401E1FFA80F8BF
:104E90003048808841F66311884231D12D488079AD
:104EA00001282DD02B480088801A001B84B2A81935
:104EB000401E86B227494889FFF742FC2012FFF7BF
:104EC00048FCE0B2FFF745FCA118491EC1F30F20D2
:104ED000FFF73FFCA118491EC8B2FFF73AFC1D4975
:104EE0008889FFF72DFC2812FFF733FCE8B2FFF7A3
:104EF00030FC3012FFF72DFCF0B2FFF72AFC79E00E
:104F00001448808845F21051884251D1114948898E
:104F1000FFF716FC2012FFF71CFC0E494989491CBB
:104F200088B2FFF70DFCE0B2FFF713FC094949898D
:104F3000891C88B2FFF704FC3812FFF70AFC054908
:104F40004989C91C88B2FFF7FBFBF8B2FFF701FCE7
:104F5000004909E0A2040020E00000208000006C6D
:104F600066666666666604408889FFF7E9FB281274
:104F7000FFF7EFFBFD498989491C88B2FFF7E0FB89
:104F8000E8B2FFF7E6FBF9498989891C88B2FFF787
:104F9000D7FB4FEA2820FFF7DCFBF4498989C91CBD
:104FA00088B2FFF7CDFB08F0FF00FFF7D2FB21E04E
:104FB000EE494889FFF7C4FB2012FFF7CAFBE0B2B5
:104FC000FFF7C7FB3812FFF7C4FBF8B2FFF7C1FBCE
:104FD000E6498889FFF7B4FB2812FFF7BAFBE8B26D
:104FE000FFF7B7FB4FEA2820FFF7B3FB08F0FF00FD
:104FF000FFF7AFFBBDE8F08170B504460026DB4843
:1050000005884088454300210846FFF7E3FBFFF78A
:10501000C4FB00BF02E0D6480480761CAE42FAD33F
:1050200070BD00B5A1B00020209001217A20FCF7CE
:1050300009F901210846FCF73DF94FF400401E90A4
:1050400001208DF87C0000208DF87E0002208DF874
:105050007D0001208DF87F001EA9C648FBF754FE95
:105060004CF233701E9002208DF87C0000208DF8E9
:105070007E0003208DF87D0001208DF87F001EA9A1
:10508000BD48FBF741FE4FF680701E9002208DF860
:105090007C0000208DF87E0003208DF87D0001202B
:1050A0008DF87F001EA9B548FBF72EFE4FF4805007
:1050B0001E9002208DF87C0000208DF87E000320D9
:1050C0008DF87D0001208DF87F001EA9AC48FBF70C
:1050D0001BFE4FF480501E9002208DF87C000020B3
:1050E0008DF87E0003208DF87D0001208DF87F0073
:1050F0001EA9A448FBF708FE0C2200219E48FBF7DE
:105100008EFE0C2201219C48FBF789FE0C22042113
:105110009948FBF784FE0C2205219748FBF77FFE98
:105120000C2208219448FBF77AFE0C2209219248B0
:10513000FBF775FE0C220A218F48FBF770FE0C224C
:105140000E218D48FBF76BFE0C220F218A48FBF7DE
:1051500066FE0C2207218948FBF761FE0C2208211C
:105160008648FBF75CFE0C2209218448FBF757FEBA
:105170000C220A218148FBF752FE0C220B217F48AA
:10518000FBF74DFE0C2211467C48FBF748FE0C2233
:105190000D217A48FBF743FE0C220E217748FBF7DE
:1051A0003EFE0C220F217548FBF739FE0C221146FA
:1051B0007348FBF734FE0C2211467248FBF72FFEB2
:1051C0000F200890002009903C200A9000200B90AE
:1051D0000C900D900E900920019000200290082064
:1051E00003900020049005900690079006200F90F1
:1051F0000020109011901020129000201390159014
:105200001490169017904FF4805018900020199029
:105210004FF480401A9000201B9008A81C9001A811
:105220001D900FA8FBF721FA01210620FBF7A8FA31
:105230003220FDF783FAD320FFF782FAFFF793FAC3
:105240004A498880FFF78FFA48498880FFF78BFA30
:1052500046498880084680884FF6FF7101EA0020A1
:1052600042498880FFF77FFA4049898808433F49CF
:1052700088800846808849F24131884275D00420F0
:10528000FFF75EFAFFF76FFA38498880FFF76BFA8D
:1052900036498880FFF767FA344988800846808855
:1052A0004FF6FF7101EA002030498880FFF75BFA72
:1052B0002E49898808432D4988800846808848F20D
:1052C0005251884203D147F2897028498880274883
:1052D000808847F289718842D0D0D420FFF730FA15
:1052E000FFF741FA21498880FFF73DFA1F4988807E
:1052F000FFF739FA1D498880084680884FF6FF710C
:1053000001EA002019498880FFF72DFA174989889A
:105310000843164988800846808845F21031884243
:1053200079D055214FF47040FFF725FAAA214FF2AA
:105330000100FFF720FA52214FF20200FFF71BFA9B
:1053400008214FF20300FFF716FA01214FF2040083
:10535000FFF711FA4FF44540FFF7F2F9FFF703FAB0
:1053600002498880084680880EE054E0A2040020AC
:105370008000006C00040240000C0240001002405B
:1053800000140240001802404FF6FF7101EA0020AD
:10539000FE4988804CF20150FFF7D2F9FFF7E3F99C
:1053A000FA4989880843F94988800520FDF7C6F93C
:1053B000F6488088B0F5004F03D145F21050F3490C
:1053C0008880F248808845F21051884223D0A1207D
:1053D000FFF7B6F9FFF7C7F9EC498880FFF7C3F983
:1053E000EA498880084680884FF6FF7101EA00206C
:1053F000E6498880FFF7B7F9E44989880843E3491B
:1054000088800846808845F26171884203D141F660
:105410006310DE498880DD48808849F24131884246
:1054200017D0DA48808847F28971884211D0D7486E
:10543000808845F2103188420BD0D448808845F2EC
:105440001051884205D0D148808841F663118842C6
:105450002CD1CF48006820F00F004FF02041C1F858
:105460001C010846D0F81C0120F47060C1F81C0132
:105470000846D0F81C0140F00400C1F81C01C348E4
:10548000808847F28971884208D1C148006840F499
:1054900080604FF02041C1F81C0107E0BC48006863
:1054A00040F480604FF02041C1F81C01B74880886B
:1054B00049F2413188427CD1CF20FFF741F90020E9
:1054C000FFF747F9C120FFF744F93020FFF741F912
:1054D000ED20FFF735F96420FFF73BF90320FFF7D4
:1054E00038F91220FFF735F98120FFF732F9E8206B
:1054F000FFF726F98520FFF72CF91020FFF729F98F
:105500007A20FFF726F9CB20FFF71AF93920FFF7A9
:1055100020F92C20FFF71DF90020FFF71AF934209D
:10552000FFF717F90220FFF714F9F720FFF708F942
:105530002020FFF70EF9EA20FFF702F90020FFF71D
:1055400008F90020FFF705F9C020FFF7F9F81B2044
:10555000FFF7FFF8C120FFF7F3F80120FFF7F9F894
:10556000C520FFF7EDF83020FFF7F3F83020FFF704
:10557000F0F8C720FFF7E4F8B720FFF7EAF8362085
:10558000FFF7DEF84820FFF7E4F83A20FFF7D8F8F5
:105590005520FFF7DEF8B120FFF7D2F80020FFF723
:1055A000D8F81A20FFF7D5F8B620FFF7C9F80A2077
:1055B00000E099E0FFF7CDF8A220FFF7CAF8F2204B
:1055C000FFF7BEF80020FFF7C4F82620FFF7B8F871
:1055D0000120FFF7BEF8E020FFF7B2F80F20FFF739
:1055E000B8F82A20FFF7B5F82820FFF7B2F808200E
:1055F000FFF7AFF80E20FFF7ACF80820FFF7A9F887
:105600005420FFF7A6F8A920FFF7A3F84320FFF7DF
:10561000A0F80A20FFF79DF80F20FFF79AF8002066
:10562000FFF797F80020FFF794F80020FFF791F8B4
:105630000020FFF78EF8E120FFF782F80020FFF747
:1056400088F81520FFF785F81720FFF782F8072064
:10565000FFF77FF81120FFF77CF80620FFF779F8B5
:105660002B20FFF776F85620FFF773F83C20FFF762
:1056700070F80520FFF76DF81020FFF76AF80F208B
:10568000FFF767F83F20FFF764F83F20FFF761F866
:105690000F20FFF75EF82B20FFF752F80020FFF7EE
:1056A00058F80020FFF755F80120FFF752F83F2087
:1056B000FFF74FF82A20FFF743F80020FFF749F8DB
:1056C0000020FFF746F80020FFF743F8EF20FFF730
:1056D00040F81120FFF734F87820FDF72FF8292043
:1056E000FFF72EF802F0ABB82848808847F289719E
:1056F00088427DD11120FFF723F87820FDF71EF8AE
:105700003620FFF71DF80020FFF723F83A20FFF7B7
:1057100017F80520FFF71DF8B220FFF711F80C204D
:10572000FFF717F80C20FFF714F80020FFF711F827
:105730003320FFF70EF83320FFF70BF8B720FEF702
:10574000FFFF3520FFF705F8BB20FEF7F9FF3220F9
:10575000FEF7FFFFC020FEF7F3FF0C20FEF7F9FF76
:10576000C220FEF7EDFF0120FEF7F3FFC320FEF796
:10577000E7FF1020FEF7EDFFC420FEF7E1FF202039
:10578000FEF7E7FFC620FEF7DBFF03E0A2040020E0
:105790001C0100A00F20FEF7DCFFD020FEF7D0FF99
:1057A000A420FEF7D6FFA120FEF7D3FFE020FEF7EE
:1057B000C7FFD020FEF7CDFF0020FEF7CAFF022072
:1057C000FEF7C7FF0720FEF7C4FF0A20FEF7C1FF60
:1057D0002820FEF7BEFF3220FEF7BBFF4420FEF775
:1057E000B8FF4220FEF7B5FF0620FEF7B2FF00E04B
:1057F0005AE00E20FEF7ADFF1220FEF7AAFF14209C
:10580000FEF7A7FF1720FEF7A4FFE120FEF798FFA1
:10581000D020FEF79EFF0020FEF79BFF0220FEF740
:1058200098FF0720FEF795FF0A20FEF792FF282039
:10583000FEF78FFF3120FEF78CFF5420FEF789FF23
:105840004720FEF786FF0E20FEF783FF1C20FEF7A1
:1058500080FF1720FEF77DFF1B20FEF77AFF1E203A
:10586000FEF777FF2A20FEF76BFF0020FEF771FF9F
:105870000020FEF76EFF0020FEF76BFFEF20FEF723
:1058800068FF2B20FEF75CFF0020FEF762FF002080
:10589000FEF75FFF0120FEF75CFF3F20FEF759FF98
:1058A0002920FEF74DFF1DE7FE48808845F21031A4
:1058B000884240F07C87ED20FEF742FF0120FEF792
:1058C00048FFFE20FEF745FFEE20FEF739FFDE2001
:1058D000FEF73FFF2120FEF73CFFF120FEF730FFEF
:1058E0000120FEF736FFDF20FEF72AFF1020FEF72B
:1058F00030FFC420FEF724FF8F20FEF72AFFC620CA
:10590000FEF71EFF0020FEF724FFE220FEF721FF36
:10591000E220FEF71EFFE220FEF71BFFBF20FEF78E
:105920000FFFAA20FEF715FFB020FEF709FF0D209C
:10593000FEF70FFF0020FEF70CFF0D20FEF709FF1A
:105940000020FEF706FF1120FEF703FF0020FEF700
:1059500000FF1920FEF7FDFE0020FEF7FAFE2120D1
:10596000FEF7F7FE0020FEF7F4FE2D20FEF7F1FE15
:105970000020FEF7EEFE3D20FEF7EBFE0020FEF7D6
:10598000E8FE5D20FEF7E5FE0020FEF7E2FE5D206A
:10599000FEF7DFFE0020FEF7DCFEB120FEF7D0FEB2
:1059A0008020FEF7D6FE0020FEF7D3FE8B20FEF708
:1059B000D0FE0020FEF7CDFE9620FEF7CAFE0020A6
:1059C000FEF7C7FEB220FEF7BBFE0020FEF7C1FEC9
:1059D0000020FEF7BEFE0220FEF7BBFE0020FEF711
:1059E000B8FE0320FEF7B5FE0020FEF7B2FEB3209E
:1059F000FEF7A6FE0020FEF7ACFE0020FEF7A9FE93
:105A00000020FEF7A6FE0020FEF7A3FE0020FEF712
:105A1000A0FE0020FEF79DFE0020FEF79AFE00206B
:105A2000FEF797FE0020FEF794FE0020FEF791FEA1
:105A30000020FEF78EFE0020FEF78BFE0020FEF712
:105A400088FE0020FEF785FE0020FEF782FE002083
:105A5000FEF77FFE0020FEF77CFE0020FEF779FEB9
:105A60000020FEF776FE0020FEF773FE0020FEF712
:105A700070FE0020FEF76DFE0020FEF76AFE00209B
:105A8000FEF767FEB420FEF75BFE8B20FEF761FE9B
:105A90000020FEF75EFE9620FEF75BFE0020FEF77C
:105AA00058FEA120FEF755FE0020FEF752FEB5205D
:105AB000FEF746FE0220FEF74CFE0020FEF749FEF0
:105AC0000320FEF746FE0020FEF743FE0420FEF70B
:105AD00040FE0020FEF73DFEB620FEF731FE00201E
