:020000040800F2
:10000000780C0020F1050008B9010008BB010008C8
:10001000BF010008C3010008C7010008000000007C
:10002000000000000000000000000000CB010008FC
:10003000CD01000800000000CF010008D101000838
:100040000B0600080B0600080B0600080B0600084C
:100050000B0600080B0600080B0600080B0600083C
:100060000B0600080B0600080B060008E735000821
:100070000B0600089D3900080B0600080B06000857
:10008000EF3700080B0600080B0600080B060008F7
:100090000B0600080B0600080B0600080B060008FC
:1000A0000B0600080B0600080B0600080B060008EC
:1000B0001B2A0008312A00080B0600080B0600085E
:1000C0000B0600080B0600080B0600080B060008CC
:1000D0000B06000895470008CD3800081D4A0008A7
:1000E0004D3300080B0600080B0600080B0600083D
:1000F0000B0600080B0600080B0600080B0600089C
:100100000B0600080B0600080B0600080B0600088B
:10011000093A00084F3600080B060008595200083B
:100120000B0600080B0600080B0600080B0600086B
:100130000B0600080B0600080B0600080B0600085B
:100140000B0600080B0600080B0600080B0600084B
:100150000B0600080B0600080B0600080B0600083B
:100160000B0600080B0600080B0600080B0600082B
:100170000B0600080B0600080B0600080B0600081B
:100180000B0600080B060008DFF80CD005F020FD78
:10019000004800479D010008780C0020A82002F0CC
:1001A00043FA4FF4A06000F035FA04F0D4FE02E008
:1001B000642002F09BFAFBE7704700BFFEE700BF38
:1001C000FEE700BFFEE700BFFEE7704770477047DD
:1001D000704700000CB50020019000907648006840
:1001E00040F480307449086000BF7348006800F430
:1001F000003000900198401C0190009818B90198B7
:10020000B0F5A04FF1D16C48006800F4003010B197
:100210000120009001E0002000900098012846D1C4
:1002200065484030006840F08050634940310860C4
:100230006248006840F44040604908605E48083009
:1002400000685D49083108600846006840F40040D5
:1002500008600846006840F4A05008605848091F2C
:100260000860081F006840F08070091F086000BF28
:100270005148006800F000700028F9D040F2057085
:10028000504908604C480830006820F003004A4993
:10029000083108600846006840F00200086000BFAE
:1002A00045480830006800F00C000828F8D10CBD63
:1002B00010B54548006840F47000434908603E4866
:1002C000006840F001003C49086000203A490831CC
:1002D0000860394800683D490840374908603C4893
:1002E000091D0860081F006820F48020091F0860AD
:1002F000002031490C310860FFF76CFF4FF00060BF
:1003000031498039086010BD70B5002000220223F9
:1003100000240221284D08352D6805F00C0020B17D
:10032000042806D0082834D107E02A4D2A4E35602B
:1003300033E02A4D284E35602FE01F4D2D1D2D68CE
:10034000C5F380541C4D2D1D2D6805F03F0154B19F
:10035000224DB5FBF1F5184E361D3668C6F38816EA
:1003600005FB06F209E01B4DB5FBF1F5124E361DFB
:100370003668C6F3881605FB06F20F4D2D1D2D6855
:10038000C5F301456D1C6B00B2FBF3F5124E3560F1
:1003900003E0104D104E356000BF00BF064D08351C
:1003A0002D68C5F303150E4E705D0B4D2D68C540CD
:1003B000094E356070BD00000038024000700040FA
:1003C00008544007003C024088ED00E0FFFFF6FEC5
:1003D000103000240024F4000000002000127A00F5
:1003E0000400002010B54FF4E13002F02DFD7748F5
:1003F000007858B102F07AFD04F0ADFD04F088FFFA
:1004000040F6B83002F072F9012010BD0020FCE780
:100410006F48007870476F480068022801DA0020B2
:100420000CE06C480068042801DA012006E0694805
:100430000068062801DA022000E003206449087001
:1004400065480068062806DB63480068092802DA68
:1004500008460078F8B1604800680C2807DB5E4861
:1004600000680F2803DA5A480078012813D05A4848
:100470000068182807DB584800681B2803DA54482E
:100480000078022807D0544800681E2813DB504823
:10049000007803280FD14E48007808B9062006E0FE
:1004A0004B480078012801D10C2000E018204A496F
:1004B0000860012070470020FCE710B5474890ED28
:1004C000000A04F0CDFD46480068E0B141490868E3
:1004D00000EBD0714910A0EB410131B902F0DCFE14
:1004E000022002F003F9012010BD002407E01421CE
:1004F000084604F0A6FD052002F0F8F8641C142C50
:10050000F5DB0120F0E70020EEE710B5FFF783FFF1
:1005100070B103F038FC58B103F090FB40F2473162
:1005200040F2E73002F002F902F0E3FE012010BDD4
:1005300004F013FF10B905F040F809E040F247312C
:1005400040F2E73002F0F2F81421084604F079FD99
:100550000020ECE710B51421084604F072FD4FF4BA
:100560007A7002F0C3F803F00EFC08B1012010BD50
:100570000020FCE710B51421084604F062FD0A20B3
:1005800002F0B4F803F05AFB10BD10B51549164A35
:10059000127851F82200804720B113480078401C9F
:1005A000114908701048007810490978884204DB26
:1005B00000200D49087003F041FB10BD00200A49DE
:1005C000087070470848007870470000120100204A
:1005D00018000020A000002014000020B00000201F
:1005E000580100201C000020590000205800002065
:1005F0000648804706480047FEE7FEE7FEE7FEE7BD
:10060000FEE7FEE7FEE7FEE7FEE7FEE7B1020008D1
:100610008901000832490143324A1160704770B5C0
:10062000002100230F22C4781CB32E4C246804F44C
:10063000E064C4F5E064C4F30721C1F10404E3B24B
:100640000A4144789C40E1B28478144021430C076D
:10065000210E254C05786155047804F01F0501240E
:10066000AC4005786D11AD0005F1E025C5F80041FD
:1006700009E0047804F01F050124AC401B4D067806
:10068000761145F8264070BD194A0A400243154BC1
:100690001B1F1A60704739B1124A121D12680243BB
:1006A000104B1B1D1A6006E00E4A121D1268824391
:1006B0000C4B1B1D1A607047042808D14FF0E02135
:1006C000096941F004014FF0E022116107E04FF0A9
:1006D000E021096921F004014FF0E0221161704727
:1006E0000000FA050CED00E000E400E080E100E02D
:1006F00080FFFF1F016821F00101016000210160FE
:1007000041608160C160016121214161DB49884212
:1007100004D13D21D94A103A91608CE0D749183173
:10072000884205D14FF47461D44A103A916082E056
:10073000D2493031884205D14FF47411CF4A103A72
:10074000916078E0CD494831884205D14FF074611D
:10075000CA4A103A91606EE0C8496031884204D1BB
:10076000C749C64A103AD16065E0C4497831884229
:1007700004D1C449C14A103AD1605CE0BF4990310C
:10078000884204D1C049BD4A103AD16053E0BB4908
:10079000A831884205D14FF03D51B84A103AD16096
:1007A00049E0BA49884204D13D21B84A083A11606B
:1007B00041E0B6491831884205D14FF47461B34A1B
:1007C000083A116037E0B1493031884205D14FF421
:1007D0007411AE4A083A11602DE0AC4948318842A4
:1007E00005D14FF07461A94A083A116023E0A74986
:1007F0006031884204D1A249A44A121F11601AE054
:10080000A2497831884204D19E49A04A121F116042
:1008100011E09E499031884204D19B499B4A121FA6
:10082000116008E09949A831884204D14FF03D5148
:10083000964A121F1160704710B500220268944B4F
:100840001A40CC680B6823434C6923438C692343CB
:10085000CC6923430C6A23434C6A23438C6A2343A9
:100860004C6B23438C6B23431A430260426922F092
:100870000702D1E90B3423431A4342610B694360F9
:100880004B6883608B68C36010BD002101604160CC
:100890008160C160016141618161C1610162416248
:1008A0008162C162016341638163704721B1026863
:1008B00042F00102026003E0026822F001020260DD
:1008C000704721B1026842F40042026003E002680E
:1008D00022F400420260704721B1026842F0200217
:1008E000026003E0026822F020020260704741606B
:1008F00070470146486880B2704722B1036843F4EC
:100900000023036003E0036823F400230360016114
:10091000704721B1026842F48022026003E002685D
:1009200022F48022026070470AB1016100E0C160D8
:100930007047014600200A6802F400220AB1012033
:1009400000E000207047014600200A6802F0010222
:100950000AB1012000E000207047014600204A69EA
:1009600002F03800704730B503460A4600200024E4
:10097000464DAB4202D24149103901E0434910399A
:1009800002F000550DB14C6800E00C68414D2C4060
:1009900004EA02050DB1012000E0002030BD02464E
:1009A0003A4B9A4202D23548103801E037481038A5
:1009B00001F000531BB1374B0B40C36002E0354BD5
:1009C0000B408360704710B501F080034BB122B13A
:1009D000436943F08003436103E0436923F08003EC
:1009E000436180290BD02AB1036801F01E04234320
:1009F000036004E0036801F01E04A343036010BD1C
:100A000070B50246002000240025204EB24202D2DA
:100A10001A4B103B01E01D4B103B1F4E0E4036B1F0
:100A20001E2606EAD124166806EA040502E0566985
:100A300006F0800501F000560EB15C6800E01C680D
:100A4000144E344004EA010616B10DB1012000E055
:100A5000002070BD02460D4B9A4202D20748103862
:100A600001E00A48103801F000531BB1094B0B405C
:100A7000C36002E0074B0B40836070471060024088
:100A80003D000020400F002000003D201064024087
:100A90003F801CF07D0F7D0F3C0F3C0F0020414933
:100AA0000860091D0860091D0860091D08603E48AE
:100AB0003C4914310860704700213A498279002A84
:100AC0003AD00A46126803689A430B461A600A1D18
:100AD000126803689A430B1D1A60027911440A6870
:100AE00003681A430A602F4A0832126803689A435F
:100AF0002C4B08331A601A1D126803689A43294B5D
:100B00000C331A604279102A0ED11A1F126803683A
:100B10001A43244B08331A601A1D126803681A43DB
:100B2000204B0C331A600DE01E49427911440A68CB
:100B300003681A430A6005E0027911440A680368F1
:100B40009A430A6070470021016001710C214171D4
:100B50000021817170471349103109680143114A1E
:100B6000103211607047014600200E4A143212689C
:100B70000A400AB1012000E0002070470949143101
:100B80000860704701460020064A143212680A4085
:100B90000AB1012000E000207047024914310860CA
:100BA00070470000003C0140FFFF7F0010B5044685
:100BB0009848844208D10121084600F086FB0021B4
:100BC000012000F082FB76E09348844208D10121A5
:100BD000022000F07AFB0021022000F076FB6AE0A0
:100BE0008E48844208D10121042000F06EFB0021D0
:100BF000042000F06AFB5EE08948844208D10121AC
:100C0000082000F062FB0021082000F05EFB52E0AB
:100C10008448844208D10121102000F056FB0021B5
:100C2000102000F052FB46E07F48844208D10121A9
:100C3000202000F04AFB0021202000F046FB3AE093
:100C40007A48844208D10121402000F03EFB002177
:100C5000402000F03AFB2EE07548844208D1012183
:100C6000802000F032FB0021802000F02EFB22E0EB
:100C70007048844208D10121801500F026FB002134
:100C8000A01500F022FB16E06B48844208D1012138
:100C9000401500F01AFB0021601500F016FB0AE079
:100CA0006648844207D10121001500F00EFB0021A7
:100CB000201500F00AFB10BDF0B50A460021002304
:100CC000002400BF3DE0012505FA01F3156805EA9F
:100CD00003049C4234D105684F000326BE40B5434F
:100CE000056015794E00B5400668354305601579F5
:100CF000012D02D01579022D16D185684F000326EB
:100D0000BE40B543856055794E00B5408668354391
:100D10008560456801268E40B543456045689679F3
:100D20008E40B6B235434560C5684F000326BE40CD
:100D3000B543C560D5794E00B540C6683543C5603A
:100D4000491C1029BFD3F0BD4FF6FF71016000218F
:100D5000017141718171C171704708B54FF48032E2
:100D60000092009A0A430092009AC261C161009AFF
:100D7000C261C2690092C269009208BD02460020A9
:100D800013690B400BB1012000E0002070470146C1
:100D9000086980B270470246002053690B400BB1CE
:100DA000012000E0002070470146486980B270478A
:100DB00001837047418370470AB1018300E041839A
:100DC00070474161704742694A4042617047F0B5DF
:100DD000002300244D07ED0E02FA05F3CE1000F1BA
:100DE000200555F826504E07F70E0F26BE40B54396
:100DF000CF1000F1200646F82750CE1000F1200554
:100E000055F8265045EA0304CE1000F1200545F8B8
:100E10002640F0BD000002400004024000080240ED
:100E2000000C024000100240001402400018024072
:100E3000001C024000200240002402400028024022
:100E4000F948006840F00100F74908600020F649C1
:100E500008310860F4480068F4490840F249086025
:100E6000F348091D0860F348EF4984310860F048F1
:100E70001038091D0860EC48006820F48020EA4919
:100E800008600020E8490C310860E7498C310860AF
:100E900070470021E44A921C117011460870704797
:100EA00010B501460022002300204A11012A02D178
:100EB000DD4C236808E0022A03D1DB4C7034236840
:100EC00002E0D94C7434236801F01F0201249440DD
:100ED0001C400CB1012000E0002010BD38B50020FE
:100EE00000900024002500BF3120FFF7D9FF054600
:100EF0000098401C00900098B0F5A04F01D0002D44
:100F0000F2D03120FFF7CCFF08B1012400E000242B
:100F1000204638BD01460020C34A106820F0F80082
:100F200040EAC10010607047C34908607047002163
:100F3000BD4A703211701170012802D004280AD104
:100F400004E00121B84A7032117005E00521B64A6B
:100F50007032117000E000BF00BF7047B7490860F1
:100F6000704770B5049C41EA82150126C6EB530612
:100F700045EA0645054345EA0465AB4E361D356036
:100F800070BDAD4908667047820142EA0172A64B06
:100F900084331A607047A8498866704710B583018A
:100FA00043EA016343EA02739F4C8834236010BD17
:100FB000A14908677047A049C864704702460020ED
:100FC000994B0833186820F0EC6042EA010318439B
:100FD000954B08331860704702460020924B083347
:100FE000186820F0784042EA010318438E4B08331A
:100FF00018607047014600208B4A0832106820F0C4
:10100000030008431060704787480830006800F00C
:101010000C00704701460020834A0832106820F017
:10102000F000084310607047014600207E4A0832F5
:10103000106820F4E050084310607047014600201B
:10104000794A0832106820F4604040EAC10010601C
:101050007047F0B50021002200240225002602235B
:10106000714F08373F6807F00C0121B1042905D002
:10107000082937D105E0724F076036E0714F0760ED
:1010800033E0694F3F1D3F68C7F38056664F3F1DF1
:101090003F6807F03F036EB16A4FB7FBF3F7DFF825
:1010A00088C10CF1040CDCF800C0CCF3881C07FBF1
:1010B0000CF40CE0624FB7FBF3F7DFF86CC10CF1F6
:1010C000040CDCF800C0CCF3881C07FB0CF4564F72
:1010D0003F1D3F68C7F301477F1C7D00B4FBF5F758
:1010E000076002E0564F076000BF00BF4E4F083751
:1010F0003F6807F0F0010909534F7A5C0768D74051
:101100004760494F08373F6807F4E051890A4E4F5E
:101110007A5C4768D7408760434F08373F6807F4D9
:101120006041490B484F7A5C4768D740C760F0BDC3
:10113000002100F44072B2F5407F0AD13A4A0832E9
:10114000116821F4F811414A02401143364A08322D
:101150001160354A70321268C0F30B031A43324BE8
:1011600070331A6070473549443908607047334915
:1011700040390860704736490860704701460020D2
:10118000294A8C32106820F01F004A1E1043264A5C
:101190008C321060704701460020234A8C32106860
:1011A00020F4F8504A1E40EA02201F4A8C32106098
:1011B0007047014600201C4A8C32106820F4401011
:1011C00008431060704701460020174A8C321068AF
:1011D00020F4400008431060704701460020124A86
:1011E0008C32106820F44030084310607047194971
:1011F0000860704739B10C4A3032126802430A4B1A
:1012000030331A6006E0084A303212688243064BD7
:1012100030331A607047F9B1034A3432126802431E
:10122000014B34331A601CE000380240FFFFF6EA3D
:10123000103000240030002000004742800E47425A
:101240000024F40000127A005A000020FFFCFF0F77
:101250005C014742E01147428F4A126882438E4B3D
:101260001A60704739B18C4A121D126802438A4BCA
:101270001B1D1A6006E0884A121D12688243864BC5
:101280001B1D1A60704739B1834A0C321268024341
:10129000814B0C331A6006E07F4A0C32126882439D
:1012A0007D4B0C331A60704739B17B4A103212689B
:1012B0000243794B10331A6006E0774A1032126805
:1012C0008243754B10331A60704739B1724A243A21
:1012D00012680243704B243B1A6006E06E4A243ABF
:1012E000126882436C4B243B1A60704739B16A4ADA
:1012F000203A12680243684B203B1A6006E0664AB7
:10130000203A12688243644B203B1A60704739B11F
:10131000614A1C3A126802435F4B1C3B1A6006E0AC
:101320005D4A1C3A126882435B4B1C3B1A60704753
:1013300039B1594A143A12680243574B143B1A60A8
:1013400006E0554A143A12688243534B143B1A6024
:10135000704739B1504A103A126802434E4B103B65
:101360001A6006E04C4A103A126882434A4B103B1E
:101370001A60704739B1484A1C3212680243464B22
:101380001C331A6006E0444A1C3212688243424B06
:101390001C331A60704739B13F4A20321268024349
:1013A0003D4B20331A6006E03B4A203212688243EC
:1013B000394B20331A60704739B1374A24321268EA
:1013C0000243354B24331A6006E0334A2432126854
:1013D0008243314B24331A60704739B12E4A2C3284
:1013E000126802432C4B2C331A6006E02A4A2C3236
:1013F00012688243284B2C331A60704739B1264A51
:10140000303212680243244B30331A6006E0224A1D
:10141000303212688243204B30331A607047012803
:1014200008D11D493C31096841F008011A4A3C3293
:10143000116007E018493C31096821F00801164A9B
:101440003C321160704739B1134A273A127802438F
:10145000114B273B1A7006E00F4A273A1278824355
:101460000D4B273B1A7070470B484030006840F026
:101470008070094940310860704701460020064AE3
:10148000283A12680A400AB1012000E000207047A3
:1014900001492639087070473438024010B50121DF
:1014A0008803FFF756FF00214FF48040FFF751FFFC
:1014B00010BD1C49086070471B490862704730B571
:1014C00000228B071C0F0F2303FA04F2154B08337D
:1014D0008C1053F824309343124C08348D1044F888
:1014E000253023468C1053F824308C07240F00FA43
:1014F00004F423430B4C08348D1044F8253030BDE0
:101500000949DC31086070470849086070470020CD
:1015100004492031096801F4807109B1012000E01B
:101520000020704700380140000027420004274295
:1015300010B50446FE48844208D101210846FFF751
:1015400008FF00210120FFF704FF9DE0B4F1804F68
:1015500008D101210846FFF7EBFE00210120FFF72B
:10156000E7FE91E0F348844208D101210220FFF711
:10157000DFFE00210220FFF7DBFE85E0EE4884421B
:1015800008D101210420FFF7D3FE00210420FFF73A
:10159000CFFE79E0E948844208D101210820FFF715
:1015A000C7FE00210820FFF7C3FE6DE0E448844237
:1015B00008D101211020FFF7BBFE00211020FFF70A
:1015C000B7FE61E0DF48844208D101212020FFF707
:1015D000AFFE00212020FFF7ABFE55E0DA48844241
:1015E00008D101210220FFF7B4FE00210220FFF7FD
:1015F000B0FE49E0D548844209D101210804FFF733
:10160000A8FE00214FF48030FFF7A3FE3CE0D04855
:10161000844209D101214804FFF79BFE00214FF4C9
:101620000030FFF796FE2FE0CA48844209D101211D
:101630008804FFF78EFE00214FF48020FFF789FE1B
:1016400022E0C548844208D101214020FFF770FE06
:1016500000214020FFF76CFE16E0C048844208D10C
:1016600001218020FFF764FE00218020FFF760FE4B
:101670000AE0BB48844207D101218015FFF758FEDC
:101680000021A015FFF754FE10BD00220288A84BD0
:1016900098420ED0AC4B98420BD0B0F1804F08D09E
:1016A000A44B984205D0A44B984202D0A34B984239
:1016B00004D14FF68F731A404B881A43A04B9842BF
:1016C00007D0A04B984204D04FF6FF431A400B8935
:1016D0001A4302804B68C3620B880385944B98427F
:1016E00002D0994B984201D18B7A038601238382E1
:1016F00070474FF0FF31416000210180018141803E
:10170000817270470185828270470A4600210188F4
:101710004FF68F7319401143018070474162704743
:10172000C16270470146486A70470146088D70479C
:1017300021B1028842F00202028004E002884FF6E2
:10174000FD731A400280704721B1028842F0040202
:10175000028004E002884FF6FB731A400280704753
:1017600021B1028842F08002028004E002884FF634
:101770007F731A400280704702884FF6F7731A4051
:10178000028002880A430280704702884FF6FF43B6
:101790001A40028002880A430280704721B1028801
:1017A00042F00102028004E002884FF6FE731A4004
:1017B0000280704770B5002400220023058C4FF68C
:1017C000FE7635400584028C8388048B4FF68F7536
:1017D0002C40B51E2C400D882C43751E2A408D8947
:1017E0002A434D882A43524DA84202D0564DA84262
:1017F00013D14FF6F7752A40CD892A434FF6FB7572
:101800002A408D882A434FF6FF652B404FF6FF553F
:101810002B400D8A2B434D8A2B43838004838D6894
:101820004563028470BD70B5002400220023058C3E
:101830004FF6EF7635400584028C8388048B48F69A
:10184000FF752C404FF6FF452C400D884FF6FF7674
:1018500006EA05252C434FF6DF752A408D8906EAF6
:1018600005152A434D8806EA05152A43304DA8423E
:1018700002D0354DA8421DD14FF67F752A40CD8943
:101880004FF6FF7606EA05152A434FF6BF752A4044
:101890008D8806EA05152A434FF6FF352B404FF297
:1018A000FF752B400D8A06EA85052B434D8A06EA13
:1018B00085052B43838004838D688563028470BD16
:1018C00070B5002400220023058C4FF6FF663540DA
:1018D0000584028C8388848B4FF68F752C404FF6DD
:1018E000FC752C400D882C434FF6FF552A408D89FE
:1018F0004FF6FF7606EA05252A434D8806EA0525B8
:101900002A430B4DA84202D00F4DA84238D14FF2C6
:10191000FF752A40CD894FF6FF7606EA05252A4352
:101920004FF6FF352A408D8806EA05252A4319E03F
:10193000000001400004004000080040000C00408E
:10194000001000400014004000040140004001402D
:10195000004401400048014000180040001C0040C5
:10196000002000404EF6FF752B404DF6FF752B40D2
:101970000D8A06EA05152B434D8A06EA05152B4309
:10198000838084838D68C563028470BD70B5002236
:1019900000230024058C4EF6FF7635400584038C29
:1019A0008488828B48F6FF752A404FF6FF452A400F
:1019B0000D884FF6FF7606EA05252A434DF6FF759A
:1019C0002B408D8906EA05352B434D8806EA0535FF
:1019D0002B43FE4DA84202D0FD4DA84208D14BF644
:1019E000FF752C400D8A4FF6FF7606EA85152C43CD
:1019F000848082838D680564038470BD002101802A
:101A00004180818081608181C181018241827047F2
:101A100070B50346002000241846183001258D407B
:101A2000ACB21D8CA5431D8409B108290AD100EB75
:101A3000610005684FF68F763540056005681543EF
:101A400005600FE00D1FC5F34E052844056848F6F4
:101A5000FF763540056005684FF6FF7606EA0226F8
:101A60003543056070BD4163704781637047C16352
:101A70007047016470470A460021018B4FF68F734F
:101A800019401143018370470A460021018B48F633
:101A9000FF7319404FF6FF7303EA022319430183D2
:101AA00070470A460021818B4FF68F73194011430E
:101AB000818370470A460021818B48F6FF731940E5
:101AC0004FF6FF7303EA02231943818370470A46E6
:101AD0000021018B4FF6F7731940114301837047C2
:101AE0000A460021018B4FF2FF7319404FF6FF7336
:101AF00003EA02231943018370470A460021818BC0
:101B00004FF6F77319401143818370470A4600214D
:101B1000818B4FF2FF7319404FF6FF7303EA0223E4
:101B20001943818370470A460021018B4FF6FB73EE
:101B300019401143018370470A460021018B4FF67B
:101B4000FF3319404FF6FF7303EA02231943018361
:101B500070470A460021818B4FF6FB7319401143F1
:101B6000818370470A460021818B4FF6FF3319406D
:101B70004FF6FF7303EA02231943818370470A4635
:101B80000021018B4FF67F73194011430183704789
:101B90000A460021018BC1F30E014FF6FF7303EAE1
:101BA00002231943018370470A460021818B4FF6B7
:101BB0007F7319401143818370470A460021818B4E
:101BC000C1F30E014FF6FF7303EA02231943818329
:101BD00070470A460021018C4FF6FD7319401143EE
:101BE000018470470A460021018C4FF6F7731940B3
:101BF0001143018470470A460021018C4FF6DF73C0
:101C000019404FF6FF7303EA02131943018470472A
:101C10000A460021018C4FF67F7319404FF6FF737F
:101C200003EA02131943018470470A460021018C1C
:101C30004FF6FF5319404FF6FF7303EA022319438F
:101C4000018470470A460021018C4FF2FF7319404E
:101C50004FF6FF7303EA02231943018470470A46D3
:101C60000021018C4DF6FF7319404FF6FF7303EA14
:101C7000023319430184704730B5002301248C409E
:101C8000A3B2048C9C430484048C02FA01F5ADB227
:101C90002C43048430BD30B5002304248C40A3B20F
:101CA000048C9C430484048C02FA01F5ADB22C43ED
:101CB000048430BD828B4FF2FF331A408283828BC3
:101CC0004FF6FF7303EA01231A4382837047F0B58E
:101CD0000C461546002100220026078C4EF6FF7C9C
:101CE00007EA0C070784818B028C4FF6FF7707EA1F
:101CF000043640F6FF4739404FF6FF7707EA0527DD
:101D000039434FF6FF7707EA0337394345F6FF7744
:101D10003A4046F480573A4381830284F0BD828B77
:101D20004FF6F3731A408283828B0A438283704793
:101D3000F0B50C461546002100220026078C4FF610
:101D4000FF6C07EA0C070784818B028C4FF6FF7744
:101D500007EA04264FF60C7739404FF6FF7707EA7B
:101D600003172F4339434FF2FF573A4046F4807729
:101D70003A4381830284F0BD028B4FF2FF331A4055
:101D80000283028B4FF6FF7303EA01231A43028397
:101D90007047F0B50C461546002100220026078C3E
:101DA0004FF6EF7C07EA0C070784018B028C4FF695
:101DB000FF7707EA041640F6FF4739404FF6FF77F2
:101DC00007EA033739434FF6FF7703E0000001408D
:101DD0000004014007EA052739434FF65F773A4090
:101DE00046F010073A4301830284F0BD028B4FF6A0
:101DF000F3731A400283028B0A4302837047F0B5E3
:101E00000C46154600210022068C4FF6FE773E4018
:101E10000684018B028C4FF60C7631407E1C06EA5C
:101E200003162E4331434FF6F576324044F0010657
:101E3000324301830284F0BD70B505460C4620880C
:101E400050B92389A28861882846FFF7D8FFE18826
:101E50002846FFF7CBFF25E0208804280AD12389F4
:101E6000A28861882846FFF794FFE1882846FFF79B
:101E700083FF17E0208808280AD12389A288618877
:101E80002846FFF755FFE1882846FFF748FF09E09D
:101E90002389A28861882846FFF719FFE188284630
:101EA000FFF708FF70BD0021018041800121818082
:101EB0000021C180018170472DE9F04105460C46A3
:101EC00000260127608808B9022600E00026A088C5
:101ED000012801D1022700E001272088A0B9238929
:101EE000A28861882846FFF78AFFE1882846FFF725
:101EF0007DFF23893A4631462846FFF74AFFE188AD
:101F00002846FFF739FF13E02389A2886188284615
:101F1000FFF73FFFE1882846FFF72EFF23893A4667
:101F200031462846FFF76BFFE1882846FFF75EFF42
:101F3000BDE8F0810146486B70470146886B7047E9
:101F40000146C86B70470146086C70470A884B8889
:101F50001A438B881A43CB881A430B891A434B893F
:101F60001A438B891A43A0F844207047002101804E
:101F700041808180C180018141818181704731B17F
:101F8000B0F8442042F40042A0F8442005E0B0F844
:101F90004420C2F30E02A0F84420704721B1828889
:101FA00042F00402828004E082884FF6FB731A40FC
:101FB0008280704721B1828842F00102828004E071
:101FC00082884FF6FE731A40828070471AB1838967
:101FD0000B43838102E083898B4383817047818235
:101FE000704702460020138A0B400BB1012000E02D
:101FF00000207047CA430282704730B50246002075
:1020000000230024158A05EA0103958905EA0104E5
:1020100013B10CB1012000E0002030BDCA430282A0
:10202000704741EA0203A0F8483070471AB183892B
:102030000B43838102E083898B438381704721B105
:10204000828842F00802828004E082884FF6F773AB
:102050001A408280704701894FF6F8721140018161
:1020600070470A46002101894FF68F7319401143CA
:102070000181704730B504460D4629462046FFF7DA
:10208000F0FF208940F00700208130BD2DE9F041AC
:1020900004460D4616461F46602D06D13B460122DA
:1020A00031462046FFF775FE05E03B4601223146EA
:1020B0002046FFF7A4FE29462046FFF7D2FF2089DD
:1020C00040F007002081BDE8F08130B50C460021CA
:1020D0000189C9B24FF6FF7505EA0325154325436B
:1020E0002943018130BD2DE9F04105460E461746D2
:1020F0009846002443463A4631462846FFF7E5FF16
:102100002C894FF6F870044044F007044FF68F70A6
:10211000044044F070042C81BDE8F081F0B5044621
:102120000D4616461F463B46324629462046FFF7D7
:10213000CCFF208940F480402081F0BD82884FF69A
:102140008F731A40828082880A4382807047028996
:102150004FF6F8731A40028102890A4302817047E0
:1021600002894FF67F731A40028102890A43028175
:102170007047F0B50C4615461E460021002200238C
:102180000189028B038C4FF6F877394021434FF6D3
:10219000FC473A4040F201173A434FF6DD773B40A7
:1021A0004FF6FF7707EA06172F433B43018102836F
:1021B0000384F0BD21B1828842F08002828004E075
:1021C00082884FF67F731A4082807047A0F85010C3
:1021D0007047000010B50446FA48844208D1012136
:1021E0001020FFF7B6F800211020FFF7B2F857E0F3
:1021F000F548844209D101214804FFF799F80021EC
:102200004FF40030FFF794F84AE0F048844209D1D7
:1022100001218804FFF78CF800214FF48020FFF79C
:1022200087F83DE0EA48844209D10121C804FFF75C
:102230007FF800214FF40020FFF77AF830E0E548FE
:10224000844209D101210805FFF772F800214FF4FB
:102250008010FFF76DF823E0DF48844208D10121A8
:102260002020FFF776F800212020FFF772F817E012
:10227000DA48844209D101218807FFF759F8002183
:102280004FF08040FFF754F80AE0D548844207D168
:1022900001214005FFF74CF800216005FFF748F8E1
:1022A00010BD2DE9FF4705460E460024A14600BF9C
:1022B000A046B08900B100BF2C8A24F44054F088B5
:1022C00004432C82AC8941F20C608443B08831898C
:1022D0000843718908430443AC81AC8A24F44074F8
:1022E000B0890443AC826846FEF7B3FEB548854228
:1022F00002D0B948854202D1DDF80C9001E0DDF84A
:102300000890A88900F4004040B109EBC90000EB37
:10231000091031684900B0FBF1F707E009EBC9008B
:1023200000EB091031688900B0FBF1F76420B7FBBE
:10233000F0F004012009642101FB1078A88900F461
:10234000004040B1322000EBC800B0FBF1F000F0DB
:102350000700044308E0322000EB08106421B0FBC2
:10236000F1F000F00F0004432C81BDE8FF874FF42B
:102370001651016000218180C18001810C214181C1
:1023800000218181704710B502460020108A20F498
:1023900070600B884C8823438C882343CC8823436C
:1023A0001843108210BD0021018041808180C180CE
:1023B000704721B1828942F40052828104E082890F
:1023C0004DF6FF731A4082817047028B02F47F4200
:1023D0000283028B0A430283704721B1828942F44F
:1023E0000042828103E08289C2F30E02828170473B
:1023F00021B1828A42F40062828204E0828A4FF232
:10240000FF731A4082827047C1F3080282807047CE
:1024100001468888C0F308007047028A4FF6F073BF
:102420001A400282028A0A430282704721B18289DD
:1024300042F00202828104E082894FF6FD731A4065
:102440008281704782894FF2FF731A4082818289AC
:102450000A4382817047028A4FF6DF731A40028274
:10246000028A0A430282704721B1028A42F4804202
:10247000028204E0028A4BF6FF731A400282704720
:10248000818941F001018181704721B1828A42F046
:102490000802828204E0828A4FF6F7731A40828231
:1024A0007047028BD2B20283028B42EA012202837E
:1024B000704721B1828A42F02002828204E0828A3F
:1024C0004FF6DF731A408282704721B1828A42F050
:1024D0001002828204E0828A4FF6EF731A408282F1
:1024E0007047828A4FF6FB731A408282828A0A43BF
:1024F0008282704721B1828A42F00202828204E025
:10250000828A4FF6FD731A40828270471AB1838A1D
:102510000B43838202E0838A8B4383827047F0B54A
:102520000346002400260025002040F66A17B94221
:1025300000D100BF1846C1F3421401F01F06012765
:1025400007FA06F5012C01D10C3004E0022C01D170
:10255000103000E014301AB107682F43076002E022
:102560000768AF430760F0BD02460020B1F5007F69
:1025700000D100BF13880B400BB1012000E0002008
:10258000704701F40072B2F5007F00D100BFCA436A
:102590000280704770B50246002400230025002009
:1025A00040F66A16B14200D100BFC1F3421501F0F6
:1025B0001F03012606FA03F3012D13D19689334038
:1025C00017E00000001001400044004000480040B7
:1025D000004C0040005000400014014000780040D2
:1025E000007C0040022D02D1168A334001E0968A19
:1025F00033400C12012606FA04F41688344013B155
:102600000CB1012000E0002070BD10B500220023B5
:1026100040F66A14A14200D100BF0A12012494407E
:10262000A3B2DC43048010BD10B504466FF0040073
:10263000FEF742F8E11704EB5171C1F3C701394AC3
:1026400011701046007800EB4001C1EBC0104FF64E
:10265000FF7101EAC0003449088010BD0146314ACB
:1026600012784A434FF0E0235A6100229A611A46D9
:10267000126942F001021A6100BF4FF0E0221069B6
:1026800000F001021AB100F48032002AF5D04FF0B8
:10269000E022126922F001024FF0E0231A610022C9
:1026A0009A6170470146204A12884A434FF0E0235E
:1026B0005A6100229A611A46126942F001021A61B7
:1026C00000BF4FF0E022106900F001021AB100F4DF
:1026D0008032002AF5D04FF0E022126922F0010288
:1026E0004FF0E0231A6100229A61704770B50446EA
:1026F0004FF4077094FBF0F0C6B24FF4077094FBF0
:10270000F0F100FB114085B205E04FF40770FFF7D0
:10271000C9FF701EC6B2002EF7D115B12846FFF7CB
:10272000C1FF70BD6A0000206C0000207FB5054627
:102730000C4601212020FEF7A6FD0295ADF80440CD
:102740000020ADF80600ADF80C0001A9FE48FEF728
:102750009CFF01221146FC48FFF738FC0121FA4892
:10276000FFF71CF837208DF8000001208DF80100DC
:102770008DF802008DF803006846FDF750FFF3481E
:10278000006808B901F09EFB7FBD08B5002120203C
:10279000FEF779FD00220121EB48FFF717FC00212D
:1027A000E948FEF7FBFF37208DF8000001208DF887
:1027B00001008DF8020000208DF803006846FDF747
:1027C0002EFF08BD30B58BB005460C460121082010
:1027D000FEF710FD01210420FEF755FD02220C2119
:1027E000DB48FEF7F4FA02220D21D948FEF7EFFA92
:1027F00002208DF8280000208DF82A008DF82B008B
:1028000003208DF829000003099009A9D048FEF79C
:1028100053FAD048FEF78CFECE48FEF789FE002022
:10282000ADF82000ADF81A000795A0B2ADF8180079
:1028300000208DF8220006A9C648FEF726FF06A94B
:10284000C448FEF722FF6020ADF804000120ADF877
:1028500006000020ADF81000039001A9BD48FEF766
:10286000A9FF01A9BB48FEF7DEFF0821B948FFF721
:102870002EF90821B748FFF733F90121B548FEF7D3
:102880006FFF0121B348FEF76BFF0121B148FEF74E
:1028900085FF0121AF48FEF781FF0BB030BD00B5C9
:1028A00089B001210846FEF7A5FC01210846FEF784
:1028B000EAFC02208DF8200000208DF82200222062
:1028C000079000208DF8230003208DF8210007A930
:1028D000A148FEF7F1F9012211469F48FEF777FA69
:1028E000012205219C48FEF772FA04A8FEF701FFB9
:1028F0000020ADF81800ADF812004FF6FF700590FB
:102900000020ADF810008DF81A0004A94FF08040A7
:10291000FEF7BBFE01A8FFF7C6FA1020ADF80C00C9
:1029200001A98006FFF788FA00231A4603214FF019
:102930008040FFF71EFC00214FF08040FEF7EEFEC6
:1029400001218807FFF756FB012211469007FFF788
:102950003DFB01218807FEF721FF09B000BD00B54E
:1029600089B001210420FEF745FC01210220FEF779
:102970008AFC02208DF8200000208DF82200C02063
:10298000079000208DF8230003208DF8210007A96F
:102990007248FEF791F9022206217048FEF717FAF5
:1029A000022207216D48FEF712FA04A8FEF7A1FEE5
:1029B0000020ADF81800ADF812004FF6FF7005903A
:1029C0000020ADF810008DF81A0004A94FF08040E7
:1029D000FEF75BFE01A8FFF766FA1020ADF80C00C9
:1029E00001A95F48FFF728FA00231A4603215C4833
:1029F000FFF7BFFB00215A48FEF790FE012158481F
:102A0000FFF7F8FA012211465548FFF7DFFA0121D6
:102A10005348FEF7C3FE09B000BD10B50121880779
:102A2000FFF7EBFA18B101218807FFF7F7FA10BD9D
:102A300010B501214A48FFF7E0FA18B101214848D2
:102A4000FFF7ECFA10BD30B58BB004460D460121FE
:102A50008020FEF718FC01212020FEF7CBFB092285
:102A600008214048FEF7B3F94FF480700990022026
:102A70008DF8280003208DF8290000208DF82A0009
:102A800001208DF82B0009A93648FEF715F9681EBC
:102A900080B2ADF818000020ADF81A00601E079053
:102AA0000020ADF8200006A92F48FEF7EEFD6020BB
:102AB000ADF804000120ADF806000020ADF81000CC
:102AC00001A92948FEF776FE08212748FEF7FFFFF7
:102AD00001212548FEF744FE01212348FEF75EFE52
:102AE0000BB030BD30B58BB004460D460121080255
:102AF000FEF7C9FB01210846FEF77CFB09220721EE
:102B00001548FEF764F98020099002208DF828000E
:102B100003208DF8290000208DF82A0001208DF86F
:102B20002B0009A90C48FEF7C7F8681E80B2ADF863
:102B300018000020ADF81A00601E07900020ADF8C4
:102B4000200006A9094813E000140040A800002056
:102B5000000C024000080040000002400008024053
:102B60000004004000140240001C0040002000400F
:102B7000FEF78BFD6020ADF804000120ADF80600E3
:102B80000020ADF8100001A90848FEF713FE082147
:102B90000648FEF79CFF01210448FEF7E1FD0121F4
:102BA0000248FEF7FBFD0BB030BD000000200040E6
:102BB0001CB501212020FEF71DFB01208DF804002B
:102BC00000208DF806008DF8070003208DF8050021
:102BD0004FF40E60009069469448FEF76DF81CBDF6
:102BE0001CB501214020FEF705FB00208DF80400F4
:102BF0008DF806004FF44060009001208DF807002A
:102C000003208DF8050069468948FEF755F81CBD7C
:102C10001CB501215F20FEF7EDFA00208DF80400BD
:102C20008DF806004FF48540009000208DF80700D5
:102C300003208DF8050069467D48FEF73DF8002029
:102C40008DF804008DF806004FF40140009000203C
:102C50008DF8070003208DF8050069467548FEF7DA
:102C60002BF800208DF804008DF80600E02000907D
:102C700000208DF8070003208DF8050069466E4896
:102C8000FEF71AF800208DF804008DF80600602089
:102C9000009000208DF8070003208DF8050069469C
:102CA0006648FEF709F800208DF804008DF806004C
:102CB00040F20120009000208DF8070003208DF8DD
:102CC000050069465E48FDF7F7FF00208DF8040017
:102CD0008DF806009020009000208DF8070003205A
:102CE0008DF8050069465748FDF7E6FF1CBD1CB589
:102CF00001217420FEF77EFA00208DF804000220E6
:102D00008DF807008003009069464B48FDF7D4FF1B
:102D10000520009069464548FDF7CEFF01208DF85B
:102D2000040002208DF805001020009069463F48FD
:102D3000FDF7C2FF4FF48440009069464148FDF71B
:102D4000BBFF1CBD1CB501214820FEF753FA4020F3
:102D5000009001208DF8040003208DF8050000206C
:102D60008DF8060001208DF8070069463548FDF70B
:102D7000A3FF40213348FEF71BF84FF400400090BA
:102D800000208DF8040003208DF8050000208DF848
:102D9000060001208DF8070069462548FDF78CFFE5
:102DA0001CBD1CB501214820FEF724FA00208DF837
:102DB00004008DF806000820009001208DF807001F
:102DC00003208DF8050069461E48FDF775FF0020B9
:102DD0008DF804008DF806004FF44060009001204B
:102DE0008DF8070003208DF8050069461048FDF7AF
:102DF00063FF1CBD1CB501210220FEF7FBF910206A
:102E0000009001208DF8040003208DF805000020BB
:102E10008DF8060002208DF8070069460648FDF788
:102E20004BFF10210448FDF7C5FF1CBD00140240F4
:102E3000001802400000024000040240001002405E
:102E400000080240000C024010B588B00446012181
:102E50000846FEF7CFF901211020FEF725FA0722D8
:102E60000921F848FDF7B3FF07220A21F548FDF7CD
:102E7000AEFF4FF4C060069002208DF81C008DF864
:102E80001D0000208DF81E0001208DF81F0006A9EE
:102E9000EC48FDF711FF02940020ADF80C00ADF8EE
:102EA0000E00ADF81000ADF814000C20ADF81200C3
:102EB00002A9E548FFF7F5F90121E348FFF779FAA0
:102EC000012240F22551E048FFF729FB25208DF82B
:102ED000040000208DF805008DF8060001208DF813
:102EE000070001A8FDF79BFB08B010BD10B500213D
:102EF0001020FEF7D9F9002240F22551D248FFF701
:102F00000EFB0021D048FFF754FA10BD10B588B071
:102F1000044601210846FEF76DF901214804FEF739
:102F2000B2F907220321C748FDF751FF072202210A
:102F3000C448FDF74CFF0C20069002208DF81C00C1
:102F40008DF81D0000208DF81E0001208DF81F0057
:102F500006A9BC48FDF7B0FE02940020ADF80C00B5
:102F6000ADF80E00ADF81000ADF814000C20ADF86F
:102F7000120002A9B548FFF794F92021B348FFF7E2
:102F800000FB26208DF8040003208DF805000220A8
:102F90008DF8060001208DF8070001A8FDF73FFB22
:102FA000012240F22551A948FFF7B9FA0121A748AB
:102FB000FFF7FFF908B010BD10B500214FF4003045
:102FC000FEF761F9002240F22551A048FFF7A7FA69
:102FD00000219F48FDF76AFC10BD10B588B004467B
:102FE00001210220FEF706F901218804FEF74BF9C2
:102FF00007220A219748FDF7EAFE07220B21954890
:10300000FDF7E5FE4FF44060069002208DF81C00AD
:103010008DF81D0000208DF81E0001208DF81F0086
:1030200006A98C48FDF748FE02940020ADF80C007C
:10303000ADF80E00ADF81000ADF814000C20ADF89E
:10304000120002A98448FFF72CF940218248FFF7BB
:1030500098FA27208DF8040002208DF80500012041
:103060008DF806008DF8070001A8FDF7D8FA0122B7
:1030700040F225517848FFF752FA01217648FFF7D0
:1030800098F908B010BD10B500214FF48020FEF76C
:10309000FAF8002240F225516F48FFF740FA10BDC0
:1030A00010B588B0044601210420FEF7A3F80121E1
:1030B000C804FEF7E8F808220A216848FDF787FEF1
:1030C00008220B216548FDF782FE4FF44060069010
:1030D00002208DF81C008DF81D0000208DF81E00C8
:1030E00001208DF81F0006A95C48FDF7E5FD02945C
:1030F0000020ADF80C00ADF80E00ADF81000ADF8F2
:1031000014000C20ADF8120002A95548FFF7C9F8C9
:1031100001215348FFF74DF940215148FFF731FA9B
:10312000012240F225514E48FFF7F9F934208DF87D
:10313000040003208DF8050002208DF80600012010
:103140008DF8070001A8FDF76AFA08B010BD10B5A8
:1031500000214FF40020FEF796F8002240F225519E
:103160003F48FFF7DCF9002139484838FDF79EFB5E
:1031700010BD10B588B0044601210C20FEF73AF8C6
:1031800001210805FEF77FF8082202213548FDF7E6
:103190001EFE08220C213148FDF719FE4FF4805025
:1031A000069002208DF81C008DF81D0000208DF87F
:1031B0001E0001208DF81F0006A92848FDF77CFDA0
:1031C0000420069002208DF81C008DF81D000020C0
:1031D0008DF81E0001208DF81F0006A92148FDF77B
:1031E0006BFD02940020ADF80C00ADF80E00ADF8B8
:1031F0001000ADF814000C20ADF8120002A91A4816
:10320000FFF74FF801211848FFF7D3F8402116487F
:10321000FFF7B7F9012240F225511348FFF77FF974
:1032200035208DF8040001208DF8050000208DF870
:10323000060001208DF8070001A8FDF7F0F908B09D
:1032400010BD00000000024000100140004400409A
:10325000886002400004024000480040000802402C
:10326000004C0040000C02400050004010B500210E
:103270000748FDF71BFB00214FF48010FEF703F811
:10328000002240F225510348FFF749F910BD000024
:1032900010600240005000400EB501218803FEF787
:1032A00003F80A210620FEF70AF90B210620FEF793
:1032B00006F9FDF7F3FB4FF44060009000208DF815
:1032C00004000C208DF8050001208DF806006846EA
:1032D000FDF7F2FB28208DF8080000208DF809008A
:1032E0008DF80A0001208DF80B0002A8FDF797F970
:1032F0000EBD0EB500214FF48040FDF7D5FF0A2129
:103300000620FEF7DCF80B210620FEF7D8F8FDF7C3
:10331000C5FB4FF44060009000208DF804000C20A5
:103320008DF8050000208DF806006846FDF7C4FB07
:1033300028208DF8080000208DF809008DF80A007B
:103340008DF80B0002A8FDF76AF90EBD10B54FF419
:103350000060FDF717FC012805D04FF48060FDF7F1
:1033600011FC012862D13248007868B94FF48060BE
:10337000FDF708FC012851D101F0BAFD01202D49CB
:1033800008602D49086049E029480078012810D1DB
:10339000C002FDF7F7FB012840D1FFF7F6F900F076
:1033A0004DFC01F0A5FD012022490860224908607A
:1033B00034E01F480078022803D01D480078032815
:1033C0002CD101F095FD4FF40060FDF7DBFB0128E7
:1033D00009D18002FDF7D6FB012804D11549086008
:1033E000154908601AE04FF40060FDF7CBFB012897
:1033F00007D18002FDF7C6FB18B901200E4908600D
:103400000CE04FF40060FDF7BDFB38B94FF480606D
:10341000FDF7B8FB012801D1064908604FF4806030
:10342000FDF7BBFB4FF40060FDF7B7FB10BD0000DC
:1034300018000020800000208400002000B591B01A
:1034400001214805FDF7D6FEFE48FDF753F900BF00
:10345000FC48FDF778FA0028FAD14FF0006002909E
:10346000F9480390F9480490002005904FF48070CB
:103470000690002007904FF480600890002009908B
:103480000A904FF480700B9040020C9000200D9039
:1034900003200E9000200F9010900022EC49E94884
:1034A000FDF72BFA0121E748FDF733FA02A9E548B9
:1034B000FDF7C2F901221821E248FDF784FA012143
:1034C000E048FDF7F3F90B208DF8040001208DF89A
:1034D000050000208DF8060001208DF8070001A8E6
:1034E000FDF79DF801224021D748001FFFF70EF895
:1034F00011B000BD2DE9F04106460F460020D54928
:103500000860D549C1F8AC020120D44908700025F3
:1035100065E0745DD248D34909784454D2480078B4
:10352000FD2801D1FC2C03D0CE48007800281BDDFB
:10353000CC480078401CCB490870C94840784028E6
:1035400006D1C7488078382802D10120C7490870C1
:10355000C348407841280AD1C1488078302806D134
:103560000120C349087002E00020BE490870BE482F
:103570000470BE480078012815D1BA480078402868
:1035800011D10020B7490870B84908700120B94925
:103590000860B34890F83F00FD2804D14022B049AC
:1035A000B54802F039F8B2480078012815D1AD4885
:1035B0000078382811D10020AA490870AC49087059
:1035C0000120AE490860A64890F83700FD2804D1D4
:1035D0004022A349AA4802F01FF8681C85B2BD42E8
:1035E00097DBBDE8F08110B5A6499648FDF708FACB
:1035F00018B3A4499348FDF72DFA9248FDF799F9BD
:1036000030B99248A04908609148A049086005E097
:103610008F489D4908608D489C4908604FF480712F
:1036200099480068FFF766FF4FF480718548FDF701
:103630005EF901218348FDF739F995498148FDF785
:10364000DFF918B192497F48FDF704FA10BD10B5B3
:1036500008217D48001FFEF787FF40B108217A4806
:10366000001FFEF78EFF7848001FFEF7D1FE40F2E4
:1036700024417548001FFEF78DFF00B37248001FFC
:10368000FEF7C6FE00216F48FDF710F96D48FDF703
:1036900030F9C0F5807084B221467C480068FFF79D
:1036A00029FF7C496748FDF77AF94FF48071654836
:1036B000FDF71DF901216348FDF7F8F800BF10BDC3
:1036C0002DE9F04104460D461E4600210027002347
:1036D00088E0E05CDFF8C0C19CF800C0BCF1000FDE
:1036E00009D0BCF1010F07D0BCF1020F2CD0BCF106
:1036F000030F74D149E000BF59281AD1DFF898C1EF
:103700009CF800C00CF1010CDFF88C8188F800C037
:10371000DFF888C19CF800C002F80C00DFF87CC11B
:103720009CF800C00CF1010CDFF8708188F800C033
:1037300009E04FF0000CDFF8608188F800C0DFF886
:103740005C8188F800C04AE0DFF850C19CF800C0F6
:1037500002F80C00DFF844C19CF800C00CF1010C29
:10376000DFF8388188F800C0C4469CF800C0BCF17E
:10377000080F09D1DFF820C19CF800C00CF1010C42
:10378000DFF8148188F800C029E000210AE092F8EF
:1037900008C012F80180C44482F808C001F1010C8D
:1037A0000CF0FF010829F2DB92F808C0844508D12B
:1037B00092F802C092F803804CEA0827642F00DDDB
:1037C000642737804FF0000CDFF8CC8088F800C009
:1037D000DFF8C88088F800C082F808C000BF00BFCA
:1037E000581C83B2AB42FFF674AFBDE8F08110B550
:1037F0002B4914487830FDF703F920B128491148C6
:103800007830FDF727F927490E487830FDF7F8F8AA
:10381000B0B124490B487830FDF71CF90021094864
:103820007830FDF743F807487830FDF762F8C0F1CB
:1038300040001D4908801D4B1D4A0846018839E09B
:1038400043E000001060024004500040740100207A
:1038500074020020B002404200004042BC00002040
:103860006804002098000020990000209A000020A1
:103870009B000020C0000020A8040020C4000020FD
:10388000E8040020208000108C0000208800002028
:10389000104000103D0080109C0000209D00002082
:1038A00000220020008800209000002092000020CC
:1038B000B40300208B48FFF703FF40218A48FDF73F
:1038C00016F801218848FCF7F1FF10BD10B508215A
:1038D0008648FEF749FE30B108218448FEF751FEC4
:1038E0008248FEF795FD40F224418048FEF752FEE3
:1038F00010B17E48FEF78CFD10BD00B591B00121DE
:103900004805FDF777FC7848FCF7F4FE00BF7648E1
:10391000FDF719F80028FAD14FF0006002907348C3
:10392000001D03906F4804900020059040200690F1
:10393000002007904FF480600890002009900A90C2
:103940004FF480700B9040020C9000200D900320EB
:103950000E9000200F90109002A96348FCF76CFFB6
:10396000012214216048FDF72EF801215E48FCF782
:103970009DFF10208DF8040002208DF80500012025
:103980008DF806008DF8070001A8FCF748FE01221B
:1039900040215648FEF7BAFD11B000BD10B554499C
:1039A00051484838FDF72CF820B151494E48483865
:1039B000FDF750F84F494C484838FDF721F810B34F
:1039C0004C4949484838FDF745F8002146484838F1
:1039D000FCF76CFF44484838FCF78BFFC0F140000F
:1039E00045490880454B464A084601884548FFF747
:1039F00067FE40213C484838FCF779FF01213A48EE
:103A00004838FCF753FF10BD10B508213E48FEF7BB
:103A1000ABFD30B108213C48FEF7B3FD3A48FEF754
:103A2000F7FC40F224413848FEF7B4FD10B13648A7
:103A3000FEF7EEFC10BD00B591B001214805FDF781
:103A4000D9FB29484838FCF755FE00BF26484838BE
:103A5000FCF779FF0028F9D14FF0006002902A4866
:103A6000001D0390274804900020059040200690F8
:103A7000002007904FF480600890002009900A9081
:103A80004FF480700B9040020C9000200D900320AA
:103A90000E9000200F90109002A913484838FCF7B0
:103AA000CBFE0122142110484838FCF78CFF01217D
:103AB0000D484838FCF7FAFE0D208DF8040002206E
:103AC0008DF805008DF8060001208DF8070001A88B
:103AD000FCF7A5FD012240210B48FEF717FD11B0B0
:103AE00000BD0000740300208860024000440040D4
:103AF0000020081000802010940000209600002074
:103B0000FD030020BD030020004C004010B5FFF76E
:103B10004FF829216320FEF755FE10BDF0EE400A54
:103B2000F5EEC00AF1EE10FA01DBB0EE600AF5EE38
:103B3000C00AF1EE10FA03D2B1EE601AB0EE410AFB
:103B40007047B0EE401AB4EEE01AF1EE10FA02DB64
:103B5000B0EE410A7047B4EEE01AF1EE10FA02D866
:103B6000B0EE600AF6E700BFF4E7B0EE401AB4EE3C
:103B7000E01AF1EE10FA02D8B0EE410A7047B4EE46
:103B8000E01AF1EE10FA02DBB0EE600AF6E700BFD1
:103B9000F4E770B5552465421668864200DB106074
:103BA00016688E4200DA11601E68864200DB1860DB
:103BB0001E688E4200DA196070BD00B5002806DD6F
:103BC00000222B4B1A6001222A4BC3F89C220028AA
:103BD00006DC0122264B1A600022264BC3F89C22E9
:103BE000002907DD0022224B14331A600122214BE9
:103BF000C3F89422002907DC01221D4B14331A60FC
:103C000000221C4BC3F8942200EE101AB8EEC00A32
:103C1000FFF784FFBCEEC00A10EE102A164B1A60A4
:103C200000EE100AB8EEC00AFFF778FFBCEEC00A3B
:103C300010EE102A104B1B1D1A6000BD10B500209D
:103C40000B4908600B49C1F89C0200210A4834382E
:103C5000FDF70BFF00200649143108600549C1F843
:103C60009402002104483438FDF7FDFE10BD000029
:103C700098824242008042423408004010B5FEF76C
:103C80000EFEFEF76CFE10BD0146B1F1804F09D16A
:103C90004FF08040406A02B200204FF080435862EB
:103CA000104670470748814209D106482430006811
:103CB00002B20020034B243318601046F1E70020C5
:103CC000EFE700000004004010B500244FF48041ED
:103CD0007348FDF753F800B9641C20217148FDF7C3
:103CE0004DF800B9641C40216E48FDF747F800B953
:103CF000641C01216C48FDF741F800B9641C802167
:103D00006A48FDF73BF800B9641C4FF40071644841
:103D1000FDF734F800B9641C10216548FDF72EF852
:103D200000B9641C4FF400416248FDF727F800B960
:103D3000641C20215D48FDF721F800B9641C402176
:103D40005A48FDF71BF800B9641C80215448FDF760
:103D500015F800B9641C4FF400715348FDF70EF8D4
:103D600000B9641C4FF480715248FDF707F800B9A0
:103D7000641C80214E48FDF701F800B9641C4E48D0
:103D80000460204610BD10B54FF480414448FCF754
:103D9000F5FF002845D120214248FCF7EFFF00281D
:103DA0003FD140213F48FCF7E9FFD0BB01213E480D
:103DB000FCF7E4FFA8BB80213C48FCF7DFFF80BB99
:103DC0004FF400713648FCF7D9FF50BB102138483A
:103DD000FCF7D4FF28BB4FF400413648FCF7CEFF78
:103DE000F8B920213148FCF7C9FFD0B940212F484C
:103DF000FCF7C4FFA8B980212948FCF7BFFF80B9B0
:103E00004FF400712848FCF7B9FF50B94FF48071A6
:103E10002848FCF7B3FF20B980212548FCF7AEFF06
:103E200098B3FFF751FF052838DD24480068401C8F
:103E30002249086008460068022807D00846006842
:103E4000042803D00846006806280CD11B480068E7
:103E5000042801D1401F00E00120194909680844E5
:103E60001749086018E015480068012807D0134872
:103E70000068032803D01148006805280CD10F48BA
:103E80000068032802D1001F01E007E001200C496F
:103E9000096808440A490860012010BD0020FCE7B9
:103EA00000180240001002400008024000040240D6
:103EB000000C024000000240A4000020A0000020EE
:103EC000B800002010B54FF46120FFF752F9FFF75A
:103ED000B5FA0120FE49086010BD10B52DED048B28
:103EE000FC4800685A21484300EE100AB8EEC00AA8
:103EF000F948D0ED000A30EE200AF84880ED000ABB
:103F000008E0F64890ED000ADFEDF50A30EE600AB1
:103F100080ED000AF14890ED000ADFEDF10AB4EE01
:103F2000E00AF1EE10FAECDC08E0EC4890ED000A53
:103F3000DFEDEB0A30EE200A80ED000AE74890ED55
:103F4000000ADFEDE80AB4EEE00AF1EE10FAECD375
:103F500090ED000AE448D0ED000A30EE600A10EE61
:103F6000101A084601F072FC41EC190BB0EE490A38
:103F7000F0EE690A01F0F3FEB0EE408AF0EE608ADE
:103F80009FEDDA0B53EC102B51EC180B01F08AFC6F
:103F900019D2D24890ED000AD348D0ED000AB4EE11
:103FA000E00AF1EE10FA02DD4FF4B47000E0D148FF
:103FB00000EE100AB8EEC00ACB48D0ED000A30EE91
:103FC000200A80ED000ABDEC048B10BD704770B56F
:103FD00004460D461646002242EA036242EA0642C1
:103FE00042EA052222430021104670BD2DE9F04728
:103FF0002DED0C8B0646884691469A4600BF00BFC1
:1040000000BF00BF00210C460D464FEA0A60044382
:1040100045EAE0754FEA0940044345EAE0754FEA96
:104020000820044345EAE07534434FF0004104EAB8
:104030000100002148404940084302D04FF0FF30C2
:1040400000E0012008EE900AE00D40EA4520C0B2F1
:104050007F21471AA84904EA01024FF000011046E7
:1040600001F0CDFB00EE100A9FEDA41AC0EE010A8C
:10407000B7EE000A30EE809A384601F0D6FB41ECEC
:104080001D0BB0EE4D1AF0EE6D1A9FED9D0B01F079
:1040900073FEB0EE40BAF0EE60BAB8EEE80A20EE79
:1040A000090A10EE101A084601F0D0FB53EC1B2B46
:1040B00001F0C4FA01F00EFC08EE100AB0EE480A56
:1040C000BDEC0C8BBDE8F087704710B58E480068DA
:1040D00001287DD18D48407841287ED18B48807859
:1040E00030287AD1894CA37A627A217AE079FFF775
:1040F0007DFF874880ED000AA37B627B217BE07A0D
:10410000FFF774FF824880ED010AA37C627C217C6A
:10411000E07BFFF76BFF7E4880ED020AA37D627DA6
:10412000217DE07CFFF762FF794880ED030AA37EE2
:10413000627E217EE07DFFF759FF754880ED040A1D
:10414000A37F627F217FE07EFFF750FF704880ED04
:10415000050A94F8223094F8212094F82010E07F8A
:10416000FFF744FF6A4880ED060A94F8263094F879
:10417000252094F8241094F82300FFF737FF6448B3
:1041800080ED070A94F82A3094F8292094F8281032
:1041900094F82700FFF72AFF5D4880ED080A94F89D
:1041A0002E3094F82D2094F82C1094F82B00FFF763
:1041B0001DFF574880ED090A94F8323094F83120F9
:1041C00094F8301094F82F00FFF701FF504901E0F8
:1041D00006E002E08862FFF777FF00204A490860A6
:1041E0004C480068012871D14B48407840286ED176
:1041F000494880783828FAD1474CA37A627A217AE4
:10420000E079FFF7F3FE454880ED000AA37B627B6F
:10421000217BE07AFFF7EAFE404880ED010AA37CAB
:10422000627C217CE07BFFF7E1FE3C4880ED020AE6
:10423000A37D627D217DE07CFFF7D8FE374880EDCD
:10424000030AA37E627E217EE07DFFF7CFFE334826
:1042500080ED040AA37F627F217FE07EFFF7C6FE28
:104260002E4880ED050A94F8223094F8212094F825
:104270002010E07FFFF7BAFE284880ED060A94F888
:10428000263094F8252094F8241094F82300FFF7A2
:10429000ADFE224880ED070A94F82A3094F82920D0
:1042A00094F8281094F82700FFF7A0FE1B4880ED33
:1042B000080A94F83A3094F8392094F8381094F8B1
:1042C0003700FFF784FE1549086329E02DE029E057
:1042D000A8000020B8000020AC000020B0000020A2
:1042E0000000B4430000B4C3B4000020000000008C
:1042F0000080664098FEFFFFFFFF7F00FEFFFF4A41
:104300000000000000000040C4000020E80400207D
:104310003C040020C0000020A80400200804002065
:10432000FFF754FE0020AC490860002010BD10B516
:104330002DED068BA94890ED050A10EE101A0846DF
:1043400001F084FA41EC1A0B1FED180B53EC102B03
:1043500001F074F941EC190B9FEDA10B53EC102BFC
:1043600001F0DEF941EC180B01F0B4FA00EE100A8E
:10437000BDEC068B10BD994890ED020ADFED9A0A5C
:1043800060EE200A9FED991A80EE810A70479348EB
:1043900090ED030ADFED960A20EE200A704710B573
:1043A0002DED068BB0EE408A18EE100A01F04EFAA1
:1043B00041EC1A0BB0EE4A0AF0EE6A0AFFF7AEFBC8
:1043C000044601F032FA41EC190B9FED8A0B53ECD5
:1043D000102B01F04FFA03D89FED880AB0EE408A07
:1043E00018EE100A01F032FA41EC190B9FED810B27
:1043F00053EC102B01F056FA0AD2B1EE040AB4EED7
:10440000C08AF1EE10FA03D8B0EE000AB0EE408A8E
:10441000B1EE040AB4EEC08AF1EE10FA0ADDB2EE93
:10442000040AB4EEC08AF1EE10FA03D89FED740AC4
:10443000B0EE408AB2EE040AB4EEC08AF1EE10FA91
:104440000ADDB2EE0E0AB4EEC08AF1EE10FA03D81D
:104450009FED6C0AB0EE408AB2EE0E0AB4EEC08A4E
:10446000F1EE10FA0ADDB3EE040AB4EEC08AF1EE02
:1044700010FA03D89FED640AB0EE408AB3EE040A46
:10448000B4EEC08AF1EE10FA0ADDB3EE090AB4EE1A
:10449000C08AF1EE10FA03D89FED5C0AB0EE408AB4
:1044A000B3EE090AB4EEC08AF1EE10FA0ADD9FED10
:1044B000580AB4EEC08AF1EE10FA03D8B1EE000A41
:1044C000B0EE408AB9EE040AB4EEC08AF1EE10FAFA
:1044D00010DB18EE100A01F0B9F941EC190B9FED51
:1044E0004D0B53EC102B01F0C5F903D2B8EE000AC6
:1044F000B0EE408ABAEE040AB4EEC08AF1EE10FAC9
:104500000ADBB9EE040AB4EEC08AF1EE10FA03D267
:104510009FED420AB0EE408ABAEE0E0AB4EEC08AAF
:10452000F1EE10FA0ADBBAEE040AB4EEC08AF1EE3C
:1045300010FA03D29FED3A0AB0EE408ABBEE040AAD
:10454000B4EEC08AF1EE10FA0ADBBAEE0E0AB4EE4F
:10455000C08AF1EE10FA03D29FED320AB0EE408A23
:10456000BBEE090AB4EEC08AF1EE10FA0ADBBBEE2C
:10457000040AB4EEC08AF1EE10FA03D29FED2A0AC3
:10458000B0EE408ABBEE0E0AB4EEC08AF1EE10FA2D
:104590000ADB9FED260AB4EEC08AF1EE10FA03D8CA
:1045A000B9EE000AB0EE408A18EE100A01F04EF99A
:1045B00041EC190BB0EE490AF0EE690AFFF7AEFACA
:1045C000322803DD9FED1A0AB0EE408AB0EE480AA9
:1045D000BDEC068B10BD0000C00000203C04002094
:1045E00000000060FB21094000003443DB0F49401C
:1045F00000007A44333333333333D33F00000000B9
:104600009A99194033333340CDCC4C4066666640AE
:1046100000004842333333333333D3BF9A9919C040
:10462000333333C0CDCC4CC0666666C0000048C290
:104630000000C84310B540F2473140F2CF70FEF79A
:1046400002FA40F2473140F2CF70FEF74BFA10BD4C
:1046500010B5044621464D48FDF705FA10BD10B5CA
:10466000044621464A48FDF7FEF910BD2DE9F04702
:1046700007460C4615461E4607F0010080B314E0BD
:104680002046FFF7E5FFA5EB0408B8F1000F01DBBA
:10469000404601E0C8F1000096FBF0F01FFA80F9F7
:1046A0004846FEF723F8601C84B2AC42E8DB14E015
:1046B0002046FFF7CDFFA5EB0408B8F1000F01DBA2
:1046C000404601E0C8F1000096FBF0F01FFA80F9C7
:1046D0004846FEF70BF8601E84B2AC42E8DC33E0DB
:1046E000FFE707F0020078B314E02046FFF7B7FFBA
:1046F000A5EB0408B8F1000F01DB404601E0C8F16A
:10470000000096FBF0F01FFA80F94846FDF7EEFF37
:10471000601C84B2AC42E8DB14E02046FFF79FFF48
:10472000A5EB0408B8F1000F01DB404601E0C8F139
:10473000000096FBF0F01FFA80F94846FDF7D6FF1F
:10474000601E84B2AC42E8DCBDE8F08770B5044678
:104750000D46B42094FBF0F000EBC00101EB00101B
:10476000322101EBC00086B23046FFF771FFB42062
:1047700095FBF0F000EBC00101EB0010322101EBE2
:10478000C00086B23046FFF76AFF70BD001C0040D3
:104790000020004070B540F225514D48FDF7FAFE6B
:1047A000002819D040F225514948FDF72EFF48480E
:1047B000FDF72EFEC5B24748007870B92C2D0CD1FC
:1047C000012044490870444801780078401C424A5E
:1047D0001070424820F8115079E03E4800780128D6
:1047E0000ED1122D0CD102203A4908703A480178B6
:1047F0000078401C384A1070384820F8115066E0A4
:1048000034480078022823D1334801780078401CCE
:10481000314A1070314820F81150104600780A28AB
:1048200001DA5B2D53D103202A49087001202C495D
:10483000087029480078801E284911F8102029485E
:1048400001780078401C274B1870274842543EE0FE
:104850002048007803282BD11F480078401E1F49AC
:1048600031F810005B2813D1002240F2255118487E
:10487000FDF755FE00201A490870174908701549C0
:104880000870012240F225511148FDF748FE1EE054
:1048900000201049087010490870002405E000202D
:1048A0000E4921F81400601CC4B20A2CF7DB0EE09C
:1048B00000200849087008490870002405E000201D
:1048C000064921F81400601CC4B20A2CF7DB70BD45
:1048D000001001401B0100201A0100207807002071
:1048E0001C01002011010020E400002010B5044646
:1048F00034B94FF4E130FEF7D3FBFFF79CF807E043
:10490000012C05D14FF4E130FEF700FBFEF7F5FF77
:1049100010BD70471CB501214820FCF76BFC4020FE
:10492000009001208DF8040003208DF80500002080
:104930008DF8060001208DF8070069463248FCF723
:10494000BBF940213048FCF733FA4FF400400090A7
:1049500000208DF8040003208DF8050000208DF85C
:10496000060001208DF8070069462848FCF7A4F9E5
:104970001CBD70B5044640212348FCF71BFA682093
:10498000FDF76CFE002511E004F0010020B140218C
:104990001D48FCF70DFA03E040211B48FCF70AFA1A
:1049A00064106820FDF75AFE681CC5B2082DEBDBC9
:1049B00040211548FCF7FCF96820FDF74FFE70BD5B
:1049C00070B50546002404E0285DFFF7D2FF601CA7
:1049D000C4B2082CF8DB70BD10B50446012C03D11D
:1049E0000B48FFF7EDFF0EE0022C03D10948FFF75B
:1049F000E7FF08E0032C03D10748FFF7E1FF02E0DF
:104A00000348FFF7DDFF10BD000C02400018024014
:104A10001D010020250100202D01002070B540F26D
:104A200025516548FDF7B6FD002819D040F2255103
:104A30006148FDF7EAFD6048FDF7EAFCC5B25F4852
:104A4000007870B92C2D0CD101205C4908705C48AD
:104A500001780078401C5A4A10705A4820F81150CA
:104A600090E05648007801280ED1122D0CD102207A
:104A700052490870524801780078401C504A107022
:104A8000504820F811507DE04C48007802283AD177
:104A90004B4801780078401C494A1070494820F87A
:104AA0001150104600780A2801DA5B2D6AD10320E4
:104AB0004249087001204449087041480078401F6D
:104AC000404911F81000414908703D480078001F26
:104AD0003C4911F810003E49087039480078C01E62
:104AE000384911F810003B49087035480078801E9D
:104AF000344911F8100038490870364801782E48BA
:104B0000FDF782FC3EE02D48007803282BD12C488D
:104B10000078401E2B4931F810005B2813D1002289
:104B200040F225512448FDF7FAFC00202649087080
:104B30002349087021490870012240F225511E487E
:104B4000FDF7EDFC1EE000201C4908701C490870B0
:104B5000002405E000201B4921F81400601CC4B2A9
:104B60000A2CF7DB0EE00020144908701449087085
:104B7000002405E00020134921F81400601CC4B291
:104B80000A2CF7DB70BD10B5A820FDF74DFD012103
:104B90000948FDF70EFC0F480078012800D110BD30
:104BA0000C480078022800D1F9E70A480078032869
:104BB00000D1F4E70120F2E7004800403B0100206B
:104BC0003A0100208C0700203C0100203501002024
:104BD00036010020370100203801002080ED010A55
:104BE000C0ED020A80ED031AC0ED041A80ED052A1B
:104BF00070479FEDBE0A80ED060A9FEDBC0A80ED6E
:104C0000070A9FEDBA0A80ED080A704770B52DEDCE
:104C1000068B04460D461646A81B00EE100AB8EE99
:104C2000C00A84ED090A94ED060AD4ED090A30EEB3
:104C3000200A84ED060A206800F0010090B394ED8C
:104C4000040A10EE101A084600F000FE41EC180BA2
:104C500094ED060A10EE101A084600F0F7FD41EC3C
:104C60001A0BB0EE4A0AF0EE6A0A01F078F8B0EEDC
:104C7000409AF0EE609A53EC182B51EC190B00F0AF
:104C800011FE0FD294ED060AB5EEC00AF1EE10FA4D
:104C900002DD94ED040A03E094ED040AB1EE400A4B
:104CA00084ED060A94ED010AD4ED090A20EE200AEB
:104CB000D4ED020A94ED061A00EE810AD4ED090A39
:104CC00094ED071A70EEC10A94ED031A01EE200A62
:104CD00084ED080A2068C0F3400090B394ED050A03
:104CE00010EE101A084600F0B1FD41EC180B94EDDF
:104CF000080A10EE101A084600F0A8FD41EC1A0B45
:104D0000B0EE4A0AF0EE6A0A01F029F8B0EE409AD5
:104D1000F0EE609A53EC182B51EC190B00F0C2FD29
:104D20000FD294ED080AB5EEC00AF1EE10FA02DDDA
:104D300094ED050A03E094ED050AB1EE400A84ED16
:104D4000080A94ED070AB5EEC00AF1EE10FA06DD86
:104D500094ED090AB5EEC00AF1EE10FA0DD394ED08
:104D6000070AB5EEC00AF1EE10FA0AD294ED090A6C
:104D7000B5EEC00AF1EE10FA03DD9FED5C0A84ED9A
:104D8000060A94ED090A84ED070A0020BDEC068BA3
:104D900070BD80ED010AC0ED020A80ED031AC0ED7E
:104DA000041A9FED522A80ED052A9FED502A80EDCE
:104DB000062A9FED4E2A80ED082A9FED4C2A80EDB1
:104DC000072A9FED4A2A80ED0A2A70479FED470A7D
:104DD00080ED050A9FED450A80ED060A9FED430A26
:104DE00080ED080A9FED410A80ED070A704710B573
:104DF0002DED088B0446B0EE408AF0EE608A38EE66
:104E0000680A84ED090A94ED0A0AD4ED090A30EE25
:104E1000200A84ED0A0A94ED090AD4ED050A30EE61
:104E2000600AD4ED010A20EE200AD4ED020A94EDC6
:104E3000091A00EE810AD4ED090A94ED051AF0EE84
:104E4000001A41EEC10A94ED061A70EE810A94ED43
:104E5000031A01EE200A84ED070A94ED080AD4ED46
:104E6000070A30EE200A84ED080A94ED040A10EED9
:104E7000101A084600F0EAFC41EC190B94ED080A00
:104E800010EE101A084600F0E1FC41EC1B0BB0EEEE
:104E90004B0AF0EE6B0A00F062FFB0EE40AAF0EEB3
:104EA00060AA53EC192B51EC1A0B00F0FBFC0FD24B
:104EB00094ED080AB5EEC00AF1EE10FA02DD94EDA9
:104EC000040A03E094ED040AB1EE400A84ED080AF6
:104ED00094ED050A84ED060A94ED090A84ED050AAD
:104EE00094ED080ABDEC088B10BD00000000000026
:104EF00010B5FDF74AFCFEF7B9F9FEF79FFEFEF785
:104F0000F8F91420FDF7F2FB10BD10B5E248D0ED22
:104F1000001A9FEDE21ADFEDE20A9FEDE20AE24895
:104F2000FFF737FFDC48D0ED001A9FEDDC1ADFED0C
:104F3000DC0A9FEDDC0ADD48FFF72BFFDC48D0EDF3
:104F4000001A9FEDDC1ADFEDD50A9FEDDB0ADB4886
:104F5000FFF71FFF10BD10B5FEF7D8FDFEF78EFE60
:104F6000FFF7D3FFFEF7AEFF41F28830FDF7BEFB3F
:104F7000FFF7ABF8FFF7DBF9D14880ED000A90EDC1
:104F8000000AD04880ED000A0020FFF7AFFC0120A6
:104F9000FFF7ACFCFFF7BEFC40F2473140F2E730D0
:104FA000FDF7C4FB10BD10B52DED048BC34890ED8B
:104FB000090A10EE101A084600F048FC41EC190BE3
:104FC000B0EE490AF0EE690A00F0C9FEB0EE408A80
:104FD000F0EE608A9FEDBC0B53EC102B51EC180BDC
:104FE00000F048FC03D20120B949086002E000202B
:104FF000B7490860B14890ED090A10EE101A08464A
:1050000000F024FC41EC190BB0EE490AF0EE690AFD
:1050100000F0A5FEB0EE408AF0EE608A9FEDAD0B89
:1050200053EC102B51EC180B00F024FC03D20120A0
:10503000AA49086002E00020A8490860BDEC048B82
:1050400010BD00EE100AB8EEC00AA54A82ED000AB3
:1050500000EE101AB8EEC00AA24A82ED000A7047AC
:1050600010B52DED028BB0EE408A00210846FFF707
:10507000E8FFFFF798FFFEF730FF9B48D0ED000AEE
:10508000B0EE480A8D48FFF7B2FE8C4890ED080A52
:10509000DFED960A20EE200A954880ED110A874838
:1050A00090ED080ADFED930A20EE200A904880ED8B
:1050B000120A014691ED110ABDEEC00A10EE100A67
:1050C000002801DB014600E041420A2903DD88494E
:1050D00091ED110A0FE0864991ED110AB5EEC00A73
:1050E000F1EE10FA01DD0A2101E06FF0090100EE96
:1050F000101AB8EEC00A7E4981ED110A91ED120A2C
:10510000BDEEC00A10EE100A002801DB014600E0E7
:1051100041420A2903DD764991ED120A0FE07449F4
:1051200091ED120AB5EEC00AF1EE10FA01DD0A2186
:1051300001E06FF0090100EE101AB8EEC00A6C49E8
:1051400081ED120A0A4692ED120ABDEEC00A10EE77
:10515000101A92ED110ABDEEC00A10EE100AFEF709
:105160002CFD0120BDEC028B10BD10B5FEF7B5FE85
:105170005D48D0ED000A534890ED000A4F48FFF714
:1051800036FE5D4890ED000AB8EEC00AF0EE400A27
:10519000534890ED000A4448FFF729FE564890ED29
:1051A000010AB8EEC00AF0EE400A4E4890ED000A3F
:1051B0003E48FFF71CFE4A4890ED000ADFED390A31
:1051C00020EE200ABDEEC00A4C4880ED000A45489A
:1051D00090ED000ADFED330A20EE200ABDEEC00A92
:1051E000474880ED000A304890ED080A3348D0ED7A
:1051F000080A9FED441A01EE200A4048D0ED000A4B
:10520000F8EEE00A30EE200A394880ED110A27480E
:1052100090ED080A2948D0ED080A9FED3A1A01EEF0
:10522000600A3748D0ED000AF8EEE00A30EE200AB6
:105230002F4880ED120A024692ED120ABDEEC00A16
:1052400010EE101A92ED110ABDEEC00A10EE100A0F
:10525000FEF7B3FC012010BD10B501212A48FCF770
:10526000C0FE012817D101212748FCF7D7FEFEF721
:105270002CFFFFF75CF81C4880ED000A2348FEF77E
:1052800003FD1D4908604FF08040FEF7FDFC1A4900
:105290004860FFF76AFF10BD4801002000000000D1
:1052A0008FC2F53DCDCCCC3DF00700201C0800207E
:1052B0004C0100200AD7233CCDCC4C3D48080020AF
:1052C000AC000020B0000020000000000000F03F13
:1052D0005801002000000000000000405C01002098
:1052E0005001002054010020B40000200000C842FA
:1052F000A00700200000C8C240010020600100207B
:1053000064010020000048430014004000040040F5
:1053100010B5FFF78FF9FDF744FD7820FFF798F9F6
:105320002820FFF79CF910BDB248006828B1B248A8
:1053300000881E2801DA01207047B048006828B1B3
:10534000AD4800881E2801DA0120F5E70020A949B0
:105350000860AA49086000BFEEE7A648006820B9C7
:10536000A648006808B9012070470020FCE770B526
:105370000446042C0FD1002506E0A149A14A126879
:10538000885CFFF729FB6D1C9D489E490968405CBD
:10539000A842F2DC07E0002503E02046FFF71CFBF3
:1053A0006D1CA542F9DB98480068401C96490860CE
:1053B0009648007840B10020944908700120887018
:1053C00000208C4908600AE09048407838B10020FD
:1053D0008E4948700120C8700020884908608A48BA
:1053E000006802280DD18948807850B18748C0787C
:1053F00038B100208449086082480068401C814917
:10540000086070BD2DE9F041ADF5487D4FF0000812
:1054100000260027002500244FF4C8737822AA2113
:105420000120FFF723F97A480078032858D0714803
:10543000006800B3502417E0B0463E46A0B2FFF724
:105440000EF97820FDF752F908217248FBF796FC17
:1054500018B94DF825406D1C0127B8F1000F02D096
:105460000EB907B902E0641C282CE5DB00BF01205F
:105470006649087022E061480068F8B1C82417E066
:10548000B0463E46A0B2FFF7EAF87820FDF72EF9C5
:1054900008216048FBF772FC18B94DF825406D1CD7
:1054A0000127B8F1000F02D00EB907B902E0641C61
:1054B000F02CE5DB00BF0120544948700024002097
:1054C00003E05DF825100C44401CA842F9DB94FB76
:1054D000F5F4A0B2FFF7C3F87820FDF707F916E05E
:1054E0004B480078032812D14248006830B1782335
:1054F000502228210220FFF7B9F808E03F48006851
:1055000028B17823962228210220FFF7AFF80DF565
:10551000487DBDE8F08110B53D48007803280AD0E9
:105520004FF4C873AA2278210120FFF79FF80420C6
:10553000FFF71DFF40E03648007803283CD12D4896
:105540000068D0B14FF4E130FDF747FD78231A46EB
:1055500019460120FFF78AF84FF47A70FDF7C6F874
:10556000FFF711FBC4B22046FFF701FF7823282282
:1055700050210220FFF77AF81CE020480068C8B1EB
:105580004FF4E130FDF729FD78231A461946012032
:10559000FFF76CF84FF47A70FDF7A8F8FFF7F3FA0D
:1055A000C4B22046FFF7E3FE78239622282102208A
:1055B000FFF75CF8FDF767FD10BD10B5FAF728FF9F
:1055C00003E0FFF71FFFFFF7A6FFFFF7ADFE18B1DF
:1055D000FFF7C3FE0028F4D00C48807840B10B4898
:1055E000C07828B1002009498870C870FDF754FEC2
:1055F00010BD0000800000209600002084000020E4
:10560000E4000020140000206C010020680100204C
:1056100018000020000C024040EA01039B0703D061
:1056200009E008C9121F08C0042AFAD203E011F8E1
:10563000013B00F8013B521EF9D270472DE9FE4FA5
:1056400081EA030404F0004421F0004100944FF08B
:10565000000B23F0004350EA01045ED052EA030439
:105660005BD0C3F30A54C1F30A552C44A4F2F334BB
:105670000194A0FB0254C1F3130141F48011C3F360
:10568000130343F4801301FB024400FB034E840A1E
:10569000970A44EA815447EA8357A4FB07680295B6
:1056A0008D0A05FB07854FEA932C04FB0C54270554
:1056B000029D4FEA065847EA1637B5EB08056EEB30
:1056C000070C870E920E47EA811742EA8312A7FB66
:1056D0000201B6EB0B0164EB00042B0D43EA0C3323
:1056E0005E1844EB1C50DA465146E7FB0201C5F355
:1056F00013044FEA0B3343EA14534FEA0432019C7C
:1057000043EA0603A4F10C040294009CCDE900B422
:1057100000F052F903B0BDE8F08F00200146F9E730
:105720002DE9F04D81EA030404F0004B21F000451F
:1057300014464FF0000A23F0004150EA050220D041
:1057400054EA01021DD0C5F30A570246C5F31303FC
:10575000C1F31300C1F30A5640F4801543F48013DB
:10576000A7EB0608101BD64608F2FD3873EB0500C0
:1057700002D308F1010801E092185B41B8F1000F73
:1057800003DA00200146BDE8F08D00204FF48011BF
:10579000064684460EE0171B73EB050705D3121B64
:1057A00063EB050306434CEA010C49084FEA30005D
:1057B00092185B4150EA0107EDD152EA030012D082
:1057C00082EA040083EA0501084305D0101BAB41BF
:1057D00006D20122002306E000224FF0004302E03F
:1057E0006FF0010253101AEB06004CEB085110EB5E
:1057F0000A0041EB0B01BDE8F04D00F0CEB8F0B46B
:10580000CA17CB0F50405140C61841F100054FEA6E
:10581000C372314628004FF0960303D0B623F0BC84
:1058200000F08DB830460021F9E70EB5C10F80EACF
:10583000E0700844CA07002140F233438DE80E00AF
:105840000A460B4600F0B8F803B000BD00F0004275
:1058500030F000400AD0C10D01F56071C0F31600B0
:1058600042EA0151C2084007114370470020014637
:105870007047000030B5041E71F1000404DB4FF0E6
:105880000044404264EB0101141E73F1000405DB87
:105890001C464FF00043524263EB04038B4208BFA7
:1058A000824230BD30B5041E71F1000404DB4FF0BC
:1058B0000044404264EB0101141E73F1000405DB57
:1058C0001C464FF00043524263EB0403994208BF69
:1058D000904230BD01F0004330B421F0004150EA65
:1058E000010206D00A0DA2F56072C1F31301002A6D
:1058F00002DC30BC00207047440F44EAC104C10000
:10590000E01830BC00EBC25000F010B8202A04DBD5
:10591000203A21FA02F00021704721FA02F3D04028
:10592000C2F1200291400843194670470029A8BFE0
:105930007047401C490008BF20F00100704710B4B8
:10594000B0FA80FC00FA0CF050EA010404BF10BC6D
:10595000704749B1CCF1200421FA04F411FA0CF19A
:1059600018BF012121430843A3EB0C01CB1D4FEAD3
:1059700000614FEA102042BF002010BC704700EBCE
:10598000C35010440029A4BF10BC7047401C4900FC
:1059900008BF20F0010010BC704710B5141E73F151
:1059A000000408DA401C41F1000192185B411A43DF
:1059B00001D120F0010010BD2DE9F04D92469B462B
:1059C00011B1B1FA81F202E0B0FA80F220329046D1
:1059D00000F010F904460F4640EA0A0041EA0B01C4
:1059E00053465A46084313D0114653EA010019D0D2
:1059F000C8F140025046FFF789FF05460E46504663
:105A00005946424600F0F6F8084305D0012004E06C
:105A100020463946BDE8F08D0020054346EAE07691
:105A20002C4337430A986305E40AA0EB08000022E0
:105A3000FD0A44EA47540A3002D500200146E9E74E
:105A4000010510196941DDE9084500196941BDE802
:105A5000F04DA2E72DE9FE4F804681EA0300C00F1A
:105A60000C46009021F0004123F00045B8EB020005
:105A7000A94105D24046214690461C460B460246A7
:105A800023F00040104347D0270DC7F30A00C3F3AB
:105A90000A510290401A019040286BDAC3F31300B8
:105AA00040F4801B0098924620B10023D2EB030AF9
:105AB00063EB0B0B01985946C0F14002504600F0D1
:105AC00099F806460D4650465946019A00F0A1F84D
:105AD00010EB08006141002487EA115284EAE77361
