:020000040800F2
:1000000060080020490400081D0200081F020008C3
:1000100023020008270200082B020008000000004D
:100020000000000000000000000000002F02000897
:100030003102000800000000330200083502000809
:1000400063040008630400086304000863040008F4
:1000500063040008630400086304000863040008E4
:1000600063040008630400086304000863040008D4
:1000700063040008630400086304000863040008C4
:1000800063040008630400086304000863040008B4
:1000900063040008630400086304000863040008A4
:1000A0006304000863040008630400086304000894
:1000B000E7280008FD28000863040008630400081E
:1000C0006304000863040008630400086304000874
:1000D000630400085D380008BF3A000863040008A4
:1000E0006304000863040008630400086304000854
:1000F0006304000863040008630400086304000844
:100100006304000863040008630400086304000833
:10011000B5390008A12E000863040008632E00080A
:100120006304000863040008630400086304000813
:100130006304000863040008630400086304000803
:1001400063040008630400086304000863040008F3
:1001500063040008630400086304000863040008E3
:1001600063040008630400086304000863040008D3
:1001700063040008630400086304000863040008C3
:100180006304000863040008DFF80CD007F010FCDB
:10019000004800479D010008600800201CB5A82009
:1001A00002F0ACF904F097F902F06EFD02F036FEB1
:1001B00042F2CF0140F2E73002F022FA4FF47A70B7
:1001C00002F0FEF902F0F8FD03F0F4FA4FF4784083
:1001D0000F4908805A2003F002FB5A2003F0F8FA76
:1001E00014E0002010232D2214210090C82007F0D5
:1001F00027F808A0082128231A46CDE90010142169
:100200000A2006F0EAFF642002F0DAF9E9E70000CC
:10021000AE0000206464646162636400704700BFE4
:10022000FEE700BFFEE700BFFEE700BFFEE7704746
:1002300070477047704700000CB500200190009097
:100240007648006840F480307449086000BF734805
:10025000006800F4003000900198401C0190009864
:1002600018B90198B0F5A04FF1D16C48006800F4BE
:10027000003010B10120009001E0002000900098B3
:10028000012846D165484030006840F080506349FD
:10029000403108606248006840F4404060490860AE
:1002A0005E48083000685D4908310860084600680B
:1002B00040F4004008600846006840F4A050086020
:1002C0005848091F0860081F006840F08070091F27
:1002D000086000BF5148006800F000700028F9D0A5
:1002E00040F20570504908604C480830006820F022
:1002F00003004A49083108600846006840F00200DF
:10030000086000BF45480830006800F00C0008286D
:10031000F8D10CBD10B54548006840F47000434961
:1003200008603E48006840F001003C490860002039
:100330003A4908310860394800683D490840374962
:1003400008603C48091D0860081F006820F48020F0
:10035000091F0860002031490C310860FFF76CFF6D
:100360004FF0006031498039086010BD70B5002041
:100370000022022300240221284D08352D6805F0B3
:100380000C0020B1042806D0082834D107E02A4DFB
:100390002A4E356033E02A4D284E35602FE01F4D40
:1003A0002D1D2D68C5F380541C4D2D1D2D6805F0A5
:1003B0003F0154B1224DB5FBF1F5184E361D36689C
:1003C000C6F3881605FB06F209E01B4DB5FBF1F5F7
:1003D000124E361D3668C6F3881605FB06F20F4D21
:1003E0002D1D2D68C5F301456D1C6B00B2FBF3F5A7
:1003F000124E356003E0104D104E356000BF00BF57
:10040000064D08352D68C5F303150E4E705D0B4D76
:100410002D68C540094E356070BD000000380240AF
:100420000070004008544007003C024088ED00E0A6
:10043000FFFFF6FE103000240024F400000000202E
:1004400000127A0004000020064880470648004752
:10045000FEE7FEE7FEE7FEE7FEE7FEE7FEE7FEE774
:10046000FEE7FEE715030008890100083249014351
:10047000324A1160704770B5002100230F22C47802
:100480001CB32E4C246804F4E064C4F5E064C4F3A7
:100490000721C1F10404E3B20A4144789C40E1B26F
:1004A0008478144021430C07210E254C05786155B2
:1004B000047804F01F050124AC4005786D11AD00EF
:1004C00005F1E025C5F8004109E0047804F01F05B6
:1004D0000124AC401B4D0678761145F8264070BDCE
:1004E000194A0A400243154B1B1F1A60704739B165
:1004F000124A121D12680243104B1B1D1A6006E0BF
:100500000E4A121D126882430C4B1B1D1A60704765
:10051000042808D14FF0E021096941F004014FF0AF
:10052000E022116107E04FF0E021096921F00401A8
:100530004FF0E022116170470000FA050CED00E079
:1005400000E400E080E100E080FFFF1F30B943F2EB
:10055000DB028100A1F1C0410A6005E043F2D20252
:100560008100A1F1C0410A606FF07042411C890016
:10057000A1F1C0410A608100A1F1C041C1F804218C
:100580007047D0E901121143C26811430269114357
:100590004269114382691143C2691143026A1143DE
:1005A000426A1143826A1143C26A1143026B1143CA
:1005B00002689200A2F1C0421160816808290BD143
:1005C00001688900A1F1C041096841F04002016859
:1005D0008900A1F1C0410A60416B0968426B526811
:1005E00041EA0211426B926841EA0221426B928910
:1005F00041EA0241426B128A41EA0251426B127D8A
:1006000041EA0261426B926911430268521C9200F6
:10061000A2F1C0421160C16AB1F5804F1BD1816B5C
:100620000968826B526841EA0211826B926841EA62
:100630000221826B128A41EA0251826B127D41EAE9
:100640000261826B9269114302689200A2F1C0427A
:10065000C2F8041107E06FF0704201688900A1F14F
:10066000C041C1F8042170470021016002214160AE
:1006700000218160C160016141618161C1610162EC
:100680004FF480514162490081620021C1620163DF
:10069000F84941638163704751B18200A2F1C042C1
:1006A000126842F001038200A2F1C042136009E027
:1006B0008200A2F1C0421268EF4B1A408300A3F1FE
:1006C000C0431A60704710280AD118214FF0204209
:1006D0001166402151664FF0FC319166D16610E001
:1006E0001821E64A116040214FF02042C2F88410E0
:1006F0004FF0FC31E14A083211604FF02042C2F85D
:100700008C10704730B5002100220023446844F06B
:10071000080485682C43C5682C4305692C4345694A
:1007200044EA4524856944EA4531C4692468C569B9
:100730006D6844EA0524C5692D8944EA0544C56904
:100740002D7B44EA0562046A2468056A6D6844EA00
:100750000524056A2D8944EA0544056A2D7B44EA8F
:1007600005630468102C05D14FF020442166A26671
:10077000E36608E0C14C21604FF02044C4F88820B3
:10078000BE4C0C34236030BD10210160002141605B
:100790008160C160016141618161FC21C2691160B8
:1007A000C2695160C2699160C269D160026A116018
:1007B000026A5160026A9160026AD160704799B121
:1007C000102808D14FF02042126E42F004024FF080
:1007D00020431A661DE0A94A126842F004024FF055
:1007E0002043C3F8802014E0102809D14FF02042A4
:1007F000126EA14BDB1E1A404FF020431A6608E030
:100800009E4A12689C4BDB1E1A404FF02043C3F8EF
:100810008020704799B1102808D14FF02042126E05
:1008200042F040024FF020431A661DE0934A1268DE
:1008300042F040024FF02043C3F8802014E010281B
:1008400009D14FF02042126E8B4B3F3B1A404FF0C4
:1008500020431A6608E0894A1268874B3F3B1A40DA
:100860004FF02043C3F88020704701460020102934
:1008700003D14FF02042506F02E0804A14321068DA
:10088000704718207D492031086000200906C1F812
:10089000A4004FF0FC30794928310860091D086038
:1008A000091D08607047016841F01001426841EA83
:1008B0004221826841EA4231704A20321160C168A7
:1008C0000968C268526841EA0221C268128941EA95
:1008D0000241C268127B41EA0261684A2832116013
:1008E000016909680269526841EA022102691289B4
:1008F00041EA02410269127B41EA02615F4A2C32FD
:100900001160416909684269526841EA02214269FD
:10091000128941EA02414269127B41EA02614FF0C9
:100920002042C2F8B0107047002101604160816030
:10093000FC21C2681160C2685160C2689160C268DF
:10094000D1600269116002695160026991600269B7
:10095000D1604269116042695160426991604269A7
:10096000D160704748B145492031096841F0040120
:100970004FF02042C2F8A01009E040492031096838
:100980003D4AD21E11404FF02042C2F8A0107047DD
:1009900010B5F2B1102807D14FF020435B6E0B4326
:1009A0004FF02044636632E0B0F5807F08D1334BCE
:1009B0001B1D1B680B434FF02044C4F8843026E015
:1009C0002E4B24331B680B434FF02044C4F8A43053
:1009D0001DE0102807D14FF020435B6E8B434FF092
:1009E0002044636613E0B0F5807F08D1234B1B1DC4
:1009F0001B688B434FF02044C4F8843007E01F4B42
:100A000024331B688B434FF02044C4F8A43010BD3E
:100A100010B5024600200023102A03D14FF02044D5
:100A2000636E09E0B2F5807F03D1144C241D236866
:100A300002E0124C2434236803EA01040CB10120C3
:100A400000E0002010BD102807D14FF02042526E68
:100A50008A434FF020435A6619E0B0F5807F0FD1EA
:100A6000064A121D12688A434FF02043C3F88420BF
:100A70000DE00000248C0008FEFF0F00800000A0A5
:100A8000234A12688A434FF02043C3F8A4207047DA
:100A900070B502460020002300240025102A03D14F
:100AA0004FF02046736E08E0B2F5807F03D1184EF8
:100AB000203E336801E0164E336803EA010403EA7E
:100AC000D10514B10DB1012000E0002070BD102847
:100AD00008D14FF02042526E22EAD1024FF020435B
:100AE0005A6614E0B0F5807F09D1094A203A1268AD
:100AF00022EAD1024FF02043C3F8842007E0044AE1
:100B0000126822EAD1024FF02043C3F8A4207047B4
:100B1000A40000A010B504469848844208D10121E1
:100B2000084600F086FB0021012000F082FB76E001
:100B30009348844208D10121022000F07AFB002171
:100B4000022000F076FB6AE08E48844208D1012141
:100B5000042000F06EFB0021042000F06AFB5EE040
:100B60008948844208D10121082000F062FB00215D
:100B7000082000F05EFB52E08448844208D1012145
:100B8000102000F056FB0021102000F052FB46E040
:100B90007F48844208D10121202000F04AFB002137
:100BA000202000F046FB3AE07A48844208D1012137
:100BB000402000F03EFB0021402000F03AFB2EE0F8
:100BC0007548844208D10121802000F032FB0021C9
:100BD000802000F02EFB22E07048844208D10121E1
:100BE000801500F026FB0021A01500F022FB16E086
:100BF0006B48844208D10121401500F01AFB002106
:100C0000601500F016FB0AE06648844207D1012116
:100C1000001500F00EFB0021201500F00AFB10BDAE
:100C2000F0B50A4600210023002400BF3DE0012565
:100C300005FA01F3156805EA03049C4234D10568FE
:100C40004F000326BE40B543056015794E00B54000
:100C50000668354305601579012D02D01579022DFE
:100C600016D185684F000326BE40B543856055798F
:100C70004E00B540866835438560456801268E4044
:100C8000B5434560456896798E40B6B235434560B8
:100C9000C5684F000326BE40B543C560D5794E00F8
:100CA000B540C6683543C560491C1029BFD3F0BDA7
:100CB0004FF6FF7101600021017141718171C171B5
:100CC000704708B54FF480320092009A0A430092B0
:100CD000009AC261C161009AC261C2690092C26990
:100CE000009208BD0246002013690B400BB10120A1
:100CF00000E0002070470146086980B27047024654
:100D0000002053690B400BB1012000E00020704728
:100D10000146486980B2704701837047418370473C
:100D20000AB1018300E04183704741617047426925
:100D30004A4042617047F0B5002300244D07ED0E94
:100D400002FA05F3CE1000F1200555F826504E07A3
:100D5000F70E0F26BE40B543CF1000F1200646F82F
:100D60002750CE1000F1200555F8265045EA03041F
:100D7000CE1000F1200545F82640F0BD00000240ED
:100D80000004024000080240000C02400010024033
:100D90000014024000180240001C024000200240E3
:100DA0000024024000280240F948006840F0010099
:100DB000F74908600020F64908310860F4480068E7
:100DC000F4490840F2490860F348091D0860F348F7
:100DD000EF4984310860F0481038091D0860EC487C
:100DE000006820F48020EA4908600020E8490C31BE
:100DF0000860E7498C31086070470021E44A921C82
:100E0000117011460870704710B50146002200238A
:100E100000204A11012A02D1DD4C236808E0022A91
:100E200003D1DB4C7034236802E0D94C743423685E
:100E300001F01F02012494401C400CB1012000E08D
:100E4000002010BD38B5002000900024002500BF10
:100E50003120FFF7D9FF05460098401C009000980C
:100E6000B0F5A04F01D0002DF2D03120FFF7CCFF1C
:100E700008B1012400E00024204638BD01460020CE
:100E8000C34A106820F0F80040EAC10010607047C3
:100E9000C349086070470021BD4A7032117011705B
:100EA000012802D004280AD104E00121B84A703296
:100EB000117005E00521B64A7032117000E000BFE4
:100EC00000BF7047B7490860704770B5049C41EA9D
:100ED00082150126C6EB530645EA0645054345EA59
:100EE0000465AB4E361D356070BDAD490866704770
:100EF000820142EA0172A64B84331A607047A84906
:100F00008866704710B5830143EA016343EA0273C0
:100F10009F4C8834236010BDA14908677047A049E1
:100F2000C864704702460020994B0833186820F0C7
:100F3000EC6042EA01031843954B08331860704790
:100F400002460020924B0833186820F0784042EAAD
:100F5000010318438E4B0833186070470146002088
:100F60008B4A0832106820F0030008431060704775
:100F700087480830006800F00C00704701460020E8
:100F8000834A0832106820F0F00008431060704770
:100F9000014600207E4A0832106820F4E0500843E1
:100FA0001060704701460020794A0832106820F42A
:100FB000604040EAC10010607047F0B50021002297
:100FC0000024022500260223714F08373F6807F0EE
:100FD0000C0121B1042905D0082937D105E0724F51
:100FE000076036E0714F076033E0694F3F1D3F688F
:100FF000C7F38056664F3F1D3F6807F03F036EB151
:101000006A4FB7FBF3F7DFF888C10CF1040CDCF88A
:1010100000C0CCF3881C07FB0CF40CE0624FB7FB5C
:10102000F3F7DFF86CC10CF1040CDCF800C0CCF372
:10103000881C07FB0CF4564F3F1D3F68C7F3014760
:101040007F1C7D00B4FBF5F7076002E0564F076098
:1010500000BF00BF4E4F08373F6807F0F001090995
:10106000534F7A5C0768D7404760494F08373F685D
:1010700007F4E051890A4E4F7A5C4768D740876091
:10108000434F08373F6807F46041490B484F7A5C8B
:101090004768D740C760F0BD002100F44072B2F548
:1010A000407F0AD13A4A0832116821F4F811414AC6
:1010B00002401143364A08321160354A70321268D4
:1010C000C0F30B031A43324B70331A607047354933
:1010D00044390860704733494039086070473649E1
:1010E0000860704701460020294A8C32106820F0C1
:1010F0001F004A1E1043264A8C321060704701467A
:101100000020234A8C32106820F4F8504A1E40EA2E
:1011100002201F4A8C3210607047014600201C4A92
:101120008C32106820F4401008431060704701466C
:101130000020174A8C32106820F4400008431060E9
:10114000704701460020124A8C32106820F440306B
:1011500008431060704719490860704739B10C4A5C
:101160003032126802430A4B30331A6006E0084AF4
:10117000303212688243064B30331A607047F9B13F
:10118000034A343212680243014B34331A601CE0C4
:1011900000380240FFFFF6EA103000240030002043
:1011A00000004742800E47420024F40000127A00FB
:1011B00014000020FFFCFF0F5C014742E011474292
:1011C0008F4A126882438E4B1A60704739B18C4A3D
:1011D000121D126802438A4B1B1D1A6006E0884AE2
:1011E000121D12688243864B1B1D1A60704739B16D
:1011F000834A0C3212680243814B0C331A6006E0BA
:101200007F4A0C32126882437D4B0C331A60704760
:1012100039B17B4A103212680243794B10331A609D
:1012200006E0774A103212688243754B10331A6019
:10123000704739B1724A243A12680243704B243B1A
:101240001A6006E06E4A243A126882436C4B243BD3
:101250001A60704739B16A4A203A12680243684BF3
:10126000203B1A6006E0664A203A12688243644BCB
:10127000203B1A60704739B1614A1C3A1268024338
:101280005F4B1C3B1A6006E05D4A1C3A12688243C1
:101290005B4B1C3B1A60704739B1594A143A1268CB
:1012A0000243574B143B1A6006E0554A143A126841
:1012B0008243534B143B1A60704739B1504A103A7D
:1012C000126802434E4B103B1A6006E04C4A103A3B
:1012D000126882434A4B103B1A60704739B1484A42
:1012E0001C3212680243464B1C331A6006E0444A23
:1012F0001C3212688243424B1C331A60704739B16A
:101300003F4A2032126802433D4B20331A6006E008
:101310003B4A203212688243394B20331A607047AF
:1013200039B1374A243212680243354B24331A60EC
:1013300006E0334A243212688243314B24331A6068
:10134000704739B12E4A2C32126802432C4B2C3391
:101350001A6006E02A4A2C3212688243284B2C334A
:101360001A60704739B1264A303212680243244B62
:1013700030331A6006E0224A303212688243204B32
:1013800030331A607047012808D11D493C31096883
:1013900041F008011A4A3C32116007E018493C311B
:1013A000096821F00801164A3C321160704739B1D2
:1013B000134A273A12780243114B273B1A7006E072
:1013C0000F4A273A127882430D4B273B1A70704719
:1013D0000B484030006840F0807009494031086097
:1013E000704701460020064A283A12680A400AB1AE
:1013F000012000E00020704701492639087070473D
:101400003438024010B50446FE48844208D1012118
:101410000846FFF752FF00210120FFF74EFF9DE035
:10142000B4F1804F08D101210846FFF735FF0021B4
:101430000120FFF731FF91E0F348844208D10121F8
:101440000220FFF729FF00210220FFF725FF85E09A
:10145000EE48844208D101210420FFF71DFF00213E
:101460000420FFF719FF79E0E948844208D10121FF
:101470000820FFF711FF00210820FFF70DFF6DE0A6
:10148000E448844208D101211020FFF705FF002124
:101490001020FFF701FF61E0DF48844208D10121FD
:1014A0002020FFF7F9FE00212020FFF7F5FE55E090
:1014B000DA48844208D101210220FFF7FEFE002114
:1014C0000220FFF7FAFE49E0D548844209D1012104
:1014D0000804FFF7F2FE00214FF48030FFF7EDFE25
:1014E0003CE0D048844209D101214804FFF7E5FEE1
:1014F00000214FF40030FFF7E0FE2FE0CA4884429D
:1015000009D101218804FFF7D8FE00214FF4802083
:10151000FFF7D3FE22E0C548844208D101214020D4
:10152000FFF7BAFE00214020FFF7B6FE16E0C048E4
:10153000844208D101218020FFF7AEFE00218020E7
:10154000FFF7AAFE0AE0BB48844207D101218015BB
:10155000FFF7A2FE0021A015FFF79EFE10BD00229E
:101560000288A84B98420ED0AC4B98420BD0B0F1F9
:10157000804F08D0A44B984205D0A44B984202D08B
:10158000A34B984204D14FF68F731A404B881A43ED
:10159000A04B984207D0A04B984204D04FF6FF438F
:1015A0001A400B891A4302804B68C3620B8803857B
:1015B000944B984202D0994B984201D18B7A038682
:1015C0000123838270474FF0FF3141600021018089
:1015D00001814180817270470185828270470A468D
:1015E000002101884FF68F73194011430180704725
:1015F00041627047C16270470146486A70470146C0
:10160000088D704721B1028842F00202028004E096
:1016100002884FF6FD731A400280704721B102889C
:1016200042F00402028004E002884FF6FB731A4085
:101630000280704721B1028842F08002028004E0FB
:1016400002884FF67F731A400280704702884FF677
:10165000F7731A40028002880A43028070470288AA
:101660004FF6FF431A40028002880A430280704707
:1016700021B1028842F00102028004E002884FF6A4
:10168000FE731A400280704770B5002400220023C8
:10169000058C4FF6FE7635400584028C8388048BDA
:1016A0004FF68F752C40B51E2C400D882C43751EAF
:1016B0002A408D892A434D882A43524DA84202D0A0
:1016C000564DA84213D14FF6F7752A40CD892A43CB
:1016D0004FF6FB752A408D882A434FF6FF652B4055
:1016E0004FF6FF552B400D8A2B434D8A2B438380A9
:1016F00004838D684563028470BD70B500240022A8
:101700000023058C4FF6EF7635400584028C8388E4
:10171000048B48F6FF752C404FF6FF452C400D8892
:101720004FF6FF7606EA05252C434FF6DF752A4073
:101730008D8906EA05152A434D8806EA05152A43D0
:10174000304DA84202D0354DA8421DD14FF67F75CD
:101750002A40CD894FF6FF7606EA05152A434FF653
:10176000BF752A408D8806EA05152A434FF6FF35D6
:101770002B404FF2FF752B400D8A06EA85052B435F
:101780004D8A06EA85052B43838004838D68856333
:10179000028470BD70B5002400220023058C4FF632
:1017A000FF6635400584028C8388848B4FF68F75E5
:1017B0002C404FF6FC752C400D882C434FF6FF55FE
:1017C0002A408D894FF6FF7606EA05252A434D8883
:1017D00006EA05252A430B4DA84202D00F4DA84228
:1017E00038D14FF2FF752A40CD894FF6FF7606EAD1
:1017F00005252A434FF6FF352A408D8806EA052540
:101800002A4319E0000001400004004000080040A5
:10181000000C004000100040001400400004014093
:1018200000400140004401400048014000180040D1
:10183000001C0040002000404EF6FF752B404DF686
:10184000FF752B400D8A06EA05152B434D8A06EAE3
:1018500005152B43838084838D68C563028470BD26
:1018600070B5002200230024058C4EF6FF7635402B
:101870000584038C8488828B48F6FF752A404FF6D6
:10188000FF452A400D884FF6FF7606EA05252A43D4
:101890004DF6FF752B408D8906EA05352B434D88A3
:1018A00006EA05352B43FE4DA84202D0FD4DA84265
:1018B00008D14BF6FF752C400D8A4FF6FF7606EAED
:1018C00085152C43848082838D680564038470BDF4
:1018D000002101804180818081608181C1810182FC
:1018E0004182704770B50346002000241846183026
:1018F00001258D40ACB21D8CA5431D8409B108297A
:101900000AD100EB610005684FF68F76354005601F
:101910000568154305600FE00D1FC5F34E0528440B
:10192000056848F6FF763540056005684FF6FF7696
:1019300006EA02263543056070BD41637047816346
:101940007047C1637047016470470A460021018BEC
:101950004FF68F7319401143018370470A460021E7
:10196000018B48F6FF7319404FF6FF7303EA022319
:101970001943018370470A460021818B4FF68F730C
:1019800019401143818370470A460021818B48F634
:10199000FF7319404FF6FF7303EA02231943818353
:1019A00070470A460021018B4FF6F7731940114327
:1019B000018370470A460021018B4FF2FF731940E3
:1019C0004FF6FF7303EA02231943018370470A4667
:1019D0000021818B4FF6F7731940114381837047C3
:1019E0000A460021818B4FF2FF7319404FF6FF73B7
:1019F00003EA02231943818370470A460021018BC1
:101A00004FF6FB7319401143018370470A460021CA
:101A1000018B4FF6FF3319404FF6FF7303EA0223A1
:101A20001943018370470A460021818B4FF6FB73EF
:101A300019401143818370470A460021818B4FF67C
:101A4000FF3319404FF6FF7303EA022319438183E2
:101A500070470A460021018B4FF67F7319401143EE
:101A6000018370470A460021018BC1F30E014FF636
:101A7000FF7303EA02231943018370470A460021DA
:101A8000818B4FF67F7319401143818370470A465B
:101A90000021818BC1F30E014FF6FF7303EA02238D
:101AA0001943818370470A460021018C4FF6FD736C
:101AB00019401143018470470A460021018C4FF6FA
:101AC000F77319401143018470470A460021018CC5
:101AD0004FF6DF7319404FF6FF7303EA0213194301
:101AE000018470470A460021018C4FF67F7319402C
:101AF0004FF6FF7303EA02131943018470470A4645
:101B00000021018C4FF6FF5319404FF6FF7303EA93
:101B100002231943018470470A460021018C4FF2C9
:101B2000FF7319404FF6FF7303EA02231943018440
:101B300070470A460021018C4DF6FF7319404FF69D
:101B4000FF7303EA023319430184704730B5002361
:101B500001248C40A3B2048C9C430484048C02FABC
:101B600001F5ADB22C43048430BD30B5002304240C
:101B70008C40A3B2048C9C430484048C02FA01F5CB
:101B8000ADB22C43048430BD828B4FF2FF331A4038
:101B90008283828B4FF6FF7303EA01231A43828309
:101BA0007047F0B50C461546002100220026078C30
:101BB0004EF6FF7C07EA0C070784818B028C4FF6F8
:101BC000FF7707EA043640F6FF4739404FF6FF77C4
:101BD00007EA052739434FF6FF7707EA033739430A
:101BE00045F6FF773A4046F480573A4381830284B2
:101BF000F0BD828B4FF6F3731A408283828B0A43C7
:101C000082837047F0B50C4615460021002200265D
:101C1000078C4FF6FF6C07EA0C070784818B028C58
:101C20004FF6FF7707EA04264FF60C7739404FF658
:101C3000FF7707EA03172F4339434FF2FF573A4024
:101C400046F480773A4381830284F0BD028B4FF2E1
:101C5000FF331A400283028B4FF6FF7303EA01231E
:101C60001A4302837047F0B50C4615460021002246
:101C70000026078C4FF6EF7C07EA0C070784018BE0
:101C8000028C4FF6FF7707EA041640F6FF4739400B
:101C90004FF6FF7707EA033739434FF6FF7703E044
:101CA000000001400004014007EA052739434FF6D0
:101CB0005F773A4046F010073A4301830284F0BD53
:101CC000028B4FF6F3731A400283028B0A4302839E
:101CD0007047F0B50C46154600210022068C4FF6E1
:101CE000FE773E400684018B028C4FF60C76314025
:101CF0007E1C06EA03162E4331434FF6F57632403A
:101D000044F00106324301830284F0BD70B50546FC
:101D10000C46208850B92389A28861882846FFF79D
:101D2000D8FFE1882846FFF7CBFF25E0208804286C
:101D30000AD12389A28861882846FFF794FFE188A9
:101D40002846FFF783FF17E0208808280AD1238957
:101D5000A28861882846FFF755FFE1882846FFF7EB
:101D600048FF09E02389A28861882846FFF719FF08
:101D7000E1882846FFF708FF70BD002101804180FF
:101D8000012181800021C180018170472DE9F0414E
:101D900005460C4600260127608808B9022600E0A7
:101DA0000026A088012801D1022700E00127208811
:101DB000A0B92389A28861882846FFF78AFFE188B5
:101DC0002846FFF77DFF23893A4631462846FFF72C
:101DD0004AFFE1882846FFF739FF13E02389A288EC
:101DE00061882846FFF73FFFE1882846FFF72EFF6E
:101DF00023893A4631462846FFF76BFFE18828469B
:101E0000FFF75EFFBDE8F0810146486B7047014671
:101E1000886B70470146C86B70470146086C704775
:101E20000A884B881A438B881A43CB881A430B893C
:101E30001A434B891A438B891A43A0F844207047F0
:101E40000021018041808180C180018141818181A7
:101E5000704731B1B0F8442042F40042A0F8442069
:101E600005E0B0F84420C2F30E02A0F84420704709
:101E700021B1828842F00402828004E082884FF619
:101E8000FB731A408280704721B1828842F00102C0
:101E9000828004E082884FF6FE731A408280704789
:101EA0001AB183890B43838102E083898B43838149
:101EB00070478182704702460020138A0B400BB1A5
:101EC000012000E000207047CA430282704730B50D
:101ED0000246002000230024158A05EA01039589A3
:101EE00005EA010413B10CB1012000E0002030BD6F
:101EF000CA430282704741EA0203A0F848307047A3
:101F00001AB183890B43838102E083898B438381E8
:101F1000704721B1828842F00802828004E0828802
:101F20004FF6F7731A408280704701894FF6F872B6
:101F30001140018170470A46002101894FF68F73D5
:101F4000194011430181704730B504460D462946BA
:101F50002046FFF7F0FF208940F00700208130BDC8
:101F60002DE9F04104460D4616461F46602D06D168
:101F70003B46012231462046FFF775FE05E03B4611
:101F8000012231462046FFF7A4FE29462046FFF7EE
:101F9000D2FF208940F007002081BDE8F08130B5F4
:101FA0000C4600210189C9B24FF6FF7505EA0325E9
:101FB000154325432943018130BD2DE9F0410546F4
:101FC0000E4617469846002443463A463146284670
:101FD000FFF7E5FF2C894FF6F870044044F0070442
:101FE0004FF68F70044044F070042C81BDE8F081FE
:101FF000F0B504460D4616461F463B463246294676
:102000002046FFF7CCFF208940F480402081F0BDBE
:1020100082884FF68F731A40828082880A438280BA
:10202000704702894FF6F8731A40028102890A4309
:102030000281704702894FF67F731A40028102893C
:102040000A4302817047F0B50C4615461E46002132
:10205000002200230189028B038C4FF6F877394068
:1020600021434FF6FC473A4040F201173A434FF6FE
:10207000DD773B404FF6FF7707EA06172F433B43D8
:10208000018102830384F0BD21B1828842F0800285
:10209000828004E082884FF67F731A408280704706
:1020A000A0F850107047000010B50446FA4884426A
:1020B00008D101211020FFF700F900211020FFF7BF
:1020C000FCF857E0F548844209D101214804FFF7A4
:1020D000E3F800214FF40030FFF7DEF84AE0F04863
:1020E000844209D101218804FFF7D6F800214FF47A
:1020F0008020FFF7D1F83DE0EA48844209D1012170
:10210000C804FFF7C9F800214FF40020FFF7C4F816
:1021100030E0E548844209D101210805FFF7BCF809
:1021200000214FF48010FFF7B7F823E0DF48844226
:1021300008D101212020FFF7C0F800212020FFF75F
:10214000BCF817E0DA48844209D101218807FFF77B
:10215000A3F800214FF08040FFF79EF80AE0D54831
:10216000844207D101214005FFF796F80021600560
:10217000FFF792F810BD2DE9FF4705460E460024F3
:10218000A14600BFA046B08900B100BF2C8A24F44C
:102190004054F08804432C82AC8941F20C608443A3
:1021A000B08831890843718908430443AC81AC8A03
:1021B00024F44074B0890443AC826846FEF7FDFE07
:1021C000B548854202D0B948854202D1DDF80C906D
:1021D00001E0DDF80890A88900F4004040B109EB67
:1021E000C90000EB091031684900B0FBF1F707E0C6
:1021F00009EBC90000EB091031688900B0FBF1F769
:102200006420B7FBF0F004012009642101FB107881
:10221000A88900F4004040B1322000EBC800B0FBB8
:10222000F1F000F00700044308E0322000EB081052
:102230006421B0FBF1F000F00F0004432C81BDE8F5
:10224000FF874FF41651016000218180C180018118
:102250000C21418100218181704710B50246002088
:10226000108A20F470600B884C8823438C882343A9
:10227000CC8823431843108210BD00210180418087
:102280008180C180704721B1828942F400528281ED
:1022900004E082894DF6FF731A4082817047028BF9
:1022A00002F47F420283028B0A430283704721B10A
:1022B000828942F40042828103E08289C2F30E02E5
:1022C0008281704721B1828A42F40062828204E0F6
:1022D000828A4FF2FF731A4082827047C1F308026C
:1022E0008280704701468888C0F308007047028AE0
:1022F0004FF6F0731A400282028A0A430282704744
:1023000021B1828942F00202828104E082894FF683
:10231000FD731A408281704782894FF2FF731A4021
:10232000828182890A4382817047028A4FF6DF7375
:102330001A400282028A0A430282704721B1028A4D
:1023400042F48042028204E0028A4BF6FF731A4094
:1023500002827047818941F001018181704721B17A
:10236000828A42F00802828204E0828A4FF6F77382
:102370001A4082827047028BD2B20283028B42EAF9
:1023800001220283704721B1828A42F020028282B8
:1023900004E0828A4FF6DF731A408282704721B1CF
:1023A000828A42F01002828204E0828A4FF6EF7342
:1023B0001A4082827047828A4FF6FB731A408282EB
:1023C000828A0A438282704721B1828A42F00202E5
:1023D000828204E0828A4FF6FD731A40828270473F
:1023E0001AB1838A0B43838202E0838A8B43838200
:1023F0007047F0B50346002400260025002040F673
:102400006A17B94200D100BF1846C1F3421401F067
:102410001F06012707FA06F5012C01D10C3004E054
:10242000022C01D1103000E014301AB107682F439C
:10243000076002E00768AF430760F0BD0246002076
:10244000B1F5007F00D100BF13880B400BB1012014
:1024500000E00020704701F40072B2F5007F00D167
:1024600000BFCA430280704770B5024600240023B3
:102470000025002040F66A16B14200D100BFC1F32A
:10248000421501F01F03012606FA03F3012D13D1B3
:102490009689334017E000000010014000440040DE
:1024A00000480040004C0040005000400014014033
:1024B00000780040007C0040022D02D1168A334093
:1024C00001E0968A33400C12012606FA04F41688BD
:1024D000344013B10CB1012000E0002070BD10B5F4
:1024E0000022002340F66A14A14200D100BF0A1264
:1024F00001249440A3B2DC43048010BD10B504460F
:102500006FF00400FEF704F8E11704EB5171C1F31A
:10251000C701394A11701046007800EB4001C1EB49
:10252000C0104FF6FF7101EAC0003449088010BDA9
:102530000146314A12784A434FF0E0235A610022A3
:102540009A611A46126942F001021A6100BF4FF007
:10255000E022106900F001021AB100F48032002A72
:10256000F5D04FF0E022126922F001024FF0E02393
:102570001A6100229A6170470146204A12884A4334
:102580004FF0E0235A6100229A611A46126942F024
:1025900001021A6100BF4FF0E022106900F0010251
:1025A0001AB100F48032002AF5D04FF0E02212690F
:1025B00022F001024FF0E0231A6100229A61704775
:1025C00070B504464FF4077094FBF0F0C6B24FF4B8
:1025D000077094FBF0F100FB114085B205E04FF469
:1025E0000770FFF7C9FF701EC6B2002EF7D115B1F4
:1025F0002846FFF7C1FF70BD240000202600002000
:102600007FB505460C4601212020FEF7F0FD02951E
:10261000ADF804400020ADF80600ADF80C0001A9AB
:10262000FE48FEF79CFF01221146FC48FFF738FCEC
:102630000121FA48FFF71CF837208DF8000003202D
:102640008DF801008DF8020001208DF80300684626
:10265000FDF711FF7FBD08B500212020FEF7C7FD63
:1026600000220121ED48FFF71BFC0021EB48FEF79B
:10267000FFFF37208DF8000003208DF801008DF852
:10268000020000208DF803006846FDF7F4FE08BD47
:1026900030B58BB005460C4601210820FEF75EFDE3
:1026A00001210420FEF7A3FD02220C21DC48FEF7E5
:1026B00042FB02220D21DA48FEF73DFB02208DF895
:1026C000280000208DF82A008DF82B0003208DF8BB
:1026D00029000003099009A9D148FEF7A1FAD148C1
:1026E000FEF790FECF48FEF78DFE0020ADF82000EB
:1026F000ADF81A000795A0B2ADF8180000208DF8CB
:10270000220006A9C748FEF72AFF06A9C548FEF71A
:1027100026FF6020ADF804000120ADF8060000207F
:10272000ADF81000039001A9BE48FEF7ADFF01A966
:10273000BC48FEF7E2FF0821BA48FFF732F908214A
:10274000B848FFF737F90121B648FEF773FF0121BA
:10275000B448FEF76FFF0121B248FEF789FF01215F
:10276000B048FEF785FF0BB030BD00B589B0012140
:102770000846FEF7F3FC01210846FEF738FD02206B
:102780008DF8200000208DF82200222007900020E4
:102790008DF8230003208DF8210007A9A248FEF739
:1027A0003FFA01221146A048FEF7C5FA0122052191
:1027B0009D48FEF7C0FA04A8FEF705FF0020ADF81B
:1027C0001800ADF812004FF6FF7005900020ADF82C
:1027D00010008DF81A0004A94FF08040FEF7BFFEEC
:1027E00001A8FFF7CAFA1020ADF80C0001A9800675
:1027F000FFF78CFA00231A4603214FF08040FFF7C1
:1028000022FC00214FF08040FEF7F2FE01218807F4
:10281000FFF75AFB012211469007FFF741FB012108
:102820008807FEF725FF09B000BD00B589B001217A
:102830000420FEF793FC01210220FEF7D8FC0220C1
:102840008DF8200000208DF82200C0200790002085
:102850008DF8230003208DF8210007A97348FEF7A7
:10286000DFF9022206217148FEF765FA02220721EC
:102870006E48FEF760FA04A8FEF7A5FE0020ADF84A
:102880001800ADF812004FF6FF7005900020ADF86B
:1028900010008DF81A0004A94FF08040FEF75FFE8B
:1028A00001A8FFF76AFA1020ADF80C0001A96048F2
:1028B000FFF72CFA00231A4603215D48FFF7C3FBFC
:1028C00000215B48FEF794FE01215948FFF7FCFA0E
:1028D000012211465648FFF7E3FA01215448FEF75A
:1028E000C7FE09B000BD10B501218807FFF7EFFA58
:1028F00018B101218807FFF7FBFA10BD10B50121BF
:102900004B48FFF7E4FA18B101214948FFF7F0FA04
:1029100010BD30B58BB004460D4601218020FEF776
:1029200066FC01212020FEF719FC092208214148FC
:10293000FEF701FA4FF48070099002208DF828000C
:1029400003208DF8290000208DF82A0001208DF841
:102950002B0009A93748FEF763F9681E80B2ADF86D
:1029600018000020ADF81A00601E07900020ADF896
:10297000200006A93048FEF7F2FD6020ADF8040003
:102980000120ADF806000020ADF8100001A92A488A
:10299000FEF77AFE08212848FFF703F801212648B0
:1029A000FEF748FE01212448FEF762FE0BB030BD61
:1029B00030B58BB004460D4601210802FEF717FC26
:1029C00001210846FEF7CAFB092207211648FEF737
:1029D000B2F98020099002208DF8280003208DF89C
:1029E000290000208DF82A0001208DF82B0009A96C
:1029F0000D48FEF715F9681E80B2ADF818000020EA
:102A0000ADF81A00601E07900020ADF8200006A95E
:102A10000A48FEF7A4FD602012E000000014004008
:102A2000000C024000080040000002400008024084
:102A30000004004000140240001C00400020004040
:102A4000ADF804000120ADF806000020ADF810003C
:102A500001A90848FEF718FE08210648FEF7A1FF65
:102A600001210448FEF7E6FD01210248FEF700FEC1
:102A70000BB030BD002000401CB501212020FEF726
:102A80006DFB01208DF8040000208DF806008DF804
:102A9000070003208DF805004FF40E600090694692
:102AA0007248FEF7BDF81CBD1CB501214020FEF7A1
:102AB00055FB00208DF804008DF806004FF44060AF
:102AC000009001208DF8070003208DF8050069466D
:102AD0006748FEF7A5F81CBD1CB501215F20FEF775
:102AE0003DFB00208DF804008DF806004FF4854072
:102AF000009000208DF8070003208DF8050069463E
:102B00005B48FEF78DF800208DF804008DF8060074
:102B10004FF40140009000208DF8070003208DF84D
:102B2000050069465348FEF77BF800208DF8040045
:102B30008DF80600E020009000208DF807000320AB
:102B40008DF8050069464C48FEF76AF800208DF8BC
:102B500004008DF806006020009000208DF807002A
:102B600003208DF8050069464448FEF759F8002017
:102B70008DF804008DF8060040F20120009000203E
:102B80008DF8070003208DF8050069463C48FEF7E4
:102B900047F800208DF804008DF806009020009082
:102BA00000208DF8070003208DF8050069463548A0
:102BB000FEF736F81CBD1CB501217420FEF7CEFAD5
:102BC00000208DF8040002208DF80700800300909B
:102BD00069462948FEF724F80520009069462348F5
:102BE000FEF71EF801208DF8040002208DF8050084
:102BF0001020009069461D48FEF712F84FF48440FB
:102C0000009069461F48FEF70BF81CBD1CB501215A
:102C10004820FEF7A3FA4020009001208DF8040020
:102C200003208DF8050000208DF8060001208DF8A6
:102C3000070069461348FDF7F3FF40211148FEF7EE
:102C40006BF84FF40040009000208DF80400032042
:102C50008DF8050000208DF8060001208DF8070092
:102C600069460348FDF7DCFF1CBD0000001402406C
:102C70000018024000000240000402400010024020
:102C800000080240000C024010B5FFF7F5FE2921B4
:102C90006320FFF7FDFC10BDF0EE400AF5EEC00A20
:102CA000F1EE10FA01DBB0EE600AF5EEC00AF1EECB
:102CB00010FA03D2B1EE601AB0EE410A7047B0EEDE
:102CC000401AB4EEE01AF1EE10FA02DBB0EE410A5F
:102CD0007047B4EEE01AF1EE10FA02D8B0EE600AD6
:102CE000F6E700BFF4E7B0EE401AB4EEE01AF1EEFA
:102CF00010FA02D8B0EE410A7047B4EEE01AF1EED5
:102D000010FA02DBB0EE600AF6E700BFF4E770B538
:102D1000552465421668864200DB106016688E42B4
:102D200000DA11601E68864200DB18601E688E4261
:102D300000DA196070BD00B5002806DD0122344BB1
:102D40001A600022334BC3F89C22002806DC0022C4
:102D50002F4B1A6001222F4BC3F89C22002907DD5C
:102D600001222B4B14331A6000222A4BC3F8942201
:102D7000002907DC0022264B14331A600122254B60
:102D8000C3F8942200EE100AB8EEC00AFFF784FFE1
:102D9000BCEEC00A10EE102A1F4B1A6000EE101A8B
:102DA000B8EEC00AFFF778FFBCEEC00A10EE102A9A
:102DB000194B1B1D1A6000BD10B500201449086096
:102DC0001449C1F89C02002113483438FEF7B5FDC0
:102DD00000200F49143108600E49C1F89402002107
:102DE0000D483438FEF7ABFD10BD10B56FF0220171
:102DF0002320FFF7A0FF6420FFF7E2FB10BD10B512
:102E000023214842FFF797FF6420FFF7D9FB10BD4D
:102E100098824242008042423408004010B5FFF7D9
:102E2000A4FCFFF702FD10BD0146B1F1804F09D1AE
:102E30004FF08040406A02B200204FF08043586259
:102E4000104670471348814209D112482430006867
:102E500002B200200F4B243318601046F1E7002027
:102E6000EFE710B501210C48FFF725F801280BD139
:102E70008007FFF7D9FF80B2084908600548FFF7CF
:102E8000D3FF80B20549486001210348FFF730F8BD
:102E900010BD000000040040001400402800002085
:102EA00010B50020FE490860FE49C1F8AC020120BF
:102EB000FD49087040F22551FC48FFF7D5FA00287B
:102EC0006ED0FA48FFF70EFAC4B2F948F94909780A
:102ED0004454F9480078FD2801D1FC2C03D0F54872
:102EE000007800281EDD0120F4490870F1480078C0
:102EF000401CF0490870EE484078402806D1EC4864
:102F00008078382802D10120ED490870E8484078DF
:102F100041280AD1E6488078302806D10120E949C5
:102F2000087002E00020E3490870E3480470E448B8
:102F30000078012815D1DF480078402811D1002001
:102F4000DC490870DE4908700120DF490860D84874
:102F500090F83F00FD2804D14022D549DB4804F019
:102F6000D3F9D8480078012815D1D24800783828FC
:102F700011D10020CF490870D24908700120D449EE
:102F80000860CB4890F83700FD2804D14022C8499A
:102F9000D04804F0B9F940F22551C448FFF79FFA30
:102FA00010BD704770B504460D461646002242EA31
:102FB000036242EA064242EA052222430021104609
:102FC00070BD2DE9F0472DED0C8B064688469146E5
:102FD0009A4600BF00BF00BF00BF00210C460D464F
:102FE0004FEA0A60044345EAE0754FEA09400443AA
:102FF00045EAE0754FEA0820044345EAE0753443AA
:103000004FF0004104EA01000021484049400843D4
:1030100002D04FF0FF3000E0012008EE900AE00DF2
:1030200040EA4520C0B27F21471AAB4904EA0102B9
:103030004FF00001104604F001FB00EE100A9FED76
:10304000A71AC0EE010AB7EE000A30EE809A3846A1
:1030500004F00AFB41EC1D0BB0EE4D1AF0EE6D1AB8
:103060009FED9F0B04F030FDB0EE40BAF0EE60BA79
:10307000B8EEE80A20EE090A10EE101A084604F02D
:103080002AFB53EC1B2B04F0F8F904F067FB08EE65
:10309000100AB0EE480ABDEC0C8BBDE8F087704713
:1030A00010B52DED048B8A480068012872D189483B
:1030B000407841286FD1874880783028FAD1854CF4
:1030C000A37A627A217AE079FFF77BFF864880ED68
:1030D000000AA37B627B217BE07AFFF772FF8248C4
:1030E00080ED010AA37C627C217CE07BFFF769FF15
:1030F0007D4880ED020AA37D627D217DE07CFFF7A3
:1031000060FF794880ED030AA37E627E217EE07D28
:10311000FFF757FF744880ED040AA37F627F217F89
:10312000E07EFFF74EFF704880ED050A00206F49F2
:10313000086023E06C4890ED050ADFED6D0A20EE93
:10314000200ADFED6C0A80EE201A6B486749096897
:1031500000EB810080ED001A64480068032802D16A
:10316000012066490860644890ED020A644880EDD9
:10317000000A5E480068401C5C4908605B480068C3
:10318000032803DC5D4800680028D3D0002057499D
:1031900008601BE008E104E1534890ED030ADFED0D
:1031A000590A20EE200A58485049096800EB81006E
:1031B00080ED000A4D480068032802D101205349E0
:1031C00008604A480068401C484908604748006851
:1031D000032803DC4D4800680028DDD04A4890ED04
:1031E000020A4B4880ED000A4A480068012829D1AC
:1031F000434890ED000ADFED480A30EE200A80EDEA
:10320000000A006804F067FA41EC180B9FED430BCD
:1032100053EC102B04F08AFA11D83948006804F0F6
:103220005AFA41EC190B9FED3D0B53EC102B04F0B7
:103230001EF941EC180B04F091FA314908600020A6
:103240003449086037480068012823D12C4890EDA4
:10325000000ADFED310A30EE600A80ED000A90EDE1
:10326000000AB5EEC00AF1EE10FA10D8006804F0BA
:1032700032FA41EC190B9FED290B53EC102B04F0A3
:1032800055F841EC180B04F069FA1D49086000205C
:10329000244908600F4C94F8223094F8212043E030
:1032A000B002404200004042300000200050004088
:1032B0001C0100206000002062000020610000204E
:1032C0006300002064000020340000205C01002026
:1032D000380000209C010020FFFF7F00FEFFFF4A16
:1032E0000000000000000040F0000020440000202A
:1032F00000003443DB0F4940D40100204C00002083
:103300003C00002000007A449C020020580000206D
:103310005C000020540000200000B442CDCCCCCC96
:10332000CC7C76405000002094F82010E07FFFF71E
:1033300048FEFE4880ED060A94F8263094F82520D1
:1033400094F8241094F82300FFF73BFEF74880ED33
:10335000070A94F82A3094F8292094F8281094F851
:103360002700FFF72EFEF14880ED080A94F82E3072
:1033700094F82D2094F82C1094F82B00FFF721FEE0
:10338000EA4880ED090A94F8323094F8312094F834
:10339000301094F82F00FFF705FEE4498862FFF72C
:1033A0007EFE0020E2490860E2480068012875D1ED
:1033B000E148407840286ED1DF48807838286AD1CB
:1033C000DD4CA37A627A217AE079FFF7FAFDDB48D7
:1033D00080ED000AA37B627B217BE07AFFF7F1FDA1
:1033E000D64880ED010AA37C627C217CE07BFFF75C
:1033F000E8FDD24880ED020AA37D627D217DE07C5C
:10340000FFF7DFFDCD4880ED030AA37E627E217EBB
:10341000E07DFFF7D6FDC94880ED040AA37F627FF7
:10342000217FE07EFFF7CDFDC44880ED050A94F8CA
:10343000223094F8212094F82010E07FFFF7C1FD9E
:10344000BE4880ED060A94F8263094F8252094F8BA
:10345000241094F82300FFF7B4FDB84880ED070A64
:1034600094F82A3094F8292094F8281094F827002A
:10347000FFF7A7FDB14880ED080A94F83A3094F8B8
:10348000392094F8381094F83700FFF78BFDAB49DA
:103490000863FFF786FD0020A64908600020BDEC08
:1034A000048B10BD10B52DED068BA04890ED050ADC
:1034B00010EE101A084604F00EF941EC1A0B9FEDBD
:1034C000A00B53EC102B03F0D8FF41EC190B9FED30
:1034D0009E0B53EC102B04F042F841EC180B04F057
:1034E0003DF900EE100ABDEC068B10BD8F4890ED43
:1034F000020A5FED810A60EE200A1FED821A80EE5B
:10350000810A7047894890ED030A5FED820A20EE38
:10351000200A704710B52DED068BB0EE408A18EEEC
:10352000100A04F0D8F841EC1A0BB0EE4A0AF0EE9B
:103530006A0AFFF7B1FB044604F096F841EC190B58
:103540009FED830B53EC102B04F0D8F803D89FEDBC
:10355000820AB0EE408A18EE100A04F0BCF841EC82
:10356000190B9FED7B0B53EC102B04F0DFF80AD204
:10357000B1EE040AB4EEC08AF1EE10FA03D8B0EE50
:10358000000AB0EE408AB1EE040AB4EEC08AF1EE51
:1035900010FA0ADDB2EE040AB4EEC08AF1EE10FAB7
:1035A00003D89FED6E0AB0EE408AB2EE040AB4EE84
:1035B000C08AF1EE10FA0ADDB2EE0E0AB4EEC08A4D
:1035C000F1EE10FA03D89FED660AB0EE408AB2EE33
:1035D0000E0AB4EEC08AF1EE10FA0ADDB3EE040A68
:1035E000B4EEC08AF1EE10FA03D89FED5E0AB0EE99
:1035F000408AB3EE040AB4EEC08AF1EE10FA0ADD96
:10360000B3EE090AB4EEC08AF1EE10FA03D89FEDCA
:10361000560AB0EE408AB3EE090AB4EEC08AF1EE63
:1036200010FA0ADD9FED510AB4EEC08AF1EE10FAED
:1036300003D8B1EE000AB0EE408AB9EE040AB4EE47
:10364000C08AF1EE10FA10DB18EE100A04F043F80D
:1036500041EC190B9FED460B53EC102B04F04EF888
:1036600003D2B8EE000AB0EE408ABAEE040AB4EE15
:10367000C08AF1EE10FA0ADBB9EE040AB4EEC08A91
:10368000F1EE10FA03D29FED3C0AB0EE408ABAEE9A
:103690000E0AB4EEC08AF1EE10FA0ADBBAEE040AA2
:1036A000B4EEC08AF1EE10FA03D29FED340AB0EE08
:1036B000408ABBEE040AB4EEC08AF1EE10FA0ADBCF
:1036C000BAEE0E0AB4EEC08AF1EE10FA03D29FED04
:1036D0002C0AB0EE408ABBEE090AB4EEC08AF1EEC5
:1036E00010FA0ADBBBEE040AB4EEC08AF1EE10FA5F
:1036F00003D29FED240AB0EE408ABBEE0E0AB4EE70
:10370000C08AF1EE10FA0ADB9FED1F0AB4EEC08A00
:10371000F1EE10FA03D8B9EE000AB0EE408A18EEC6
:10372000100A03F0D8FF41EC190B2FE0F000002045
:1037300038000020340000205C010020BC00002084
:10374000000000000080664000000060FB2109408E
:10375000333333333333D33F000000009A99194099
:1037600033333340CDCC4C4066666640000048425F
:10377000333333333333D3BF9A9919C0333333C020
:10378000CDCC4CC0666666C0000048C2B0EE490AA7
:10379000F0EE690AFFF780FA322803DD9FED040A94
:1037A000B0EE408AB0EE480ABDEC068B10BD0000BA
:1037B0000000C84310B540F2473140F2CF70FFF728
:1037C000A8F840F2473140F2CF70FFF7F1F810BD92
:1037D00010B5044621461C48FEF7AFF810BD10B5E1
:1037E000044621461948FEF7A8F810BD10B52DED86
:1037F000028BB0EE408AF0EE608A9FED150AC8EEAB
:10380000000A9FED141A9FED140A00EE810ABCEE27
:10381000C00A10EE100A84B22046FFF7E0FF9FEDC9
:103820000C0AC8EE800A9FED0B1A9FED0B0A00EE02
:10383000810ABCEEC00A10EE100A84B22046FFF7DF
:10384000C7FFBDEC028B10BD00200040001C0040F3
:1038500000003443000048430000484270B540F285
:1038600025514D48FEF700FE002819D040F22551A1
:103870004948FEF734FE4848FEF734FDC5B24748D4
:10388000007870B92C2D0CD10120444908704448AF
:1038900001780078401C424A1070424820F81150CC
:1038A00079E03E48007801280ED1122D0CD102207B
:1038B0003A4908703A4801780078401C384A10703C
:1038C000384820F8115066E034480078022823D1A7
:1038D000334801780078401C314A1070314820F894
:1038E0001150104600780A2801DA5B2D53D10320CD
:1038F0002A49087001202C49087029480078801E48
:10390000284911F81020294801780078401C274BDD
:103910001870274842543EE02048007803282BD1F5
:103920001F480078401E1F4931F810005B2813D152
:10393000002240F225511848FEF75BFD00201A498D
:1039400008701749087015490870012240F2255186
:103950001148FEF74EFD1EE0002010490870104986
:103960000870002405E000200E4921F81400601CB6
:10397000C4B20A2CF7DB0EE00020084908700849A1
:103980000870002405E00020064921F81400601C9E
:10399000C4B20A2CF7DB70BD001001409B00002070
:1039A0009A0000202C0400209C000020930000209E
:1039B0006600002070B5002640F225518348FEF7CE
:1039C00053FD00287AD08148FEF78CFCC4B28048B1
:1039D000007830B101281BD0022830D0032867D1ED
:1039E00040E0592C0ED17A480078401C7849087084
:1039F000784879490978445477480078401C7649DA
:103A0000087004E0002072490870734908704FE0A4
:103A1000592C0ED16E480078401C6D4908706D48D5
:103A20006D49097844546C480078401C6A49087014
:103A300004E00020664908706749087038E065486E
:103A400065490978445464480078401C624908700C
:103A500008460078082804D15D480078401C5C497D
:103A6000087025E0002608E05A48007A5949895D27
:103A7000084458490872701CC6B2082EF4DB554839
:103A8000007AA0420AD1534880785249C97840EA66
:103A90000125002D01DB642D00DD64254F480580E4
:103AA00000204B4908704C4908704A49087200BF11
:103AB00000BF40F225514548FEF711FD70BD70B5BD
:103AC0000026002540F225514548FEF7CDFC002890
:103AD0007AD04348FEF706FCC4B24248007830B1C1
:103AE00001281BD0022830D0032867D140E0592C90
:103AF0000ED13C480078401C3A4908703A483B498E
:103B00000978445439480078401C3849087004E06A
:103B1000002034490870354908704FE0592C0ED107
:103B200030480078401C2F4908702F482F490978E9
:103B300044542E480078401C2C49087004E00020B2
:103B4000284908702949087038E02748274909782A
:103B5000445426480078401C2449087008460078E0
:103B6000082804D11F480078401C1E49087025E031
:103B7000002608E01C48007A1B49895D08441A4960
:103B80000872701CC6B2082EF4DB1748007AA042F7
:103B90000AD1154880781449C97840EA0125002DDA
:103BA00001DB642D00DD64251148058000200D49EE
:103BB00008700E4908700C49087200BF00BF40F23F
:103BC00025510748FEF78BFC70BD0000004C0040FB
:103BD000AA00002040040020AB000020A600002026
:103BE00000440040AC00002049040020AD0000204B
:103BF000A800002001B5BDF800000090BDF800004D
:103C0000FE49088008BD01B5BDF800000090BDF870
:103C10000000FA49891C088008BD08B5F748801CD7
:103C200000880090BDF8000008BDF44A10804FF0F5
:103C3000D842A2F88010704710B504462046FFF71E
:103C4000D9FF0520FEF774FCFFF7E7FF10BDEC4835
:103C50000089EA4908807047E849891C0880704754
:103C600030B5014601F01F04C1F34513CA0AE5024D
:103C700005EB43151544A8B230BD00BF0100A0F10B
:103C80000102D0B2FAD1704710B502460C46DC48AA
:103C9000808841F66311884247D1D9488079A8B914
:103CA000D7480088401E801A82B2D5494889FFF75C
:103CB000A1FF0020FFF7A7FF0020FFF7A4FF1012CD
:103CC000FFF7A1FFD0B2FFF79EFF16E0CC4948896D
:103CD000FFF790FF1012FFF796FFD0B2FFF793FFA8
:103CE000C7490988491EC1F30F20FFF78CFFC4495B
:103CF0000978491EC8B2FFF786FFC1498889FFF7D6
:103D000079FF2012FFF77FFFE0B2FFF77CFFBC498D
:103D10004988491EC1F30F20FFF775FFB84989781C
:103D2000491EC8B2FFF76FFF3AE0B548808845F2F8
:103D30001051884220D1B2494889FFF75BFF101229
:103D4000FFF761FFAE494989491C88B2FFF752FF6E
:103D5000D0B2FFF758FFAA498889FFF74BFF20121E
:103D6000FFF751FFA6498989491C88B2FFF742FF36
:103D7000E0B2FFF748FF13E0A1494889FFF73AFF97
:103D80001012FFF740FFD0B2FFF73DFF9C49888932
:103D9000FFF730FF2012FFF736FFE0B2FFF733FFE7
:103DA00010BD2DE9F04105460E4600240027A0462F
:103DB00093480088A84203DD91484088B04202DC65
:103DC0000020BDE8F08131462846FFF75DFF8C48B2
:103DD000808845F21051884204D14FF43850FFF7E3
:103DE00009FF02E02E20FFF705FFFFF716FF04464C
:103DF0008348808841F66311884201D12046E0E77C
:103E0000FFF70BFF0446FFF708FF8046E7B24FF6C7
:103E1000FF7000EA0727E012C002B91240EA411021
:103E200040EAE820CDE700B57548808845F210519A
:103E3000884204D14FF42450FFF7DCFE02E0292031
:103E4000FFF7D8FE00BD00B56D48808845F21051DF
:103E5000884204D14FF42050FFF7CCFE02E0282026
:103E6000FFF7C8FE00BDF0B50546002400276448F2
:103E70008079012805D16248808841F66311884223
:103E800008D15F488079F0B95D48808841F66311B8
:103E9000884218D1082D15D2DFE805F00406080A7B
:103EA0000C0E101206250DE007250BE0042509E095
:103EB000052507E0012505E0002503E0032501E0D5
:103EC000022500BF00BF082D1CD2DFE805F0040664
:103ED000090C0F12151800BF14E044F0800411E023
:103EE00044F040040EE044F0C0040BE044F0200431
:103EF00008E044F0600405E044F0A00402E044F06F
:103F0000E00400BF00BF3E48808845F2105188425F
:103F100002D14FF4585700E036273948808849F2DB
:103F20004131884205D03648808847F289718842FD
:103F300001D144F0080421463846FFF776FE3048A8
:103F4000808841F6631188421DD004F0200068B1DA
:103F50002B4800882A494988884214DA284806886C
:103F6000408827490880084646800CE0244800889D
:103F700023494988884206DD21480688408820492F
:103F80000880084646801E48808845F210518842C5
:103F900057D11B494889FFF72DFE0020FFF733FE5C
:103FA00017494989491C88B2FFF724FE0020FFF712
:103FB0002AFE13494989891C88B2FFF71BFE104964
:103FC0000988491EC1F30F20FFF71DFE0C494989DE
:103FD000C91C88B2FFF70EFE09490978491EC8B20C
:103FE000FFF711FE06498889FFF704FE0020FFF75E
:103FF0000AFE03498989491C88B203E07E00006CEF
:1040000052040020FFF7F6FD0020FFF7FCFDFE49FB
:104010008989891C88B2FFF7EDFDFB494988491E53
:10402000C1F30F20FFF7EFFDF7498989C91C88B25A
:10403000FFF7E0FDF4498978491EC8B2FFF7E3FDB8
:104040002DE0F1494889FFF7D5FD0020FFF7DBFDA2
:104050000020FFF7D8FDEC490988491EC1F30F2065
:10406000FFF7D1FDE8490978491EC8B2FFF7CBFD3B
:10407000E5498889FFF7BEFD0020FFF7C4FD002059
:10408000FFF7C1FDE0494988491EC1F30F20FFF742
:10409000BAFDDD498978491EC8B2FFF7B4FDF0BD0D
:1040A00030B504460D4629462046FFF7EDFDFFF7E3
:1040B000CEFDD6480088D649088030BD30B50446CC
:1040C0000D46D148808845F21051884220D1CE4912
:1040D0004889FFF78FFD2012FFF795FDCA494989EE
:1040E000491C88B2FFF786FDE0B2FFF78CFDC64998
:1040F0008889FFF77FFD2812FFF785FDC24989896E
:10410000491C88B2FFF776FDE8B2FFF77CFD42E07C
:10411000BD48808841F66311884228D1BA48807929
:1041200020B9B9480088401E001B84B2B6494889AE
:10413000FFF760FD2012FFF766FDE0B2FFF763FDB9
:104140002012FFF760FDE0B2FFF75DFDAE49888900
:10415000FFF750FD2812FFF756FDE8B2FFF753FDB9
:104160002812FFF750FDE8B2FFF74DFD13E0A64916
:104170004889FFF73FFD2012FFF745FDE0B2FFF74A
:1041800042FDA1498889FFF735FD2812FFF73BFD65
:10419000E8B2FFF738FD9C4800899D49891E0880D8
:1041A0004FF0D840A0F8802030BD70B52DED048BC5
:1041B0000446BE20FFF71EFD0520FFF724FD204624
:1041C00003F063FA41EC190B9FED920B53EC102BAB
:1041D00003F053F941EC180B03F064FA85B228465A
:1041E000FFF711FD0120FFF70EFDFF20FFF70BFD8C
:1041F0000020FFF708FD0020FFF705FDBDEC048B54
:1042000070BD10B5044680488471002C45D1F02063
:104210007D4908804FF4A07048800846808845F2A8
:104220001051884210D14FF43050774908814FF433
:10423000285048814FF42C5088814FF4F07008804A
:104240004FF4487048801AE06F48808841F6631147
:1042500088420DD12C206C4908812B2048812A20CE
:1042600088814FF4F07008804FF44870488006E071
:104270002C20654908812A2048812B2088816248AA
:10428000808845F2103188424CD14FF4A0705E49CD
:1042900008804FF4F070488044E04FF4A0705A4911
:1042A0000880F02048800846808845F210518842F6
:1042B00010D14FF43050544908814FF428504881B0
:1042C0004FF42C5088814FF4487008804FF4F07000
:1042D00048801AE04C48808841F6631188420DD12D
:1042E0002C20494908812A2048812B2088814FF4BD
:1042F000487008804FF4F070488006E02C20424956
:1043000008812A2048812B2088813F48808845F2F7
:104310001031884206D14FF4F0703B4908804FF4C9
:10432000A07048800020FFF79EFD10BD2DE9F041F0
:1043300004460D461E46A018401E87B2A819401E0E
:104340001FFA80F83048808841F66311884231D1E5
:104350002D48807901282DD02B480088801A001B19
:1043600084B2A819401E86B227494889FFF742FC4B
:104370002012FFF748FCE0B2FFF745FCA118491EE8
:10438000C1F30F20FFF73FFCA118491EC8B2FFF789
:104390003AFC1D498889FFF72DFC2812FFF733FCF2
:1043A000E8B2FFF730FC3012FFF72DFCF0B2FFF758
:1043B0002AFC79E01448808845F21051884251D196
:1043C00011494889FFF716FC2012FFF71CFC0E4923
:1043D0004989491C88B2FFF70DFCE0B2FFF713FCD6
:1043E00009494989891C88B2FFF704FC3812FFF794
:1043F0000AFC05494989C91C88B2FFF7FBFBF8B2E2
:10440000FFF701FC004909E052040020AE00002043
:104410008000006C66666666666604408889FFF701
:10442000E9FB2812FFF7EFFBFD498989491C88B297
:10443000FFF7E0FBE8B2FFF7E6FBF9498989891C41
:1044400088B2FFF7D7FB4FEA2820FFF7DCFBF449DF
:104450008989C91C88B2FFF7CDFB08F0FF00FFF780
:10446000D2FB21E0EE494889FFF7C4FB2012FFF799
:10447000CAFBE0B2FFF7C7FB3812FFF7C4FBF8B284
:10448000FFF7C1FBE6498889FFF7B4FB2812FFF765
:10449000BAFBE8B2FFF7B7FB4FEA2820FFF7B3FB00
:1044A00008F0FF00FFF7AFFBBDE8F08170B50446F0
:1044B0000026DB4805884088454300210846FFF771
:1044C000E3FBFFF7C4FB00BF02E0D6480480761C84
:1044D000AE42FAD370BD00B5A1B0002020900121FA
:1044E0007A20FCF73BFE01210846FCF76FFE4FF4F3
:1044F00000401E9001208DF87C0000208DF87E0089
:1045000002208DF87D0001208DF87F001EA9C6488D
:10451000FCF786FB4CF233701E9002208DF87C0075
:1045200000208DF87E0003208DF87D0001208DF89D
:104530007F001EA9BD48FCF773FB4FF680701E90EC
:1045400002208DF87C0000208DF87E0003208DF87D
:104550007D0001208DF87F001EA9B548FCF760FBA7
:104560004FF480501E9002208DF87C0000208DF8C2
:104570007E0003208DF87D0001208DF87F001EA9AC
:10458000AC48FCF74DFB4FF480501E9002208DF894
:104590007C0000208DF87E0003208DF87D00012036
:1045A0008DF87F001EA9A448FCF73AFB0C220021DD
:1045B0009E48FCF7C0FB0C2201219C48FCF7BBFB8A
:1045C0000C2204219948FCF7B6FB0C2205219748E0
:1045D000FCF7B1FB0C2208219448FCF7ACFB0C2241
:1045E00009219248FCF7A7FB0C220A218F48FCF70F
:1045F000A2FB0C220E218D48FCF79DFB0C220F2103
:104600008A48FCF798FB0C2207218948FCF793FBAA
:104610000C2208218648FCF78EFB0C2209218448D5
:10462000FCF789FB0C220A218148FCF784FB0C2251
:104630000B217F48FCF77FFB0C2211467C48FCF7DE
:104640007AFB0C220D217A48FCF775FB0C220E2117
:104650007748FCF770FB0C220F217548FCF76BFBC9
:104660000C2211467348FCF766FB0C221146724877
:10467000FCF761FB0F200890002009903C200A9075
:1046800000200B900C900D900E90092001900020BE
:104690000290082003900020049005900690079057
:1046A00006200F90002010901190102012900020F2
:1046B000139015901490169017904FF48050189006
:1046C000002019904FF480401A9000201B9008A8F9
:1046D0001C9001A81D900FA8FBF753FF0121062095
:1046E000FBF7DAFF3220FDF76BFFD320FFF782FAEA
:1046F000FFF793FA4A498880FFF78FFA4849888084
:10470000FFF78BFA46498880084680884FF6FF718C
:1047100001EA002042498880FFF77FFA40498988F2
:1047200008433F4988800846808849F241318842E1
:1047300075D00420FFF75EFAFFF76FFA38498880DA
:10474000FFF76BFA36498880FFF767FA34498880AB
:10475000084680884FF6FF7101EA002030498880C2
:10476000FFF75BFA2E49898808432D49888008465F
:10477000808848F25251884203D147F28970284913
:1047800088802748808847F289718842D0D0D42019
:10479000FFF730FAFFF741FA21498880FFF73DFA29
:1047A0001F498880FFF739FA1D49888008468088AC
:1047B0004FF6FF7101EA002019498880FFF72DFAB2
:1047C000174989880843164988800846808845F239
:1047D0001031884279D055214FF47040FFF725FA07
:1047E000AA214FF20100FFF720FA52214FF20200F6
:1047F000FFF71BFA08214FF20300FFF716FA012119
:104800004FF20400FFF711FA4FF44540FFF7F2F9B9
:10481000FFF703FA02498880084680880EE054E0DA
:10482000520400208000006C00040240000C024092
:104830000010024000140240001802404FF6FF71C1
:1048400001EA0020FE4988804CF20150FFF7D2F9BE
:10485000FFF7E3F9FA4989880843F9498880052078
:10486000FDF7AEFEF6488088B0F5004F03D145F263
:104870001050F3498880F248808845F210518842F0
:1048800023D0A120FFF7B6F9FFF7C7F9EC498880DC
:10489000FFF7C3F9EA498880084680884FF6FF7120
:1048A00001EA0020E6498880FFF7B7F9E4498988E2
:1048B0000843E34988800846808845F26171884250
:1048C00003D141F66310DE498880DD48808849F2D3
:1048D0004131884217D0DA48808847F2897188428E
:1048E00011D0D748808845F2103188420BD0D44887
:1048F000808845F21051884205D0D148808841F621
:10490000631188422CD1CF48006820F00F004FF08F
:104910002041C1F81C010846D0F81C0120F4706049
:10492000C1F81C010846D0F81C0140F00400C1F891
:104930001C01C348808847F28971884208D1C14868
:10494000006840F480604FF02041C1F81C0107E08E
:10495000BC48006840F480604FF02041C1F81C0161
:10496000B7488188B8A003F087F8B548808849F235
:10497000413188427ED1CF20FFF73CF90020FFF77C
:1049800042F9C120FFF73FF93020FFF73CF9ED2055
:10499000FFF730F96420FFF736F90320FFF733F90A
:1049A0001220FFF730F98120FFF72DF9E820FFF7FB
:1049B00021F98520FFF727F91020FFF724F97A2045
:1049C000FFF721F9CB20FFF715F93920FFF71BF985
:1049D0002C20FFF718F90020FFF715F93420FFF716
:1049E00012F90220FFF70FF9F720FFF703F9202053
:1049F000FFF709F9EA20FFF7FDF80020FFF703F9B8
:104A00000020FFF700F9C020FFF7F4F81B20FFF7A4
:104A1000FAF8C120FFF7EEF80120FFF7F4F8C520FF
:104A2000FFF7E8F83020FFF7EEF83020FFF7EBF85B
:104A3000C720FFF7DFF8B720FFF7E5F83620FFF7CC
:104A4000D9F84820FFF7DFF83A20FFF7D3F85520D0
:104A5000FFF7D9F8B120FFF7CDF80020FFF7D3F822
:104A60001A20FFF7D0F8B620FFF7C4F80A20FFF7A6
:104A7000CAF800E097E0A220FFF7C5F8F220FFF7A0
:104A8000B9F80020FFF7BFF82620FFF7B3F80120A0
:104A9000FFF7B9F8E020FFF7ADF80F20FFF7B3F804
:104AA0002A20FFF7B0F82820FFF7ADF80820FFF71D
:104AB000AAF80E20FFF7A7F80820FFF7A4F8542063
:104AC000FFF7A1F8A920FFF79EF84320FFF79BF816
:104AD0000A20FFF798F80F20FFF795F80020FFF75E
:104AE00092F80020FFF78FF80020FFF78CF80020E5
:104AF000FFF789F8E120FFF77DF80020FFF783F842
:104B00001520FFF780F81720FFF77DF80720FFF743
:104B10007AF81120FFF777F80620FFF774F82B20BA
:104B2000FFF771F85620FFF76EF83C20FFF76BF89F
:104B30000520FFF768F81020FFF765F80F20FFF752
:104B400062F83F20FFF75FF83F20FFF75CF80F2087
:104B5000FFF759F82B20FFF74DF80020FFF753F827
:104B60000020FFF750F80120FFF74DF83F20FFF736
:104B70004AF82A20FFF73EF80020FFF744F800200B
:104B8000FFF741F80020FFF73EF8EF20FFF73BF872
:104B90001120FFF72FF87820FDF712FD2920FFF7ED
:104BA00029F802F0B3B82648808847F28971884214
:104BB0007DD11120FFF71EF87820FDF701FD36208A
:104BC000FFF718F80020FFF71EF83A20FFF712F859
:104BD0000520FFF718F8B220FFF70CF80C20FFF7BC
:104BE00012F80C20FFF70FF80020FFF70CF8332025
:104BF000FFF709F83320FFF706F8B720FEF7FAFFB2
:104C00003520FFF700F8BB20FEF7F4FF3220FEF757
:104C1000FAFFC020FEF7EEFF0C20FEF7F4FFC220E3
:104C2000FEF7E8FF0120FEF7EEFFC320FEF7E2FFEC
:104C30001020FEF7E8FFC420FEF7DCFF20200BE089
:104C4000520400201C0100A0204C43442049443A57
:104C500025780D0A00000000FEF7D5FFC620FEF7FC
:104C6000C9FF0F20FEF7CFFFD020FEF7C3FFA4201F
:104C7000FEF7C9FFA120FEF7C6FFE020FEF7BAFF4E
:104C8000D020FEF7C0FF0020FEF7BDFF0220FEF798
:104C9000BAFF0720FEF7B7FF0A20FEF7B4FF28206F
:104CA000FEF7B1FF3220FEF7AEFF442000E062E0E5
:104CB000FEF7A9FF4220FEF7A6FF0620FEF7A3FF9E
:104CC0000E20FEF7A0FF1220FEF79DFF1420FEF736
:104CD0009AFF1720FEF797FFE120FEF78BFFD02009
:104CE000FEF791FF0020FEF78EFF0220FEF78BFFFC
:104CF0000720FEF788FF0A20FEF785FF2820FEF731
:104D000082FF3120FEF77FFF5420FEF77CFF472013
:104D1000FEF779FF0E20FEF776FF1C20FEF773FFEB
:104D20001720FEF770FF1B20FEF76DFF1E20FEF719
:104D30006AFF2A20FEF75EFF0020FEF764FF0020D6
:104D4000FEF761FF0020FEF75EFFEF20FEF75BFF3E
:104D50002B20FEF74FFF0020FEF755FF0020FEF747
:104D600052FF0120FEF74FFF3F20FEF74CFF2920A6
:104D7000FEF740FF15E7FE48808845F21031884273
:104D800040F07C87ED20FEF735FF0120FEF73BFF6A
:104D9000FE20FEF738FFEE20FEF72CFFDE20FEF7A8
:104DA00032FF2120FEF72FFFF120FEF723FF012025
:104DB000FEF729FFDF20FEF71DFF1020FEF723FF7F
:104DC000C420FEF717FF8F20FEF71DFFC620FEF759
:104DD00011FF0020FEF717FFE220FEF714FFE2208C
:104DE000FEF711FFE220FEF70EFFBF20FEF702FFE5
:104DF000AA20FEF708FFB020FEF7FCFE0D20FEF70C
:104E000002FF0020FEF7FFFE0D20FEF7FCFE002053
:104E1000FEF7F9FE1120FEF7F6FE0020FEF7F3FE86
:104E20001920FEF7F0FE0020FEF7EDFE2120FEF730
:104E3000EAFE0020FEF7E7FE2D20FEF7E4FE00204C
:104E4000FEF7E1FE3D20FEF7DEFE0020FEF7DBFE72
:104E50005D20FEF7D8FE0020FEF7D5FE5D20FEF7B0
:104E6000D2FE0020FEF7CFFEB120FEF7C3FE802069
:104E7000FEF7C9FE0020FEF7C6FE8B20FEF7C3FE3C
:104E80000020FEF7C0FE9620FEF7BDFE0020FEF7D4
:104E9000BAFEB220FEF7AEFE0020FEF7B4FE002000
:104EA000FEF7B1FE0220FEF7AEFE0020FEF7ABFEDD
:104EB0000320FEF7A8FE0020FEF7A5FEB320FEF7B4
:104EC00099FE0020FEF79FFE0020FEF79CFE0020CA
:104ED000FEF799FE0020FEF796FE0020FEF793FEF7
:104EE0000020FEF790FE0020FEF78DFE0020FEF76A
:104EF0008AFE0020FEF787FE0020FEF784FE0020D9
:104F0000FEF781FE0020FEF77EFE0020FEF77BFE0E
:104F10000020FEF778FE0020FEF775FE0020FEF769
:104F200072FE0020FEF76FFE0020FEF76CFE0020F0
:104F3000FEF769FE0020FEF766FE0020FEF763FE26
:104F40000020FEF760FE0020FEF75DFE0020FEF769
:104F50005AFEB420FEF74EFE8B20FEF754FE0020D2
:104F6000FEF751FE9620FEF74EFE0020FEF74BFEA8
:104F7000A120FEF748FE0020FEF745FEB520FEF713
:104F800039FE0220FEF73FFE0020FEF73CFE032024
:104F9000FEF739FE0020FEF736FE0420FEF733FE52
:104FA0000020FEF730FEB620FEF724FE0020FEF7BC
:104FB0002AFE0020FEF727FEB720FEF71BFE00208A
:104FC000FEF721FE0020FEF71EFE3F20FEF71BFE2F
:104FD0000020FEF718FE5E20FEF715FE0020FEF70B
:104FE00012FE6420FEF70FFE0020FEF70CFE8C2060
:104FF000FEF709FE0020FEF706FEAC20FEF703FEDA
:105000000020FEF700FEDC20FEF7FDFD0020FEF78D
:10501000FAFD7020FEF7F7FD0020FEF7F4FD90206A
:10502000FEF7F1FD0020FEF7EEFDEB20FEF7EBFDB5
:105030000020FEF7E8FDDC20FEF7E5FD0020FEF78E
:10504000E2FDB820FEF7D6FD0020FEF7DCFD0020D3
:10505000FEF7D9FD0020FEF7D6FD0020FEF7D3FDB8
:105060000020FEF7D0FD0020FEF7CDFD0020FEF76A
:10507000CAFD0020FEF7C7FDBA20FEF7BBFD2420C5
:10508000FEF7C1FD0020FEF7BEFD0020FEF7BBFDD0
:105090000020FEF7B8FDC120FEF7ACFD2020FEF792
:1050A000B2FD0020FEF7AFFD5420FEF7ACFD00205E
:1050B000FEF7A9FDFF20FEF7A6FD0020FEF7A3FDE9
:1050C000C220FEF797FD0A20FEF79DFD0020FEF7A7
:1050D0009AFD0420FEF797FD0020FEF794FDC32003
:1050E000FEF788FD3C20FEF78EFD0020FEF78BFDCD
:1050F0003A20FEF788FD0020FEF785FD3920FEF7F7
:1051000082FD0020FEF77FFD3720FEF77CFD0020AA
:10511000FEF779FD3C20FEF776FD0020FEF773FDDB
:105120003620FEF770FD0020FEF76DFD3220FEF701
:105130006AFD0020FEF767FD2F20FEF764FD0020CA
:10514000FEF761FD2C20FEF75EFD0020FEF75BFD03
:105150002920FEF758FD0020FEF755FD2620FEF71A
:1051600052FD0020FEF74FFD2420FEF74CFD01E02C
:10517000520400200020FEF746FD2420FEF743FDE8
:105180000020FEF740FD2320FEF73DFD0020FEF746
:105190003AFD3C20FEF737FD0020FEF734FD3620B7
:1051A000FEF731FD0020FEF72EFD3220FEF72BFD2D
:1051B0000020FEF728FD2F20FEF725FD0020FEF73A
:1051C00022FD2C20FEF71FFD0020FEF71CFD2920EC
:1051D000FEF719FD0020FEF716FD2620FEF713FD51
:1051E0000020FEF710FD2420FEF70DFD0020FEF745
:1051F0000AFD2420FEF707FD0020FEF704FD232012
:10520000FEF701FD0020FEF7FEFCC420FEF7F2FCD5
:105210006220FEF7F8FC0020FEF7F5FC0520FEF703
:10522000F2FC0020FEF7EFFC8420FEF7ECFC0020EF
:10523000FEF7E9FCF020FEF7E6FC0020FEF7E3FCB9
:105240001820FEF7E0FC0020FEF7DDFCA420FEF7AE
:10525000DAFC0020FEF7D7FC1820FEF7D4FC002073
:10526000FEF7D1FC5020FEF7CEFC0020FEF7CBFC71
:105270000C20FEF7C8FC0020FEF7C5FC1720FEF747
:10528000C2FC0020FEF7BFFC9520FEF7BCFC00200E
:10529000FEF7B9FCF320FEF7B6FC0020FEF7B3FCE6
:1052A000E620FEF7B0FC0020FEF7ADFCC520FEF7BF
:1052B000A1FC3220FEF7A7FC0020FEF7A4FC44204E
:1052C000FEF7A1FC0020FEF79EFC6520FEF79BFC8C
:1052D0000020FEF798FC7620FEF795FC0020FEF7F4
:1052E00092FC8820FEF78FFC0020FEF78CFCC62085
:1052F000FEF780FC2020FEF786FC0020FEF783FCF2
:105300001720FEF780FC0020FEF77DFC0120FEF751
:105310007AFC0020FEF777FCC720FEF76BFC00202C
:10532000FEF771FC0020FEF76EFC0020FEF76BFC20
:105330000020FEF768FCC820FEF75CFC0020FEF7AA
:1053400062FC0020FEF75FFC0020FEF75CFC002002
:10535000FEF759FCC920FEF74DFC0020FEF753FC78
:105360000020FEF750FC0020FEF74DFC0020FEF769
:105370004AFC0020FEF747FC0020FEF744FC00201A
:10538000FEF741FC0020FEF73EFC0020FEF73BFC50
:105390000020FEF738FC0020FEF735FC0020FEF769
:1053A00032FC0020FEF72FFC0020FEF72CFC002032
:1053B000FEF729FC0020FEF726FCE020FEF71AFC91
:1053C0001620FEF720FC0020FEF71DFC1C20FEF737
:1053D0001AFC0020FEF717FC2120FEF714FC002029
:1053E000FEF711FC3620FEF70EFC0020FEF70BFC4A
:1053F0004620FEF708FC0020FEF705FC5220FEF7D1
:1054000002FC0020FEF7FFFB6420FEF7FCFB0020FF
:10541000FEF7F9FB7A20FEF7F6FB0020FEF7F3FB20
:105420008B20FEF7F0FB0020FEF7EDFB9920FEF746
:10543000EAFB0020FEF7E7FBA820FEF7E4FB0020D4
:10544000FEF7E1FBB920FEF7DEFB0020FEF7DBFBF9
:10545000C420FEF7D8FB0020FEF7D5FBCA20FEF7DC
:10546000D2FB0020FEF7CFFBD220FEF7CCFB0020C2
:10547000FEF7C9FBD920FEF7C6FB0020FEF7C3FBF1
:10548000E020FEF7C0FB0020FEF7BDFBF320FEF797
:10549000BAFB0020FEF7B7FBE120FEF7ABFB1620BE
:1054A000FEF7B1FB0020FEF7AEFB1C20FEF7ABFBC6
:1054B0000020FEF7A8FB2220FEF7A5FB0020FEF748
:1054C000A2FB3620FEF79FFB0020FEF79CFB452049
:1054D000FEF799FB0020FEF796FB5220FEF793FBA8
:1054E0000020FEF790FB6420FEF78DFB0020FEF706
:1054F0008AFB7A20FEF787FB0020FEF784FB8B20D7
:10550000FEF781FB0020FEF77EFB9920FEF77BFB78
:105510000020FEF778FBA820FEF775FB0020FEF7C1
:1055200072FBB920FEF76FFB0020FEF76CFBC42076
:10553000FEF769FB0020FEF766FBCA20FEF763FB5F
:105540000020FEF760FBD220FEF75DFB0020FEF797
:105550005AFBD820FEF757FB0020FEF754FBE02053
:10556000FEF751FB0020FEF74EFBF320FEF74BFB4E
:105570000020FEF748FBE220FEF73CFB0520FEF78B
:1055800042FB0020FEF73FFB0B20FEF73CFB002018
:10559000FEF739FB1B20FEF736FB0020FEF733FB3E
:1055A0003420FEF730FB0020FEF72DFB4420FEF7F1
:1055B0002AFB0020FEF727FB4F20FEF724FB0020EC
:1055C000FEF721FB6120FEF71EFB0020FEF71BFB10
:1055D0007920FEF718FB0020FEF715FB8820FEF768
:1055E00012FB0020FEF70FFB9720FEF70CFB0020BC
:1055F000FEF709FBA620FEF706FB0020FEF703FBE3
:10560000B720FEF700FB0020FEF7FDFAC220FEF7F0
:10561000FAFA0020FEF7F7FAC720FEF7F4FA0020A6
:10562000FEF7F1FAD120FEF7EEFA0020FEF7EBFAD2
:10563000D620FEF7E8FA0020FEF7E5FADD20FEF7B7
:10564000E2FA0020FEF7DFFAF320FEF7DCFA002092
:10565000FEF7D9FAE320FEF7CDFA0520FEF7D3FADC
:105660000020FEF7D0FA0A20FEF7CDFA0020FEF760
:10567000CAFA1C20FEF7C7FA0020FEF7C4FA33204E
:10568000FEF7C1FA0020FEF7BEFA4420FEF7BBFA8F
:105690000020FEF7B8FA5020FEF7B5FA0020FEF71A
:1056A000B2FA6220FEF7AFFA0020FEF7ACFA7820DB
:1056B000FEF7A9FA0020FEF7A6FA8820FEF7A3FA63
:1056C0000020FEF7A0FA9720FEF79DFA0020FEF7D3
:1056D0009AFAA620FEF797FA0020FEF794FAB72070
:1056E000FEF791FA0020FEF78EFAC220FEF78BFA41
:1056F0000020FEF788FAC720FEF785FA0020FEF7A3
:1057000082FAD120FEF77FFA0020FEF77CFAD5203E
:10571000FEF779FA0020FEF776FADD20FEF773FA3D
:105720000020FEF770FAF320FEF76DFA0020FEF776
:105730006AFAE420FEF75EFA0120FEF764FA002020
:10574000FEF761FA0120FEF75EFA0020FEF75BFA31
:105750000220FEF758FA0020FEF755FA2A20FEF73D
:1057600052FA0020FEF74FFA3C20FEF74CFA0020D8
:10577000FEF749FA4B20FEF746FA0020FEF743FAFF
:105780005D20FEF740FA0020FEF73DFA7420FEF798
:105790003AFA0020FEF737FA8420FEF734FA0020A8
:1057A000FEF731FA9320FEF72EFA0020FEF72BFACF
:1057B000A220FEF728FA0020FEF725FAB320FEF714
:1057C00022FA0020FEF71FFABE20FEF71CFA002086
:1057D000FEF719FAC420FEF716FA0020FEF713FAB6
:1057E000CD20FEF710FA0020FEF70DFAD320FEF7C9
:1057F0000AFA0020FEF707FADD20FEF704FA00207F
:10580000FEF701FAF320FEF7FEF90020FEF7FBF9A0
:10581000E520FEF7EFF90020FEF7F5F90020FEF78E
:10582000F2F90020FEF7EFF90020FEF7ECF9022074
:10583000FEF7E9F90020FEF7E6F92920FEF7E3F983
:105840000020FEF7E0F93C20FEF7DDF90020FEF72E
:10585000DAF94B20FEF7D7F90020FEF7D4F95D20E6
:10586000FEF7D1F90020FEF7CEF97420FEF7CBF950
:105870000020FEF7C8F98420FEF7C5F90020FEF7E6
:10588000C2F99320FEF7BFF90020FEF7BCF9A22071
:10589000FEF7B9F90020FEF7B6F9B320FEF7B3F929
:1058A0000020FEF7B0F9BE20FEF7ADF90020FEF7AC
:1058B000AAF9C420FEF7A7F90020FEF7A4F9CD202D
:1058C000FEF7A1F90020FEF79EF9D320FEF79BF921
:1058D0000020FEF798F9DC20FEF795F90020FEF78E
:1058E00092F9F320FEF78FF90020FEF78CF9E620FD
:1058F000FEF780F91120FEF786F90020FEF783F904
:105900003420FEF780F90020FEF77DF95620FEF7DF
:105910007AF90020FEF777F97620FEF774F9002077
:10592000FEF771F97720FEF76EF90020FEF76BF9AC
:105930006620FEF768F90020FEF765F98820FEF77B
:1059400062F90020FEF75FF99920FEF75CF900206C
:10595000FEF759F9BB20FEF756F90020FEF753F980
:105960009920FEF750F90020FEF74DF96620FEF76A
:105970004AF90020FEF747F95520FEF744F90020C8
:10598000FEF741F95520FEF73EF90020FEF73BF9FE
:105990004520FEF738F90020FEF735F94320FEF7E1
:1059A00032F90020FEF72FF94420FEF72CF90020F1
:1059B000FEF729F9E720FEF71DF93220FEF723F95B
:1059C0000020FEF720F95520FEF71DF90020FEF714
:1059D0001AF97620FEF717F90020FEF714F9662071
:1059E000FEF711F90020FEF70EF96720FEF70BF91C
:1059F0000020FEF708F96720FEF705F90020FEF702
:105A000002F98720FEF7FFF80020FEF7FCF8992046
:105A1000FEF7F9F80020FEF7F6F8BB20FEF7F3F8E2
:105A20000020FEF7F0F89920FEF7EDF80020FEF7D1
:105A3000EAF87720FEF7E7F80020FEF7E4F84420C4
:105A4000FEF7E1F80020FEF7DEF85620FEF7DBF85F
:105A50000020FEF7D8F82320FEF7D5F80020FEF747
:105A6000D2F83320FEF7CFF80020FEF7CCF845201F
:105A7000FEF7C9F80020FEF7C6F8E820FEF7BAF8EE
:105A80000020FEF7C0F80020FEF7BDF89920FEF7D1
:105A9000BAF80020FEF7B7F88720FEF7B4F8002028
:105AA000FEF7B1F88820FEF7AEF80020FEF7ABF85D
:105AB0007720FEF7A8F80020FEF7A5F86620FEF78D
:105AC000A2F80020FEF79FF88820FEF79CF800203F
:105AD000FEF799F8AA20FEF796F80020FEF793F853
